{
  "contractName": "PoolFactory",
  "abi": [
    {
      "anonymous": false,
      "inputs": [
        {
          "indexed": true,
          "internalType": "address",
          "name": "pool",
          "type": "address"
        },
        {
          "indexed": true,
          "internalType": "address",
          "name": "creator",
          "type": "address"
        },
        {
          "indexed": false,
          "internalType": "address",
          "name": "token",
          "type": "address"
        },
        {
          "indexed": false,
          "internalType": "uint256",
          "name": "size",
          "type": "uint256"
        },
        {
          "indexed": false,
          "internalType": "uint256",
          "name": "contribution",
          "type": "uint256"
        },
        {
          "indexed": false,
          "internalType": "uint256",
          "name": "roundDuration",
          "type": "uint256"
        },
        {
          "indexed": false,
          "internalType": "uint256",
          "name": "startTime",
          "type": "uint256"
        }
      ],
      "name": "PoolCreated",
      "type": "event"
    },
    {
      "inputs": [
        {
          "internalType": "uint256",
          "name": "",
          "type": "uint256"
        }
      ],
      "name": "allPools",
      "outputs": [
        {
          "internalType": "address",
          "name": "",
          "type": "address"
        }
      ],
      "stateMutability": "view",
      "type": "function"
    },
    {
      "inputs": [
        {
          "internalType": "address",
          "name": "token",
          "type": "address"
        },
        {
          "internalType": "uint256",
          "name": "size",
          "type": "uint256"
        },
        {
          "internalType": "uint256",
          "name": "contribution",
          "type": "uint256"
        },
        {
          "internalType": "uint256",
          "name": "roundDuration",
          "type": "uint256"
        },
        {
          "internalType": "uint256",
          "name": "startTime",
          "type": "uint256"
        },
        {
          "internalType": "address[]",
          "name": "payoutOrder",
          "type": "address[]"
        }
      ],
      "name": "createPool",
      "outputs": [
        {
          "internalType": "address",
          "name": "pool",
          "type": "address"
        }
      ],
      "stateMutability": "nonpayable",
      "type": "function"
    },
    {
      "inputs": [],
      "name": "getPools",
      "outputs": [
        {
          "internalType": "address[]",
          "name": "",
          "type": "address[]"
        }
      ],
      "stateMutability": "view",
      "type": "function"
    }
  ],
  "bytecode": "0x608060405234801561001057600080fd5b50612cc8806100206000396000f3fe60806040523480156200001157600080fd5b5060043610620000465760003560e01c806341d1de97146200004b578063565f0cc51462000081578063673a2a1f14620000b7575b600080fd5b620000696004803603810190620000639190620004b2565b620000d9565b60405162000078919062000682565b60405180910390f35b6200009f6004803603810190620000999190620003fd565b62000119565b604051620000ae919062000682565b60405180910390f35b620000c1620002e4565b604051620000d0919062000782565b60405180910390f35b60008181548110620000ea57600080fd5b906000526020600020016000915054906101000a900473ffffffffffffffffffffffffffffffffffffffff1681565b6000600287101580156200012e5750600c8711155b62000170576040517f08c379a00000000000000000000000000000000000000000000000000000000081526004016200016790620007a6565b60405180910390fd5b868383905014620001b8576040517f08c379a0000000000000000000000000000000000000000000000000000000008152600401620001af90620007c8565b60405180910390fd5b60003389898989898989604051620001d09062000374565b620001e39897969594939291906200069f565b604051809103906000f08015801562000200573d6000803e3d6000fd5b5090508091506000829080600181540180825580915050600190039060005260206000200160009091909190916101000a81548173ffffffffffffffffffffffffffffffffffffffff021916908373ffffffffffffffffffffffffffffffffffffffff1602179055503373ffffffffffffffffffffffffffffffffffffffff168273ffffffffffffffffffffffffffffffffffffffff167f59466b9f60e31316ed7f9fbdacb50d98dabe95ed69aa61e0a33281596507a2a58b8b8b8b8b604051620002d095949392919062000725565b60405180910390a350979650505050505050565b606060008054806020026020016040519081016040528092919081815260200182805480156200036a57602002820191906000526020600020905b8160009054906101000a900473ffffffffffffffffffffffffffffffffffffffff1673ffffffffffffffffffffffffffffffffffffffff16815260200190600101908083116200031f575b5050505050905090565b6123bc80620008d783390190565b6000813590506200039381620008a2565b92915050565b60008083601f840112620003ac57600080fd5b8235905067ffffffffffffffff811115620003c657600080fd5b602083019150836020820283011115620003df57600080fd5b9250929050565b600081359050620003f781620008bc565b92915050565b600080600080600080600060c0888a0312156200041957600080fd5b6000620004298a828b0162000382565b97505060206200043c8a828b01620003e6565b96505060406200044f8a828b01620003e6565b9550506060620004628a828b01620003e6565b9450506080620004758a828b01620003e6565b93505060a088013567ffffffffffffffff8111156200049357600080fd5b620004a18a828b0162000399565b925092505092959891949750929550565b600060208284031215620004c557600080fd5b6000620004d584828501620003e6565b91505092915050565b6000620004ec8383620004f8565b60208301905092915050565b620005038162000864565b82525050565b620005148162000864565b82525050565b600062000528838562000829565b93506200053582620007ea565b8060005b8581101562000576576200054e82846200084b565b6200055a8882620004de565b975062000567836200080f565b92505060018101905062000539565b5085925050509392505050565b6000620005908262000804565b6200059c818562000829565b9350620005a983620007f4565b8060005b83811015620005e0578151620005c48882620004de565b9750620005d1836200081c565b925050600181019050620005ad565b5085935050505092915050565b6000620005fc6011836200083a565b91507f53697a65206f7574206f662072616e67650000000000000000000000000000006000830152602082019050919050565b60006200063e6013836200083a565b91507f4f726465722073697a65206d69736d61746368000000000000000000000000006000830152602082019050919050565b6200067c8162000898565b82525050565b600060208201905062000699600083018462000509565b92915050565b600060e082019050620006b6600083018b62000509565b620006c5602083018a62000509565b620006d4604083018962000671565b620006e3606083018862000671565b620006f2608083018762000671565b6200070160a083018662000671565b81810360c0830152620007168184866200051a565b90509998505050505050505050565b600060a0820190506200073c600083018862000509565b6200074b602083018762000671565b6200075a604083018662000671565b62000769606083018562000671565b62000778608083018462000671565b9695505050505050565b600060208201905081810360008301526200079e818462000583565b905092915050565b60006020820190508181036000830152620007c181620005ed565b9050919050565b60006020820190508181036000830152620007e3816200062f565b9050919050565b6000819050919050565b6000819050602082019050919050565b600081519050919050565b6000602082019050919050565b6000602082019050919050565b600082825260208201905092915050565b600082825260208201905092915050565b60006200085c602084018462000382565b905092915050565b6000620008718262000878565b9050919050565b600073ffffffffffffffffffffffffffffffffffffffff82169050919050565b6000819050919050565b620008ad8162000864565b8114620008b957600080fd5b50565b620008c78162000898565b8114620008d357600080fd5b5056fe6101406040523480156200001257600080fd5b50604051620023bc380380620023bc8339818101604052810190620000389190620006b1565b600073ffffffffffffffffffffffffffffffffffffffff168773ffffffffffffffffffffffffffffffffffffffff161415620000ab576040517f08c379a0000000000000000000000000000000000000000000000000000000008152600401620000a29062000925565b60405180910390fd5b600073ffffffffffffffffffffffffffffffffffffffff168673ffffffffffffffffffffffffffffffffffffffff1614156200011e576040517f08c379a0000000000000000000000000000000000000000000000000000000008152600401620001159062000947565b60405180910390fd5b60028510158015620001315750600c8511155b62000173576040517f08c379a00000000000000000000000000000000000000000000000000000000081526004016200016a906200098b565b60405180910390fd5b84815114620001b9576040517f08c379a0000000000000000000000000000000000000000000000000000000008152600401620001b09062000903565b60405180910390fd5b8673ffffffffffffffffffffffffffffffffffffffff1660808173ffffffffffffffffffffffffffffffffffffffff1660601b815250508573ffffffffffffffffffffffffffffffffffffffff1660a08173ffffffffffffffffffffffffffffffffffffffff1660601b815250508460c081815250508360e0818152505082610100818152505081610120818152505080600090805190602001906200026192919062000533565b5060005b858110156200052557600073ffffffffffffffffffffffffffffffffffffffff16828281518110620002c0577f4e487b7100000000000000000000000000000000000000000000000000000000600052603260045260246000fd5b602002602001015173ffffffffffffffffffffffffffffffffffffffff16141562000322576040517f08c379a0000000000000000000000000000000000000000000000000000000008152600401620003199062000969565b60405180910390fd5b6001600083838151811062000360577f4e487b7100000000000000000000000000000000000000000000000000000000600052603260045260246000fd5b602002602001015173ffffffffffffffffffffffffffffffffffffffff1673ffffffffffffffffffffffffffffffffffffffff16815260200190815260200160002060009054906101000a900460ff1615620003f3576040517f08c379a0000000000000000000000000000000000000000000000000000000008152600401620003ea90620009ad565b60405180910390fd5b600180600084848151811062000432577f4e487b7100000000000000000000000000000000000000000000000000000000600052603260045260246000fd5b602002602001015173ffffffffffffffffffffffffffffffffffffffff1673ffffffffffffffffffffffffffffffffffffffff16815260200190815260200160002060006101000a81548160ff021916908315150217905550818181518110620004c5577f4e487b7100000000000000000000000000000000000000000000000000000000600052603260045260246000fd5b602002602001015173ffffffffffffffffffffffffffffffffffffffff167f0abf3b3f643594d958297062a019458e27d7766629590ac621aa1000fa1298ab60405160405180910390a280806200051c9062000a81565b91505062000265565b505050505050505062000b61565b828054828255906000526020600020908101928215620005af579160200282015b82811115620005ae5782518260006101000a81548173ffffffffffffffffffffffffffffffffffffffff021916908373ffffffffffffffffffffffffffffffffffffffff1602179055509160200191906001019062000554565b5b509050620005be9190620005c2565b5090565b5b80821115620005dd576000816000905550600101620005c3565b5090565b6000620005f8620005f28462000a03565b620009cf565b905080838252602082019050828560208602820111156200061857600080fd5b60005b858110156200064c578162000631888262000656565b8452602084019350602083019250506001810190506200061b565b5050509392505050565b600081519050620006678162000b2d565b92915050565b600082601f8301126200067f57600080fd5b815162000691848260208601620005e1565b91505092915050565b600081519050620006ab8162000b47565b92915050565b600080600080600080600060e0888a031215620006cd57600080fd5b6000620006dd8a828b0162000656565b9750506020620006f08a828b0162000656565b9650506040620007038a828b016200069a565b9550506060620007168a828b016200069a565b9450506080620007298a828b016200069a565b93505060a06200073c8a828b016200069a565b92505060c088015167ffffffffffffffff8111156200075a57600080fd5b620007688a828b016200066d565b91505092959891949750929550565b600062000786600e8362000a32565b91507f6f72646572206d69736d617463680000000000000000000000000000000000006000830152602082019050919050565b6000620007c8600b8362000a32565b91507f6261642063726561746f720000000000000000000000000000000000000000006000830152602082019050919050565b60006200080a60098362000a32565b91507f62616420746f6b656e00000000000000000000000000000000000000000000006000830152602082019050919050565b60006200084c600b8362000a32565b91507f7a65726f206d656d6265720000000000000000000000000000000000000000006000830152602082019050919050565b60006200088e600a8362000a32565b91507f73697a652072616e6765000000000000000000000000000000000000000000006000830152602082019050919050565b6000620008d0600a8362000a32565b91507f647570206d656d626572000000000000000000000000000000000000000000006000830152602082019050919050565b600060208201905081810360008301526200091e8162000777565b9050919050565b600060208201905081810360008301526200094081620007b9565b9050919050565b600060208201905081810360008301526200096281620007fb565b9050919050565b6000602082019050818103600083015262000984816200083d565b9050919050565b60006020820190508181036000830152620009a6816200087f565b9050919050565b60006020820190508181036000830152620009c881620008c1565b9050919050565b6000604051905081810181811067ffffffffffffffff82111715620009f957620009f862000afe565b5b8060405250919050565b600067ffffffffffffffff82111562000a215762000a2062000afe565b5b602082029050602081019050919050565b600082825260208201905092915050565b600062000a508262000a57565b9050919050565b600073ffffffffffffffffffffffffffffffffffffffff82169050919050565b6000819050919050565b600062000a8e8262000a77565b91507fffffffffffffffffffffffffffffffffffffffffffffffffffffffffffffffff82141562000ac45762000ac362000acf565b5b600182019050919050565b7f4e487b7100000000000000000000000000000000000000000000000000000000600052601160045260246000fd5b7f4e487b7100000000000000000000000000000000000000000000000000000000600052604160045260246000fd5b62000b388162000a43565b811462000b4457600080fd5b50565b62000b528162000a77565b811462000b5e57600080fd5b50565b60805160601c60a05160601c60c05160e051610100516101205161178e62000c2e6000396000818161076e0152818161097901528181610a6f0152610aa601526000818161095601528181610a350152610f630152600081816104ae015281816108250152818161093301528181610d4101528181610e7c0152610f0301526000818161048d0152818161084c01528181610910015281816109a30152610ad0015260008181610583015281816108ed01528181610d030152610f8701526000610372015261178e6000f3fe608060405234801561001057600080fd5b50600436106101165760003560e01c806378e97925116100a2578063b5b96ae011610071578063b5b96ae0146102ca578063d7bb99ba146102fa578063efa51cda14610304578063f7cb789a14610334578063fc0c546a1461035257610116565b806378e97925146102405780638a19c8bc1461025e578063949d225d1461027c578063a230c5241461029a57610116565b80632032677f116100e95780632032677f146101a357806343662f4e146101c157806350520b1f146101df578063532ccada146101fd5780635a2f3d091461021b57610116565b806302d05d3f1461011b57806305a95f04146101395780630b529a171461014357806311073bec14610173575b600080fd5b610123610370565b6040516101309190611311565b60405180910390f35b610141610394565b005b61015d6004803603810190610158919061103a565b610713565b60405161016a9190611311565b60405180910390f35b61018d6004803603810190610188919061103a565b610752565b60405161019a9190611527565b60405180910390f35b6101ab61076a565b6040516101b8919061142c565b60405180910390f35b6101c9610795565b6040516101d6919061140a565b60405180910390f35b6101e7610823565b6040516101f49190611527565b60405180910390f35b610205610847565b6040516102129190611311565b60405180910390f35b6102236108df565b60405161023798979695949392919061138c565b60405180910390f35b610248610aa4565b6040516102559190611527565b60405180910390f35b610266610ac8565b6040516102739190611527565b60405180910390f35b610284610ace565b6040516102919190611527565b60405180910390f35b6102b460048036038101906102af9190610fe8565b610af2565b6040516102c1919061142c565b60405180910390f35b6102e460048036038101906102df9190611063565b610b12565b6040516102f1919061142c565b60405180910390f35b610302610b41565b005b61031e6004803603810190610319919061103a565b610f41565b60405161032b919061142c565b60405180910390f35b61033c610f61565b6040516103499190611527565b60405180910390f35b61035a610f85565b6040516103679190611311565b60405180910390f35b7f000000000000000000000000000000000000000000000000000000000000000081565b6000600654146103d9576040517f08c379a00000000000000000000000000000000000000000000000000000000081526004016103d090611467565b60405180910390fd5b60016006819055506103e961076a565b610428576040517f08c379a000000000000000000000000000000000000000000000000000000000815260040161041f90611507565b60405180910390fd5b60056000600254815260200190815260200160002060009054906101000a900460ff161561048b576040517f08c379a000000000000000000000000000000000000000000000000000000000815260040161048290611447565b60405180910390fd5b7f00000000000000000000000000000000000000000000000000000000000000007f00000000000000000000000000000000000000000000000000000000000000006104d791906115e2565b600460006002548152602001908152602001600020541461052d576040517f08c379a0000000000000000000000000000000000000000000000000000000008152600401610524906114c7565b60405180910390fd5b6000610537610847565b90506000600460006002548152602001908152602001600020549050600160056000600254815260200190815260200160002060006101000a81548160ff0219169083151502179055507f000000000000000000000000000000000000000000000000000000000000000073ffffffffffffffffffffffffffffffffffffffff1663a9059cbb83836040518363ffffffff1660e01b81526004016105dc929190611363565b602060405180830381600087803b1580156105f657600080fd5b505af115801561060a573d6000803e3d6000fd5b505050506040513d601f19601f8201168201806040525081019061062e9190611011565b61066d576040517f08c379a000000000000000000000000000000000000000000000000000000000815260040161066490611487565b60405180910390fd5b8173ffffffffffffffffffffffffffffffffffffffff166002547f5f7341a552ae2d452b071917104c05fbac3663936a69be768a05c40605056e7d836040516106b69190611527565b60405180910390a36001600260008282546106d1919061158c565b925050819055506002547f023811fd72d20a3eb734785eed809172b5c9c24019d493039c70ef9c276d4d9760405160405180910390a250506000600681905550565b6000818154811061072357600080fd5b906000526020600020016000915054906101000a900473ffffffffffffffffffffffffffffffffffffffff1681565b60046020528060005260406000206000915090505481565b60007f0000000000000000000000000000000000000000000000000000000000000000421015905090565b6060600080548060200260200160405190810160405280929190818152602001828054801561081957602002820191906000526020600020905b8160009054906101000a900473ffffffffffffffffffffffffffffffffffffffff1673ffffffffffffffffffffffffffffffffffffffff16815260200190600101908083116107cf575b5050505050905090565b7f000000000000000000000000000000000000000000000000000000000000000081565b6000807f00000000000000000000000000000000000000000000000000000000000000006002546108789190611684565b815481106108af577f4e487b7100000000000000000000000000000000000000000000000000000000600052603260045260246000fd5b9060005260206000200160009054906101000a900473ffffffffffffffffffffffffffffffffffffffff16905090565b6000806000806000806000807f000000000000000000000000000000000000000000000000000000000000000097507f000000000000000000000000000000000000000000000000000000000000000096507f000000000000000000000000000000000000000000000000000000000000000095507f000000000000000000000000000000000000000000000000000000000000000094507f00000000000000000000000000000000000000000000000000000000000000009350600254925060007f00000000000000000000000000000000000000000000000000000000000000006002546109cf9190611684565b81548110610a06577f4e487b7100000000000000000000000000000000000000000000000000000000600052603260045260246000fd5b9060005260206000200160009054906101000a900473ffffffffffffffffffffffffffffffffffffffff1691507f00000000000000000000000000000000000000000000000000000000000000006001600254610a63919061158c565b610a6d91906115e2565b7f0000000000000000000000000000000000000000000000000000000000000000610a98919061158c565b90509091929394959697565b7f000000000000000000000000000000000000000000000000000000000000000081565b60025481565b7f000000000000000000000000000000000000000000000000000000000000000081565b60016020528060005260406000206000915054906101000a900460ff1681565b60036020528160005260406000206020528060005260406000206000915091509054906101000a900460ff1681565b600060065414610b86576040517f08c379a0000000000000000000000000000000000000000000000000000000008152600401610b7d90611467565b60405180910390fd5b6001600681905550610b9661076a565b610bd5576040517f08c379a0000000000000000000000000000000000000000000000000000000008152600401610bcc90611507565b60405180910390fd5b600160003373ffffffffffffffffffffffffffffffffffffffff1673ffffffffffffffffffffffffffffffffffffffff16815260200190815260200160002060009054906101000a900460ff16610c61576040517f08c379a0000000000000000000000000000000000000000000000000000000008152600401610c58906114a7565b60405180910390fd5b60036000600254815260200190815260200160002060003373ffffffffffffffffffffffffffffffffffffffff1673ffffffffffffffffffffffffffffffffffffffff16815260200190815260200160002060009054906101000a900460ff1615610d01576040517f08c379a0000000000000000000000000000000000000000000000000000000008152600401610cf890611447565b60405180910390fd5b7f000000000000000000000000000000000000000000000000000000000000000073ffffffffffffffffffffffffffffffffffffffff166323b872dd33307f00000000000000000000000000000000000000000000000000000000000000006040518463ffffffff1660e01b8152600401610d7e9392919061132c565b602060405180830381600087803b158015610d9857600080fd5b505af1158015610dac573d6000803e3d6000fd5b505050506040513d601f19601f82011682018060405250810190610dd09190611011565b610e0f576040517f08c379a0000000000000000000000000000000000000000000000000000000008152600401610e06906114e7565b60405180910390fd5b600160036000600254815260200190815260200160002060003373ffffffffffffffffffffffffffffffffffffffff1673ffffffffffffffffffffffffffffffffffffffff16815260200190815260200160002060006101000a81548160ff0219169083151502179055507f00000000000000000000000000000000000000000000000000000000000000006004600060025481526020019081526020016000206000828254610ebf919061158c565b925050819055506002543373ffffffffffffffffffffffffffffffffffffffff167f5f7675b09617d2c9fa4fd13058ee5877a9538f626b0308816736e83748a450407f0000000000000000000000000000000000000000000000000000000000000000604051610f2f9190611527565b60405180910390a36000600681905550565b60056020528060005260406000206000915054906101000a900460ff1681565b7f000000000000000000000000000000000000000000000000000000000000000081565b7f000000000000000000000000000000000000000000000000000000000000000081565b600081359050610fb881611713565b92915050565b600081519050610fcd8161172a565b92915050565b600081359050610fe281611741565b92915050565b600060208284031215610ffa57600080fd5b600061100884828501610fa9565b91505092915050565b60006020828403121561102357600080fd5b600061103184828501610fbe565b91505092915050565b60006020828403121561104c57600080fd5b600061105a84828501610fd3565b91505092915050565b6000806040838503121561107657600080fd5b600061108485828601610fd3565b925050602061109585828601610fa9565b9150509250929050565b60006110ab83836110b7565b60208301905092915050565b6110c08161163c565b82525050565b6110cf8161163c565b82525050565b60006110e082611552565b6110ea818561156a565b93506110f583611542565b8060005b8381101561112657815161110d888261109f565b97506111188361155d565b9250506001810190506110f9565b5085935050505092915050565b61113c8161164e565b82525050565b600061114f600c8361157b565b91507f616c7265616479207061696400000000000000000000000000000000000000006000830152602082019050919050565b600061118f600a8361157b565b91507f5265656e7472616e6379000000000000000000000000000000000000000000006000830152602082019050919050565b60006111cf600d8361157b565b91507f7061796f7574206661696c6564000000000000000000000000000000000000006000830152602082019050919050565b600061120f600a8361157b565b91507f6e6f74206d656d626572000000000000000000000000000000000000000000006000830152602082019050919050565b600061124f60108361157b565b91507f6e6f742066756c6c792066756e646564000000000000000000000000000000006000830152602082019050919050565b600061128f60138361157b565b91507f7472616e7366657246726f6d206661696c6564000000000000000000000000006000830152602082019050919050565b60006112cf600b8361157b565b91507f6e6f7420737461727465640000000000000000000000000000000000000000006000830152602082019050919050565b61130b8161167a565b82525050565b600060208201905061132660008301846110c6565b92915050565b600060608201905061134160008301866110c6565b61134e60208301856110c6565b61135b6040830184611302565b949350505050565b600060408201905061137860008301856110c6565b6113856020830184611302565b9392505050565b6000610100820190506113a2600083018b6110c6565b6113af602083018a611302565b6113bc6040830189611302565b6113c96060830188611302565b6113d66080830187611302565b6113e360a0830186611302565b6113f060c08301856110c6565b6113fd60e0830184611302565b9998505050505050505050565b6000602082019050818103600083015261142481846110d5565b905092915050565b60006020820190506114416000830184611133565b92915050565b6000602082019050818103600083015261146081611142565b9050919050565b6000602082019050818103600083015261148081611182565b9050919050565b600060208201905081810360008301526114a0816111c2565b9050919050565b600060208201905081810360008301526114c081611202565b9050919050565b600060208201905081810360008301526114e081611242565b9050919050565b6000602082019050818103600083015261150081611282565b9050919050565b60006020820190508181036000830152611520816112c2565b9050919050565b600060208201905061153c6000830184611302565b92915050565b6000819050602082019050919050565b600081519050919050565b6000602082019050919050565b600082825260208201905092915050565b600082825260208201905092915050565b60006115978261167a565b91506115a28361167a565b9250827fffffffffffffffffffffffffffffffffffffffffffffffffffffffffffffffff038211156115d7576115d66116b5565b5b828201905092915050565b60006115ed8261167a565b91506115f88361167a565b9250817fffffffffffffffffffffffffffffffffffffffffffffffffffffffffffffffff0483118215151615611631576116306116b5565b5b828202905092915050565b60006116478261165a565b9050919050565b60008115159050919050565b600073ffffffffffffffffffffffffffffffffffffffff82169050919050565b6000819050919050565b600061168f8261167a565b915061169a8361167a565b9250826116aa576116a96116e4565b5b828206905092915050565b7f4e487b7100000000000000000000000000000000000000000000000000000000600052601160045260246000fd5b7f4e487b7100000000000000000000000000000000000000000000000000000000600052601260045260246000fd5b61171c8161163c565b811461172757600080fd5b50565b6117338161164e565b811461173e57600080fd5b50565b61174a8161167a565b811461175557600080fd5b5056fea26469706673582212203e0644905e59bad4f1060d39b3140bdf395ee79c8018c104e92c1cb8abe9763b64736f6c63430008000033a26469706673582212200dbd4d3dfc9e65a7602b772cc82bc24ae94a82ba6a327dc4949d8d6ef50c8ff964736f6c63430008000033",
  "immutableReferences": {},
  "source": "// SPDX-License-Identifier: MIT\npragma solidity ^0.8.0;\n\nimport \"./RoscaPool.sol\";\n\ncontract PoolFactory {\n    event PoolCreated(address indexed pool, address indexed creator, address token, uint256 size, uint256 contribution, uint256 roundDuration, uint256 startTime);\n\n    address[] public allPools;\n\n    function createPool(\n        address token,\n        uint256 size,\n        uint256 contribution,\n        uint256 roundDuration,\n        uint256 startTime,\n        address[] calldata payoutOrder\n    ) external returns (address pool) {\n        require(size >= 2 && size <= 12, \"Size out of range\");\n        require(payoutOrder.length == size, \"Order size mismatch\");\n        RoscaPool newPool = new RoscaPool(msg.sender, token, size, contribution, roundDuration, startTime, payoutOrder);\n        pool = address(newPool);\n        allPools.push(pool);\n        emit PoolCreated(pool, msg.sender, token, size, contribution, roundDuration, startTime);\n    }\n\n    function getPools() external view returns (address[] memory) {\n        return allPools;\n    }\n}\n\n\n",
  "sourcePath": "/Users/micah/Documents/dapp/kumusha copy/src/contracts/PoolFactory.sol",
  "compiler": {
    "name": "solc",
    "version": "0.8.0+commit.c7dfd78e.Emscripten.clang"
  },
  "schemaVersion": "3.4.16",
  "updatedAt": "2025-08-09T12:50:09.255Z",
  "devdoc": {
    "kind": "dev",
    "methods": {},
    "version": 1
  },
  "userdoc": {
    "kind": "user",
    "methods": {},
    "version": 1
  }
}