{
  "contractName": "PoolFactoryPOL",
  "abi": [
    {
      "inputs": [
        {
          "internalType": "address",
          "name": "_treeContract",
          "type": "address"
        },
        {
          "internalType": "address",
          "name": "_polToken",
          "type": "address"
        }
      ],
      "stateMutability": "nonpayable",
      "type": "constructor"
    },
    {
      "anonymous": false,
      "inputs": [
        {
          "indexed": true,
          "internalType": "address",
          "name": "pool",
          "type": "address"
        },
        {
          "indexed": true,
          "internalType": "address",
          "name": "creator",
          "type": "address"
        },
        {
          "indexed": false,
          "internalType": "uint256",
          "name": "size",
          "type": "uint256"
        },
        {
          "indexed": false,
          "internalType": "uint256",
          "name": "contribution",
          "type": "uint256"
        },
        {
          "indexed": false,
          "internalType": "uint256",
          "name": "roundDuration",
          "type": "uint256"
        },
        {
          "indexed": false,
          "internalType": "uint256",
          "name": "startTime",
          "type": "uint256"
        }
      ],
      "name": "PoolCreated",
      "type": "event"
    },
    {
      "inputs": [
        {
          "internalType": "uint256",
          "name": "",
          "type": "uint256"
        }
      ],
      "name": "allPools",
      "outputs": [
        {
          "internalType": "address",
          "name": "",
          "type": "address"
        }
      ],
      "stateMutability": "view",
      "type": "function"
    },
    {
      "inputs": [],
      "name": "polToken",
      "outputs": [
        {
          "internalType": "address",
          "name": "",
          "type": "address"
        }
      ],
      "stateMutability": "view",
      "type": "function"
    },
    {
      "inputs": [],
      "name": "treeContract",
      "outputs": [
        {
          "internalType": "address",
          "name": "",
          "type": "address"
        }
      ],
      "stateMutability": "view",
      "type": "function"
    },
    {
      "inputs": [],
      "name": "treeCreator",
      "outputs": [
        {
          "internalType": "address",
          "name": "",
          "type": "address"
        }
      ],
      "stateMutability": "view",
      "type": "function"
    },
    {
      "inputs": [
        {
          "internalType": "uint256",
          "name": "size",
          "type": "uint256"
        },
        {
          "internalType": "uint256",
          "name": "contribution",
          "type": "uint256"
        },
        {
          "internalType": "uint256",
          "name": "roundDuration",
          "type": "uint256"
        },
        {
          "internalType": "uint256",
          "name": "startTime",
          "type": "uint256"
        },
        {
          "internalType": "address[]",
          "name": "payoutOrder",
          "type": "address[]"
        }
      ],
      "name": "createPool",
      "outputs": [
        {
          "internalType": "address",
          "name": "pool",
          "type": "address"
        }
      ],
      "stateMutability": "nonpayable",
      "type": "function"
    },
    {
      "inputs": [],
      "name": "getPools",
      "outputs": [
        {
          "internalType": "address[]",
          "name": "",
          "type": "address[]"
        }
      ],
      "stateMutability": "view",
      "type": "function"
    }
  ],
  "bytecode": "0x60e060405234801562000010575f80fd5b506040516200350c3803806200350c833981810160405281019062000036919062000290565b5f73ffffffffffffffffffffffffffffffffffffffff168273ffffffffffffffffffffffffffffffffffffffff1603620000a7576040517f08c379a00000000000000000000000000000000000000000000000000000000081526004016200009e9062000333565b60405180910390fd5b5f73ffffffffffffffffffffffffffffffffffffffff168173ffffffffffffffffffffffffffffffffffffffff160362000118576040517f08c379a00000000000000000000000000000000000000000000000000000000081526004016200010f90620003a1565b60405180910390fd5b8173ffffffffffffffffffffffffffffffffffffffff1660808173ffffffffffffffffffffffffffffffffffffffff16815250508173ffffffffffffffffffffffffffffffffffffffff1663fe6dcdba6040518163ffffffff1660e01b8152600401602060405180830381865afa15801562000196573d5f803e3d5ffd5b505050506040513d601f19601f82011682018060405250810190620001bc9190620003c1565b73ffffffffffffffffffffffffffffffffffffffff1660a08173ffffffffffffffffffffffffffffffffffffffff16815250508073ffffffffffffffffffffffffffffffffffffffff1660c08173ffffffffffffffffffffffffffffffffffffffff16815250505050620003f1565b5f80fd5b5f73ffffffffffffffffffffffffffffffffffffffff82169050919050565b5f6200025a826200022f565b9050919050565b6200026c816200024e565b811462000277575f80fd5b50565b5f815190506200028a8162000261565b92915050565b5f8060408385031215620002a957620002a86200022b565b5b5f620002b8858286016200027a565b9250506020620002cb858286016200027a565b9150509250929050565b5f82825260208201905092915050565b7f74726565206164647200000000000000000000000000000000000000000000005f82015250565b5f6200031b600983620002d5565b91506200032882620002e5565b602082019050919050565b5f6020820190508181035f8301526200034c816200030d565b9050919050565b7f706f6c20746f6b656e20616464720000000000000000000000000000000000005f82015250565b5f62000389600e83620002d5565b9150620003968262000353565b602082019050919050565b5f6020820190508181035f830152620003ba816200037b565b9050919050565b5f60208284031215620003d957620003d86200022b565b5b5f620003e8848285016200027a565b91505092915050565b60805160a05160c0516130db620004315f395f818161044e015261059001525f818161024d015261027301525f818161016201526102c501526130db5ff3fe608060405234801562000010575f80fd5b506004361062000068575f3560e01c806340cf1c95146200006c57806341d1de97146200008e578063673a2a1f14620000c45780636e4c887f14620000e6578063a89ae2ac1462000108578063b6658d07146200013e575b5f80fd5b6200007662000160565b60405162000085919062000603565b60405180910390f35b620000ac6004803603810190620000a691906200065e565b62000184565b604051620000bb919062000603565b60405180910390f35b620000ce620001bf565b604051620000dd919062000755565b60405180910390f35b620000f06200024b565b604051620000ff919062000603565b60405180910390f35b620001266004803603810190620001209190620007e1565b6200026f565b60405162000135919062000603565b60405180910390f35b620001486200058e565b60405162000157919062000603565b60405180910390f35b7f000000000000000000000000000000000000000000000000000000000000000081565b5f818154811062000193575f80fd5b905f5260205f20015f915054906101000a900473ffffffffffffffffffffffffffffffffffffffff1681565b60605f8054806020026020016040519081016040528092919081815260200182805480156200024157602002820191905f5260205f20905b815f9054906101000a900473ffffffffffffffffffffffffffffffffffffffff1673ffffffffffffffffffffffffffffffffffffffff1681526020019060010190808311620001f7575b5050505050905090565b7f000000000000000000000000000000000000000000000000000000000000000081565b5f807f000000000000000000000000000000000000000000000000000000000000000073ffffffffffffffffffffffffffffffffffffffff163373ffffffffffffffffffffffffffffffffffffffff161490505f7f000000000000000000000000000000000000000000000000000000000000000073ffffffffffffffffffffffffffffffffffffffff1663f8b9a886336040518263ffffffff1660e01b81526004016200031e919062000603565b602060405180830381865afa1580156200033a573d5f803e3d5ffd5b505050506040513d601f19601f82011682018060405250810190620003609190620008c1565b905081806200036c5750805b620003ae576040517f08c379a0000000000000000000000000000000000000000000000000000000008152600401620003a59062000975565b60405180910390fd5b60028910158015620003c15750600c8911155b62000403576040517f08c379a0000000000000000000000000000000000000000000000000000000008152600401620003fa90620009e3565b60405180910390fd5b8885859050146200044b576040517f08c379a0000000000000000000000000000000000000000000000000000000008152600401620004429062000a51565b60405180910390fd5b5f7f0000000000000000000000000000000000000000000000000000000000000000338b8b8b8b8b8b6040516200048290620005b2565b6200049598979695949392919062000b45565b604051809103905ff080158015620004af573d5f803e3d5ffd5b5090508093505f84908060018154018082558091505060019003905f5260205f20015f9091909190916101000a81548173ffffffffffffffffffffffffffffffffffffffff021916908373ffffffffffffffffffffffffffffffffffffffff1602179055503373ffffffffffffffffffffffffffffffffffffffff168473ffffffffffffffffffffffffffffffffffffffff167f3da36bae0e345f496aff0cfa4df201a3a21b5bc0f04efa5f1f55d27b51c5fa328c8c8c8c60405162000579949392919062000bc9565b60405180910390a35050509695505050505050565b7f000000000000000000000000000000000000000000000000000000000000000081565b6124918062000c1583390190565b5f73ffffffffffffffffffffffffffffffffffffffff82169050919050565b5f620005eb82620005c0565b9050919050565b620005fd81620005df565b82525050565b5f602082019050620006185f830184620005f2565b92915050565b5f80fd5b5f80fd5b5f819050919050565b6200063a8162000626565b811462000645575f80fd5b50565b5f8135905062000658816200062f565b92915050565b5f602082840312156200067657620006756200061e565b5b5f620006858482850162000648565b91505092915050565b5f81519050919050565b5f82825260208201905092915050565b5f819050602082019050919050565b620006c281620005df565b82525050565b5f620006d58383620006b7565b60208301905092915050565b5f602082019050919050565b5f620006f9826200068e565b62000705818562000698565b93506200071283620006a8565b805f5b83811015620007485781516200072c8882620006c8565b97506200073983620006e1565b92505060018101905062000715565b5085935050505092915050565b5f6020820190508181035f8301526200076f8184620006ed565b905092915050565b5f80fd5b5f80fd5b5f80fd5b5f8083601f8401126200079b576200079a62000777565b5b8235905067ffffffffffffffff811115620007bb57620007ba6200077b565b5b602083019150836020820283011115620007da57620007d96200077f565b5b9250929050565b5f805f805f8060a08789031215620007fe57620007fd6200061e565b5b5f6200080d89828a0162000648565b96505060206200082089828a0162000648565b95505060406200083389828a0162000648565b94505060606200084689828a0162000648565b935050608087013567ffffffffffffffff8111156200086a576200086962000622565b5b6200087889828a0162000783565b92509250509295509295509295565b5f8115159050919050565b6200089d8162000887565b8114620008a8575f80fd5b50565b5f81519050620008bb8162000892565b92915050565b5f60208284031215620008d957620008d86200061e565b5b5f620008e884828501620008ab565b91505092915050565b5f82825260208201905092915050565b7f6e65656420322d6c6576656c20646f776e6c696e65206f7220747265652063725f8201527f6561746f72000000000000000000000000000000000000000000000000000000602082015250565b5f6200095d602583620008f1565b91506200096a8262000901565b604082019050919050565b5f6020820190508181035f8301526200098e816200094f565b9050919050565b7f53697a65206f7574206f662072616e67650000000000000000000000000000005f82015250565b5f620009cb601183620008f1565b9150620009d88262000995565b602082019050919050565b5f6020820190508181035f830152620009fc81620009bd565b9050919050565b7f4f726465722073697a65206d69736d61746368000000000000000000000000005f82015250565b5f62000a39601383620008f1565b915062000a468262000a03565b602082019050919050565b5f6020820190508181035f83015262000a6a8162000a2b565b9050919050565b62000a7c8162000626565b82525050565b5f819050919050565b62000a9681620005df565b811462000aa1575f80fd5b50565b5f8135905062000ab48162000a8b565b92915050565b5f62000aca602084018462000aa4565b905092915050565b5f602082019050919050565b5f62000aeb838562000698565b935062000af88262000a82565b805f5b8581101562000b385762000b10828462000aba565b62000b1c8882620006c8565b975062000b298362000ad2565b92505060018101905062000afb565b5085925050509392505050565b5f60e08201905062000b5a5f83018b620005f2565b62000b69602083018a620005f2565b62000b78604083018962000a71565b62000b87606083018862000a71565b62000b96608083018762000a71565b62000ba560a083018662000a71565b81810360c083015262000bba81848662000ade565b90509998505050505050505050565b5f60808201905062000bde5f83018762000a71565b62000bed602083018662000a71565b62000bfc604083018562000a71565b62000c0b606083018462000a71565b9594505050505056fe61014060405234801562000011575f80fd5b506040516200249138038062002491833981810160405281019062000037919062000745565b5f73ffffffffffffffffffffffffffffffffffffffff168773ffffffffffffffffffffffffffffffffffffffff1603620000a8576040517f08c379a00000000000000000000000000000000000000000000000000000000081526004016200009f9062000870565b60405180910390fd5b5f73ffffffffffffffffffffffffffffffffffffffff168673ffffffffffffffffffffffffffffffffffffffff160362000119576040517f08c379a00000000000000000000000000000000000000000000000000000000081526004016200011090620008de565b60405180910390fd5b600285101580156200012c5750600c8511155b6200016e576040517f08c379a000000000000000000000000000000000000000000000000000000000815260040162000165906200094c565b60405180910390fd5b84815114620001b4576040517f08c379a0000000000000000000000000000000000000000000000000000000008152600401620001ab90620009ba565b60405180910390fd5b8673ffffffffffffffffffffffffffffffffffffffff1660808173ffffffffffffffffffffffffffffffffffffffff16815250508573ffffffffffffffffffffffffffffffffffffffff1660a08173ffffffffffffffffffffffffffffffffffffffff16815250508460c081815250508360e08181525050826101008181525050816101208181525050805f90805190602001906200025592919062000486565b505f5b8581101562000478575f73ffffffffffffffffffffffffffffffffffffffff168282815181106200028e576200028d620009da565b5b602002602001015173ffffffffffffffffffffffffffffffffffffffff1603620002ef576040517f08c379a0000000000000000000000000000000000000000000000000000000008152600401620002e69062000a55565b60405180910390fd5b60015f838381518110620003085762000307620009da565b5b602002602001015173ffffffffffffffffffffffffffffffffffffffff1673ffffffffffffffffffffffffffffffffffffffff1681526020019081526020015f205f9054906101000a900460ff161562000399576040517f08c379a0000000000000000000000000000000000000000000000000000000008152600401620003909062000ac3565b60405180910390fd5b6001805f848481518110620003b357620003b2620009da565b5b602002602001015173ffffffffffffffffffffffffffffffffffffffff1673ffffffffffffffffffffffffffffffffffffffff1681526020019081526020015f205f6101000a81548160ff02191690831515021790555081818151811062000420576200041f620009da565b5b602002602001015173ffffffffffffffffffffffffffffffffffffffff167f0abf3b3f643594d958297062a019458e27d7766629590ac621aa1000fa1298ab60405160405180910390a2808060010191505062000258565b505050505050505062000ae3565b828054828255905f5260205f20908101928215620004ff579160200282015b82811115620004fe578251825f6101000a81548173ffffffffffffffffffffffffffffffffffffffff021916908373ffffffffffffffffffffffffffffffffffffffff16021790555091602001919060010190620004a5565b5b5090506200050e919062000512565b5090565b5b808211156200052b575f815f90555060010162000513565b5090565b5f604051905090565b5f80fd5b5f80fd5b5f73ffffffffffffffffffffffffffffffffffffffff82169050919050565b5f6200056b8262000540565b9050919050565b6200057d816200055f565b811462000588575f80fd5b50565b5f815190506200059b8162000572565b92915050565b5f819050919050565b620005b581620005a1565b8114620005c0575f80fd5b50565b5f81519050620005d381620005aa565b92915050565b5f80fd5b5f601f19601f8301169050919050565b7f4e487b71000000000000000000000000000000000000000000000000000000005f52604160045260245ffd5b6200062582620005dd565b810181811067ffffffffffffffff82111715620006475762000646620005ed565b5b80604052505050565b5f6200065b6200052f565b90506200066982826200061a565b919050565b5f67ffffffffffffffff8211156200068b576200068a620005ed565b5b602082029050602081019050919050565b5f80fd5b5f620006b6620006b0846200066e565b62000650565b90508083825260208201905060208402830185811115620006dc57620006db6200069c565b5b835b81811015620007095780620006f488826200058b565b845260208401935050602081019050620006de565b5050509392505050565b5f82601f8301126200072a5762000729620005d9565b5b81516200073c848260208601620006a0565b91505092915050565b5f805f805f805f60e0888a03121562000763576200076262000538565b5b5f620007728a828b016200058b565b9750506020620007858a828b016200058b565b9650506040620007988a828b01620005c3565b9550506060620007ab8a828b01620005c3565b9450506080620007be8a828b01620005c3565b93505060a0620007d18a828b01620005c3565b92505060c088015167ffffffffffffffff811115620007f557620007f46200053c565b5b620008038a828b0162000713565b91505092959891949750929550565b5f82825260208201905092915050565b7f62616420706f6c20746f6b656e000000000000000000000000000000000000005f82015250565b5f62000858600d8362000812565b9150620008658262000822565b602082019050919050565b5f6020820190508181035f83015262000889816200084a565b9050919050565b7f6261642063726561746f720000000000000000000000000000000000000000005f82015250565b5f620008c6600b8362000812565b9150620008d38262000890565b602082019050919050565b5f6020820190508181035f830152620008f781620008b8565b9050919050565b7f73697a652072616e6765000000000000000000000000000000000000000000005f82015250565b5f62000934600a8362000812565b91506200094182620008fe565b602082019050919050565b5f6020820190508181035f830152620009658162000926565b9050919050565b7f6f72646572206d69736d617463680000000000000000000000000000000000005f82015250565b5f620009a2600e8362000812565b9150620009af826200096c565b602082019050919050565b5f6020820190508181035f830152620009d38162000994565b9050919050565b7f4e487b71000000000000000000000000000000000000000000000000000000005f52603260045260245ffd5b7f7a65726f206d656d6265720000000000000000000000000000000000000000005f82015250565b5f62000a3d600b8362000812565b915062000a4a8262000a07565b602082019050919050565b5f6020820190508181035f83015262000a6e8162000a2f565b9050919050565b7f647570206d656d626572000000000000000000000000000000000000000000005f82015250565b5f62000aab600a8362000812565b915062000ab88262000a75565b602082019050919050565b5f6020820190508181035f83015262000adc8162000a9d565b9050919050565b60805160a05160c05160e05161010051610120516118da62000bb75f395f81816106c60152818161087b01528181610947015261097d01525f81816108580152818161090d0152610f4001525f81816104bb015281816107790152818161083501528181610bf201528181610cc00152610d4401525f818161049a0152818161079f01528181610812015281816108a401526109a701525f818161038301528181610d830152610eb701525f818161058c01528181610a1201528181610c1301528181610e120152610ed901526118da5ff3fe608060405234801561000f575f80fd5b506004361061011f575f3560e01c806378e97925116100ab578063b6658d071161006f578063b6658d0714610301578063d7bb99ba1461031f578063db2e21bc14610329578063efa51cda14610333578063f7cb789a146103635761011f565b806378e97925146102475780638a19c8bc14610265578063949d225d14610283578063a230c524146102a1578063b5b96ae0146102d15761011f565b80632032677f116100f25780632032677f146101ab57806343662f4e146101c957806350520b1f146101e7578063532ccada146102055780635a2f3d09146102235761011f565b806302d05d3f1461012357806305a95f04146101415780630b529a171461014b57806311073bec1461017b575b5f80fd5b61012b610381565b604051610138919061113d565b60405180910390f35b6101496103a5565b005b6101656004803603810190610160919061118d565b610674565b604051610172919061113d565b60405180910390f35b6101956004803603810190610190919061118d565b6106ae565b6040516101a291906111c7565b60405180910390f35b6101b36106c3565b6040516101c091906111fa565b60405180910390f35b6101d16106ed565b6040516101de91906112ca565b60405180910390f35b6101ef610777565b6040516101fc91906111c7565b60405180910390f35b61020d61079b565b60405161021a919061113d565b60405180910390f35b61022b610809565b60405161023e97969594939291906112ea565b60405180910390f35b61024f61097b565b60405161025c91906111c7565b60405180910390f35b61026d61099f565b60405161027a91906111c7565b60405180910390f35b61028b6109a5565b60405161029891906111c7565b60405180910390f35b6102bb60048036038101906102b69190611381565b6109c9565b6040516102c891906111fa565b60405180910390f35b6102eb60048036038101906102e691906113ac565b6109e6565b6040516102f891906111fa565b60405180910390f35b610309610a10565b6040516103169190611445565b60405180910390f35b610327610a34565b005b610331610d81565b005b61034d6004803603810190610348919061118d565b610f21565b60405161035a91906111fa565b60405180910390f35b61036b610f3e565b60405161037891906111c7565b60405180910390f35b7f000000000000000000000000000000000000000000000000000000000000000081565b5f600654146103e9576040517f08c379a00000000000000000000000000000000000000000000000000000000081526004016103e0906114b8565b60405180910390fd5b60016006819055506103f96106c3565b610438576040517f08c379a000000000000000000000000000000000000000000000000000000000815260040161042f90611520565b60405180910390fd5b60055f60025481526020019081526020015f205f9054906101000a900460ff1615610498576040517f08c379a000000000000000000000000000000000000000000000000000000000815260040161048f90611588565b60405180910390fd5b7f00000000000000000000000000000000000000000000000000000000000000007f00000000000000000000000000000000000000000000000000000000000000006104e491906115d3565b60045f60025481526020019081526020015f205414610538576040517f08c379a000000000000000000000000000000000000000000000000000000000815260040161052f9061165e565b60405180910390fd5b5f61054161079b565b90505f60045f60025481526020019081526020015f20549050600160055f60025481526020019081526020015f205f6101000a81548160ff0219169083151502179055506105d082827f000000000000000000000000000000000000000000000000000000000000000073ffffffffffffffffffffffffffffffffffffffff16610f629092919063ffffffff16565b8173ffffffffffffffffffffffffffffffffffffffff166002547f5f7341a552ae2d452b071917104c05fbac3663936a69be768a05c40605056e7d8360405161061991906111c7565b60405180910390a3600160025f828254610633919061167c565b925050819055506002547f023811fd72d20a3eb734785eed809172b5c9c24019d493039c70ef9c276d4d9760405160405180910390a250505f600681905550565b5f8181548110610682575f80fd5b905f5260205f20015f915054906101000a900473ffffffffffffffffffffffffffffffffffffffff1681565b6004602052805f5260405f205f915090505481565b5f7f0000000000000000000000000000000000000000000000000000000000000000421015905090565b60605f80548060200260200160405190810160405280929190818152602001828054801561076d57602002820191905f5260205f20905b815f9054906101000a900473ffffffffffffffffffffffffffffffffffffffff1673ffffffffffffffffffffffffffffffffffffffff1681526020019060010190808311610724575b5050505050905090565b7f000000000000000000000000000000000000000000000000000000000000000081565b5f807f00000000000000000000000000000000000000000000000000000000000000006002546107cb91906116dc565b815481106107dc576107db61170c565b5b905f5260205f20015f9054906101000a900473ffffffffffffffffffffffffffffffffffffffff16905090565b5f805f805f805f7f000000000000000000000000000000000000000000000000000000000000000096507f000000000000000000000000000000000000000000000000000000000000000095507f000000000000000000000000000000000000000000000000000000000000000094507f0000000000000000000000000000000000000000000000000000000000000000935060025492505f7f00000000000000000000000000000000000000000000000000000000000000006002546108d091906116dc565b815481106108e1576108e061170c565b5b905f5260205f20015f9054906101000a900473ffffffffffffffffffffffffffffffffffffffff1691507f0000000000000000000000000000000000000000000000000000000000000000600160025461093b919061167c565b61094591906115d3565b7f0000000000000000000000000000000000000000000000000000000000000000610970919061167c565b905090919293949596565b7f000000000000000000000000000000000000000000000000000000000000000081565b60025481565b7f000000000000000000000000000000000000000000000000000000000000000081565b6001602052805f5260405f205f915054906101000a900460ff1681565b6003602052815f5260405f20602052805f5260405f205f915091509054906101000a900460ff1681565b7f000000000000000000000000000000000000000000000000000000000000000081565b5f60065414610a78576040517f08c379a0000000000000000000000000000000000000000000000000000000008152600401610a6f906114b8565b60405180910390fd5b6001600681905550610a886106c3565b610ac7576040517f08c379a0000000000000000000000000000000000000000000000000000000008152600401610abe90611520565b60405180910390fd5b60015f3373ffffffffffffffffffffffffffffffffffffffff1673ffffffffffffffffffffffffffffffffffffffff1681526020019081526020015f205f9054906101000a900460ff16610b50576040517f08c379a0000000000000000000000000000000000000000000000000000000008152600401610b4790611783565b60405180910390fd5b60035f60025481526020019081526020015f205f3373ffffffffffffffffffffffffffffffffffffffff1673ffffffffffffffffffffffffffffffffffffffff1681526020019081526020015f205f9054906101000a900460ff1615610beb576040517f08c379a0000000000000000000000000000000000000000000000000000000008152600401610be290611588565b60405180910390fd5b610c5833307f00000000000000000000000000000000000000000000000000000000000000007f000000000000000000000000000000000000000000000000000000000000000073ffffffffffffffffffffffffffffffffffffffff16610fe1909392919063ffffffff16565b600160035f60025481526020019081526020015f205f3373ffffffffffffffffffffffffffffffffffffffff1673ffffffffffffffffffffffffffffffffffffffff1681526020019081526020015f205f6101000a81548160ff0219169083151502179055507f000000000000000000000000000000000000000000000000000000000000000060045f60025481526020019081526020015f205f828254610d00919061167c565b925050819055506002543373ffffffffffffffffffffffffffffffffffffffff167f5f7675b09617d2c9fa4fd13058ee5877a9538f626b0308816736e83748a450407f0000000000000000000000000000000000000000000000000000000000000000604051610d7091906111c7565b60405180910390a35f600681905550565b7f000000000000000000000000000000000000000000000000000000000000000073ffffffffffffffffffffffffffffffffffffffff163373ffffffffffffffffffffffffffffffffffffffff1614610e0f576040517f08c379a0000000000000000000000000000000000000000000000000000000008152600401610e06906117eb565b60405180910390fd5b5f7f000000000000000000000000000000000000000000000000000000000000000073ffffffffffffffffffffffffffffffffffffffff166370a08231306040518263ffffffff1660e01b8152600401610e69919061113d565b602060405180830381865afa158015610e84573d5f803e3d5ffd5b505050506040513d601f19601f82011682018060405250810190610ea8919061181d565b90505f811115610f1e57610f1d7f0000000000000000000000000000000000000000000000000000000000000000827f000000000000000000000000000000000000000000000000000000000000000073ffffffffffffffffffffffffffffffffffffffff16610f629092919063ffffffff16565b5b50565b6005602052805f5260405f205f915054906101000a900460ff1681565b7f000000000000000000000000000000000000000000000000000000000000000081565b610fdc838473ffffffffffffffffffffffffffffffffffffffff1663a9059cbb8585604051602401610f95929190611848565b604051602081830303815290604052915060e01b6020820180517bffffffffffffffffffffffffffffffffffffffffffffffffffffffff8381831617835250505050611063565b505050565b61105d848573ffffffffffffffffffffffffffffffffffffffff166323b872dd8686866040516024016110169392919061186f565b604051602081830303815290604052915060e01b6020820180517bffffffffffffffffffffffffffffffffffffffffffffffffffffffff8381831617835250505050611063565b50505050565b5f8060205f8451602086015f885af180611082576040513d5f823e3d81fd5b3d92505f519150505f821461109b5760018114156110b6565b5f8473ffffffffffffffffffffffffffffffffffffffff163b145b156110f857836040517f5274afe70000000000000000000000000000000000000000000000000000000081526004016110ef919061113d565b60405180910390fd5b50505050565b5f73ffffffffffffffffffffffffffffffffffffffff82169050919050565b5f611127826110fe565b9050919050565b6111378161111d565b82525050565b5f6020820190506111505f83018461112e565b92915050565b5f80fd5b5f819050919050565b61116c8161115a565b8114611176575f80fd5b50565b5f8135905061118781611163565b92915050565b5f602082840312156111a2576111a1611156565b5b5f6111af84828501611179565b91505092915050565b6111c18161115a565b82525050565b5f6020820190506111da5f8301846111b8565b92915050565b5f8115159050919050565b6111f4816111e0565b82525050565b5f60208201905061120d5f8301846111eb565b92915050565b5f81519050919050565b5f82825260208201905092915050565b5f819050602082019050919050565b6112458161111d565b82525050565b5f611256838361123c565b60208301905092915050565b5f602082019050919050565b5f61127882611213565b611282818561121d565b935061128d8361122d565b805f5b838110156112bd5781516112a4888261124b565b97506112af83611262565b925050600181019050611290565b5085935050505092915050565b5f6020820190508181035f8301526112e2818461126e565b905092915050565b5f60e0820190506112fd5f83018a6111b8565b61130a60208301896111b8565b61131760408301886111b8565b61132460608301876111b8565b61133160808301866111b8565b61133e60a083018561112e565b61134b60c08301846111b8565b98975050505050505050565b6113608161111d565b811461136a575f80fd5b50565b5f8135905061137b81611357565b92915050565b5f6020828403121561139657611395611156565b5b5f6113a38482850161136d565b91505092915050565b5f80604083850312156113c2576113c1611156565b5b5f6113cf85828601611179565b92505060206113e08582860161136d565b9150509250929050565b5f819050919050565b5f61140d611408611403846110fe565b6113ea565b6110fe565b9050919050565b5f61141e826113f3565b9050919050565b5f61142f82611414565b9050919050565b61143f81611425565b82525050565b5f6020820190506114585f830184611436565b92915050565b5f82825260208201905092915050565b7f5265656e7472616e6379000000000000000000000000000000000000000000005f82015250565b5f6114a2600a8361145e565b91506114ad8261146e565b602082019050919050565b5f6020820190508181035f8301526114cf81611496565b9050919050565b7f6e6f7420737461727465640000000000000000000000000000000000000000005f82015250565b5f61150a600b8361145e565b9150611515826114d6565b602082019050919050565b5f6020820190508181035f830152611537816114fe565b9050919050565b7f616c7265616479207061696400000000000000000000000000000000000000005f82015250565b5f611572600c8361145e565b915061157d8261153e565b602082019050919050565b5f6020820190508181035f83015261159f81611566565b9050919050565b7f4e487b71000000000000000000000000000000000000000000000000000000005f52601160045260245ffd5b5f6115dd8261115a565b91506115e88361115a565b92508282026115f68161115a565b9150828204841483151761160d5761160c6115a6565b5b5092915050565b7f6e6f742066756c6c792066756e646564000000000000000000000000000000005f82015250565b5f61164860108361145e565b915061165382611614565b602082019050919050565b5f6020820190508181035f8301526116758161163c565b9050919050565b5f6116868261115a565b91506116918361115a565b92508282019050808211156116a9576116a86115a6565b5b92915050565b7f4e487b71000000000000000000000000000000000000000000000000000000005f52601260045260245ffd5b5f6116e68261115a565b91506116f18361115a565b925082611701576117006116af565b5b828206905092915050565b7f4e487b71000000000000000000000000000000000000000000000000000000005f52603260045260245ffd5b7f6e6f74206d656d626572000000000000000000000000000000000000000000005f82015250565b5f61176d600a8361145e565b915061177882611739565b602082019050919050565b5f6020820190508181035f83015261179a81611761565b9050919050565b7f6f6e6c792063726561746f7200000000000000000000000000000000000000005f82015250565b5f6117d5600c8361145e565b91506117e0826117a1565b602082019050919050565b5f6020820190508181035f830152611802816117c9565b9050919050565b5f8151905061181781611163565b92915050565b5f6020828403121561183257611831611156565b5b5f61183f84828501611809565b91505092915050565b5f60408201905061185b5f83018561112e565b61186860208301846111b8565b9392505050565b5f6060820190506118825f83018661112e565b61188f602083018561112e565b61189c60408301846111b8565b94935050505056fea264697066735822122005bbbdcba75182650373173704928f8eb345e51514409c25edbe95375dd672b364736f6c63430008160033a264697066735822122057ae39f2aabb4cb5053820af33152c26b0a0c1f70ab1edaafdd403f1e81ee5b664736f6c63430008160033",
  "immutableReferences": {
    "1591": [
      {
        "length": 32,
        "start": 354
      },
      {
        "length": 32,
        "start": 709
      }
    ],
    "1593": [
      {
        "length": 32,
        "start": 589
      },
      {
        "length": 32,
        "start": 627
      }
    ],
    "1595": [
      {
        "length": 32,
        "start": 1102
      },
      {
        "length": 32,
        "start": 1424
      }
    ]
  },
  "source": "// SPDX-License-Identifier: MIT\npragma solidity ^0.8.0;\n\nimport \"./RoscaPoolPOL.sol\";\nimport \"./Tree.sol\";\n\ncontract PoolFactoryPOL {\n    address public immutable treeContract;\n    address public immutable treeCreator;\n    address public immutable polToken;\n    \n    event PoolCreated(address indexed pool, address indexed creator, uint256 size, uint256 contribution, uint256 roundDuration, uint256 startTime);\n\n    address[] public allPools;\n\n    constructor(address _treeContract, address _polToken) {\n        require(_treeContract != address(0), \"tree addr\");\n        require(_polToken != address(0), \"pol token addr\");\n        treeContract = _treeContract;\n        treeCreator = Tree(_treeContract).top();\n        polToken = _polToken;\n    }\n\n    modifier onlyEligibleCreator() {\n        // Eligible if Tree creator OR member with at least two-level downline\n        bool isCreator = (msg.sender == treeCreator);\n        bool hasDepth = Tree(treeContract).hasTwoLevelDownline(msg.sender);\n        require(isCreator || hasDepth, \"need 2-level downline or tree creator\");\n        _;\n    }\n\n    function createPool(\n        uint256 size,\n        uint256 contribution,\n        uint256 roundDuration,\n        uint256 startTime,\n        address[] calldata payoutOrder\n    ) external onlyEligibleCreator returns (address pool) {\n        require(size >= 2 && size <= 12, \"Size out of range\");\n        require(payoutOrder.length == size, \"Order size mismatch\");\n        RoscaPoolPOL newPool = new RoscaPoolPOL(polToken, msg.sender, size, contribution, roundDuration, startTime, payoutOrder);\n        pool = address(newPool);\n        allPools.push(pool);\n        emit PoolCreated(pool, msg.sender, size, contribution, roundDuration, startTime);\n    }\n\n    function getPools() external view returns (address[] memory) {\n        return allPools;\n    }\n}\n",
  "sourcePath": "/Users/micah/Documents/dapp/kumusha copy/src/contracts/PoolFactoryPOL.sol",
  "compiler": {
    "name": "solc",
    "version": "0.8.22+commit.4fc1097e.Emscripten.clang"
  },
  "schemaVersion": "3.4.4",
  "updatedAt": "2025-08-16T15:23:18.437Z",
  "networkType": "ethereum",
  "devdoc": {
    "kind": "dev",
    "methods": {},
    "version": 1
  },
  "userdoc": {
    "kind": "user",
    "methods": {},
    "version": 1
  }
}