{
  "contractName": "PoolFactory",
  "abi": [
    {
      "inputs": [
        {
          "internalType": "address",
          "name": "_treeContract",
          "type": "address"
        }
      ],
      "stateMutability": "nonpayable",
      "type": "constructor"
    },
    {
      "anonymous": false,
      "inputs": [
        {
          "indexed": true,
          "internalType": "address",
          "name": "pool",
          "type": "address"
        },
        {
          "indexed": true,
          "internalType": "address",
          "name": "creator",
          "type": "address"
        },
        {
          "indexed": false,
          "internalType": "uint256",
          "name": "size",
          "type": "uint256"
        },
        {
          "indexed": false,
          "internalType": "uint256",
          "name": "contribution",
          "type": "uint256"
        },
        {
          "indexed": false,
          "internalType": "uint256",
          "name": "roundDuration",
          "type": "uint256"
        },
        {
          "indexed": false,
          "internalType": "uint256",
          "name": "startTime",
          "type": "uint256"
        }
      ],
      "name": "PoolCreated",
      "type": "event"
    },
    {
      "inputs": [
        {
          "internalType": "uint256",
          "name": "",
          "type": "uint256"
        }
      ],
      "name": "allPools",
      "outputs": [
        {
          "internalType": "address",
          "name": "",
          "type": "address"
        }
      ],
      "stateMutability": "view",
      "type": "function",
      "constant": true
    },
    {
      "inputs": [],
      "name": "treeContract",
      "outputs": [
        {
          "internalType": "address",
          "name": "",
          "type": "address"
        }
      ],
      "stateMutability": "view",
      "type": "function",
      "constant": true
    },
    {
      "inputs": [],
      "name": "treeCreator",
      "outputs": [
        {
          "internalType": "address",
          "name": "",
          "type": "address"
        }
      ],
      "stateMutability": "view",
      "type": "function",
      "constant": true
    },
    {
      "inputs": [
        {
          "internalType": "uint256",
          "name": "size",
          "type": "uint256"
        },
        {
          "internalType": "uint256",
          "name": "contribution",
          "type": "uint256"
        },
        {
          "internalType": "uint256",
          "name": "roundDuration",
          "type": "uint256"
        },
        {
          "internalType": "uint256",
          "name": "startTime",
          "type": "uint256"
        },
        {
          "internalType": "address[]",
          "name": "payoutOrder",
          "type": "address[]"
        }
      ],
      "name": "createPool",
      "outputs": [
        {
          "internalType": "address",
          "name": "pool",
          "type": "address"
        }
      ],
      "stateMutability": "nonpayable",
      "type": "function"
    },
    {
      "inputs": [],
      "name": "getPools",
      "outputs": [
        {
          "internalType": "address[]",
          "name": "",
          "type": "address[]"
        }
      ],
      "stateMutability": "view",
      "type": "function",
      "constant": true
    }
  ],
  "bytecode": "0x60c06040523480156200001157600080fd5b5060405162002ff238038062002ff28339818101604052810190620000379190620001b7565b600073ffffffffffffffffffffffffffffffffffffffff168173ffffffffffffffffffffffffffffffffffffffff161415620000aa576040517f08c379a0000000000000000000000000000000000000000000000000000000008152600401620000a19062000225565b60405180910390fd5b8073ffffffffffffffffffffffffffffffffffffffff1660808173ffffffffffffffffffffffffffffffffffffffff1660601b815250508073ffffffffffffffffffffffffffffffffffffffff1663fe6dcdba6040518163ffffffff1660e01b815260040160206040518083038186803b1580156200012857600080fd5b505afa1580156200013d573d6000803e3d6000fd5b505050506040513d601f19601f82011682018060405250810190620001639190620001b7565b73ffffffffffffffffffffffffffffffffffffffff1660a08173ffffffffffffffffffffffffffffffffffffffff1660601b8152505050620002a6565b600081519050620001b1816200028c565b92915050565b600060208284031215620001ca57600080fd5b6000620001da84828501620001a0565b91505092915050565b6000620001f260098362000247565b91507f74726565206164647200000000000000000000000000000000000000000000006000830152602082019050919050565b600060208201905081810360008301526200024081620001e3565b9050919050565b600082825260208201905092915050565b600062000265826200026c565b9050919050565b600073ffffffffffffffffffffffffffffffffffffffff82169050919050565b620002978162000258565b8114620002a357600080fd5b50565b60805160601c60a05160601c612d12620002e06000396000818161022b015261025201526000818161013701526102a50152612d126000f3fe60806040523480156200001157600080fd5b50600436106200005e5760003560e01c806340cf1c95146200006357806341d1de971462000085578063673a2a1f14620000bb5780636e4c887f14620000dd578063a89ae2ac14620000ff575b600080fd5b6200006d62000135565b6040516200007c919062000908565b60405180910390f35b620000a360048036038101906200009d919062000632565b62000159565b604051620000b2919062000908565b60405180910390f35b620000c562000199565b604051620000d491906200099b565b60405180910390f35b620000e762000229565b604051620000f6919062000908565b60405180910390f35b6200011d60048036038101906200011791906200065e565b6200024d565b6040516200012c919062000908565b60405180910390f35b7f000000000000000000000000000000000000000000000000000000000000000081565b600081815481106200016a57600080fd5b906000526020600020016000915054906101000a900473ffffffffffffffffffffffffffffffffffffffff1681565b606060008054806020026020016040519081016040528092919081815260200182805480156200021f57602002820191906000526020600020905b8160009054906101000a900473ffffffffffffffffffffffffffffffffffffffff1673ffffffffffffffffffffffffffffffffffffffff1681526020019060010190808311620001d4575b5050505050905090565b7f000000000000000000000000000000000000000000000000000000000000000081565b6000807f000000000000000000000000000000000000000000000000000000000000000073ffffffffffffffffffffffffffffffffffffffff163373ffffffffffffffffffffffffffffffffffffffff1614905060007f000000000000000000000000000000000000000000000000000000000000000073ffffffffffffffffffffffffffffffffffffffff1663f8b9a886336040518263ffffffff1660e01b8152600401620002fe919062000908565b60206040518083038186803b1580156200031757600080fd5b505afa1580156200032c573d6000803e3d6000fd5b505050506040513d601f19601f8201168201806040525081019062000352919062000606565b905081806200035e5750805b620003a0576040517f08c379a0000000000000000000000000000000000000000000000000000000008152600401620003979062000a03565b60405180910390fd5b60028910158015620003b35750600c8911155b620003f5576040517f08c379a0000000000000000000000000000000000000000000000000000000008152600401620003ec90620009bf565b60405180910390fd5b8885859050146200043d576040517f08c379a00000000000000000000000000000000000000000000000000000000081526004016200043490620009e1565b60405180910390fd5b6000338a8a8a8a8a8a604051620004549062000566565b62000466979695949392919062000925565b604051809103906000f08015801562000483573d6000803e3d6000fd5b5090508093506000849080600181540180825580915050600190039060005260206000200160009091909190916101000a81548173ffffffffffffffffffffffffffffffffffffffff021916908373ffffffffffffffffffffffffffffffffffffffff1602179055503373ffffffffffffffffffffffffffffffffffffffff168473ffffffffffffffffffffffffffffffffffffffff167f3da36bae0e345f496aff0cfa4df201a3a21b5bc0f04efa5f1f55d27b51c5fa328c8c8c8c60405162000551949392919062000a25565b60405180910390a35050509695505050505050565b6121588062000b8583390190565b600081359050620005858162000b36565b92915050565b60008083601f8401126200059e57600080fd5b8235905067ffffffffffffffff811115620005b857600080fd5b602083019150836020820283011115620005d157600080fd5b9250929050565b600081519050620005e98162000b50565b92915050565b600081359050620006008162000b6a565b92915050565b6000602082840312156200061957600080fd5b60006200062984828501620005d8565b91505092915050565b6000602082840312156200064557600080fd5b60006200065584828501620005ef565b91505092915050565b60008060008060008060a087890312156200067857600080fd5b60006200068889828a01620005ef565b96505060206200069b89828a01620005ef565b9550506040620006ae89828a01620005ef565b9450506060620006c189828a01620005ef565b935050608087013567ffffffffffffffff811115620006df57600080fd5b620006ed89828a016200058b565b92509250509295509295509295565b60006200070a838362000716565b60208301905092915050565b620007218162000aec565b82525050565b620007328162000aec565b82525050565b600062000746838562000ab1565b9350620007538262000a72565b8060005b8581101562000794576200076c828462000ad3565b620007788882620006fc565b9750620007858362000a97565b92505060018101905062000757565b5085925050509392505050565b6000620007ae8262000a8c565b620007ba818562000ab1565b9350620007c78362000a7c565b8060005b83811015620007fe578151620007e28882620006fc565b9750620007ef8362000aa4565b925050600181019050620007cb565b5085935050505092915050565b60006200081a60118362000ac2565b91507f53697a65206f7574206f662072616e67650000000000000000000000000000006000830152602082019050919050565b60006200085c60138362000ac2565b91507f4f726465722073697a65206d69736d61746368000000000000000000000000006000830152602082019050919050565b60006200089e60258362000ac2565b91507f6e65656420322d6c6576656c20646f776e6c696e65206f72207472656520637260008301527f6561746f720000000000000000000000000000000000000000000000000000006020830152604082019050919050565b620009028162000b2c565b82525050565b60006020820190506200091f600083018462000727565b92915050565b600060c0820190506200093c600083018a62000727565b6200094b6020830189620008f7565b6200095a6040830188620008f7565b620009696060830187620008f7565b620009786080830186620008f7565b81810360a08301526200098d81848662000738565b905098975050505050505050565b60006020820190508181036000830152620009b78184620007a1565b905092915050565b60006020820190508181036000830152620009da816200080b565b9050919050565b60006020820190508181036000830152620009fc816200084d565b9050919050565b6000602082019050818103600083015262000a1e816200088f565b9050919050565b600060808201905062000a3c6000830187620008f7565b62000a4b6020830186620008f7565b62000a5a6040830185620008f7565b62000a696060830184620008f7565b95945050505050565b6000819050919050565b6000819050602082019050919050565b600081519050919050565b6000602082019050919050565b6000602082019050919050565b600082825260208201905092915050565b600082825260208201905092915050565b600062000ae4602084018462000574565b905092915050565b600062000af98262000b0c565b9050919050565b60008115159050919050565b600073ffffffffffffffffffffffffffffffffffffffff82169050919050565b6000819050919050565b62000b418162000aec565b811462000b4d57600080fd5b50565b62000b5b8162000b00565b811462000b6757600080fd5b50565b62000b758162000b2c565b811462000b8157600080fd5b5056fe6101206040523480156200001257600080fd5b506040516200215838038062002158833981810160405281019062000038919062000605565b600073ffffffffffffffffffffffffffffffffffffffff168673ffffffffffffffffffffffffffffffffffffffff161415620000ab576040517f08c379a0000000000000000000000000000000000000000000000000000000008152600401620000a29062000820565b60405180910390fd5b60028510158015620000be5750600c8511155b62000100576040517f08c379a0000000000000000000000000000000000000000000000000000000008152600401620000f79062000864565b60405180910390fd5b8481511462000146576040517f08c379a00000000000000000000000000000000000000000000000000000000081526004016200013d90620007fe565b60405180910390fd5b8573ffffffffffffffffffffffffffffffffffffffff1660808173ffffffffffffffffffffffffffffffffffffffff1660601b815250508460a081815250508360c081815250508260e081815250508161010081815250508060009080519060200190620001b692919062000487565b5060005b858110156200047a57600073ffffffffffffffffffffffffffffffffffffffff1682828151811062000215577f4e487b7100000000000000000000000000000000000000000000000000000000600052603260045260246000fd5b602002602001015173ffffffffffffffffffffffffffffffffffffffff16141562000277576040517f08c379a00000000000000000000000000000000000000000000000000000000081526004016200026e9062000842565b60405180910390fd5b60016000838381518110620002b5577f4e487b7100000000000000000000000000000000000000000000000000000000600052603260045260246000fd5b602002602001015173ffffffffffffffffffffffffffffffffffffffff1673ffffffffffffffffffffffffffffffffffffffff16815260200190815260200160002060009054906101000a900460ff161562000348576040517f08c379a00000000000000000000000000000000000000000000000000000000081526004016200033f9062000886565b60405180910390fd5b600180600084848151811062000387577f4e487b7100000000000000000000000000000000000000000000000000000000600052603260045260246000fd5b602002602001015173ffffffffffffffffffffffffffffffffffffffff1673ffffffffffffffffffffffffffffffffffffffff16815260200190815260200160002060006101000a81548160ff0219169083151502179055508181815181106200041a577f4e487b7100000000000000000000000000000000000000000000000000000000600052603260045260246000fd5b602002602001015173ffffffffffffffffffffffffffffffffffffffff167f0abf3b3f643594d958297062a019458e27d7766629590ac621aa1000fa1298ab60405160405180910390a2808062000471906200095a565b915050620001ba565b5050505050505062000a3a565b82805482825590600052602060002090810192821562000503579160200282015b82811115620005025782518260006101000a81548173ffffffffffffffffffffffffffffffffffffffff021916908373ffffffffffffffffffffffffffffffffffffffff16021790555091602001919060010190620004a8565b5b50905062000512919062000516565b5090565b5b808211156200053157600081600090555060010162000517565b5090565b60006200054c6200054684620008dc565b620008a8565b905080838252602082019050828560208602820111156200056c57600080fd5b60005b85811015620005a05781620005858882620005aa565b8452602084019350602083019250506001810190506200056f565b5050509392505050565b600081519050620005bb8162000a06565b92915050565b600082601f830112620005d357600080fd5b8151620005e584826020860162000535565b91505092915050565b600081519050620005ff8162000a20565b92915050565b60008060008060008060c087890312156200061f57600080fd5b60006200062f89828a01620005aa565b96505060206200064289828a01620005ee565b95505060406200065589828a01620005ee565b94505060606200066889828a01620005ee565b93505060806200067b89828a01620005ee565b92505060a087015167ffffffffffffffff8111156200069957600080fd5b620006a789828a01620005c1565b9150509295509295509295565b6000620006c3600e836200090b565b91507f6f72646572206d69736d617463680000000000000000000000000000000000006000830152602082019050919050565b600062000705600b836200090b565b91507f6261642063726561746f720000000000000000000000000000000000000000006000830152602082019050919050565b600062000747600b836200090b565b91507f7a65726f206d656d6265720000000000000000000000000000000000000000006000830152602082019050919050565b600062000789600a836200090b565b91507f73697a652072616e6765000000000000000000000000000000000000000000006000830152602082019050919050565b6000620007cb600a836200090b565b91507f647570206d656d626572000000000000000000000000000000000000000000006000830152602082019050919050565b600060208201905081810360008301526200081981620006b4565b9050919050565b600060208201905081810360008301526200083b81620006f6565b9050919050565b600060208201905081810360008301526200085d8162000738565b9050919050565b600060208201905081810360008301526200087f816200077a565b9050919050565b60006020820190508181036000830152620008a181620007bc565b9050919050565b6000604051905081810181811067ffffffffffffffff82111715620008d257620008d1620009d7565b5b8060405250919050565b600067ffffffffffffffff821115620008fa57620008f9620009d7565b5b602082029050602081019050919050565b600082825260208201905092915050565b6000620009298262000930565b9050919050565b600073ffffffffffffffffffffffffffffffffffffffff82169050919050565b6000819050919050565b6000620009678262000950565b91507fffffffffffffffffffffffffffffffffffffffffffffffffffffffffffffffff8214156200099d576200099c620009a8565b5b600182019050919050565b7f4e487b7100000000000000000000000000000000000000000000000000000000600052601160045260246000fd5b7f4e487b7100000000000000000000000000000000000000000000000000000000600052604160045260246000fd5b62000a11816200091c565b811462000a1d57600080fd5b50565b62000a2b8162000950565b811462000a3757600080fd5b50565b60805160601c60a05160c05160e0516101005161167462000ae4600039600081816107d3015281816109ba01528181610ab00152610ae601526000818161099701528181610a760152610ef70152600081816105520152818161088a0152818161097401528181610d4301528181610e100152610e97015260008181610531015281816108b101528181610951015281816109e40152610b100152600061041601526116746000f3fe6080604052600436106101025760003560e01c80635a2f3d0911610095578063a230c52411610064578063a230c52414610328578063b5b96ae014610365578063d7bb99ba146103a2578063efa51cda146103ac578063f7cb789a146103e957610109565b80635a2f3d091461027657806378e97925146102a75780638a19c8bc146102d2578063949d225d146102fd57610109565b80632032677f116100d15780632032677f146101ca57806343662f4e146101f557806350520b1f14610220578063532ccada1461024b57610109565b806302d05d3f1461010e57806305a95f04146101395780630b529a171461015057806311073bec1461018d57610109565b3661010957005b600080fd5b34801561011a57600080fd5b50610123610414565b6040516101309190611272565b60405180910390f35b34801561014557600080fd5b5061014e610438565b005b34801561015c57600080fd5b5061017760048036038101906101729190610f6c565b610778565b6040516101849190611272565b60405180910390f35b34801561019957600080fd5b506101b460048036038101906101af9190610f6c565b6107b7565b6040516101c191906113aa565b60405180910390f35b3480156101d657600080fd5b506101df6107cf565b6040516101ec91906112af565b60405180910390f35b34801561020157600080fd5b5061020a6107fa565b604051610217919061128d565b60405180910390f35b34801561022c57600080fd5b50610235610888565b60405161024291906113aa565b60405180910390f35b34801561025757600080fd5b506102606108ac565b60405161026d9190611272565b60405180910390f35b34801561028257600080fd5b5061028b610944565b60405161029e97969594939291906113c5565b60405180910390f35b3480156102b357600080fd5b506102bc610ae4565b6040516102c991906113aa565b60405180910390f35b3480156102de57600080fd5b506102e7610b08565b6040516102f491906113aa565b60405180910390f35b34801561030957600080fd5b50610312610b0e565b60405161031f91906113aa565b60405180910390f35b34801561033457600080fd5b5061034f600480360381019061034a9190610f43565b610b32565b60405161035c91906112af565b60405180910390f35b34801561037157600080fd5b5061038c60048036038101906103879190610f95565b610b52565b60405161039991906112af565b60405180910390f35b6103aa610b81565b005b3480156103b857600080fd5b506103d360048036038101906103ce9190610f6c565b610ed5565b6040516103e091906112af565b60405180910390f35b3480156103f557600080fd5b506103fe610ef5565b60405161040b91906113aa565b60405180910390f35b7f000000000000000000000000000000000000000000000000000000000000000081565b60006006541461047d576040517f08c379a0000000000000000000000000000000000000000000000000000000008152600401610474906112ea565b60405180910390fd5b600160068190555061048d6107cf565b6104cc576040517f08c379a00000000000000000000000000000000000000000000000000000000081526004016104c39061138a565b60405180910390fd5b60056000600254815260200190815260200160002060009054906101000a900460ff161561052f576040517f08c379a0000000000000000000000000000000000000000000000000000000008152600401610526906112ca565b60405180910390fd5b7f00000000000000000000000000000000000000000000000000000000000000007f000000000000000000000000000000000000000000000000000000000000000061057b91906114df565b60046000600254815260200190815260200160002054146105d1576040517f08c379a00000000000000000000000000000000000000000000000000000000081526004016105c89061134a565b60405180910390fd5b60006105db6108ac565b90506000600460006002548152602001908152602001600020549050600160056000600254815260200190815260200160002060006101000a81548160ff02191690831515021790555060008273ffffffffffffffffffffffffffffffffffffffff168260405161064b9061125d565b60006040518083038185875af1925050503d8060008114610688576040519150601f19603f3d011682016040523d82523d6000602084013e61068d565b606091505b50509050806106d1576040517f08c379a00000000000000000000000000000000000000000000000000000000081526004016106c89061130a565b60405180910390fd5b8273ffffffffffffffffffffffffffffffffffffffff166002547f5f7341a552ae2d452b071917104c05fbac3663936a69be768a05c40605056e7d8460405161071a91906113aa565b60405180910390a36001600260008282546107359190611489565b925050819055506002547f023811fd72d20a3eb734785eed809172b5c9c24019d493039c70ef9c276d4d9760405160405180910390a25050506000600681905550565b6000818154811061078857600080fd5b906000526020600020016000915054906101000a900473ffffffffffffffffffffffffffffffffffffffff1681565b60046020528060005260406000206000915090505481565b60007f0000000000000000000000000000000000000000000000000000000000000000421015905090565b6060600080548060200260200160405190810160405280929190818152602001828054801561087e57602002820191906000526020600020905b8160009054906101000a900473ffffffffffffffffffffffffffffffffffffffff1673ffffffffffffffffffffffffffffffffffffffff1681526020019060010190808311610834575b5050505050905090565b7f000000000000000000000000000000000000000000000000000000000000000081565b6000807f00000000000000000000000000000000000000000000000000000000000000006002546108dd9190611581565b81548110610914577f4e487b7100000000000000000000000000000000000000000000000000000000600052603260045260246000fd5b9060005260206000200160009054906101000a900473ffffffffffffffffffffffffffffffffffffffff16905090565b60008060008060008060007f000000000000000000000000000000000000000000000000000000000000000096507f000000000000000000000000000000000000000000000000000000000000000095507f000000000000000000000000000000000000000000000000000000000000000094507f00000000000000000000000000000000000000000000000000000000000000009350600254925060007f0000000000000000000000000000000000000000000000000000000000000000600254610a109190611581565b81548110610a47577f4e487b7100000000000000000000000000000000000000000000000000000000600052603260045260246000fd5b9060005260206000200160009054906101000a900473ffffffffffffffffffffffffffffffffffffffff1691507f00000000000000000000000000000000000000000000000000000000000000006001600254610aa49190611489565b610aae91906114df565b7f0000000000000000000000000000000000000000000000000000000000000000610ad99190611489565b905090919293949596565b7f000000000000000000000000000000000000000000000000000000000000000081565b60025481565b7f000000000000000000000000000000000000000000000000000000000000000081565b60016020528060005260406000206000915054906101000a900460ff1681565b60036020528160005260406000206020528060005260406000206000915091509054906101000a900460ff1681565b600060065414610bc6576040517f08c379a0000000000000000000000000000000000000000000000000000000008152600401610bbd906112ea565b60405180910390fd5b6001600681905550610bd66107cf565b610c15576040517f08c379a0000000000000000000000000000000000000000000000000000000008152600401610c0c9061138a565b60405180910390fd5b600160003373ffffffffffffffffffffffffffffffffffffffff1673ffffffffffffffffffffffffffffffffffffffff16815260200190815260200160002060009054906101000a900460ff16610ca1576040517f08c379a0000000000000000000000000000000000000000000000000000000008152600401610c989061132a565b60405180910390fd5b60036000600254815260200190815260200160002060003373ffffffffffffffffffffffffffffffffffffffff1673ffffffffffffffffffffffffffffffffffffffff16815260200190815260200160002060009054906101000a900460ff1615610d41576040517f08c379a0000000000000000000000000000000000000000000000000000000008152600401610d38906112ca565b60405180910390fd5b7f00000000000000000000000000000000000000000000000000000000000000003414610da3576040517f08c379a0000000000000000000000000000000000000000000000000000000008152600401610d9a9061136a565b60405180910390fd5b600160036000600254815260200190815260200160002060003373ffffffffffffffffffffffffffffffffffffffff1673ffffffffffffffffffffffffffffffffffffffff16815260200190815260200160002060006101000a81548160ff0219169083151502179055507f00000000000000000000000000000000000000000000000000000000000000006004600060025481526020019081526020016000206000828254610e539190611489565b925050819055506002543373ffffffffffffffffffffffffffffffffffffffff167f5f7675b09617d2c9fa4fd13058ee5877a9538f626b0308816736e83748a450407f0000000000000000000000000000000000000000000000000000000000000000604051610ec391906113aa565b60405180910390a36000600681905550565b60056020528060005260406000206000915054906101000a900460ff1681565b7f000000000000000000000000000000000000000000000000000000000000000081565b600081359050610f2881611610565b92915050565b600081359050610f3d81611627565b92915050565b600060208284031215610f5557600080fd5b6000610f6384828501610f19565b91505092915050565b600060208284031215610f7e57600080fd5b6000610f8c84828501610f2e565b91505092915050565b60008060408385031215610fa857600080fd5b6000610fb685828601610f2e565b9250506020610fc785828601610f19565b9150509250929050565b6000610fdd8383610fe9565b60208301905092915050565b610ff281611539565b82525050565b61100181611539565b82525050565b600061101282611444565b61101c818561145c565b935061102783611434565b8060005b8381101561105857815161103f8882610fd1565b975061104a8361144f565b92505060018101905061102b565b5085935050505092915050565b61106e8161154b565b82525050565b6000611081600c83611478565b91507f616c7265616479207061696400000000000000000000000000000000000000006000830152602082019050919050565b60006110c1600a83611478565b91507f5265656e7472616e6379000000000000000000000000000000000000000000006000830152602082019050919050565b6000611101600d83611478565b91507f7061796f7574206661696c6564000000000000000000000000000000000000006000830152602082019050919050565b6000611141600a83611478565b91507f6e6f74206d656d626572000000000000000000000000000000000000000000006000830152602082019050919050565b6000611181601083611478565b91507f6e6f742066756c6c792066756e646564000000000000000000000000000000006000830152602082019050919050565b60006111c1601083611478565b91507f696e636f727265637420616d6f756e74000000000000000000000000000000006000830152602082019050919050565b600061120160008361146d565b9150600082019050919050565b600061121b600b83611478565b91507f6e6f7420737461727465640000000000000000000000000000000000000000006000830152602082019050919050565b61125781611577565b82525050565b6000611268826111f4565b9150819050919050565b60006020820190506112876000830184610ff8565b92915050565b600060208201905081810360008301526112a78184611007565b905092915050565b60006020820190506112c46000830184611065565b92915050565b600060208201905081810360008301526112e381611074565b9050919050565b60006020820190508181036000830152611303816110b4565b9050919050565b60006020820190508181036000830152611323816110f4565b9050919050565b6000602082019050818103600083015261134381611134565b9050919050565b6000602082019050818103600083015261136381611174565b9050919050565b60006020820190508181036000830152611383816111b4565b9050919050565b600060208201905081810360008301526113a38161120e565b9050919050565b60006020820190506113bf600083018461124e565b92915050565b600060e0820190506113da600083018a61124e565b6113e7602083018961124e565b6113f4604083018861124e565b611401606083018761124e565b61140e608083018661124e565b61141b60a0830185610ff8565b61142860c083018461124e565b98975050505050505050565b6000819050602082019050919050565b600081519050919050565b6000602082019050919050565b600082825260208201905092915050565b600081905092915050565b600082825260208201905092915050565b600061149482611577565b915061149f83611577565b9250827fffffffffffffffffffffffffffffffffffffffffffffffffffffffffffffffff038211156114d4576114d36115b2565b5b828201905092915050565b60006114ea82611577565b91506114f583611577565b9250817fffffffffffffffffffffffffffffffffffffffffffffffffffffffffffffffff048311821515161561152e5761152d6115b2565b5b828202905092915050565b600061154482611557565b9050919050565b60008115159050919050565b600073ffffffffffffffffffffffffffffffffffffffff82169050919050565b6000819050919050565b600061158c82611577565b915061159783611577565b9250826115a7576115a66115e1565b5b828206905092915050565b7f4e487b7100000000000000000000000000000000000000000000000000000000600052601160045260246000fd5b7f4e487b7100000000000000000000000000000000000000000000000000000000600052601260045260246000fd5b61161981611539565b811461162457600080fd5b50565b61163081611577565b811461163b57600080fd5b5056fea2646970667358221220833c1125180f3cec84ba5f15720cddae4182b134a968735d680c1cf7ee6ea91c64736f6c63430008000033a2646970667358221220376fb92fb44200bbfd71872b3b999d28a473858a49fe14373818ef66a88c6d6f64736f6c63430008000033",
  "immutableReferences": {
    "5": [
      {
        "length": 32,
        "start": 311
      },
      {
        "length": 32,
        "start": 677
      }
    ],
    "7": [
      {
        "length": 32,
        "start": 555
      },
      {
        "length": 32,
        "start": 594
      }
    ]
  },
  "source": "// SPDX-License-Identifier: MIT\npragma solidity ^0.8.0;\n\nimport \"./RoscaPool.sol\";\nimport \"./Tree.sol\";\n\ncontract PoolFactory {\n    address public immutable treeContract;\n    address public immutable treeCreator;\n    event PoolCreated(address indexed pool, address indexed creator, uint256 size, uint256 contribution, uint256 roundDuration, uint256 startTime);\n\n    address[] public allPools;\n\n    constructor(address _treeContract) {\n        require(_treeContract != address(0), \"tree addr\");\n        treeContract = _treeContract;\n        treeCreator = Tree(_treeContract).top();\n    }\n\n    modifier onlyEligibleCreator() {\n        // Eligible if Tree creator OR member with at least two-level downline\n        bool isCreator = (msg.sender == treeCreator);\n        bool hasDepth = Tree(treeContract).hasTwoLevelDownline(msg.sender);\n        require(isCreator || hasDepth, \"need 2-level downline or tree creator\");\n        _;\n    }\n\n    function createPool(\n        uint256 size,\n        uint256 contribution,\n        uint256 roundDuration,\n        uint256 startTime,\n        address[] calldata payoutOrder\n    ) external onlyEligibleCreator returns (address pool) {\n        require(size >= 2 && size <= 12, \"Size out of range\");\n        require(payoutOrder.length == size, \"Order size mismatch\");\n        RoscaPool newPool = new RoscaPool(msg.sender, size, contribution, roundDuration, startTime, payoutOrder);\n        pool = address(newPool);\n        allPools.push(pool);\n        emit PoolCreated(pool, msg.sender, size, contribution, roundDuration, startTime);\n    }\n\n    function getPools() external view returns (address[] memory) {\n        return allPools;\n    }\n}\n\n\n",
  "sourcePath": "/Users/micah/Documents/dapp/kumusha copy/src/contracts/PoolFactory.sol",
  "compiler": {
    "name": "solc",
    "version": "0.8.0+commit.c7dfd78e.Emscripten.clang"
  },
  "schemaVersion": "3.4.4",
  "updatedAt": "2025-08-16T15:23:15.978Z",
  "networkType": "ethereum",
  "devdoc": {
    "kind": "dev",
    "methods": {},
    "version": 1
  },
  "userdoc": {
    "kind": "user",
    "methods": {},
    "version": 1
  }
}