{
  "contractName": "PoolFactoryV2",
  "abi": [
    {
      "inputs": [
        {
          "internalType": "address",
          "name": "_treeContract",
          "type": "address"
        }
      ],
      "stateMutability": "nonpayable",
      "type": "constructor"
    },
    {
      "anonymous": false,
      "inputs": [
        {
          "indexed": true,
          "internalType": "address",
          "name": "pool",
          "type": "address"
        },
        {
          "indexed": true,
          "internalType": "address",
          "name": "creator",
          "type": "address"
        },
        {
          "indexed": false,
          "internalType": "uint256",
          "name": "size",
          "type": "uint256"
        },
        {
          "indexed": false,
          "internalType": "uint256",
          "name": "contribution",
          "type": "uint256"
        },
        {
          "indexed": false,
          "internalType": "uint256",
          "name": "roundDuration",
          "type": "uint256"
        },
        {
          "indexed": false,
          "internalType": "uint256",
          "name": "startTime",
          "type": "uint256"
        }
      ],
      "name": "PoolCreated",
      "type": "event"
    },
    {
      "inputs": [
        {
          "internalType": "uint256",
          "name": "",
          "type": "uint256"
        }
      ],
      "name": "allPools",
      "outputs": [
        {
          "internalType": "address",
          "name": "",
          "type": "address"
        }
      ],
      "stateMutability": "view",
      "type": "function"
    },
    {
      "inputs": [],
      "name": "treeContract",
      "outputs": [
        {
          "internalType": "address",
          "name": "",
          "type": "address"
        }
      ],
      "stateMutability": "view",
      "type": "function"
    },
    {
      "inputs": [],
      "name": "treeCreator",
      "outputs": [
        {
          "internalType": "address",
          "name": "",
          "type": "address"
        }
      ],
      "stateMutability": "view",
      "type": "function"
    },
    {
      "inputs": [
        {
          "internalType": "uint256",
          "name": "size",
          "type": "uint256"
        },
        {
          "internalType": "uint256",
          "name": "contribution",
          "type": "uint256"
        },
        {
          "internalType": "uint256",
          "name": "roundDuration",
          "type": "uint256"
        },
        {
          "internalType": "uint256",
          "name": "startTime",
          "type": "uint256"
        },
        {
          "internalType": "address[]",
          "name": "payoutOrder",
          "type": "address[]"
        }
      ],
      "name": "createPool",
      "outputs": [
        {
          "internalType": "address",
          "name": "pool",
          "type": "address"
        }
      ],
      "stateMutability": "nonpayable",
      "type": "function"
    },
    {
      "inputs": [],
      "name": "getPools",
      "outputs": [
        {
          "internalType": "address[]",
          "name": "",
          "type": "address[]"
        }
      ],
      "stateMutability": "view",
      "type": "function"
    }
  ],
  "bytecode": "0x608060405234801562000010575f80fd5b5060405162002f5e38038062002f5e833981810160405281019062000036919062000201565b5f73ffffffffffffffffffffffffffffffffffffffff168173ffffffffffffffffffffffffffffffffffffffff1603620000a7576040517f08c379a00000000000000000000000000000000000000000000000000000000081526004016200009e906200028f565b60405180910390fd5b805f806101000a81548173ffffffffffffffffffffffffffffffffffffffff021916908373ffffffffffffffffffffffffffffffffffffffff1602179055508073ffffffffffffffffffffffffffffffffffffffff1663fe6dcdba6040518163ffffffff1660e01b8152600401602060405180830381865afa15801562000130573d5f803e3d5ffd5b505050506040513d601f19601f8201168201806040525081019062000156919062000201565b60015f6101000a81548173ffffffffffffffffffffffffffffffffffffffff021916908373ffffffffffffffffffffffffffffffffffffffff16021790555050620002af565b5f80fd5b5f73ffffffffffffffffffffffffffffffffffffffff82169050919050565b5f620001cb82620001a0565b9050919050565b620001dd81620001bf565b8114620001e8575f80fd5b50565b5f81519050620001fb81620001d2565b92915050565b5f602082840312156200021957620002186200019c565b5b5f6200022884828501620001eb565b91505092915050565b5f82825260208201905092915050565b7f74726565206164647200000000000000000000000000000000000000000000005f82015250565b5f6200027760098362000231565b9150620002848262000241565b602082019050919050565b5f6020820190508181035f830152620002a88162000269565b9050919050565b612ca180620002bd5f395ff3fe608060405234801561000f575f80fd5b5060043610610055575f3560e01c806340cf1c951461005957806341d1de9714610077578063673a2a1f146100a75780636e4c887f146100c5578063a89ae2ac146100e3575b5f80fd5b610061610113565b60405161006e91906105b0565b60405180910390f35b610091600480360381019061008c9190610604565b610136565b60405161009e91906105b0565b60405180910390f35b6100af610171565b6040516100bc91906106e6565b60405180910390f35b6100cd6101fc565b6040516100da91906105b0565b60405180910390f35b6100fd60048036038101906100f89190610767565b610221565b60405161010a91906105b0565b60405180910390f35b5f8054906101000a900473ffffffffffffffffffffffffffffffffffffffff1681565b60028181548110610145575f80fd5b905f5260205f20015f915054906101000a900473ffffffffffffffffffffffffffffffffffffffff1681565b606060028054806020026020016040519081016040528092919081815260200182805480156101f257602002820191905f5260205f20905b815f9054906101000a900473ffffffffffffffffffffffffffffffffffffffff1673ffffffffffffffffffffffffffffffffffffffff16815260200190600101908083116101a9575b5050505050905090565b60015f9054906101000a900473ffffffffffffffffffffffffffffffffffffffff1681565b5f8060015f9054906101000a900473ffffffffffffffffffffffffffffffffffffffff1673ffffffffffffffffffffffffffffffffffffffff163373ffffffffffffffffffffffffffffffffffffffff161490505f805f9054906101000a900473ffffffffffffffffffffffffffffffffffffffff1673ffffffffffffffffffffffffffffffffffffffff1663f8b9a886336040518263ffffffff1660e01b81526004016102cf91906105b0565b602060405180830381865afa1580156102ea573d5f803e3d5ffd5b505050506040513d601f19601f8201168201806040525081019061030e9190610832565b905081806103195750805b610358576040517f08c379a000000000000000000000000000000000000000000000000000000000815260040161034f906108dd565b60405180910390fd5b6002891015801561036a5750600c8911155b6103a9576040517f08c379a00000000000000000000000000000000000000000000000000000000081526004016103a090610945565b60405180910390fd5b8885859050146103ee576040517f08c379a00000000000000000000000000000000000000000000000000000000081526004016103e5906109ad565b60405180910390fd5b5f6040516103fb90610564565b604051809103905ff080158015610414573d5f803e3d5ffd5b5090508073ffffffffffffffffffffffffffffffffffffffff16631d7d47d6338c8c8c8c8c8c6040518863ffffffff1660e01b815260040161045c9796959493929190610a8a565b5f604051808303815f87803b158015610473575f80fd5b505af1158015610485573d5f803e3d5ffd5b50505050809350600284908060018154018082558091505060019003905f5260205f20015f9091909190916101000a81548173ffffffffffffffffffffffffffffffffffffffff021916908373ffffffffffffffffffffffffffffffffffffffff1602179055503373ffffffffffffffffffffffffffffffffffffffff168473ffffffffffffffffffffffffffffffffffffffff167f3da36bae0e345f496aff0cfa4df201a3a21b5bc0f04efa5f1f55d27b51c5fa328c8c8c8c60405161054f9493929190610af2565b60405180910390a35050509695505050505050565b61213680610b3683390190565b5f73ffffffffffffffffffffffffffffffffffffffff82169050919050565b5f61059a82610571565b9050919050565b6105aa81610590565b82525050565b5f6020820190506105c35f8301846105a1565b92915050565b5f80fd5b5f80fd5b5f819050919050565b6105e3816105d1565b81146105ed575f80fd5b50565b5f813590506105fe816105da565b92915050565b5f60208284031215610619576106186105c9565b5b5f610626848285016105f0565b91505092915050565b5f81519050919050565b5f82825260208201905092915050565b5f819050602082019050919050565b61066181610590565b82525050565b5f6106728383610658565b60208301905092915050565b5f602082019050919050565b5f6106948261062f565b61069e8185610639565b93506106a983610649565b805f5b838110156106d95781516106c08882610667565b97506106cb8361067e565b9250506001810190506106ac565b5085935050505092915050565b5f6020820190508181035f8301526106fe818461068a565b905092915050565b5f80fd5b5f80fd5b5f80fd5b5f8083601f84011261072757610726610706565b5b8235905067ffffffffffffffff8111156107445761074361070a565b5b6020830191508360208202830111156107605761075f61070e565b5b9250929050565b5f805f805f8060a08789031215610781576107806105c9565b5b5f61078e89828a016105f0565b965050602061079f89828a016105f0565b95505060406107b089828a016105f0565b94505060606107c189828a016105f0565b935050608087013567ffffffffffffffff8111156107e2576107e16105cd565b5b6107ee89828a01610712565b92509250509295509295509295565b5f8115159050919050565b610811816107fd565b811461081b575f80fd5b50565b5f8151905061082c81610808565b92915050565b5f60208284031215610847576108466105c9565b5b5f6108548482850161081e565b91505092915050565b5f82825260208201905092915050565b7f6e65656420322d6c6576656c20646f776e6c696e65206f7220747265652063725f8201527f6561746f72000000000000000000000000000000000000000000000000000000602082015250565b5f6108c760258361085d565b91506108d28261086d565b604082019050919050565b5f6020820190508181035f8301526108f4816108bb565b9050919050565b7f53697a65206f7574206f662072616e67650000000000000000000000000000005f82015250565b5f61092f60118361085d565b915061093a826108fb565b602082019050919050565b5f6020820190508181035f83015261095c81610923565b9050919050565b7f4f726465722073697a65206d69736d61746368000000000000000000000000005f82015250565b5f61099760138361085d565b91506109a282610963565b602082019050919050565b5f6020820190508181035f8301526109c48161098b565b9050919050565b6109d4816105d1565b82525050565b5f819050919050565b6109ec81610590565b81146109f6575f80fd5b50565b5f81359050610a07816109e3565b92915050565b5f610a1b60208401846109f9565b905092915050565b5f602082019050919050565b5f610a3a8385610639565b9350610a45826109da565b805f5b85811015610a7d57610a5a8284610a0d565b610a648882610667565b9750610a6f83610a23565b925050600181019050610a48565b5085925050509392505050565b5f60c082019050610a9d5f83018a6105a1565b610aaa60208301896109cb565b610ab760408301886109cb565b610ac460608301876109cb565b610ad160808301866109cb565b81810360a0830152610ae4818486610a2f565b905098975050505050505050565b5f608082019050610b055f8301876109cb565b610b1260208301866109cb565b610b1f60408301856109cb565b610b2c60608301846109cb565b9594505050505056fe608060405234801561000f575f80fd5b506121198061001d5f395ff3fe60806040526004361061012d575f3560e01c80635a2f3d09116100aa578063a230c5241161006e578063a230c524146103c0578063b5b96ae0146103fc578063d7bb99ba14610438578063e9337b4b14610442578063efa51cda1461046a578063f7cb789a146104a657610134565b80635a2f3d09146102ea57806378e979251461031a5780638a19c8bc1461034457806392c105431461036e578063949d225d1461039657610134565b80631d7d47d6116100f15780631d7d47d61461021a5780632032677f1461024257806343662f4e1461026c57806350520b1f14610296578063532ccada146102c057610134565b806302d05d3f1461013857806305a95f04146101625780630b529a171461017857806311073bec146101b4578063158ef93e146101f057610134565b3661013457005b5f80fd5b348015610143575f80fd5b5061014c6104d0565b6040516101599190611411565b60405180910390f35b34801561016d575f80fd5b506101766104f3565b005b348015610183575f80fd5b5061019e6004803603810190610199919061146e565b6107e4565b6040516101ab9190611411565b60405180910390f35b3480156101bf575f80fd5b506101da60048036038101906101d5919061146e565b61081f565b6040516101e791906114a8565b60405180910390f35b3480156101fb575f80fd5b50610204610834565b60405161021191906114db565b60405180910390f35b348015610225575f80fd5b50610240600480360381019061023b919061166e565b610846565b005b34801561024d575f80fd5b50610256610c8b565b60405161026391906114db565b60405180910390f35b348015610277575f80fd5b50610280610c97565b60405161028d91906117ca565b60405180910390f35b3480156102a1575f80fd5b506102aa610d22565b6040516102b791906114a8565b60405180910390f35b3480156102cb575f80fd5b506102d4610d28565b6040516102e19190611411565b60405180910390f35b3480156102f5575f80fd5b506102fe610d79565b60405161031197969594939291906117ea565b60405180910390f35b348015610325575f80fd5b5061032e610e1a565b60405161033b91906114a8565b60405180910390f35b34801561034f575f80fd5b50610358610e20565b60405161036591906114a8565b60405180910390f35b348015610379575f80fd5b50610394600480360381019061038f919061146e565b610e26565b005b3480156103a1575f80fd5b506103aa610eff565b6040516103b791906114a8565b60405180910390f35b3480156103cb575f80fd5b506103e660048036038101906103e19190611857565b610f05565b6040516103f391906114db565b60405180910390f35b348015610407575f80fd5b50610422600480360381019061041d9190611882565b610f22565b60405161042f91906114db565b60405180910390f35b610440610f4c565b005b34801561044d575f80fd5b506104686004803603810190610463919061146e565b611234565b005b348015610475575f80fd5b50610490600480360381019061048b919061146e565b61130d565b60405161049d91906114db565b60405180910390f35b3480156104b1575f80fd5b506104ba61132a565b6040516104c791906114a8565b60405180910390f35b5f8054906101000a900473ffffffffffffffffffffffffffffffffffffffff1681565b5f600c5414610537576040517f08c379a000000000000000000000000000000000000000000000000000000000815260040161052e9061191a565b60405180910390fd5b6001600c81905550610547610c8b565b610586576040517f08c379a000000000000000000000000000000000000000000000000000000000815260040161057d90611982565b60405180910390fd5b600b5f60085481526020019081526020015f205f9054906101000a900460ff16156105e6576040517f08c379a00000000000000000000000000000000000000000000000000000000081526004016105dd906119ea565b60405180910390fd5b6001546002546105f69190611a35565b600a5f60085481526020019081526020015f20541461064a576040517f08c379a000000000000000000000000000000000000000000000000000000000815260040161064190611ac0565b60405180910390fd5b5f610653610d28565b90505f600a5f60085481526020019081526020015f205490506001600b5f60085481526020019081526020015f205f6101000a81548160ff0219169083151502179055505f8273ffffffffffffffffffffffffffffffffffffffff16826040516106bc90611b0b565b5f6040518083038185875af1925050503d805f81146106f6576040519150601f19603f3d011682016040523d82523d5f602084013e6106fb565b606091505b505090508061073f576040517f08c379a000000000000000000000000000000000000000000000000000000000815260040161073690611b69565b60405180910390fd5b8273ffffffffffffffffffffffffffffffffffffffff166008547f5f7341a552ae2d452b071917104c05fbac3663936a69be768a05c40605056e7d8460405161078891906114a8565b60405180910390a3600160085f8282546107a29190611b87565b925050819055506008547f023811fd72d20a3eb734785eed809172b5c9c24019d493039c70ef9c276d4d9760405160405180910390a25050505f600c81905550565b600681815481106107f3575f80fd5b905f5260205f20015f915054906101000a900473ffffffffffffffffffffffffffffffffffffffff1681565b600a602052805f5260405f205f915090505481565b60055f9054906101000a900460ff1681565b60055f9054906101000a900460ff1615610895576040517f08c379a000000000000000000000000000000000000000000000000000000000815260040161088c90611c04565b60405180910390fd5b5f73ffffffffffffffffffffffffffffffffffffffff168673ffffffffffffffffffffffffffffffffffffffff1603610903576040517f08c379a00000000000000000000000000000000000000000000000000000000081526004016108fa90611c6c565b60405180910390fd5b600285101580156109155750600c8511155b610954576040517f08c379a000000000000000000000000000000000000000000000000000000000815260040161094b90611cd4565b60405180910390fd5b84815114610997576040517f08c379a000000000000000000000000000000000000000000000000000000000815260040161098e90611d3c565b60405180910390fd5b855f806101000a81548173ffffffffffffffffffffffffffffffffffffffff021916908373ffffffffffffffffffffffffffffffffffffffff160217905550846001819055508360028190555082600381905550816004819055508060069080519060200190610a08929190611330565b505f5b85811015610c18575f73ffffffffffffffffffffffffffffffffffffffff16828281518110610a3d57610a3c611d5a565b5b602002602001015173ffffffffffffffffffffffffffffffffffffffff1603610a9b576040517f08c379a0000000000000000000000000000000000000000000000000000000008152600401610a9290611dd1565b60405180910390fd5b60075f838381518110610ab157610ab0611d5a565b5b602002602001015173ffffffffffffffffffffffffffffffffffffffff1673ffffffffffffffffffffffffffffffffffffffff1681526020019081526020015f205f9054906101000a900460ff1615610b3f576040517f08c379a0000000000000000000000000000000000000000000000000000000008152600401610b3690611e39565b60405180910390fd5b600160075f848481518110610b5757610b56611d5a565b5b602002602001015173ffffffffffffffffffffffffffffffffffffffff1673ffffffffffffffffffffffffffffffffffffffff1681526020019081526020015f205f6101000a81548160ff021916908315150217905550818181518110610bc157610bc0611d5a565b5b602002602001015173ffffffffffffffffffffffffffffffffffffffff167f0abf3b3f643594d958297062a019458e27d7766629590ac621aa1000fa1298ab60405160405180910390a28080600101915050610a0b565b50600160055f6101000a81548160ff0219169083151502179055508573ffffffffffffffffffffffffffffffffffffffff167f997f3e422a7446ccf056e7a989c8a281f20af906a7ac6ad0e6f9fea0edd6055c8686604051610c7b929190611e57565b60405180910390a2505050505050565b5f600454421015905090565b60606006805480602002602001604051908101604052809291908181526020018280548015610d1857602002820191905f5260205f20905b815f9054906101000a900473ffffffffffffffffffffffffffffffffffffffff1673ffffffffffffffffffffffffffffffffffffffff1681526020019060010190808311610ccf575b5050505050905090565b60025481565b5f6006600154600854610d3b9190611eab565b81548110610d4c57610d4b611d5a565b5b905f5260205f20015f9054906101000a900473ffffffffffffffffffffffffffffffffffffffff16905090565b5f805f805f805f600154965060025495506003549450600454935060085492506006600154600854610dab9190611eab565b81548110610dbc57610dbb611d5a565b5b905f5260205f20015f9054906101000a900473ffffffffffffffffffffffffffffffffffffffff1691506003546001600854610df89190611b87565b610e029190611a35565b600454610e0f9190611b87565b905090919293949596565b60045481565b60085481565b5f8054906101000a900473ffffffffffffffffffffffffffffffffffffffff1673ffffffffffffffffffffffffffffffffffffffff163373ffffffffffffffffffffffffffffffffffffffff1614610eb3576040517f08c379a0000000000000000000000000000000000000000000000000000000008152600401610eaa90611f25565b60405180910390fd5b5f8111610ef5576040517f08c379a0000000000000000000000000000000000000000000000000000000008152600401610eec90611f8d565b60405180910390fd5b8060028190555050565b60015481565b6007602052805f5260405f205f915054906101000a900460ff1681565b6009602052815f5260405f20602052805f5260405f205f915091509054906101000a900460ff1681565b5f600c5414610f90576040517f08c379a0000000000000000000000000000000000000000000000000000000008152600401610f879061191a565b60405180910390fd5b6001600c81905550610fa0610c8b565b610fdf576040517f08c379a0000000000000000000000000000000000000000000000000000000008152600401610fd690611982565b60405180910390fd5b60075f3373ffffffffffffffffffffffffffffffffffffffff1673ffffffffffffffffffffffffffffffffffffffff1681526020019081526020015f205f9054906101000a900460ff16611068576040517f08c379a000000000000000000000000000000000000000000000000000000000815260040161105f90611ff5565b60405180910390fd5b60095f60085481526020019081526020015f205f3373ffffffffffffffffffffffffffffffffffffffff1673ffffffffffffffffffffffffffffffffffffffff1681526020019081526020015f205f9054906101000a900460ff1615611103576040517f08c379a00000000000000000000000000000000000000000000000000000000081526004016110fa906119ea565b60405180910390fd5b6002543414611147576040517f08c379a000000000000000000000000000000000000000000000000000000000815260040161113e9061205d565b60405180910390fd5b600160095f60085481526020019081526020015f205f3373ffffffffffffffffffffffffffffffffffffffff1673ffffffffffffffffffffffffffffffffffffffff1681526020019081526020015f205f6101000a81548160ff021916908315150217905550600254600a5f60085481526020019081526020015f205f8282546111d19190611b87565b925050819055506008543373ffffffffffffffffffffffffffffffffffffffff167f5f7675b09617d2c9fa4fd13058ee5877a9538f626b0308816736e83748a4504060025460405161122391906114a8565b60405180910390a35f600c81905550565b5f8054906101000a900473ffffffffffffffffffffffffffffffffffffffff1673ffffffffffffffffffffffffffffffffffffffff163373ffffffffffffffffffffffffffffffffffffffff16146112c1576040517f08c379a00000000000000000000000000000000000000000000000000000000081526004016112b890611f25565b60405180910390fd5b5f8111611303576040517f08c379a00000000000000000000000000000000000000000000000000000000081526004016112fa906120c5565b60405180910390fd5b8060038190555050565b600b602052805f5260405f205f915054906101000a900460ff1681565b60035481565b828054828255905f5260205f209081019282156113a6579160200282015b828111156113a5578251825f6101000a81548173ffffffffffffffffffffffffffffffffffffffff021916908373ffffffffffffffffffffffffffffffffffffffff1602179055509160200191906001019061134e565b5b5090506113b391906113b7565b5090565b5b808211156113ce575f815f9055506001016113b8565b5090565b5f73ffffffffffffffffffffffffffffffffffffffff82169050919050565b5f6113fb826113d2565b9050919050565b61140b816113f1565b82525050565b5f6020820190506114245f830184611402565b92915050565b5f604051905090565b5f80fd5b5f80fd5b5f819050919050565b61144d8161143b565b8114611457575f80fd5b50565b5f8135905061146881611444565b92915050565b5f6020828403121561148357611482611433565b5b5f6114908482850161145a565b91505092915050565b6114a28161143b565b82525050565b5f6020820190506114bb5f830184611499565b92915050565b5f8115159050919050565b6114d5816114c1565b82525050565b5f6020820190506114ee5f8301846114cc565b92915050565b6114fd816113f1565b8114611507575f80fd5b50565b5f81359050611518816114f4565b92915050565b5f80fd5b5f601f19601f8301169050919050565b7f4e487b71000000000000000000000000000000000000000000000000000000005f52604160045260245ffd5b61156882611522565b810181811067ffffffffffffffff8211171561158757611586611532565b5b80604052505050565b5f61159961142a565b90506115a5828261155f565b919050565b5f67ffffffffffffffff8211156115c4576115c3611532565b5b602082029050602081019050919050565b5f80fd5b5f6115eb6115e6846115aa565b611590565b9050808382526020820190506020840283018581111561160e5761160d6115d5565b5b835b818110156116375780611623888261150a565b845260208401935050602081019050611610565b5050509392505050565b5f82601f8301126116555761165461151e565b5b81356116658482602086016115d9565b91505092915050565b5f805f805f8060c0878903121561168857611687611433565b5b5f61169589828a0161150a565b96505060206116a689828a0161145a565b95505060406116b789828a0161145a565b94505060606116c889828a0161145a565b93505060806116d989828a0161145a565b92505060a087013567ffffffffffffffff8111156116fa576116f9611437565b5b61170689828a01611641565b9150509295509295509295565b5f81519050919050565b5f82825260208201905092915050565b5f819050602082019050919050565b611745816113f1565b82525050565b5f611756838361173c565b60208301905092915050565b5f602082019050919050565b5f61177882611713565b611782818561171d565b935061178d8361172d565b805f5b838110156117bd5781516117a4888261174b565b97506117af83611762565b925050600181019050611790565b5085935050505092915050565b5f6020820190508181035f8301526117e2818461176e565b905092915050565b5f60e0820190506117fd5f83018a611499565b61180a6020830189611499565b6118176040830188611499565b6118246060830187611499565b6118316080830186611499565b61183e60a0830185611402565b61184b60c0830184611499565b98975050505050505050565b5f6020828403121561186c5761186b611433565b5b5f6118798482850161150a565b91505092915050565b5f806040838503121561189857611897611433565b5b5f6118a58582860161145a565b92505060206118b68582860161150a565b9150509250929050565b5f82825260208201905092915050565b7f5265656e7472616e6379000000000000000000000000000000000000000000005f82015250565b5f611904600a836118c0565b915061190f826118d0565b602082019050919050565b5f6020820190508181035f830152611931816118f8565b9050919050565b7f6e6f7420737461727465640000000000000000000000000000000000000000005f82015250565b5f61196c600b836118c0565b915061197782611938565b602082019050919050565b5f6020820190508181035f83015261199981611960565b9050919050565b7f616c7265616479207061696400000000000000000000000000000000000000005f82015250565b5f6119d4600c836118c0565b91506119df826119a0565b602082019050919050565b5f6020820190508181035f830152611a01816119c8565b9050919050565b7f4e487b71000000000000000000000000000000000000000000000000000000005f52601160045260245ffd5b5f611a3f8261143b565b9150611a4a8361143b565b9250828202611a588161143b565b91508282048414831517611a6f57611a6e611a08565b5b5092915050565b7f6e6f742066756c6c792066756e646564000000000000000000000000000000005f82015250565b5f611aaa6010836118c0565b9150611ab582611a76565b602082019050919050565b5f6020820190508181035f830152611ad781611a9e565b9050919050565b5f81905092915050565b50565b5f611af65f83611ade565b9150611b0182611ae8565b5f82019050919050565b5f611b1582611aeb565b9150819050919050565b7f7061796f7574206661696c6564000000000000000000000000000000000000005f82015250565b5f611b53600d836118c0565b9150611b5e82611b1f565b602082019050919050565b5f6020820190508181035f830152611b8081611b47565b9050919050565b5f611b918261143b565b9150611b9c8361143b565b9250828201905080821115611bb457611bb3611a08565b5b92915050565b7f416c726561647920696e697469616c697a6564000000000000000000000000005f82015250565b5f611bee6013836118c0565b9150611bf982611bba565b602082019050919050565b5f6020820190508181035f830152611c1b81611be2565b9050919050565b7f6261642063726561746f720000000000000000000000000000000000000000005f82015250565b5f611c56600b836118c0565b9150611c6182611c22565b602082019050919050565b5f6020820190508181035f830152611c8381611c4a565b9050919050565b7f73697a652072616e6765000000000000000000000000000000000000000000005f82015250565b5f611cbe600a836118c0565b9150611cc982611c8a565b602082019050919050565b5f6020820190508181035f830152611ceb81611cb2565b9050919050565b7f6f72646572206d69736d617463680000000000000000000000000000000000005f82015250565b5f611d26600e836118c0565b9150611d3182611cf2565b602082019050919050565b5f6020820190508181035f830152611d5381611d1a565b9050919050565b7f4e487b71000000000000000000000000000000000000000000000000000000005f52603260045260245ffd5b7f7a65726f206d656d6265720000000000000000000000000000000000000000005f82015250565b5f611dbb600b836118c0565b9150611dc682611d87565b602082019050919050565b5f6020820190508181035f830152611de881611daf565b9050919050565b7f647570206d656d626572000000000000000000000000000000000000000000005f82015250565b5f611e23600a836118c0565b9150611e2e82611def565b602082019050919050565b5f6020820190508181035f830152611e5081611e17565b9050919050565b5f604082019050611e6a5f830185611499565b611e776020830184611499565b9392505050565b7f4e487b71000000000000000000000000000000000000000000000000000000005f52601260045260245ffd5b5f611eb58261143b565b9150611ec08361143b565b925082611ed057611ecf611e7e565b5b828206905092915050565b7f4e6f74206f776e657200000000000000000000000000000000000000000000005f82015250565b5f611f0f6009836118c0565b9150611f1a82611edb565b602082019050919050565b5f6020820190508181035f830152611f3c81611f03565b9050919050565b7f496e76616c696420636f6e747269627574696f6e0000000000000000000000005f82015250565b5f611f776014836118c0565b9150611f8282611f43565b602082019050919050565b5f6020820190508181035f830152611fa481611f6b565b9050919050565b7f6e6f74206d656d626572000000000000000000000000000000000000000000005f82015250565b5f611fdf600a836118c0565b9150611fea82611fab565b602082019050919050565b5f6020820190508181035f83015261200c81611fd3565b9050919050565b7f696e636f727265637420616d6f756e74000000000000000000000000000000005f82015250565b5f6120476010836118c0565b915061205282612013565b602082019050919050565b5f6020820190508181035f8301526120748161203b565b9050919050565b7f496e76616c6964206475726174696f6e000000000000000000000000000000005f82015250565b5f6120af6010836118c0565b91506120ba8261207b565b602082019050919050565b5f6020820190508181035f8301526120dc816120a3565b905091905056fea26469706673582212204d4ab5518ca6608ee447a2be4d34c085e3bc73e0f924d938bc36bc79398e3f8764736f6c63430008160033a264697066735822122094d686b15514f02486d1711b92e47155c046b1068eb8f7dab4f3b1a6faa53f1b64736f6c63430008160033",
  "immutableReferences": {},
  "source": "// SPDX-License-Identifier: MIT\npragma solidity ^0.8.0;\n\nimport \"./RoscaPoolV2.sol\";\nimport \"./Tree.sol\";\n\ncontract PoolFactoryV2 {\n    address public treeContract;\n    address public treeCreator;\n    \n    event PoolCreated(address indexed pool, address indexed creator, uint256 size, uint256 contribution, uint256 roundDuration, uint256 startTime);\n\n    address[] public allPools;\n\n    constructor(address _treeContract) {\n        require(_treeContract != address(0), \"tree addr\");\n        treeContract = _treeContract;\n        treeCreator = Tree(_treeContract).top();\n    }\n\n    modifier onlyEligibleCreator() {\n        // Eligible if Tree creator OR member with at least two-level downline\n        bool isCreator = (msg.sender == treeCreator);\n        bool hasDepth = Tree(treeContract).hasTwoLevelDownline(msg.sender);\n        require(isCreator || hasDepth, \"need 2-level downline or tree creator\");\n        _;\n    }\n\n    function createPool(\n        uint256 size,\n        uint256 contribution,\n        uint256 roundDuration,\n        uint256 startTime,\n        address[] calldata payoutOrder\n    ) external onlyEligibleCreator returns (address pool) {\n        require(size >= 2 && size <= 12, \"Size out of range\");\n        require(payoutOrder.length == size, \"Order size mismatch\");\n        \n        RoscaPoolV2 newPool = new RoscaPoolV2();\n        newPool.initialize(msg.sender, size, contribution, roundDuration, startTime, payoutOrder);\n        \n        pool = address(newPool);\n        allPools.push(pool);\n        \n        emit PoolCreated(pool, msg.sender, size, contribution, roundDuration, startTime);\n    }\n\n    function getPools() external view returns (address[] memory) {\n        return allPools;\n    }\n}\n",
  "sourcePath": "/Users/micah/Documents/dapp/kumusha copy/src/contracts/PoolFactoryV2.sol",
  "compiler": {
    "name": "solc",
    "version": "0.8.22+commit.4fc1097e.Emscripten.clang"
  },
  "schemaVersion": "3.4.4",
  "updatedAt": "2025-08-11T19:41:59.753Z",
  "devdoc": {
    "kind": "dev",
    "methods": {},
    "version": 1
  },
  "userdoc": {
    "kind": "user",
    "methods": {},
    "version": 1
  }
}