{
  "contractName": "PoolFactoryUpgradeable",
  "abi": [
    {
      "inputs": [],
      "stateMutability": "nonpayable",
      "type": "constructor"
    },
    {
      "inputs": [],
      "name": "InvalidInitialization",
      "type": "error"
    },
    {
      "inputs": [],
      "name": "NotInitializing",
      "type": "error"
    },
    {
      "inputs": [
        {
          "internalType": "address",
          "name": "owner",
          "type": "address"
        }
      ],
      "name": "OwnableInvalidOwner",
      "type": "error"
    },
    {
      "inputs": [
        {
          "internalType": "address",
          "name": "account",
          "type": "address"
        }
      ],
      "name": "OwnableUnauthorizedAccount",
      "type": "error"
    },
    {
      "anonymous": false,
      "inputs": [
        {
          "indexed": false,
          "internalType": "uint64",
          "name": "version",
          "type": "uint64"
        }
      ],
      "name": "Initialized",
      "type": "event"
    },
    {
      "anonymous": false,
      "inputs": [
        {
          "indexed": true,
          "internalType": "address",
          "name": "previousOwner",
          "type": "address"
        },
        {
          "indexed": true,
          "internalType": "address",
          "name": "newOwner",
          "type": "address"
        }
      ],
      "name": "OwnershipTransferred",
      "type": "event"
    },
    {
      "anonymous": false,
      "inputs": [
        {
          "indexed": true,
          "internalType": "address",
          "name": "pool",
          "type": "address"
        },
        {
          "indexed": true,
          "internalType": "address",
          "name": "creator",
          "type": "address"
        },
        {
          "indexed": false,
          "internalType": "uint256",
          "name": "size",
          "type": "uint256"
        },
        {
          "indexed": false,
          "internalType": "uint256",
          "name": "contribution",
          "type": "uint256"
        },
        {
          "indexed": false,
          "internalType": "uint256",
          "name": "roundDuration",
          "type": "uint256"
        },
        {
          "indexed": false,
          "internalType": "uint256",
          "name": "startTime",
          "type": "uint256"
        }
      ],
      "name": "PoolCreated",
      "type": "event"
    },
    {
      "inputs": [
        {
          "internalType": "uint256",
          "name": "",
          "type": "uint256"
        }
      ],
      "name": "allPools",
      "outputs": [
        {
          "internalType": "address",
          "name": "",
          "type": "address"
        }
      ],
      "stateMutability": "view",
      "type": "function"
    },
    {
      "inputs": [],
      "name": "owner",
      "outputs": [
        {
          "internalType": "address",
          "name": "",
          "type": "address"
        }
      ],
      "stateMutability": "view",
      "type": "function"
    },
    {
      "inputs": [],
      "name": "renounceOwnership",
      "outputs": [],
      "stateMutability": "nonpayable",
      "type": "function"
    },
    {
      "inputs": [
        {
          "internalType": "address",
          "name": "newOwner",
          "type": "address"
        }
      ],
      "name": "transferOwnership",
      "outputs": [],
      "stateMutability": "nonpayable",
      "type": "function"
    },
    {
      "inputs": [],
      "name": "treeContract",
      "outputs": [
        {
          "internalType": "address",
          "name": "",
          "type": "address"
        }
      ],
      "stateMutability": "view",
      "type": "function"
    },
    {
      "inputs": [],
      "name": "treeCreator",
      "outputs": [
        {
          "internalType": "address",
          "name": "",
          "type": "address"
        }
      ],
      "stateMutability": "view",
      "type": "function"
    },
    {
      "inputs": [
        {
          "internalType": "address",
          "name": "_treeContract",
          "type": "address"
        }
      ],
      "name": "initialize",
      "outputs": [],
      "stateMutability": "nonpayable",
      "type": "function"
    },
    {
      "inputs": [
        {
          "internalType": "uint256",
          "name": "size",
          "type": "uint256"
        },
        {
          "internalType": "uint256",
          "name": "contribution",
          "type": "uint256"
        },
        {
          "internalType": "uint256",
          "name": "roundDuration",
          "type": "uint256"
        },
        {
          "internalType": "uint256",
          "name": "startTime",
          "type": "uint256"
        },
        {
          "internalType": "address[]",
          "name": "payoutOrder",
          "type": "address[]"
        }
      ],
      "name": "createPool",
      "outputs": [
        {
          "internalType": "address",
          "name": "pool",
          "type": "address"
        }
      ],
      "stateMutability": "nonpayable",
      "type": "function"
    },
    {
      "inputs": [],
      "name": "getPools",
      "outputs": [
        {
          "internalType": "address[]",
          "name": "",
          "type": "address[]"
        }
      ],
      "stateMutability": "view",
      "type": "function"
    },
    {
      "inputs": [
        {
          "internalType": "address",
          "name": "newImplementation",
          "type": "address"
        }
      ],
      "name": "upgradeTo",
      "outputs": [],
      "stateMutability": "nonpayable",
      "type": "function"
    }
  ],
  "bytecode": "0x608060405234801561000f575f80fd5b506139fa8061001d5f395ff3fe608060405234801561000f575f80fd5b506004361061009c575f3560e01c8063715018a611610064578063715018a6146101465780638da5cb5b14610150578063a89ae2ac1461016e578063c4d66de81461019e578063f2fde38b146101ba5761009c565b80633659cfe6146100a057806340cf1c95146100bc57806341d1de97146100da578063673a2a1f1461010a5780636e4c887f14610128575b5f80fd5b6100ba60048036038101906100b59190610cff565b6101d6565b005b6100c46101e1565b6040516100d19190610d39565b60405180910390f35b6100f460048036038101906100ef9190610d85565b610204565b6040516101019190610d39565b60405180910390f35b61011261023f565b60405161011f9190610e67565b60405180910390f35b6101306102ca565b60405161013d9190610d39565b60405180910390f35b61014e6102ef565b005b610158610302565b6040516101659190610d39565b60405180910390f35b61018860048036038101906101839190610ee8565b610337565b6040516101959190610d39565b60405180910390f35b6101b860048036038101906101b39190610cff565b61067a565b005b6101d460048036038101906101cf9190610cff565b610954565b005b6101de6109d8565b50565b5f8054906101000a900473ffffffffffffffffffffffffffffffffffffffff1681565b60028181548110610213575f80fd5b905f5260205f20015f915054906101000a900473ffffffffffffffffffffffffffffffffffffffff1681565b606060028054806020026020016040519081016040528092919081815260200182805480156102c057602002820191905f5260205f20905b815f9054906101000a900473ffffffffffffffffffffffffffffffffffffffff1673ffffffffffffffffffffffffffffffffffffffff1681526020019060010190808311610277575b5050505050905090565b60015f9054906101000a900473ffffffffffffffffffffffffffffffffffffffff1681565b6102f76109d8565b6103005f610a5f565b565b5f8061030c610b30565b9050805f015f9054906101000a900473ffffffffffffffffffffffffffffffffffffffff1691505090565b5f8060015f9054906101000a900473ffffffffffffffffffffffffffffffffffffffff1673ffffffffffffffffffffffffffffffffffffffff163373ffffffffffffffffffffffffffffffffffffffff161490505f805f9054906101000a900473ffffffffffffffffffffffffffffffffffffffff1673ffffffffffffffffffffffffffffffffffffffff1663f8b9a886336040518263ffffffff1660e01b81526004016103e59190610d39565b602060405180830381865afa158015610400573d5f803e3d5ffd5b505050506040513d601f19601f820116820180604052508101906104249190610fb3565b9050818061042f5750805b61046e576040517f08c379a00000000000000000000000000000000000000000000000000000000081526004016104659061105e565b60405180910390fd5b600289101580156104805750600c8911155b6104bf576040517f08c379a00000000000000000000000000000000000000000000000000000000081526004016104b6906110c6565b60405180910390fd5b888585905014610504576040517f08c379a00000000000000000000000000000000000000000000000000000000081526004016104fb9061112e565b60405180910390fd5b5f60405161051190610c90565b604051809103905ff08015801561052a573d5f803e3d5ffd5b5090508073ffffffffffffffffffffffffffffffffffffffff16631d7d47d6338c8c8c8c8c8c6040518863ffffffff1660e01b815260040161057297969594939291906111e1565b5f604051808303815f87803b158015610589575f80fd5b505af115801561059b573d5f803e3d5ffd5b50505050809350600284908060018154018082558091505060019003905f5260205f20015f9091909190916101000a81548173ffffffffffffffffffffffffffffffffffffffff021916908373ffffffffffffffffffffffffffffffffffffffff1602179055503373ffffffffffffffffffffffffffffffffffffffff168473ffffffffffffffffffffffffffffffffffffffff167f3da36bae0e345f496aff0cfa4df201a3a21b5bc0f04efa5f1f55d27b51c5fa328c8c8c8c6040516106659493929190611249565b60405180910390a35050509695505050505050565b5f610683610b57565b90505f815f0160089054906101000a900460ff161590505f825f015f9054906101000a900467ffffffffffffffff1690505f808267ffffffffffffffff161480156106cb5750825b90505f60018367ffffffffffffffff161480156106fe57505f3073ffffffffffffffffffffffffffffffffffffffff163b145b90508115801561070c575080155b15610743576040517ff92ee8a900000000000000000000000000000000000000000000000000000000815260040160405180910390fd5b6001855f015f6101000a81548167ffffffffffffffff021916908367ffffffffffffffff1602179055508315610790576001855f0160086101000a81548160ff0219169083151502179055505b5f73ffffffffffffffffffffffffffffffffffffffff168673ffffffffffffffffffffffffffffffffffffffff16036107fe576040517f08c379a00000000000000000000000000000000000000000000000000000000081526004016107f5906112d6565b60405180910390fd5b61080733610b6a565b855f806101000a81548173ffffffffffffffffffffffffffffffffffffffff021916908373ffffffffffffffffffffffffffffffffffffffff1602179055508573ffffffffffffffffffffffffffffffffffffffff1663fe6dcdba6040518163ffffffff1660e01b8152600401602060405180830381865afa15801561088f573d5f803e3d5ffd5b505050506040513d601f19601f820116820180604052508101906108b39190611308565b60015f6101000a81548173ffffffffffffffffffffffffffffffffffffffff021916908373ffffffffffffffffffffffffffffffffffffffff160217905550831561094c575f855f0160086101000a81548160ff0219169083151502179055507fc7f505b2f371ae2175ee4913f4499e1f2633a7b5936321eed1cdaeb6115181d260016040516109439190611388565b60405180910390a15b505050505050565b61095c6109d8565b5f73ffffffffffffffffffffffffffffffffffffffff168173ffffffffffffffffffffffffffffffffffffffff16036109cc575f6040517f1e4fbdf70000000000000000000000000000000000000000000000000000000081526004016109c39190610d39565b60405180910390fd5b6109d581610a5f565b50565b6109e0610b7e565b73ffffffffffffffffffffffffffffffffffffffff166109fe610302565b73ffffffffffffffffffffffffffffffffffffffff1614610a5d57610a21610b7e565b6040517f118cdaa7000000000000000000000000000000000000000000000000000000008152600401610a549190610d39565b60405180910390fd5b565b5f610a68610b30565b90505f815f015f9054906101000a900473ffffffffffffffffffffffffffffffffffffffff16905082825f015f6101000a81548173ffffffffffffffffffffffffffffffffffffffff021916908373ffffffffffffffffffffffffffffffffffffffff1602179055508273ffffffffffffffffffffffffffffffffffffffff168173ffffffffffffffffffffffffffffffffffffffff167f8be0079c531659141344cd1fd0a4f28419497f9722a3daafe3b4186f6b6457e060405160405180910390a3505050565b5f7f9016d09d72d40fdae2fd8ceac6b6234c7706214fd39c1cd1e609a0528c199300905090565b5f80610b61610b85565b90508091505090565b610b72610bae565b610b7b81610bee565b50565b5f33905090565b5f7ff0c57e16840df040f15088dc2f81fe391c3923bec73e23a9662efc9c229c6a005f1b905090565b610bb6610c72565b610bec576040517fd7e6bcf800000000000000000000000000000000000000000000000000000000815260040160405180910390fd5b565b610bf6610bae565b5f73ffffffffffffffffffffffffffffffffffffffff168173ffffffffffffffffffffffffffffffffffffffff1603610c66575f6040517f1e4fbdf7000000000000000000000000000000000000000000000000000000008152600401610c5d9190610d39565b60405180910390fd5b610c6f81610a5f565b50565b5f610c7b610b57565b5f0160089054906101000a900460ff16905090565b612623806113a283390190565b5f80fd5b5f80fd5b5f73ffffffffffffffffffffffffffffffffffffffff82169050919050565b5f610cce82610ca5565b9050919050565b610cde81610cc4565b8114610ce8575f80fd5b50565b5f81359050610cf981610cd5565b92915050565b5f60208284031215610d1457610d13610c9d565b5b5f610d2184828501610ceb565b91505092915050565b610d3381610cc4565b82525050565b5f602082019050610d4c5f830184610d2a565b92915050565b5f819050919050565b610d6481610d52565b8114610d6e575f80fd5b50565b5f81359050610d7f81610d5b565b92915050565b5f60208284031215610d9a57610d99610c9d565b5b5f610da784828501610d71565b91505092915050565b5f81519050919050565b5f82825260208201905092915050565b5f819050602082019050919050565b610de281610cc4565b82525050565b5f610df38383610dd9565b60208301905092915050565b5f602082019050919050565b5f610e1582610db0565b610e1f8185610dba565b9350610e2a83610dca565b805f5b83811015610e5a578151610e418882610de8565b9750610e4c83610dff565b925050600181019050610e2d565b5085935050505092915050565b5f6020820190508181035f830152610e7f8184610e0b565b905092915050565b5f80fd5b5f80fd5b5f80fd5b5f8083601f840112610ea857610ea7610e87565b5b8235905067ffffffffffffffff811115610ec557610ec4610e8b565b5b602083019150836020820283011115610ee157610ee0610e8f565b5b9250929050565b5f805f805f8060a08789031215610f0257610f01610c9d565b5b5f610f0f89828a01610d71565b9650506020610f2089828a01610d71565b9550506040610f3189828a01610d71565b9450506060610f4289828a01610d71565b935050608087013567ffffffffffffffff811115610f6357610f62610ca1565b5b610f6f89828a01610e93565b92509250509295509295509295565b5f8115159050919050565b610f9281610f7e565b8114610f9c575f80fd5b50565b5f81519050610fad81610f89565b92915050565b5f60208284031215610fc857610fc7610c9d565b5b5f610fd584828501610f9f565b91505092915050565b5f82825260208201905092915050565b7f6e65656420322d6c6576656c20646f776e6c696e65206f7220747265652063725f8201527f6561746f72000000000000000000000000000000000000000000000000000000602082015250565b5f611048602583610fde565b915061105382610fee565b604082019050919050565b5f6020820190508181035f8301526110758161103c565b9050919050565b7f53697a65206f7574206f662072616e67650000000000000000000000000000005f82015250565b5f6110b0601183610fde565b91506110bb8261107c565b602082019050919050565b5f6020820190508181035f8301526110dd816110a4565b9050919050565b7f4f726465722073697a65206d69736d61746368000000000000000000000000005f82015250565b5f611118601383610fde565b9150611123826110e4565b602082019050919050565b5f6020820190508181035f8301526111458161110c565b9050919050565b61115581610d52565b82525050565b5f819050919050565b5f6111726020840184610ceb565b905092915050565b5f602082019050919050565b5f6111918385610dba565b935061119c8261115b565b805f5b858110156111d4576111b18284611164565b6111bb8882610de8565b97506111c68361117a565b92505060018101905061119f565b5085925050509392505050565b5f60c0820190506111f45f83018a610d2a565b611201602083018961114c565b61120e604083018861114c565b61121b606083018761114c565b611228608083018661114c565b81810360a083015261123b818486611186565b905098975050505050505050565b5f60808201905061125c5f83018761114c565b611269602083018661114c565b611276604083018561114c565b611283606083018461114c565b95945050505050565b7f74726565206164647200000000000000000000000000000000000000000000005f82015250565b5f6112c0600983610fde565b91506112cb8261128c565b602082019050919050565b5f6020820190508181035f8301526112ed816112b4565b9050919050565b5f8151905061130281610cd5565b92915050565b5f6020828403121561131d5761131c610c9d565b5b5f61132a848285016112f4565b91505092915050565b5f819050919050565b5f67ffffffffffffffff82169050919050565b5f819050919050565b5f61137261136d61136884611333565b61134f565b61133c565b9050919050565b61138281611358565b82525050565b5f60208201905061139b5f830184611379565b9291505056fe608060405234801561000f575f80fd5b506126068061001d5f395ff3fe608060405260043610610184575f3560e01c8063715018a6116100d0578063a230c52411610089578063e9337b4b11610063578063e9337b4b14610517578063efa51cda1461053f578063f2fde38b1461057b578063f7cb789a146105a35761018b565b8063a230c52414610495578063b5b96ae0146104d1578063d7bb99ba1461050d5761018b565b8063715018a6146103af57806378e97925146103c55780638a19c8bc146103ef5780638da5cb5b1461041957806392c1054314610443578063949d225d1461046b5761018b565b80632032677f1161013d57806350520b1f1161011757806350520b1f1461031557806351858e271461033f578063532ccada146103555780635a2f3d091461037f5761018b565b80632032677f146102995780633659cfe6146102c357806343662f4e146102eb5761018b565b806302d05d3f1461018f57806305a95f04146101b95780630b529a17146101cf57806311073bec1461020b578063158ef93e146102475780631d7d47d6146102715761018b565b3661018b57005b5f80fd5b34801561019a575f80fd5b506101a36105cd565b6040516101b09190611960565b60405180910390f35b3480156101c4575f80fd5b506101cd6105f0565b005b3480156101da575f80fd5b506101f560048036038101906101f091906119bd565b61089e565b6040516102029190611960565b60405180910390f35b348015610216575f80fd5b50610231600480360381019061022c91906119bd565b6108d9565b60405161023e91906119f7565b60405180910390f35b348015610252575f80fd5b5061025b6108ee565b6040516102689190611a2a565b60405180910390f35b34801561027c575f80fd5b5061029760048036038101906102929190611bbd565b610900565b005b3480156102a4575f80fd5b506102ad610ecb565b6040516102ba9190611a2a565b60405180910390f35b3480156102ce575f80fd5b506102e960048036038101906102e49190611c62565b610ed7565b005b3480156102f6575f80fd5b506102ff610ee2565b60405161030c9190611d44565b60405180910390f35b348015610320575f80fd5b50610329610f6d565b60405161033691906119f7565b60405180910390f35b34801561034a575f80fd5b50610353610f73565b005b348015610360575f80fd5b50610369610f7d565b6040516103769190611960565b60405180910390f35b34801561038a575f80fd5b50610393610fce565b6040516103a69796959493929190611d64565b60405180910390f35b3480156103ba575f80fd5b506103c361106f565b005b3480156103d0575f80fd5b506103d9611082565b6040516103e691906119f7565b60405180910390f35b3480156103fa575f80fd5b50610403611088565b60405161041091906119f7565b60405180910390f35b348015610424575f80fd5b5061042d61108e565b60405161043a9190611960565b60405180910390f35b34801561044e575f80fd5b50610469600480360381019061046491906119bd565b6110c3565b005b348015610476575f80fd5b5061047f611117565b60405161048c91906119f7565b60405180910390f35b3480156104a0575f80fd5b506104bb60048036038101906104b69190611c62565b61111d565b6040516104c89190611a2a565b60405180910390f35b3480156104dc575f80fd5b506104f760048036038101906104f29190611dd1565b61113a565b6040516105049190611a2a565b60405180910390f35b610515611164565b005b348015610522575f80fd5b5061053d600480360381019061053891906119bd565b611409565b005b34801561054a575f80fd5b50610565600480360381019061056091906119bd565b61145d565b6040516105729190611a2a565b60405180910390f35b348015610586575f80fd5b506105a1600480360381019061059c9190611c62565b61147a565b005b3480156105ae575f80fd5b506105b76114fe565b6040516105c491906119f7565b60405180910390f35b5f8054906101000a900473ffffffffffffffffffffffffffffffffffffffff1681565b6105f8611504565b610600610ecb565b61063f576040517f08c379a000000000000000000000000000000000000000000000000000000000815260040161063690611e69565b60405180910390fd5b600a5f60075481526020019081526020015f205f9054906101000a900460ff161561069f576040517f08c379a000000000000000000000000000000000000000000000000000000000815260040161069690611ed1565b60405180910390fd5b6001546002546106af9190611f1c565b60095f60075481526020019081526020015f205414610703576040517f08c379a00000000000000000000000000000000000000000000000000000000081526004016106fa90611fa7565b60405180910390fd5b5f61070c610f7d565b90505f60095f60075481526020019081526020015f205490506001600a5f60075481526020019081526020015f205f6101000a81548160ff0219169083151502179055505f8273ffffffffffffffffffffffffffffffffffffffff168260405161077590611ff2565b5f6040518083038185875af1925050503d805f81146107af576040519150601f19603f3d011682016040523d82523d5f602084013e6107b4565b606091505b50509050806107f8576040517f08c379a00000000000000000000000000000000000000000000000000000000081526004016107ef90612050565b60405180910390fd5b8273ffffffffffffffffffffffffffffffffffffffff166007547f5f7341a552ae2d452b071917104c05fbac3663936a69be768a05c40605056e7d8460405161084191906119f7565b60405180910390a3600160075f82825461085b919061206e565b925050819055506007547f023811fd72d20a3eb734785eed809172b5c9c24019d493039c70ef9c276d4d9760405160405180910390a250505061089c611558565b565b600581815481106108ad575f80fd5b905f5260205f20015f915054906101000a900473ffffffffffffffffffffffffffffffffffffffff1681565b6009602052805f5260405f205f915090505481565b600b5f9054906101000a900460ff1681565b5f61090961156f565b90505f815f0160089054906101000a900460ff161590505f825f015f9054906101000a900467ffffffffffffffff1690505f808267ffffffffffffffff161480156109515750825b90505f60018367ffffffffffffffff1614801561098457505f3073ffffffffffffffffffffffffffffffffffffffff163b145b905081158015610992575080155b156109c9576040517ff92ee8a900000000000000000000000000000000000000000000000000000000815260040160405180910390fd5b6001855f015f6101000a81548167ffffffffffffffff021916908367ffffffffffffffff1602179055508315610a16576001855f0160086101000a81548160ff0219169083151502179055505b600b5f9054906101000a900460ff1615610a65576040517f08c379a0000000000000000000000000000000000000000000000000000000008152600401610a5c906120eb565b60405180910390fd5b5f73ffffffffffffffffffffffffffffffffffffffff168b73ffffffffffffffffffffffffffffffffffffffff1603610ad3576040517f08c379a0000000000000000000000000000000000000000000000000000000008152600401610aca90612153565b60405180910390fd5b60028a10158015610ae55750600c8a11155b610b24576040517f08c379a0000000000000000000000000000000000000000000000000000000008152600401610b1b906121bb565b60405180910390fd5b89865114610b67576040517f08c379a0000000000000000000000000000000000000000000000000000000008152600401610b5e90612223565b60405180910390fd5b610b708b611582565b610b78611596565b8a5f806101000a81548173ffffffffffffffffffffffffffffffffffffffff021916908373ffffffffffffffffffffffffffffffffffffffff160217905550896001819055508860028190555087600381905550866004819055508560059080519060200190610be992919061187f565b505f5b8a811015610df9575f73ffffffffffffffffffffffffffffffffffffffff16878281518110610c1e57610c1d612241565b5b602002602001015173ffffffffffffffffffffffffffffffffffffffff1603610c7c576040517f08c379a0000000000000000000000000000000000000000000000000000000008152600401610c73906122b8565b60405180910390fd5b60065f888381518110610c9257610c91612241565b5b602002602001015173ffffffffffffffffffffffffffffffffffffffff1673ffffffffffffffffffffffffffffffffffffffff1681526020019081526020015f205f9054906101000a900460ff1615610d20576040517f08c379a0000000000000000000000000000000000000000000000000000000008152600401610d1790612320565b60405180910390fd5b600160065f898481518110610d3857610d37612241565b5b602002602001015173ffffffffffffffffffffffffffffffffffffffff1673ffffffffffffffffffffffffffffffffffffffff1681526020019081526020015f205f6101000a81548160ff021916908315150217905550868181518110610da257610da1612241565b5b602002602001015173ffffffffffffffffffffffffffffffffffffffff167f0abf3b3f643594d958297062a019458e27d7766629590ac621aa1000fa1298ab60405160405180910390a28080600101915050610bec565b506001600b5f6101000a81548160ff0219169083151502179055508a73ffffffffffffffffffffffffffffffffffffffff167f997f3e422a7446ccf056e7a989c8a281f20af906a7ac6ad0e6f9fea0edd6055c8b8b604051610e5c92919061233e565b60405180910390a28315610ebe575f855f0160086101000a81548160ff0219169083151502179055507fc7f505b2f371ae2175ee4913f4499e1f2633a7b5936321eed1cdaeb6115181d26001604051610eb591906123ba565b60405180910390a15b5050505050505050505050565b5f600454421015905090565b610edf6115a8565b50565b60606005805480602002602001604051908101604052809291908181526020018280548015610f6357602002820191905f5260205f20905b815f9054906101000a900473ffffffffffffffffffffffffffffffffffffffff1673ffffffffffffffffffffffffffffffffffffffff1681526020019060010190808311610f1a575b5050505050905090565b60025481565b610f7b6115a8565b565b5f6005600154600754610f909190612400565b81548110610fa157610fa0612241565b5b905f5260205f20015f9054906101000a900473ffffffffffffffffffffffffffffffffffffffff16905090565b5f805f805f805f6001549650600254955060035494506004549350600754925060056001546007546110009190612400565b8154811061101157611010612241565b5b905f5260205f20015f9054906101000a900473ffffffffffffffffffffffffffffffffffffffff169150600354600160075461104d919061206e565b6110579190611f1c565b600454611064919061206e565b905090919293949596565b6110776115a8565b6110805f61162f565b565b60045481565b60075481565b5f80611098611700565b9050805f015f9054906101000a900473ffffffffffffffffffffffffffffffffffffffff1691505090565b6110cb6115a8565b5f811161110d576040517f08c379a00000000000000000000000000000000000000000000000000000000081526004016111049061247a565b60405180910390fd5b8060028190555050565b60015481565b6006602052805f5260405f205f915054906101000a900460ff1681565b6008602052815f5260405f20602052805f5260405f205f915091509054906101000a900460ff1681565b61116c611504565b611174610ecb565b6111b3576040517f08c379a00000000000000000000000000000000000000000000000000000000081526004016111aa90611e69565b60405180910390fd5b60065f3373ffffffffffffffffffffffffffffffffffffffff1673ffffffffffffffffffffffffffffffffffffffff1681526020019081526020015f205f9054906101000a900460ff1661123c576040517f08c379a0000000000000000000000000000000000000000000000000000000008152600401611233906124e2565b60405180910390fd5b60085f60075481526020019081526020015f205f3373ffffffffffffffffffffffffffffffffffffffff1673ffffffffffffffffffffffffffffffffffffffff1681526020019081526020015f205f9054906101000a900460ff16156112d7576040517f08c379a00000000000000000000000000000000000000000000000000000000081526004016112ce90611ed1565b60405180910390fd5b600254341461131b576040517f08c379a00000000000000000000000000000000000000000000000000000000081526004016113129061254a565b60405180910390fd5b600160085f60075481526020019081526020015f205f3373ffffffffffffffffffffffffffffffffffffffff1673ffffffffffffffffffffffffffffffffffffffff1681526020019081526020015f205f6101000a81548160ff02191690831515021790555060025460095f60075481526020019081526020015f205f8282546113a5919061206e565b925050819055506007543373ffffffffffffffffffffffffffffffffffffffff167f5f7675b09617d2c9fa4fd13058ee5877a9538f626b0308816736e83748a450406002546040516113f791906119f7565b60405180910390a3611407611558565b565b6114116115a8565b5f8111611453576040517f08c379a000000000000000000000000000000000000000000000000000000000815260040161144a906125b2565b60405180910390fd5b8060038190555050565b600a602052805f5260405f205f915054906101000a900460ff1681565b6114826115a8565b5f73ffffffffffffffffffffffffffffffffffffffff168173ffffffffffffffffffffffffffffffffffffffff16036114f2575f6040517f1e4fbdf70000000000000000000000000000000000000000000000000000000081526004016114e99190611960565b60405180910390fd5b6114fb8161162f565b50565b60035481565b5f61150d611727565b90506002815f01540361154c576040517f3ee5aeb500000000000000000000000000000000000000000000000000000000815260040160405180910390fd5b6002815f018190555050565b5f611561611727565b90506001815f018190555050565b5f8061157961174e565b90508091505090565b61158a611777565b611593816117b7565b50565b61159e611777565b6115a661183b565b565b6115b061185a565b73ffffffffffffffffffffffffffffffffffffffff166115ce61108e565b73ffffffffffffffffffffffffffffffffffffffff161461162d576115f161185a565b6040517f118cdaa70000000000000000000000000000000000000000000000000000000081526004016116249190611960565b60405180910390fd5b565b5f611638611700565b90505f815f015f9054906101000a900473ffffffffffffffffffffffffffffffffffffffff16905082825f015f6101000a81548173ffffffffffffffffffffffffffffffffffffffff021916908373ffffffffffffffffffffffffffffffffffffffff1602179055508273ffffffffffffffffffffffffffffffffffffffff168173ffffffffffffffffffffffffffffffffffffffff167f8be0079c531659141344cd1fd0a4f28419497f9722a3daafe3b4186f6b6457e060405160405180910390a3505050565b5f7f9016d09d72d40fdae2fd8ceac6b6234c7706214fd39c1cd1e609a0528c199300905090565b5f7f9b779b17422d0df92223018b32b4d1fa46e071723d6817e2486d003becc55f00905090565b5f7ff0c57e16840df040f15088dc2f81fe391c3923bec73e23a9662efc9c229c6a005f1b905090565b61177f611861565b6117b5576040517fd7e6bcf800000000000000000000000000000000000000000000000000000000815260040160405180910390fd5b565b6117bf611777565b5f73ffffffffffffffffffffffffffffffffffffffff168173ffffffffffffffffffffffffffffffffffffffff160361182f575f6040517f1e4fbdf70000000000000000000000000000000000000000000000000000000081526004016118269190611960565b60405180910390fd5b6118388161162f565b50565b611843611777565b5f61184c611727565b90506001815f018190555050565b5f33905090565b5f61186a61156f565b5f0160089054906101000a900460ff16905090565b828054828255905f5260205f209081019282156118f5579160200282015b828111156118f4578251825f6101000a81548173ffffffffffffffffffffffffffffffffffffffff021916908373ffffffffffffffffffffffffffffffffffffffff1602179055509160200191906001019061189d565b5b5090506119029190611906565b5090565b5b8082111561191d575f815f905550600101611907565b5090565b5f73ffffffffffffffffffffffffffffffffffffffff82169050919050565b5f61194a82611921565b9050919050565b61195a81611940565b82525050565b5f6020820190506119735f830184611951565b92915050565b5f604051905090565b5f80fd5b5f80fd5b5f819050919050565b61199c8161198a565b81146119a6575f80fd5b50565b5f813590506119b781611993565b92915050565b5f602082840312156119d2576119d1611982565b5b5f6119df848285016119a9565b91505092915050565b6119f18161198a565b82525050565b5f602082019050611a0a5f8301846119e8565b92915050565b5f8115159050919050565b611a2481611a10565b82525050565b5f602082019050611a3d5f830184611a1b565b92915050565b611a4c81611940565b8114611a56575f80fd5b50565b5f81359050611a6781611a43565b92915050565b5f80fd5b5f601f19601f8301169050919050565b7f4e487b71000000000000000000000000000000000000000000000000000000005f52604160045260245ffd5b611ab782611a71565b810181811067ffffffffffffffff82111715611ad657611ad5611a81565b5b80604052505050565b5f611ae8611979565b9050611af48282611aae565b919050565b5f67ffffffffffffffff821115611b1357611b12611a81565b5b602082029050602081019050919050565b5f80fd5b5f611b3a611b3584611af9565b611adf565b90508083825260208201905060208402830185811115611b5d57611b5c611b24565b5b835b81811015611b865780611b728882611a59565b845260208401935050602081019050611b5f565b5050509392505050565b5f82601f830112611ba457611ba3611a6d565b5b8135611bb4848260208601611b28565b91505092915050565b5f805f805f8060c08789031215611bd757611bd6611982565b5b5f611be489828a01611a59565b9650506020611bf589828a016119a9565b9550506040611c0689828a016119a9565b9450506060611c1789828a016119a9565b9350506080611c2889828a016119a9565b92505060a087013567ffffffffffffffff811115611c4957611c48611986565b5b611c5589828a01611b90565b9150509295509295509295565b5f60208284031215611c7757611c76611982565b5b5f611c8484828501611a59565b91505092915050565b5f81519050919050565b5f82825260208201905092915050565b5f819050602082019050919050565b611cbf81611940565b82525050565b5f611cd08383611cb6565b60208301905092915050565b5f602082019050919050565b5f611cf282611c8d565b611cfc8185611c97565b9350611d0783611ca7565b805f5b83811015611d37578151611d1e8882611cc5565b9750611d2983611cdc565b925050600181019050611d0a565b5085935050505092915050565b5f6020820190508181035f830152611d5c8184611ce8565b905092915050565b5f60e082019050611d775f83018a6119e8565b611d8460208301896119e8565b611d9160408301886119e8565b611d9e60608301876119e8565b611dab60808301866119e8565b611db860a0830185611951565b611dc560c08301846119e8565b98975050505050505050565b5f8060408385031215611de757611de6611982565b5b5f611df4858286016119a9565b9250506020611e0585828601611a59565b9150509250929050565b5f82825260208201905092915050565b7f6e6f7420737461727465640000000000000000000000000000000000000000005f82015250565b5f611e53600b83611e0f565b9150611e5e82611e1f565b602082019050919050565b5f6020820190508181035f830152611e8081611e47565b9050919050565b7f616c7265616479207061696400000000000000000000000000000000000000005f82015250565b5f611ebb600c83611e0f565b9150611ec682611e87565b602082019050919050565b5f6020820190508181035f830152611ee881611eaf565b9050919050565b7f4e487b71000000000000000000000000000000000000000000000000000000005f52601160045260245ffd5b5f611f268261198a565b9150611f318361198a565b9250828202611f3f8161198a565b91508282048414831517611f5657611f55611eef565b5b5092915050565b7f6e6f742066756c6c792066756e646564000000000000000000000000000000005f82015250565b5f611f91601083611e0f565b9150611f9c82611f5d565b602082019050919050565b5f6020820190508181035f830152611fbe81611f85565b9050919050565b5f81905092915050565b50565b5f611fdd5f83611fc5565b9150611fe882611fcf565b5f82019050919050565b5f611ffc82611fd2565b9150819050919050565b7f7061796f7574206661696c6564000000000000000000000000000000000000005f82015250565b5f61203a600d83611e0f565b915061204582612006565b602082019050919050565b5f6020820190508181035f8301526120678161202e565b9050919050565b5f6120788261198a565b91506120838361198a565b925082820190508082111561209b5761209a611eef565b5b92915050565b7f416c726561647920696e697469616c697a6564000000000000000000000000005f82015250565b5f6120d5601383611e0f565b91506120e0826120a1565b602082019050919050565b5f6020820190508181035f830152612102816120c9565b9050919050565b7f6261642063726561746f720000000000000000000000000000000000000000005f82015250565b5f61213d600b83611e0f565b915061214882612109565b602082019050919050565b5f6020820190508181035f83015261216a81612131565b9050919050565b7f73697a652072616e6765000000000000000000000000000000000000000000005f82015250565b5f6121a5600a83611e0f565b91506121b082612171565b602082019050919050565b5f6020820190508181035f8301526121d281612199565b9050919050565b7f6f72646572206d69736d617463680000000000000000000000000000000000005f82015250565b5f61220d600e83611e0f565b9150612218826121d9565b602082019050919050565b5f6020820190508181035f83015261223a81612201565b9050919050565b7f4e487b71000000000000000000000000000000000000000000000000000000005f52603260045260245ffd5b7f7a65726f206d656d6265720000000000000000000000000000000000000000005f82015250565b5f6122a2600b83611e0f565b91506122ad8261226e565b602082019050919050565b5f6020820190508181035f8301526122cf81612296565b9050919050565b7f647570206d656d626572000000000000000000000000000000000000000000005f82015250565b5f61230a600a83611e0f565b9150612315826122d6565b602082019050919050565b5f6020820190508181035f830152612337816122fe565b9050919050565b5f6040820190506123515f8301856119e8565b61235e60208301846119e8565b9392505050565b5f819050919050565b5f67ffffffffffffffff82169050919050565b5f819050919050565b5f6123a461239f61239a84612365565b612381565b61236e565b9050919050565b6123b48161238a565b82525050565b5f6020820190506123cd5f8301846123ab565b92915050565b7f4e487b71000000000000000000000000000000000000000000000000000000005f52601260045260245ffd5b5f61240a8261198a565b91506124158361198a565b925082612425576124246123d3565b5b828206905092915050565b7f496e76616c696420636f6e747269627574696f6e0000000000000000000000005f82015250565b5f612464601483611e0f565b915061246f82612430565b602082019050919050565b5f6020820190508181035f83015261249181612458565b9050919050565b7f6e6f74206d656d626572000000000000000000000000000000000000000000005f82015250565b5f6124cc600a83611e0f565b91506124d782612498565b602082019050919050565b5f6020820190508181035f8301526124f9816124c0565b9050919050565b7f696e636f727265637420616d6f756e74000000000000000000000000000000005f82015250565b5f612534601083611e0f565b915061253f82612500565b602082019050919050565b5f6020820190508181035f83015261256181612528565b9050919050565b7f496e76616c6964206475726174696f6e000000000000000000000000000000005f82015250565b5f61259c601083611e0f565b91506125a782612568565b602082019050919050565b5f6020820190508181035f8301526125c981612590565b905091905056fea26469706673582212207e14924e9c604f2f6aa9496b8cb581d953ddcdb847804dad341b14c8e1e5b7a364736f6c63430008160033a26469706673582212201f5ac48e7ab5c66051f4fdbfe144c48eb2315055185486964305952611c5e57a64736f6c63430008160033",
  "immutableReferences": {},
  "source": "// SPDX-License-Identifier: MIT\npragma solidity ^0.8.0;\n\nimport \"@openzeppelin/contracts-upgradeable/proxy/utils/Initializable.sol\";\nimport \"@openzeppelin/contracts-upgradeable/access/OwnableUpgradeable.sol\";\nimport \"./RoscaPoolUpgradeable.sol\";\nimport \"./Tree.sol\";\n\ncontract PoolFactoryUpgradeable is Initializable, OwnableUpgradeable {\n    address public treeContract;\n    address public treeCreator;\n    \n    event PoolCreated(address indexed pool, address indexed creator, uint256 size, uint256 contribution, uint256 roundDuration, uint256 startTime);\n\n    address[] public allPools;\n\n    /// @custom:oz-upgrades-unsafe-allow constructor\n    constructor() {\n        // Simple constructor for Truffle compatibility\n    }\n\n    function initialize(address _treeContract) public initializer {\n        require(_treeContract != address(0), \"tree addr\");\n        \n        __Ownable_init(msg.sender);\n        \n        treeContract = _treeContract;\n        treeCreator = Tree(_treeContract).top();\n    }\n\n    modifier onlyEligibleCreator() {\n        bool isCreator = (msg.sender == treeCreator);\n        bool hasDepth = Tree(treeContract).hasTwoLevelDownline(msg.sender);\n        require(isCreator || hasDepth, \"need 2-level downline or tree creator\");\n        _;\n    }\n\n    function createPool(\n        uint256 size,\n        uint256 contribution,\n        uint256 roundDuration,\n        uint256 startTime,\n        address[] calldata payoutOrder\n    ) external onlyEligibleCreator returns (address pool) {\n        require(size >= 2 && size <= 12, \"Size out of range\");\n        require(payoutOrder.length == size, \"Order size mismatch\");\n        \n        RoscaPoolUpgradeable newPool = new RoscaPoolUpgradeable();\n        newPool.initialize(msg.sender, size, contribution, roundDuration, startTime, payoutOrder);\n        \n        pool = address(newPool);\n        allPools.push(pool);\n        \n        emit PoolCreated(pool, msg.sender, size, contribution, roundDuration, startTime);\n    }\n\n    function getPools() external view returns (address[] memory) {\n        return allPools;\n    }\n\n    // Upgrade function (simplified for Truffle)\n    function upgradeTo(address newImplementation) external onlyOwner {\n        // Basic upgrade logic - in production, use proper proxy pattern\n    }\n}\n",
  "sourcePath": "/Users/micah/Documents/dapp/kumusha copy/src/contracts/PoolFactoryUpgradeable.sol",
  "compiler": {
    "name": "solc",
    "version": "0.8.22+commit.4fc1097e.Emscripten.clang"
  },
  "schemaVersion": "3.4.4",
  "updatedAt": "2025-08-11T19:40:25.318Z",
  "devdoc": {
    "errors": {
      "InvalidInitialization()": [
        {
          "details": "The contract is already initialized."
        }
      ],
      "NotInitializing()": [
        {
          "details": "The contract is not initializing."
        }
      ],
      "OwnableInvalidOwner(address)": [
        {
          "details": "The owner is not a valid owner account. (eg. `address(0)`)"
        }
      ],
      "OwnableUnauthorizedAccount(address)": [
        {
          "details": "The caller account is not authorized to perform an operation."
        }
      ]
    },
    "events": {
      "Initialized(uint64)": {
        "details": "Triggered when the contract has been initialized or reinitialized."
      }
    },
    "kind": "dev",
    "methods": {
      "constructor": {
        "custom:oz-upgrades-unsafe-allow": "constructor"
      },
      "owner()": {
        "details": "Returns the address of the current owner."
      },
      "renounceOwnership()": {
        "details": "Leaves the contract without owner. It will not be possible to call `onlyOwner` functions. Can only be called by the current owner. NOTE: Renouncing ownership will leave the contract without an owner, thereby disabling any functionality that is only available to the owner."
      },
      "transferOwnership(address)": {
        "details": "Transfers ownership of the contract to a new account (`newOwner`). Can only be called by the current owner."
      }
    },
    "version": 1
  },
  "userdoc": {
    "kind": "user",
    "methods": {},
    "version": 1
  }
}