{
  "contractName": "PoolFactory",
  "abi": [
    {
      "inputs": [
        {
          "internalType": "address",
          "name": "_treeContract",
          "type": "address"
        }
      ],
      "stateMutability": "nonpayable",
      "type": "constructor"
    },
    {
      "anonymous": false,
      "inputs": [
        {
          "indexed": true,
          "internalType": "address",
          "name": "pool",
          "type": "address"
        },
        {
          "indexed": true,
          "internalType": "address",
          "name": "creator",
          "type": "address"
        },
        {
          "indexed": false,
          "internalType": "address",
          "name": "token",
          "type": "address"
        },
        {
          "indexed": false,
          "internalType": "uint256",
          "name": "size",
          "type": "uint256"
        },
        {
          "indexed": false,
          "internalType": "uint256",
          "name": "contribution",
          "type": "uint256"
        },
        {
          "indexed": false,
          "internalType": "uint256",
          "name": "roundDuration",
          "type": "uint256"
        },
        {
          "indexed": false,
          "internalType": "uint256",
          "name": "startTime",
          "type": "uint256"
        }
      ],
      "name": "PoolCreated",
      "type": "event"
    },
    {
      "inputs": [
        {
          "internalType": "uint256",
          "name": "",
          "type": "uint256"
        }
      ],
      "name": "allPools",
      "outputs": [
        {
          "internalType": "address",
          "name": "",
          "type": "address"
        }
      ],
      "stateMutability": "view",
      "type": "function",
      "constant": true
    },
    {
      "inputs": [],
      "name": "treeContract",
      "outputs": [
        {
          "internalType": "address",
          "name": "",
          "type": "address"
        }
      ],
      "stateMutability": "view",
      "type": "function",
      "constant": true
    },
    {
      "inputs": [],
      "name": "treeCreator",
      "outputs": [
        {
          "internalType": "address",
          "name": "",
          "type": "address"
        }
      ],
      "stateMutability": "view",
      "type": "function",
      "constant": true
    },
    {
      "inputs": [
        {
          "internalType": "address",
          "name": "token",
          "type": "address"
        },
        {
          "internalType": "uint256",
          "name": "size",
          "type": "uint256"
        },
        {
          "internalType": "uint256",
          "name": "contribution",
          "type": "uint256"
        },
        {
          "internalType": "uint256",
          "name": "roundDuration",
          "type": "uint256"
        },
        {
          "internalType": "uint256",
          "name": "startTime",
          "type": "uint256"
        },
        {
          "internalType": "address[]",
          "name": "payoutOrder",
          "type": "address[]"
        }
      ],
      "name": "createPool",
      "outputs": [
        {
          "internalType": "address",
          "name": "pool",
          "type": "address"
        }
      ],
      "stateMutability": "nonpayable",
      "type": "function"
    },
    {
      "inputs": [],
      "name": "getPools",
      "outputs": [
        {
          "internalType": "address[]",
          "name": "",
          "type": "address[]"
        }
      ],
      "stateMutability": "view",
      "type": "function",
      "constant": true
    }
  ],
  "bytecode": "0x60c06040523480156200001157600080fd5b5060405162003292380380620032928339818101604052810190620000379190620001b7565b600073ffffffffffffffffffffffffffffffffffffffff168173ffffffffffffffffffffffffffffffffffffffff161415620000aa576040517f08c379a0000000000000000000000000000000000000000000000000000000008152600401620000a19062000225565b60405180910390fd5b8073ffffffffffffffffffffffffffffffffffffffff1660808173ffffffffffffffffffffffffffffffffffffffff1660601b815250508073ffffffffffffffffffffffffffffffffffffffff1663fe6dcdba6040518163ffffffff1660e01b815260040160206040518083038186803b1580156200012857600080fd5b505afa1580156200013d573d6000803e3d6000fd5b505050506040513d601f19601f82011682018060405250810190620001639190620001b7565b73ffffffffffffffffffffffffffffffffffffffff1660a08173ffffffffffffffffffffffffffffffffffffffff1660601b8152505050620002a6565b600081519050620001b1816200028c565b92915050565b600060208284031215620001ca57600080fd5b6000620001da84828501620001a0565b91505092915050565b6000620001f260098362000247565b91507f74726565206164647200000000000000000000000000000000000000000000006000830152602082019050919050565b600060208201905081810360008301526200024081620001e3565b9050919050565b600082825260208201905092915050565b600062000265826200026c565b9050919050565b600073ffffffffffffffffffffffffffffffffffffffff82169050919050565b620002978162000258565b8114620002a357600080fd5b50565b60805160601c60a05160601c612fb2620002e06000396000818161019e015261054901526000818161013701526101f10152612fb26000f3fe60806040523480156200001157600080fd5b50600436106200005e5760003560e01c806340cf1c95146200006357806341d1de971462000085578063565f0cc514620000bb578063673a2a1f14620000f15780636e4c887f1462000113575b600080fd5b6200006d62000135565b6040516200007c919062000924565b60405180910390f35b620000a360048036038101906200009d9190620006ec565b62000159565b604051620000b2919062000924565b60405180910390f35b620000d96004803603810190620000d391906200060b565b62000199565b604051620000e8919062000924565b60405180910390f35b620000fb620004b7565b6040516200010a919062000a24565b60405180910390f35b6200011d62000547565b6040516200012c919062000924565b60405180910390f35b7f000000000000000000000000000000000000000000000000000000000000000081565b600081815481106200016a57600080fd5b906000526020600020016000915054906101000a900473ffffffffffffffffffffffffffffffffffffffff1681565b6000807f000000000000000000000000000000000000000000000000000000000000000073ffffffffffffffffffffffffffffffffffffffff163373ffffffffffffffffffffffffffffffffffffffff1614905060007f000000000000000000000000000000000000000000000000000000000000000073ffffffffffffffffffffffffffffffffffffffff1663f8b9a886336040518263ffffffff1660e01b81526004016200024a919062000924565b60206040518083038186803b1580156200026357600080fd5b505afa15801562000278573d6000803e3d6000fd5b505050506040513d601f19601f820116820180604052508101906200029e9190620006c0565b90508180620002aa5750805b620002ec576040517f08c379a0000000000000000000000000000000000000000000000000000000008152600401620002e39062000a8c565b60405180910390fd5b60028910158015620002ff5750600c8911155b62000341576040517f08c379a0000000000000000000000000000000000000000000000000000000008152600401620003389062000a48565b60405180910390fd5b88858590501462000389576040517f08c379a0000000000000000000000000000000000000000000000000000000008152600401620003809062000a6a565b60405180910390fd5b6000338b8b8b8b8b8b8b604051620003a1906200056b565b620003b498979695949392919062000941565b604051809103906000f080158015620003d1573d6000803e3d6000fd5b5090508093506000849080600181540180825580915050600190039060005260206000200160009091909190916101000a81548173ffffffffffffffffffffffffffffffffffffffff021916908373ffffffffffffffffffffffffffffffffffffffff1602179055503373ffffffffffffffffffffffffffffffffffffffff168473ffffffffffffffffffffffffffffffffffffffff167f59466b9f60e31316ed7f9fbdacb50d98dabe95ed69aa61e0a33281596507a2a58d8d8d8d8d604051620004a1959493929190620009c7565b60405180910390a3505050979650505050505050565b606060008054806020026020016040519081016040528092919081815260200182805480156200053d57602002820191906000526020600020905b8160009054906101000a900473ffffffffffffffffffffffffffffffffffffffff1673ffffffffffffffffffffffffffffffffffffffff1681526020019060010190808311620004f2575b5050505050905090565b7f000000000000000000000000000000000000000000000000000000000000000081565b6123bc8062000bc183390190565b6000813590506200058a8162000b72565b92915050565b60008083601f840112620005a357600080fd5b8235905067ffffffffffffffff811115620005bd57600080fd5b602083019150836020820283011115620005d657600080fd5b9250929050565b600081519050620005ee8162000b8c565b92915050565b600081359050620006058162000ba6565b92915050565b600080600080600080600060c0888a0312156200062757600080fd5b6000620006378a828b0162000579565b97505060206200064a8a828b01620005f4565b96505060406200065d8a828b01620005f4565b9550506060620006708a828b01620005f4565b9450506080620006838a828b01620005f4565b93505060a088013567ffffffffffffffff811115620006a157600080fd5b620006af8a828b0162000590565b925092505092959891949750929550565b600060208284031215620006d357600080fd5b6000620006e384828501620005dd565b91505092915050565b600060208284031215620006ff57600080fd5b60006200070f84828501620005f4565b91505092915050565b600062000726838362000732565b60208301905092915050565b6200073d8162000b28565b82525050565b6200074e8162000b28565b82525050565b600062000762838562000aed565b93506200076f8262000aae565b8060005b85811015620007b05762000788828462000b0f565b62000794888262000718565b9750620007a18362000ad3565b92505060018101905062000773565b5085925050509392505050565b6000620007ca8262000ac8565b620007d6818562000aed565b9350620007e38362000ab8565b8060005b838110156200081a578151620007fe888262000718565b97506200080b8362000ae0565b925050600181019050620007e7565b5085935050505092915050565b60006200083660118362000afe565b91507f53697a65206f7574206f662072616e67650000000000000000000000000000006000830152602082019050919050565b60006200087860138362000afe565b91507f4f726465722073697a65206d69736d61746368000000000000000000000000006000830152602082019050919050565b6000620008ba60258362000afe565b91507f6e65656420322d6c6576656c20646f776e6c696e65206f72207472656520637260008301527f6561746f720000000000000000000000000000000000000000000000000000006020830152604082019050919050565b6200091e8162000b68565b82525050565b60006020820190506200093b600083018462000743565b92915050565b600060e08201905062000958600083018b62000743565b62000967602083018a62000743565b62000976604083018962000913565b62000985606083018862000913565b62000994608083018762000913565b620009a360a083018662000913565b81810360c0830152620009b881848662000754565b90509998505050505050505050565b600060a082019050620009de600083018862000743565b620009ed602083018762000913565b620009fc604083018662000913565b62000a0b606083018562000913565b62000a1a608083018462000913565b9695505050505050565b6000602082019050818103600083015262000a408184620007bd565b905092915050565b6000602082019050818103600083015262000a638162000827565b9050919050565b6000602082019050818103600083015262000a858162000869565b9050919050565b6000602082019050818103600083015262000aa781620008ab565b9050919050565b6000819050919050565b6000819050602082019050919050565b600081519050919050565b6000602082019050919050565b6000602082019050919050565b600082825260208201905092915050565b600082825260208201905092915050565b600062000b20602084018462000579565b905092915050565b600062000b358262000b48565b9050919050565b60008115159050919050565b600073ffffffffffffffffffffffffffffffffffffffff82169050919050565b6000819050919050565b62000b7d8162000b28565b811462000b8957600080fd5b50565b62000b978162000b3c565b811462000ba357600080fd5b50565b62000bb18162000b68565b811462000bbd57600080fd5b5056fe6101406040523480156200001257600080fd5b50604051620023bc380380620023bc8339818101604052810190620000389190620006b1565b600073ffffffffffffffffffffffffffffffffffffffff168773ffffffffffffffffffffffffffffffffffffffff161415620000ab576040517f08c379a0000000000000000000000000000000000000000000000000000000008152600401620000a29062000925565b60405180910390fd5b600073ffffffffffffffffffffffffffffffffffffffff168673ffffffffffffffffffffffffffffffffffffffff1614156200011e576040517f08c379a0000000000000000000000000000000000000000000000000000000008152600401620001159062000947565b60405180910390fd5b60028510158015620001315750600c8511155b62000173576040517f08c379a00000000000000000000000000000000000000000000000000000000081526004016200016a906200098b565b60405180910390fd5b84815114620001b9576040517f08c379a0000000000000000000000000000000000000000000000000000000008152600401620001b09062000903565b60405180910390fd5b8673ffffffffffffffffffffffffffffffffffffffff1660808173ffffffffffffffffffffffffffffffffffffffff1660601b815250508573ffffffffffffffffffffffffffffffffffffffff1660a08173ffffffffffffffffffffffffffffffffffffffff1660601b815250508460c081815250508360e0818152505082610100818152505081610120818152505080600090805190602001906200026192919062000533565b5060005b858110156200052557600073ffffffffffffffffffffffffffffffffffffffff16828281518110620002c0577f4e487b7100000000000000000000000000000000000000000000000000000000600052603260045260246000fd5b602002602001015173ffffffffffffffffffffffffffffffffffffffff16141562000322576040517f08c379a0000000000000000000000000000000000000000000000000000000008152600401620003199062000969565b60405180910390fd5b6001600083838151811062000360577f4e487b7100000000000000000000000000000000000000000000000000000000600052603260045260246000fd5b602002602001015173ffffffffffffffffffffffffffffffffffffffff1673ffffffffffffffffffffffffffffffffffffffff16815260200190815260200160002060009054906101000a900460ff1615620003f3576040517f08c379a0000000000000000000000000000000000000000000000000000000008152600401620003ea90620009ad565b60405180910390fd5b600180600084848151811062000432577f4e487b7100000000000000000000000000000000000000000000000000000000600052603260045260246000fd5b602002602001015173ffffffffffffffffffffffffffffffffffffffff1673ffffffffffffffffffffffffffffffffffffffff16815260200190815260200160002060006101000a81548160ff021916908315150217905550818181518110620004c5577f4e487b7100000000000000000000000000000000000000000000000000000000600052603260045260246000fd5b602002602001015173ffffffffffffffffffffffffffffffffffffffff167f0abf3b3f643594d958297062a019458e27d7766629590ac621aa1000fa1298ab60405160405180910390a280806200051c9062000a81565b91505062000265565b505050505050505062000b61565b828054828255906000526020600020908101928215620005af579160200282015b82811115620005ae5782518260006101000a81548173ffffffffffffffffffffffffffffffffffffffff021916908373ffffffffffffffffffffffffffffffffffffffff1602179055509160200191906001019062000554565b5b509050620005be9190620005c2565b5090565b5b80821115620005dd576000816000905550600101620005c3565b5090565b6000620005f8620005f28462000a03565b620009cf565b905080838252602082019050828560208602820111156200061857600080fd5b60005b858110156200064c578162000631888262000656565b8452602084019350602083019250506001810190506200061b565b5050509392505050565b600081519050620006678162000b2d565b92915050565b600082601f8301126200067f57600080fd5b815162000691848260208601620005e1565b91505092915050565b600081519050620006ab8162000b47565b92915050565b600080600080600080600060e0888a031215620006cd57600080fd5b6000620006dd8a828b0162000656565b9750506020620006f08a828b0162000656565b9650506040620007038a828b016200069a565b9550506060620007168a828b016200069a565b9450506080620007298a828b016200069a565b93505060a06200073c8a828b016200069a565b92505060c088015167ffffffffffffffff8111156200075a57600080fd5b620007688a828b016200066d565b91505092959891949750929550565b600062000786600e8362000a32565b91507f6f72646572206d69736d617463680000000000000000000000000000000000006000830152602082019050919050565b6000620007c8600b8362000a32565b91507f6261642063726561746f720000000000000000000000000000000000000000006000830152602082019050919050565b60006200080a60098362000a32565b91507f62616420746f6b656e00000000000000000000000000000000000000000000006000830152602082019050919050565b60006200084c600b8362000a32565b91507f7a65726f206d656d6265720000000000000000000000000000000000000000006000830152602082019050919050565b60006200088e600a8362000a32565b91507f73697a652072616e6765000000000000000000000000000000000000000000006000830152602082019050919050565b6000620008d0600a8362000a32565b91507f647570206d656d626572000000000000000000000000000000000000000000006000830152602082019050919050565b600060208201905081810360008301526200091e8162000777565b9050919050565b600060208201905081810360008301526200094081620007b9565b9050919050565b600060208201905081810360008301526200096281620007fb565b9050919050565b6000602082019050818103600083015262000984816200083d565b9050919050565b60006020820190508181036000830152620009a6816200087f565b9050919050565b60006020820190508181036000830152620009c881620008c1565b9050919050565b6000604051905081810181811067ffffffffffffffff82111715620009f957620009f862000afe565b5b8060405250919050565b600067ffffffffffffffff82111562000a215762000a2062000afe565b5b602082029050602081019050919050565b600082825260208201905092915050565b600062000a508262000a57565b9050919050565b600073ffffffffffffffffffffffffffffffffffffffff82169050919050565b6000819050919050565b600062000a8e8262000a77565b91507fffffffffffffffffffffffffffffffffffffffffffffffffffffffffffffffff82141562000ac45762000ac362000acf565b5b600182019050919050565b7f4e487b7100000000000000000000000000000000000000000000000000000000600052601160045260246000fd5b7f4e487b7100000000000000000000000000000000000000000000000000000000600052604160045260246000fd5b62000b388162000a43565b811462000b4457600080fd5b50565b62000b528162000a77565b811462000b5e57600080fd5b50565b60805160601c60a05160601c60c05160e051610100516101205161178e62000c2e6000396000818161076e0152818161097901528181610a6f0152610aa601526000818161095601528181610a350152610f630152600081816104ae015281816108250152818161093301528181610d4101528181610e7c0152610f0301526000818161048d0152818161084c01528181610910015281816109a30152610ad0015260008181610583015281816108ed01528181610d030152610f8701526000610372015261178e6000f3fe608060405234801561001057600080fd5b50600436106101165760003560e01c806378e97925116100a2578063b5b96ae011610071578063b5b96ae0146102ca578063d7bb99ba146102fa578063efa51cda14610304578063f7cb789a14610334578063fc0c546a1461035257610116565b806378e97925146102405780638a19c8bc1461025e578063949d225d1461027c578063a230c5241461029a57610116565b80632032677f116100e95780632032677f146101a357806343662f4e146101c157806350520b1f146101df578063532ccada146101fd5780635a2f3d091461021b57610116565b806302d05d3f1461011b57806305a95f04146101395780630b529a171461014357806311073bec14610173575b600080fd5b610123610370565b6040516101309190611311565b60405180910390f35b610141610394565b005b61015d6004803603810190610158919061103a565b610713565b60405161016a9190611311565b60405180910390f35b61018d6004803603810190610188919061103a565b610752565b60405161019a9190611527565b60405180910390f35b6101ab61076a565b6040516101b8919061142c565b60405180910390f35b6101c9610795565b6040516101d6919061140a565b60405180910390f35b6101e7610823565b6040516101f49190611527565b60405180910390f35b610205610847565b6040516102129190611311565b60405180910390f35b6102236108df565b60405161023798979695949392919061138c565b60405180910390f35b610248610aa4565b6040516102559190611527565b60405180910390f35b610266610ac8565b6040516102739190611527565b60405180910390f35b610284610ace565b6040516102919190611527565b60405180910390f35b6102b460048036038101906102af9190610fe8565b610af2565b6040516102c1919061142c565b60405180910390f35b6102e460048036038101906102df9190611063565b610b12565b6040516102f1919061142c565b60405180910390f35b610302610b41565b005b61031e6004803603810190610319919061103a565b610f41565b60405161032b919061142c565b60405180910390f35b61033c610f61565b6040516103499190611527565b60405180910390f35b61035a610f85565b6040516103679190611311565b60405180910390f35b7f000000000000000000000000000000000000000000000000000000000000000081565b6000600654146103d9576040517f08c379a00000000000000000000000000000000000000000000000000000000081526004016103d090611467565b60405180910390fd5b60016006819055506103e961076a565b610428576040517f08c379a000000000000000000000000000000000000000000000000000000000815260040161041f90611507565b60405180910390fd5b60056000600254815260200190815260200160002060009054906101000a900460ff161561048b576040517f08c379a000000000000000000000000000000000000000000000000000000000815260040161048290611447565b60405180910390fd5b7f00000000000000000000000000000000000000000000000000000000000000007f00000000000000000000000000000000000000000000000000000000000000006104d791906115e2565b600460006002548152602001908152602001600020541461052d576040517f08c379a0000000000000000000000000000000000000000000000000000000008152600401610524906114c7565b60405180910390fd5b6000610537610847565b90506000600460006002548152602001908152602001600020549050600160056000600254815260200190815260200160002060006101000a81548160ff0219169083151502179055507f000000000000000000000000000000000000000000000000000000000000000073ffffffffffffffffffffffffffffffffffffffff1663a9059cbb83836040518363ffffffff1660e01b81526004016105dc929190611363565b602060405180830381600087803b1580156105f657600080fd5b505af115801561060a573d6000803e3d6000fd5b505050506040513d601f19601f8201168201806040525081019061062e9190611011565b61066d576040517f08c379a000000000000000000000000000000000000000000000000000000000815260040161066490611487565b60405180910390fd5b8173ffffffffffffffffffffffffffffffffffffffff166002547f5f7341a552ae2d452b071917104c05fbac3663936a69be768a05c40605056e7d836040516106b69190611527565b60405180910390a36001600260008282546106d1919061158c565b925050819055506002547f023811fd72d20a3eb734785eed809172b5c9c24019d493039c70ef9c276d4d9760405160405180910390a250506000600681905550565b6000818154811061072357600080fd5b906000526020600020016000915054906101000a900473ffffffffffffffffffffffffffffffffffffffff1681565b60046020528060005260406000206000915090505481565b60007f0000000000000000000000000000000000000000000000000000000000000000421015905090565b6060600080548060200260200160405190810160405280929190818152602001828054801561081957602002820191906000526020600020905b8160009054906101000a900473ffffffffffffffffffffffffffffffffffffffff1673ffffffffffffffffffffffffffffffffffffffff16815260200190600101908083116107cf575b5050505050905090565b7f000000000000000000000000000000000000000000000000000000000000000081565b6000807f00000000000000000000000000000000000000000000000000000000000000006002546108789190611684565b815481106108af577f4e487b7100000000000000000000000000000000000000000000000000000000600052603260045260246000fd5b9060005260206000200160009054906101000a900473ffffffffffffffffffffffffffffffffffffffff16905090565b6000806000806000806000807f000000000000000000000000000000000000000000000000000000000000000097507f000000000000000000000000000000000000000000000000000000000000000096507f000000000000000000000000000000000000000000000000000000000000000095507f000000000000000000000000000000000000000000000000000000000000000094507f00000000000000000000000000000000000000000000000000000000000000009350600254925060007f00000000000000000000000000000000000000000000000000000000000000006002546109cf9190611684565b81548110610a06577f4e487b7100000000000000000000000000000000000000000000000000000000600052603260045260246000fd5b9060005260206000200160009054906101000a900473ffffffffffffffffffffffffffffffffffffffff1691507f00000000000000000000000000000000000000000000000000000000000000006001600254610a63919061158c565b610a6d91906115e2565b7f0000000000000000000000000000000000000000000000000000000000000000610a98919061158c565b90509091929394959697565b7f000000000000000000000000000000000000000000000000000000000000000081565b60025481565b7f000000000000000000000000000000000000000000000000000000000000000081565b60016020528060005260406000206000915054906101000a900460ff1681565b60036020528160005260406000206020528060005260406000206000915091509054906101000a900460ff1681565b600060065414610b86576040517f08c379a0000000000000000000000000000000000000000000000000000000008152600401610b7d90611467565b60405180910390fd5b6001600681905550610b9661076a565b610bd5576040517f08c379a0000000000000000000000000000000000000000000000000000000008152600401610bcc90611507565b60405180910390fd5b600160003373ffffffffffffffffffffffffffffffffffffffff1673ffffffffffffffffffffffffffffffffffffffff16815260200190815260200160002060009054906101000a900460ff16610c61576040517f08c379a0000000000000000000000000000000000000000000000000000000008152600401610c58906114a7565b60405180910390fd5b60036000600254815260200190815260200160002060003373ffffffffffffffffffffffffffffffffffffffff1673ffffffffffffffffffffffffffffffffffffffff16815260200190815260200160002060009054906101000a900460ff1615610d01576040517f08c379a0000000000000000000000000000000000000000000000000000000008152600401610cf890611447565b60405180910390fd5b7f000000000000000000000000000000000000000000000000000000000000000073ffffffffffffffffffffffffffffffffffffffff166323b872dd33307f00000000000000000000000000000000000000000000000000000000000000006040518463ffffffff1660e01b8152600401610d7e9392919061132c565b602060405180830381600087803b158015610d9857600080fd5b505af1158015610dac573d6000803e3d6000fd5b505050506040513d601f19601f82011682018060405250810190610dd09190611011565b610e0f576040517f08c379a0000000000000000000000000000000000000000000000000000000008152600401610e06906114e7565b60405180910390fd5b600160036000600254815260200190815260200160002060003373ffffffffffffffffffffffffffffffffffffffff1673ffffffffffffffffffffffffffffffffffffffff16815260200190815260200160002060006101000a81548160ff0219169083151502179055507f00000000000000000000000000000000000000000000000000000000000000006004600060025481526020019081526020016000206000828254610ebf919061158c565b925050819055506002543373ffffffffffffffffffffffffffffffffffffffff167f5f7675b09617d2c9fa4fd13058ee5877a9538f626b0308816736e83748a450407f0000000000000000000000000000000000000000000000000000000000000000604051610f2f9190611527565b60405180910390a36000600681905550565b60056020528060005260406000206000915054906101000a900460ff1681565b7f000000000000000000000000000000000000000000000000000000000000000081565b7f000000000000000000000000000000000000000000000000000000000000000081565b600081359050610fb881611713565b92915050565b600081519050610fcd8161172a565b92915050565b600081359050610fe281611741565b92915050565b600060208284031215610ffa57600080fd5b600061100884828501610fa9565b91505092915050565b60006020828403121561102357600080fd5b600061103184828501610fbe565b91505092915050565b60006020828403121561104c57600080fd5b600061105a84828501610fd3565b91505092915050565b6000806040838503121561107657600080fd5b600061108485828601610fd3565b925050602061109585828601610fa9565b9150509250929050565b60006110ab83836110b7565b60208301905092915050565b6110c08161163c565b82525050565b6110cf8161163c565b82525050565b60006110e082611552565b6110ea818561156a565b93506110f583611542565b8060005b8381101561112657815161110d888261109f565b97506111188361155d565b9250506001810190506110f9565b5085935050505092915050565b61113c8161164e565b82525050565b600061114f600c8361157b565b91507f616c7265616479207061696400000000000000000000000000000000000000006000830152602082019050919050565b600061118f600a8361157b565b91507f5265656e7472616e6379000000000000000000000000000000000000000000006000830152602082019050919050565b60006111cf600d8361157b565b91507f7061796f7574206661696c6564000000000000000000000000000000000000006000830152602082019050919050565b600061120f600a8361157b565b91507f6e6f74206d656d626572000000000000000000000000000000000000000000006000830152602082019050919050565b600061124f60108361157b565b91507f6e6f742066756c6c792066756e646564000000000000000000000000000000006000830152602082019050919050565b600061128f60138361157b565b91507f7472616e7366657246726f6d206661696c6564000000000000000000000000006000830152602082019050919050565b60006112cf600b8361157b565b91507f6e6f7420737461727465640000000000000000000000000000000000000000006000830152602082019050919050565b61130b8161167a565b82525050565b600060208201905061132660008301846110c6565b92915050565b600060608201905061134160008301866110c6565b61134e60208301856110c6565b61135b6040830184611302565b949350505050565b600060408201905061137860008301856110c6565b6113856020830184611302565b9392505050565b6000610100820190506113a2600083018b6110c6565b6113af602083018a611302565b6113bc6040830189611302565b6113c96060830188611302565b6113d66080830187611302565b6113e360a0830186611302565b6113f060c08301856110c6565b6113fd60e0830184611302565b9998505050505050505050565b6000602082019050818103600083015261142481846110d5565b905092915050565b60006020820190506114416000830184611133565b92915050565b6000602082019050818103600083015261146081611142565b9050919050565b6000602082019050818103600083015261148081611182565b9050919050565b600060208201905081810360008301526114a0816111c2565b9050919050565b600060208201905081810360008301526114c081611202565b9050919050565b600060208201905081810360008301526114e081611242565b9050919050565b6000602082019050818103600083015261150081611282565b9050919050565b60006020820190508181036000830152611520816112c2565b9050919050565b600060208201905061153c6000830184611302565b92915050565b6000819050602082019050919050565b600081519050919050565b6000602082019050919050565b600082825260208201905092915050565b600082825260208201905092915050565b60006115978261167a565b91506115a28361167a565b9250827fffffffffffffffffffffffffffffffffffffffffffffffffffffffffffffffff038211156115d7576115d66116b5565b5b828201905092915050565b60006115ed8261167a565b91506115f88361167a565b9250817fffffffffffffffffffffffffffffffffffffffffffffffffffffffffffffffff0483118215151615611631576116306116b5565b5b828202905092915050565b60006116478261165a565b9050919050565b60008115159050919050565b600073ffffffffffffffffffffffffffffffffffffffff82169050919050565b6000819050919050565b600061168f8261167a565b915061169a8361167a565b9250826116aa576116a96116e4565b5b828206905092915050565b7f4e487b7100000000000000000000000000000000000000000000000000000000600052601160045260246000fd5b7f4e487b7100000000000000000000000000000000000000000000000000000000600052601260045260246000fd5b61171c8161163c565b811461172757600080fd5b50565b6117338161164e565b811461173e57600080fd5b50565b61174a8161167a565b811461175557600080fd5b5056fea26469706673582212203e0644905e59bad4f1060d39b3140bdf395ee79c8018c104e92c1cb8abe9763b64736f6c63430008000033a2646970667358221220e4f7070ac4d2b3cb533138bdae0225fa8b405e990355459ab33539dfc8f7bb0064736f6c63430008000033",
  "immutableReferences": {
    "5": [
      {
        "length": 32,
        "start": 311
      },
      {
        "length": 32,
        "start": 497
      }
    ],
    "7": [
      {
        "length": 32,
        "start": 414
      },
      {
        "length": 32,
        "start": 1353
      }
    ]
  },
  "source": "// SPDX-License-Identifier: MIT\npragma solidity ^0.8.0;\n\nimport \"./RoscaPool.sol\";\nimport \"./Tree.sol\";\n\ncontract PoolFactory {\n    address public immutable treeContract;\n    address public immutable treeCreator;\n    event PoolCreated(address indexed pool, address indexed creator, address token, uint256 size, uint256 contribution, uint256 roundDuration, uint256 startTime);\n\n    address[] public allPools;\n\n    constructor(address _treeContract) {\n        require(_treeContract != address(0), \"tree addr\");\n        treeContract = _treeContract;\n        treeCreator = Tree(_treeContract).top();\n    }\n\n    modifier onlyEligibleCreator() {\n        // Eligible if Tree creator OR member with at least two-level downline\n        bool isCreator = (msg.sender == treeCreator);\n        bool hasDepth = Tree(treeContract).hasTwoLevelDownline(msg.sender);\n        require(isCreator || hasDepth, \"need 2-level downline or tree creator\");\n        _;\n    }\n\n    function createPool(\n        address token,\n        uint256 size,\n        uint256 contribution,\n        uint256 roundDuration,\n        uint256 startTime,\n        address[] calldata payoutOrder\n    ) external onlyEligibleCreator returns (address pool) {\n        require(size >= 2 && size <= 12, \"Size out of range\");\n        require(payoutOrder.length == size, \"Order size mismatch\");\n        RoscaPool newPool = new RoscaPool(msg.sender, token, size, contribution, roundDuration, startTime, payoutOrder);\n        pool = address(newPool);\n        allPools.push(pool);\n        emit PoolCreated(pool, msg.sender, token, size, contribution, roundDuration, startTime);\n    }\n\n    function getPools() external view returns (address[] memory) {\n        return allPools;\n    }\n}\n\n\n",
  "sourcePath": "/Users/micah/Documents/dapp/kumusha copy/src/contracts/PoolFactory.sol",
  "compiler": {
    "name": "solc",
    "version": "0.8.0+commit.c7dfd78e.Emscripten.clang"
  },
  "schemaVersion": "3.4.4",
  "updatedAt": "2025-08-09T15:19:50.022Z",
  "networkType": "ethereum",
  "devdoc": {
    "kind": "dev",
    "methods": {},
    "version": 1
  },
  "userdoc": {
    "kind": "user",
    "methods": {},
    "version": 1
  }
}