{
  "contractName": "RoscaPool",
  "abi": [
    {
      "inputs": [
        {
          "internalType": "address",
          "name": "_creator",
          "type": "address"
        },
        {
          "internalType": "uint256",
          "name": "_size",
          "type": "uint256"
        },
        {
          "internalType": "uint256",
          "name": "_contribution",
          "type": "uint256"
        },
        {
          "internalType": "uint256",
          "name": "_roundDuration",
          "type": "uint256"
        },
        {
          "internalType": "uint256",
          "name": "_startTime",
          "type": "uint256"
        },
        {
          "internalType": "address[]",
          "name": "_payoutOrder",
          "type": "address[]"
        }
      ],
      "stateMutability": "nonpayable",
      "type": "constructor"
    },
    {
      "anonymous": false,
      "inputs": [
        {
          "indexed": true,
          "internalType": "address",
          "name": "member",
          "type": "address"
        },
        {
          "indexed": true,
          "internalType": "uint256",
          "name": "round",
          "type": "uint256"
        },
        {
          "indexed": false,
          "internalType": "uint256",
          "name": "amount",
          "type": "uint256"
        }
      ],
      "name": "Contribution",
      "type": "event"
    },
    {
      "anonymous": false,
      "inputs": [
        {
          "indexed": true,
          "internalType": "address",
          "name": "member",
          "type": "address"
        }
      ],
      "name": "MemberJoined",
      "type": "event"
    },
    {
      "anonymous": false,
      "inputs": [
        {
          "indexed": true,
          "internalType": "uint256",
          "name": "round",
          "type": "uint256"
        },
        {
          "indexed": true,
          "internalType": "address",
          "name": "recipient",
          "type": "address"
        },
        {
          "indexed": false,
          "internalType": "uint256",
          "name": "amount",
          "type": "uint256"
        }
      ],
      "name": "Payout",
      "type": "event"
    },
    {
      "anonymous": false,
      "inputs": [
        {
          "indexed": true,
          "internalType": "uint256",
          "name": "round",
          "type": "uint256"
        }
      ],
      "name": "RoundAdvanced",
      "type": "event"
    },
    {
      "inputs": [],
      "name": "contribution",
      "outputs": [
        {
          "internalType": "uint256",
          "name": "",
          "type": "uint256"
        }
      ],
      "stateMutability": "view",
      "type": "function"
    },
    {
      "inputs": [],
      "name": "creator",
      "outputs": [
        {
          "internalType": "address",
          "name": "",
          "type": "address"
        }
      ],
      "stateMutability": "view",
      "type": "function"
    },
    {
      "inputs": [],
      "name": "currentRound",
      "outputs": [
        {
          "internalType": "uint256",
          "name": "",
          "type": "uint256"
        }
      ],
      "stateMutability": "view",
      "type": "function"
    },
    {
      "inputs": [
        {
          "internalType": "uint256",
          "name": "",
          "type": "uint256"
        },
        {
          "internalType": "address",
          "name": "",
          "type": "address"
        }
      ],
      "name": "hasContributed",
      "outputs": [
        {
          "internalType": "bool",
          "name": "",
          "type": "bool"
        }
      ],
      "stateMutability": "view",
      "type": "function"
    },
    {
      "inputs": [
        {
          "internalType": "address",
          "name": "",
          "type": "address"
        }
      ],
      "name": "isMember",
      "outputs": [
        {
          "internalType": "bool",
          "name": "",
          "type": "bool"
        }
      ],
      "stateMutability": "view",
      "type": "function"
    },
    {
      "inputs": [
        {
          "internalType": "uint256",
          "name": "",
          "type": "uint256"
        }
      ],
      "name": "paid",
      "outputs": [
        {
          "internalType": "bool",
          "name": "",
          "type": "bool"
        }
      ],
      "stateMutability": "view",
      "type": "function"
    },
    {
      "inputs": [
        {
          "internalType": "uint256",
          "name": "",
          "type": "uint256"
        }
      ],
      "name": "payoutOrder",
      "outputs": [
        {
          "internalType": "address",
          "name": "",
          "type": "address"
        }
      ],
      "stateMutability": "view",
      "type": "function"
    },
    {
      "inputs": [],
      "name": "roundDuration",
      "outputs": [
        {
          "internalType": "uint256",
          "name": "",
          "type": "uint256"
        }
      ],
      "stateMutability": "view",
      "type": "function"
    },
    {
      "inputs": [],
      "name": "size",
      "outputs": [
        {
          "internalType": "uint256",
          "name": "",
          "type": "uint256"
        }
      ],
      "stateMutability": "view",
      "type": "function"
    },
    {
      "inputs": [],
      "name": "startTime",
      "outputs": [
        {
          "internalType": "uint256",
          "name": "",
          "type": "uint256"
        }
      ],
      "stateMutability": "view",
      "type": "function"
    },
    {
      "inputs": [
        {
          "internalType": "uint256",
          "name": "",
          "type": "uint256"
        }
      ],
      "name": "totalContributed",
      "outputs": [
        {
          "internalType": "uint256",
          "name": "",
          "type": "uint256"
        }
      ],
      "stateMutability": "view",
      "type": "function"
    },
    {
      "stateMutability": "payable",
      "type": "receive"
    },
    {
      "inputs": [],
      "name": "poolInfo",
      "outputs": [
        {
          "internalType": "uint256",
          "name": "_size",
          "type": "uint256"
        },
        {
          "internalType": "uint256",
          "name": "_contribution",
          "type": "uint256"
        },
        {
          "internalType": "uint256",
          "name": "_roundDuration",
          "type": "uint256"
        },
        {
          "internalType": "uint256",
          "name": "_startTime",
          "type": "uint256"
        },
        {
          "internalType": "uint256",
          "name": "_currentRound",
          "type": "uint256"
        },
        {
          "internalType": "address",
          "name": "_currentRecipient",
          "type": "address"
        },
        {
          "internalType": "uint256",
          "name": "_roundEndsAt",
          "type": "uint256"
        }
      ],
      "stateMutability": "view",
      "type": "function"
    },
    {
      "inputs": [],
      "name": "getPayoutOrder",
      "outputs": [
        {
          "internalType": "address[]",
          "name": "",
          "type": "address[]"
        }
      ],
      "stateMutability": "view",
      "type": "function"
    },
    {
      "inputs": [],
      "name": "currentRecipient",
      "outputs": [
        {
          "internalType": "address",
          "name": "",
          "type": "address"
        }
      ],
      "stateMutability": "view",
      "type": "function"
    },
    {
      "inputs": [],
      "name": "roundOpen",
      "outputs": [
        {
          "internalType": "bool",
          "name": "",
          "type": "bool"
        }
      ],
      "stateMutability": "view",
      "type": "function"
    },
    {
      "inputs": [],
      "name": "contribute",
      "outputs": [],
      "stateMutability": "payable",
      "type": "function"
    },
    {
      "inputs": [],
      "name": "triggerPayout",
      "outputs": [],
      "stateMutability": "nonpayable",
      "type": "function"
    }
  ],
  "bytecode": "0x6101206040523480156200001257600080fd5b506040516200215838038062002158833981810160405281019062000038919062000605565b600073ffffffffffffffffffffffffffffffffffffffff168673ffffffffffffffffffffffffffffffffffffffff161415620000ab576040517f08c379a0000000000000000000000000000000000000000000000000000000008152600401620000a29062000820565b60405180910390fd5b60028510158015620000be5750600c8511155b62000100576040517f08c379a0000000000000000000000000000000000000000000000000000000008152600401620000f79062000864565b60405180910390fd5b8481511462000146576040517f08c379a00000000000000000000000000000000000000000000000000000000081526004016200013d90620007fe565b60405180910390fd5b8573ffffffffffffffffffffffffffffffffffffffff1660808173ffffffffffffffffffffffffffffffffffffffff1660601b815250508460a081815250508360c081815250508260e081815250508161010081815250508060009080519060200190620001b692919062000487565b5060005b858110156200047a57600073ffffffffffffffffffffffffffffffffffffffff1682828151811062000215577f4e487b7100000000000000000000000000000000000000000000000000000000600052603260045260246000fd5b602002602001015173ffffffffffffffffffffffffffffffffffffffff16141562000277576040517f08c379a00000000000000000000000000000000000000000000000000000000081526004016200026e9062000842565b60405180910390fd5b60016000838381518110620002b5577f4e487b7100000000000000000000000000000000000000000000000000000000600052603260045260246000fd5b602002602001015173ffffffffffffffffffffffffffffffffffffffff1673ffffffffffffffffffffffffffffffffffffffff16815260200190815260200160002060009054906101000a900460ff161562000348576040517f08c379a00000000000000000000000000000000000000000000000000000000081526004016200033f9062000886565b60405180910390fd5b600180600084848151811062000387577f4e487b7100000000000000000000000000000000000000000000000000000000600052603260045260246000fd5b602002602001015173ffffffffffffffffffffffffffffffffffffffff1673ffffffffffffffffffffffffffffffffffffffff16815260200190815260200160002060006101000a81548160ff0219169083151502179055508181815181106200041a577f4e487b7100000000000000000000000000000000000000000000000000000000600052603260045260246000fd5b602002602001015173ffffffffffffffffffffffffffffffffffffffff167f0abf3b3f643594d958297062a019458e27d7766629590ac621aa1000fa1298ab60405160405180910390a2808062000471906200095a565b915050620001ba565b5050505050505062000a3a565b82805482825590600052602060002090810192821562000503579160200282015b82811115620005025782518260006101000a81548173ffffffffffffffffffffffffffffffffffffffff021916908373ffffffffffffffffffffffffffffffffffffffff16021790555091602001919060010190620004a8565b5b50905062000512919062000516565b5090565b5b808211156200053157600081600090555060010162000517565b5090565b60006200054c6200054684620008dc565b620008a8565b905080838252602082019050828560208602820111156200056c57600080fd5b60005b85811015620005a05781620005858882620005aa565b8452602084019350602083019250506001810190506200056f565b5050509392505050565b600081519050620005bb8162000a06565b92915050565b600082601f830112620005d357600080fd5b8151620005e584826020860162000535565b91505092915050565b600081519050620005ff8162000a20565b92915050565b60008060008060008060c087890312156200061f57600080fd5b60006200062f89828a01620005aa565b96505060206200064289828a01620005ee565b95505060406200065589828a01620005ee565b94505060606200066889828a01620005ee565b93505060806200067b89828a01620005ee565b92505060a087015167ffffffffffffffff8111156200069957600080fd5b620006a789828a01620005c1565b9150509295509295509295565b6000620006c3600e836200090b565b91507f6f72646572206d69736d617463680000000000000000000000000000000000006000830152602082019050919050565b600062000705600b836200090b565b91507f6261642063726561746f720000000000000000000000000000000000000000006000830152602082019050919050565b600062000747600b836200090b565b91507f7a65726f206d656d6265720000000000000000000000000000000000000000006000830152602082019050919050565b600062000789600a836200090b565b91507f73697a652072616e6765000000000000000000000000000000000000000000006000830152602082019050919050565b6000620007cb600a836200090b565b91507f647570206d656d626572000000000000000000000000000000000000000000006000830152602082019050919050565b600060208201905081810360008301526200081981620006b4565b9050919050565b600060208201905081810360008301526200083b81620006f6565b9050919050565b600060208201905081810360008301526200085d8162000738565b9050919050565b600060208201905081810360008301526200087f816200077a565b9050919050565b60006020820190508181036000830152620008a181620007bc565b9050919050565b6000604051905081810181811067ffffffffffffffff82111715620008d257620008d1620009d7565b5b8060405250919050565b600067ffffffffffffffff821115620008fa57620008f9620009d7565b5b602082029050602081019050919050565b600082825260208201905092915050565b6000620009298262000930565b9050919050565b600073ffffffffffffffffffffffffffffffffffffffff82169050919050565b6000819050919050565b6000620009678262000950565b91507fffffffffffffffffffffffffffffffffffffffffffffffffffffffffffffffff8214156200099d576200099c620009a8565b5b600182019050919050565b7f4e487b7100000000000000000000000000000000000000000000000000000000600052601160045260246000fd5b7f4e487b7100000000000000000000000000000000000000000000000000000000600052604160045260246000fd5b62000a11816200091c565b811462000a1d57600080fd5b50565b62000a2b8162000950565b811462000a3757600080fd5b50565b60805160601c60a05160c05160e0516101005161167462000ae4600039600081816107d3015281816109ba01528181610ab00152610ae601526000818161099701528181610a760152610ef70152600081816105520152818161088a0152818161097401528181610d4301528181610e100152610e97015260008181610531015281816108b101528181610951015281816109e40152610b100152600061041601526116746000f3fe6080604052600436106101025760003560e01c80635a2f3d0911610095578063a230c52411610064578063a230c52414610328578063b5b96ae014610365578063d7bb99ba146103a2578063efa51cda146103ac578063f7cb789a146103e957610109565b80635a2f3d091461027657806378e97925146102a75780638a19c8bc146102d2578063949d225d146102fd57610109565b80632032677f116100d15780632032677f146101ca57806343662f4e146101f557806350520b1f14610220578063532ccada1461024b57610109565b806302d05d3f1461010e57806305a95f04146101395780630b529a171461015057806311073bec1461018d57610109565b3661010957005b600080fd5b34801561011a57600080fd5b50610123610414565b6040516101309190611272565b60405180910390f35b34801561014557600080fd5b5061014e610438565b005b34801561015c57600080fd5b5061017760048036038101906101729190610f6c565b610778565b6040516101849190611272565b60405180910390f35b34801561019957600080fd5b506101b460048036038101906101af9190610f6c565b6107b7565b6040516101c191906113aa565b60405180910390f35b3480156101d657600080fd5b506101df6107cf565b6040516101ec91906112af565b60405180910390f35b34801561020157600080fd5b5061020a6107fa565b604051610217919061128d565b60405180910390f35b34801561022c57600080fd5b50610235610888565b60405161024291906113aa565b60405180910390f35b34801561025757600080fd5b506102606108ac565b60405161026d9190611272565b60405180910390f35b34801561028257600080fd5b5061028b610944565b60405161029e97969594939291906113c5565b60405180910390f35b3480156102b357600080fd5b506102bc610ae4565b6040516102c991906113aa565b60405180910390f35b3480156102de57600080fd5b506102e7610b08565b6040516102f491906113aa565b60405180910390f35b34801561030957600080fd5b50610312610b0e565b60405161031f91906113aa565b60405180910390f35b34801561033457600080fd5b5061034f600480360381019061034a9190610f43565b610b32565b60405161035c91906112af565b60405180910390f35b34801561037157600080fd5b5061038c60048036038101906103879190610f95565b610b52565b60405161039991906112af565b60405180910390f35b6103aa610b81565b005b3480156103b857600080fd5b506103d360048036038101906103ce9190610f6c565b610ed5565b6040516103e091906112af565b60405180910390f35b3480156103f557600080fd5b506103fe610ef5565b60405161040b91906113aa565b60405180910390f35b7f000000000000000000000000000000000000000000000000000000000000000081565b60006006541461047d576040517f08c379a0000000000000000000000000000000000000000000000000000000008152600401610474906112ea565b60405180910390fd5b600160068190555061048d6107cf565b6104cc576040517f08c379a00000000000000000000000000000000000000000000000000000000081526004016104c39061138a565b60405180910390fd5b60056000600254815260200190815260200160002060009054906101000a900460ff161561052f576040517f08c379a0000000000000000000000000000000000000000000000000000000008152600401610526906112ca565b60405180910390fd5b7f00000000000000000000000000000000000000000000000000000000000000007f000000000000000000000000000000000000000000000000000000000000000061057b91906114df565b60046000600254815260200190815260200160002054146105d1576040517f08c379a00000000000000000000000000000000000000000000000000000000081526004016105c89061134a565b60405180910390fd5b60006105db6108ac565b90506000600460006002548152602001908152602001600020549050600160056000600254815260200190815260200160002060006101000a81548160ff02191690831515021790555060008273ffffffffffffffffffffffffffffffffffffffff168260405161064b9061125d565b60006040518083038185875af1925050503d8060008114610688576040519150601f19603f3d011682016040523d82523d6000602084013e61068d565b606091505b50509050806106d1576040517f08c379a00000000000000000000000000000000000000000000000000000000081526004016106c89061130a565b60405180910390fd5b8273ffffffffffffffffffffffffffffffffffffffff166002547f5f7341a552ae2d452b071917104c05fbac3663936a69be768a05c40605056e7d8460405161071a91906113aa565b60405180910390a36001600260008282546107359190611489565b925050819055506002547f023811fd72d20a3eb734785eed809172b5c9c24019d493039c70ef9c276d4d9760405160405180910390a25050506000600681905550565b6000818154811061078857600080fd5b906000526020600020016000915054906101000a900473ffffffffffffffffffffffffffffffffffffffff1681565b60046020528060005260406000206000915090505481565b60007f0000000000000000000000000000000000000000000000000000000000000000421015905090565b6060600080548060200260200160405190810160405280929190818152602001828054801561087e57602002820191906000526020600020905b8160009054906101000a900473ffffffffffffffffffffffffffffffffffffffff1673ffffffffffffffffffffffffffffffffffffffff1681526020019060010190808311610834575b5050505050905090565b7f000000000000000000000000000000000000000000000000000000000000000081565b6000807f00000000000000000000000000000000000000000000000000000000000000006002546108dd9190611581565b81548110610914577f4e487b7100000000000000000000000000000000000000000000000000000000600052603260045260246000fd5b9060005260206000200160009054906101000a900473ffffffffffffffffffffffffffffffffffffffff16905090565b60008060008060008060007f000000000000000000000000000000000000000000000000000000000000000096507f000000000000000000000000000000000000000000000000000000000000000095507f000000000000000000000000000000000000000000000000000000000000000094507f00000000000000000000000000000000000000000000000000000000000000009350600254925060007f0000000000000000000000000000000000000000000000000000000000000000600254610a109190611581565b81548110610a47577f4e487b7100000000000000000000000000000000000000000000000000000000600052603260045260246000fd5b9060005260206000200160009054906101000a900473ffffffffffffffffffffffffffffffffffffffff1691507f00000000000000000000000000000000000000000000000000000000000000006001600254610aa49190611489565b610aae91906114df565b7f0000000000000000000000000000000000000000000000000000000000000000610ad99190611489565b905090919293949596565b7f000000000000000000000000000000000000000000000000000000000000000081565b60025481565b7f000000000000000000000000000000000000000000000000000000000000000081565b60016020528060005260406000206000915054906101000a900460ff1681565b60036020528160005260406000206020528060005260406000206000915091509054906101000a900460ff1681565b600060065414610bc6576040517f08c379a0000000000000000000000000000000000000000000000000000000008152600401610bbd906112ea565b60405180910390fd5b6001600681905550610bd66107cf565b610c15576040517f08c379a0000000000000000000000000000000000000000000000000000000008152600401610c0c9061138a565b60405180910390fd5b600160003373ffffffffffffffffffffffffffffffffffffffff1673ffffffffffffffffffffffffffffffffffffffff16815260200190815260200160002060009054906101000a900460ff16610ca1576040517f08c379a0000000000000000000000000000000000000000000000000000000008152600401610c989061132a565b60405180910390fd5b60036000600254815260200190815260200160002060003373ffffffffffffffffffffffffffffffffffffffff1673ffffffffffffffffffffffffffffffffffffffff16815260200190815260200160002060009054906101000a900460ff1615610d41576040517f08c379a0000000000000000000000000000000000000000000000000000000008152600401610d38906112ca565b60405180910390fd5b7f00000000000000000000000000000000000000000000000000000000000000003414610da3576040517f08c379a0000000000000000000000000000000000000000000000000000000008152600401610d9a9061136a565b60405180910390fd5b600160036000600254815260200190815260200160002060003373ffffffffffffffffffffffffffffffffffffffff1673ffffffffffffffffffffffffffffffffffffffff16815260200190815260200160002060006101000a81548160ff0219169083151502179055507f00000000000000000000000000000000000000000000000000000000000000006004600060025481526020019081526020016000206000828254610e539190611489565b925050819055506002543373ffffffffffffffffffffffffffffffffffffffff167f5f7675b09617d2c9fa4fd13058ee5877a9538f626b0308816736e83748a450407f0000000000000000000000000000000000000000000000000000000000000000604051610ec391906113aa565b60405180910390a36000600681905550565b60056020528060005260406000206000915054906101000a900460ff1681565b7f000000000000000000000000000000000000000000000000000000000000000081565b600081359050610f2881611610565b92915050565b600081359050610f3d81611627565b92915050565b600060208284031215610f5557600080fd5b6000610f6384828501610f19565b91505092915050565b600060208284031215610f7e57600080fd5b6000610f8c84828501610f2e565b91505092915050565b60008060408385031215610fa857600080fd5b6000610fb685828601610f2e565b9250506020610fc785828601610f19565b9150509250929050565b6000610fdd8383610fe9565b60208301905092915050565b610ff281611539565b82525050565b61100181611539565b82525050565b600061101282611444565b61101c818561145c565b935061102783611434565b8060005b8381101561105857815161103f8882610fd1565b975061104a8361144f565b92505060018101905061102b565b5085935050505092915050565b61106e8161154b565b82525050565b6000611081600c83611478565b91507f616c7265616479207061696400000000000000000000000000000000000000006000830152602082019050919050565b60006110c1600a83611478565b91507f5265656e7472616e6379000000000000000000000000000000000000000000006000830152602082019050919050565b6000611101600d83611478565b91507f7061796f7574206661696c6564000000000000000000000000000000000000006000830152602082019050919050565b6000611141600a83611478565b91507f6e6f74206d656d626572000000000000000000000000000000000000000000006000830152602082019050919050565b6000611181601083611478565b91507f6e6f742066756c6c792066756e646564000000000000000000000000000000006000830152602082019050919050565b60006111c1601083611478565b91507f696e636f727265637420616d6f756e74000000000000000000000000000000006000830152602082019050919050565b600061120160008361146d565b9150600082019050919050565b600061121b600b83611478565b91507f6e6f7420737461727465640000000000000000000000000000000000000000006000830152602082019050919050565b61125781611577565b82525050565b6000611268826111f4565b9150819050919050565b60006020820190506112876000830184610ff8565b92915050565b600060208201905081810360008301526112a78184611007565b905092915050565b60006020820190506112c46000830184611065565b92915050565b600060208201905081810360008301526112e381611074565b9050919050565b60006020820190508181036000830152611303816110b4565b9050919050565b60006020820190508181036000830152611323816110f4565b9050919050565b6000602082019050818103600083015261134381611134565b9050919050565b6000602082019050818103600083015261136381611174565b9050919050565b60006020820190508181036000830152611383816111b4565b9050919050565b600060208201905081810360008301526113a38161120e565b9050919050565b60006020820190506113bf600083018461124e565b92915050565b600060e0820190506113da600083018a61124e565b6113e7602083018961124e565b6113f4604083018861124e565b611401606083018761124e565b61140e608083018661124e565b61141b60a0830185610ff8565b61142860c083018461124e565b98975050505050505050565b6000819050602082019050919050565b600081519050919050565b6000602082019050919050565b600082825260208201905092915050565b600081905092915050565b600082825260208201905092915050565b600061149482611577565b915061149f83611577565b9250827fffffffffffffffffffffffffffffffffffffffffffffffffffffffffffffffff038211156114d4576114d36115b2565b5b828201905092915050565b60006114ea82611577565b91506114f583611577565b9250817fffffffffffffffffffffffffffffffffffffffffffffffffffffffffffffffff048311821515161561152e5761152d6115b2565b5b828202905092915050565b600061154482611557565b9050919050565b60008115159050919050565b600073ffffffffffffffffffffffffffffffffffffffff82169050919050565b6000819050919050565b600061158c82611577565b915061159783611577565b9250826115a7576115a66115e1565b5b828206905092915050565b7f4e487b7100000000000000000000000000000000000000000000000000000000600052601160045260246000fd5b7f4e487b7100000000000000000000000000000000000000000000000000000000600052601260045260246000fd5b61161981611539565b811461162457600080fd5b50565b61163081611577565b811461163b57600080fd5b5056fea2646970667358221220833c1125180f3cec84ba5f15720cddae4182b134a968735d680c1cf7ee6ea91c64736f6c63430008000033",
  "immutableReferences": {
    "171": [
      {
        "length": 32,
        "start": 1046
      }
    ],
    "173": [
      {
        "length": 32,
        "start": 1329
      },
      {
        "length": 32,
        "start": 2225
      },
      {
        "length": 32,
        "start": 2385
      },
      {
        "length": 32,
        "start": 2532
      },
      {
        "length": 32,
        "start": 2832
      }
    ],
    "175": [
      {
        "length": 32,
        "start": 1362
      },
      {
        "length": 32,
        "start": 2186
      },
      {
        "length": 32,
        "start": 2420
      },
      {
        "length": 32,
        "start": 3395
      },
      {
        "length": 32,
        "start": 3600
      },
      {
        "length": 32,
        "start": 3735
      }
    ],
    "177": [
      {
        "length": 32,
        "start": 2455
      },
      {
        "length": 32,
        "start": 2678
      },
      {
        "length": 32,
        "start": 3831
      }
    ],
    "179": [
      {
        "length": 32,
        "start": 2003
      },
      {
        "length": 32,
        "start": 2490
      },
      {
        "length": 32,
        "start": 2736
      },
      {
        "length": 32,
        "start": 2790
      }
    ]
  },
  "source": "// SPDX-License-Identifier: MIT\npragma solidity ^0.8.0;\n\ncontract RoscaPool {\n    // Basic config\n    address public immutable creator;\n    uint256 public immutable size;\n    uint256 public immutable contribution; // per round per member (in wei)\n    uint256 public immutable roundDuration; // seconds\n    uint256 public immutable startTime;\n\n    // Members and order\n    address[] public payoutOrder; // length == size\n    mapping(address => bool) public isMember;\n\n    // Rounds\n    uint256 public currentRound; // 0-based\n    mapping(uint256 => mapping(address => bool)) public hasContributed;\n    mapping(uint256 => uint256) public totalContributed; // by round\n    mapping(uint256 => bool) public paid; // payout done per round\n\n    // Reentrancy guard\n    uint256 private locked;\n    modifier noReentrancy() {\n        require(locked == 0, \"Reentrancy\");\n        locked = 1;\n        _;\n        locked = 0;\n    }\n\n    event MemberJoined(address indexed member);\n    event Contribution(address indexed member, uint256 indexed round, uint256 amount);\n    event Payout(uint256 indexed round, address indexed recipient, uint256 amount);\n    event RoundAdvanced(uint256 indexed round);\n\n    constructor(\n        address _creator,\n        uint256 _size,\n        uint256 _contribution,\n        uint256 _roundDuration,\n        uint256 _startTime,\n        address[] memory _payoutOrder\n    ) {\n        require(_creator != address(0), \"bad creator\");\n        require(_size >= 2 && _size <= 12, \"size range\");\n        require(_payoutOrder.length == _size, \"order mismatch\");\n        creator = _creator;\n        size = _size;\n        contribution = _contribution;\n        roundDuration = _roundDuration;\n        startTime = _startTime;\n        payoutOrder = _payoutOrder;\n        // initialize members map\n        for (uint256 i = 0; i < _size; i++) {\n            require(_payoutOrder[i] != address(0), \"zero member\");\n            require(!isMember[_payoutOrder[i]], \"dup member\");\n            isMember[_payoutOrder[i]] = true;\n            emit MemberJoined(_payoutOrder[i]);\n        }\n    }\n\n    function poolInfo() external view returns (\n        uint256 _size,\n        uint256 _contribution,\n        uint256 _roundDuration,\n        uint256 _startTime,\n        uint256 _currentRound,\n        address _currentRecipient,\n        uint256 _roundEndsAt\n    ) {\n        _size = size;\n        _contribution = contribution;\n        _roundDuration = roundDuration;\n        _startTime = startTime;\n        _currentRound = currentRound;\n        _currentRecipient = payoutOrder[currentRound % size];\n        _roundEndsAt = startTime + ((currentRound + 1) * roundDuration);\n    }\n\n    function getPayoutOrder() external view returns (address[] memory) {\n        return payoutOrder;\n    }\n\n    function currentRecipient() public view returns (address) {\n        return payoutOrder[currentRound % size];\n    }\n\n    function roundOpen() public view returns (bool) {\n        return block.timestamp >= startTime;\n    }\n\n    function contribute() external payable noReentrancy {\n        require(roundOpen(), \"not started\");\n        require(isMember[msg.sender], \"not member\");\n        require(!hasContributed[currentRound][msg.sender], \"already paid\");\n        require(msg.value == contribution, \"incorrect amount\");\n\n        hasContributed[currentRound][msg.sender] = true;\n        totalContributed[currentRound] += contribution;\n        emit Contribution(msg.sender, currentRound, contribution);\n    }\n\n    function triggerPayout() external noReentrancy {\n        require(roundOpen(), \"not started\");\n        require(!paid[currentRound], \"already paid\");\n        // All members must contribute exactly once per round\n        require(totalContributed[currentRound] == contribution * size, \"not fully funded\");\n\n        address recipient = currentRecipient();\n        uint256 amount = totalContributed[currentRound];\n\n        paid[currentRound] = true;\n\n        // Effects before interaction\n        // Payout to recipient\n        (bool success, ) = recipient.call{value: amount}(\"\");\n        require(success, \"payout failed\");\n        emit Payout(currentRound, recipient, amount);\n\n        // Advance round\n        currentRound += 1;\n        emit RoundAdvanced(currentRound);\n    }\n\n    // Allow contract to receive ETH\n    receive() external payable {}\n}\n\n\n",
  "sourcePath": "/Users/micah/Documents/dapp/kumusha copy/src/contracts/RoscaPool.sol",
  "compiler": {
    "name": "solc",
    "version": "0.8.0+commit.c7dfd78e.Emscripten.clang"
  },
  "schemaVersion": "3.4.16",
  "updatedAt": "2025-08-10T11:35:35.172Z",
  "devdoc": {
    "kind": "dev",
    "methods": {},
    "version": 1
  },
  "userdoc": {
    "kind": "user",
    "methods": {},
    "version": 1
  }
}