{
  "contractName": "RoscaPoolV2",
  "abi": [
    {
      "inputs": [],
      "stateMutability": "nonpayable",
      "type": "constructor"
    },
    {
      "anonymous": false,
      "inputs": [
        {
          "indexed": true,
          "internalType": "address",
          "name": "member",
          "type": "address"
        },
        {
          "indexed": true,
          "internalType": "uint256",
          "name": "round",
          "type": "uint256"
        },
        {
          "indexed": false,
          "internalType": "uint256",
          "name": "amount",
          "type": "uint256"
        }
      ],
      "name": "Contribution",
      "type": "event"
    },
    {
      "anonymous": false,
      "inputs": [
        {
          "indexed": true,
          "internalType": "address",
          "name": "member",
          "type": "address"
        }
      ],
      "name": "MemberJoined",
      "type": "event"
    },
    {
      "anonymous": false,
      "inputs": [
        {
          "indexed": true,
          "internalType": "uint256",
          "name": "round",
          "type": "uint256"
        },
        {
          "indexed": true,
          "internalType": "address",
          "name": "recipient",
          "type": "address"
        },
        {
          "indexed": false,
          "internalType": "uint256",
          "name": "amount",
          "type": "uint256"
        }
      ],
      "name": "Payout",
      "type": "event"
    },
    {
      "anonymous": false,
      "inputs": [
        {
          "indexed": true,
          "internalType": "address",
          "name": "creator",
          "type": "address"
        },
        {
          "indexed": false,
          "internalType": "uint256",
          "name": "size",
          "type": "uint256"
        },
        {
          "indexed": false,
          "internalType": "uint256",
          "name": "contribution",
          "type": "uint256"
        }
      ],
      "name": "PoolInitialized",
      "type": "event"
    },
    {
      "anonymous": false,
      "inputs": [
        {
          "indexed": true,
          "internalType": "uint256",
          "name": "round",
          "type": "uint256"
        }
      ],
      "name": "RoundAdvanced",
      "type": "event"
    },
    {
      "inputs": [],
      "name": "contribution",
      "outputs": [
        {
          "internalType": "uint256",
          "name": "",
          "type": "uint256"
        }
      ],
      "stateMutability": "view",
      "type": "function"
    },
    {
      "inputs": [],
      "name": "creator",
      "outputs": [
        {
          "internalType": "address",
          "name": "",
          "type": "address"
        }
      ],
      "stateMutability": "view",
      "type": "function"
    },
    {
      "inputs": [],
      "name": "currentRound",
      "outputs": [
        {
          "internalType": "uint256",
          "name": "",
          "type": "uint256"
        }
      ],
      "stateMutability": "view",
      "type": "function"
    },
    {
      "inputs": [
        {
          "internalType": "uint256",
          "name": "",
          "type": "uint256"
        },
        {
          "internalType": "address",
          "name": "",
          "type": "address"
        }
      ],
      "name": "hasContributed",
      "outputs": [
        {
          "internalType": "bool",
          "name": "",
          "type": "bool"
        }
      ],
      "stateMutability": "view",
      "type": "function"
    },
    {
      "inputs": [],
      "name": "initialized",
      "outputs": [
        {
          "internalType": "bool",
          "name": "",
          "type": "bool"
        }
      ],
      "stateMutability": "view",
      "type": "function"
    },
    {
      "inputs": [
        {
          "internalType": "address",
          "name": "",
          "type": "address"
        }
      ],
      "name": "isMember",
      "outputs": [
        {
          "internalType": "bool",
          "name": "",
          "type": "bool"
        }
      ],
      "stateMutability": "view",
      "type": "function"
    },
    {
      "inputs": [
        {
          "internalType": "uint256",
          "name": "",
          "type": "uint256"
        }
      ],
      "name": "paid",
      "outputs": [
        {
          "internalType": "bool",
          "name": "",
          "type": "bool"
        }
      ],
      "stateMutability": "view",
      "type": "function"
    },
    {
      "inputs": [
        {
          "internalType": "uint256",
          "name": "",
          "type": "uint256"
        }
      ],
      "name": "payoutOrder",
      "outputs": [
        {
          "internalType": "address",
          "name": "",
          "type": "address"
        }
      ],
      "stateMutability": "view",
      "type": "function"
    },
    {
      "inputs": [],
      "name": "roundDuration",
      "outputs": [
        {
          "internalType": "uint256",
          "name": "",
          "type": "uint256"
        }
      ],
      "stateMutability": "view",
      "type": "function"
    },
    {
      "inputs": [],
      "name": "size",
      "outputs": [
        {
          "internalType": "uint256",
          "name": "",
          "type": "uint256"
        }
      ],
      "stateMutability": "view",
      "type": "function"
    },
    {
      "inputs": [],
      "name": "startTime",
      "outputs": [
        {
          "internalType": "uint256",
          "name": "",
          "type": "uint256"
        }
      ],
      "stateMutability": "view",
      "type": "function"
    },
    {
      "inputs": [
        {
          "internalType": "uint256",
          "name": "",
          "type": "uint256"
        }
      ],
      "name": "totalContributed",
      "outputs": [
        {
          "internalType": "uint256",
          "name": "",
          "type": "uint256"
        }
      ],
      "stateMutability": "view",
      "type": "function"
    },
    {
      "stateMutability": "payable",
      "type": "receive"
    },
    {
      "inputs": [
        {
          "internalType": "address",
          "name": "_creator",
          "type": "address"
        },
        {
          "internalType": "uint256",
          "name": "_size",
          "type": "uint256"
        },
        {
          "internalType": "uint256",
          "name": "_contribution",
          "type": "uint256"
        },
        {
          "internalType": "uint256",
          "name": "_roundDuration",
          "type": "uint256"
        },
        {
          "internalType": "uint256",
          "name": "_startTime",
          "type": "uint256"
        },
        {
          "internalType": "address[]",
          "name": "_payoutOrder",
          "type": "address[]"
        }
      ],
      "name": "initialize",
      "outputs": [],
      "stateMutability": "nonpayable",
      "type": "function"
    },
    {
      "inputs": [],
      "name": "poolInfo",
      "outputs": [
        {
          "internalType": "uint256",
          "name": "_size",
          "type": "uint256"
        },
        {
          "internalType": "uint256",
          "name": "_contribution",
          "type": "uint256"
        },
        {
          "internalType": "uint256",
          "name": "_roundDuration",
          "type": "uint256"
        },
        {
          "internalType": "uint256",
          "name": "_startTime",
          "type": "uint256"
        },
        {
          "internalType": "uint256",
          "name": "_currentRound",
          "type": "uint256"
        },
        {
          "internalType": "address",
          "name": "_currentRecipient",
          "type": "address"
        },
        {
          "internalType": "uint256",
          "name": "_roundEndsAt",
          "type": "uint256"
        }
      ],
      "stateMutability": "view",
      "type": "function"
    },
    {
      "inputs": [],
      "name": "getPayoutOrder",
      "outputs": [
        {
          "internalType": "address[]",
          "name": "",
          "type": "address[]"
        }
      ],
      "stateMutability": "view",
      "type": "function"
    },
    {
      "inputs": [],
      "name": "currentRecipient",
      "outputs": [
        {
          "internalType": "address",
          "name": "",
          "type": "address"
        }
      ],
      "stateMutability": "view",
      "type": "function"
    },
    {
      "inputs": [],
      "name": "roundOpen",
      "outputs": [
        {
          "internalType": "bool",
          "name": "",
          "type": "bool"
        }
      ],
      "stateMutability": "view",
      "type": "function"
    },
    {
      "inputs": [],
      "name": "contribute",
      "outputs": [],
      "stateMutability": "payable",
      "type": "function"
    },
    {
      "inputs": [],
      "name": "triggerPayout",
      "outputs": [],
      "stateMutability": "nonpayable",
      "type": "function"
    },
    {
      "inputs": [
        {
          "internalType": "uint256",
          "name": "_newContribution",
          "type": "uint256"
        }
      ],
      "name": "updateContribution",
      "outputs": [],
      "stateMutability": "nonpayable",
      "type": "function"
    },
    {
      "inputs": [
        {
          "internalType": "uint256",
          "name": "_newDuration",
          "type": "uint256"
        }
      ],
      "name": "updateRoundDuration",
      "outputs": [],
      "stateMutability": "nonpayable",
      "type": "function"
    }
  ],
  "bytecode": "0x608060405234801561000f575f80fd5b506121198061001d5f395ff3fe60806040526004361061012d575f3560e01c80635a2f3d09116100aa578063a230c5241161006e578063a230c524146103c0578063b5b96ae0146103fc578063d7bb99ba14610438578063e9337b4b14610442578063efa51cda1461046a578063f7cb789a146104a657610134565b80635a2f3d09146102ea57806378e979251461031a5780638a19c8bc1461034457806392c105431461036e578063949d225d1461039657610134565b80631d7d47d6116100f15780631d7d47d61461021a5780632032677f1461024257806343662f4e1461026c57806350520b1f14610296578063532ccada146102c057610134565b806302d05d3f1461013857806305a95f04146101625780630b529a171461017857806311073bec146101b4578063158ef93e146101f057610134565b3661013457005b5f80fd5b348015610143575f80fd5b5061014c6104d0565b6040516101599190611411565b60405180910390f35b34801561016d575f80fd5b506101766104f3565b005b348015610183575f80fd5b5061019e6004803603810190610199919061146e565b6107e4565b6040516101ab9190611411565b60405180910390f35b3480156101bf575f80fd5b506101da60048036038101906101d5919061146e565b61081f565b6040516101e791906114a8565b60405180910390f35b3480156101fb575f80fd5b50610204610834565b60405161021191906114db565b60405180910390f35b348015610225575f80fd5b50610240600480360381019061023b919061166e565b610846565b005b34801561024d575f80fd5b50610256610c8b565b60405161026391906114db565b60405180910390f35b348015610277575f80fd5b50610280610c97565b60405161028d91906117ca565b60405180910390f35b3480156102a1575f80fd5b506102aa610d22565b6040516102b791906114a8565b60405180910390f35b3480156102cb575f80fd5b506102d4610d28565b6040516102e19190611411565b60405180910390f35b3480156102f5575f80fd5b506102fe610d79565b60405161031197969594939291906117ea565b60405180910390f35b348015610325575f80fd5b5061032e610e1a565b60405161033b91906114a8565b60405180910390f35b34801561034f575f80fd5b50610358610e20565b60405161036591906114a8565b60405180910390f35b348015610379575f80fd5b50610394600480360381019061038f919061146e565b610e26565b005b3480156103a1575f80fd5b506103aa610eff565b6040516103b791906114a8565b60405180910390f35b3480156103cb575f80fd5b506103e660048036038101906103e19190611857565b610f05565b6040516103f391906114db565b60405180910390f35b348015610407575f80fd5b50610422600480360381019061041d9190611882565b610f22565b60405161042f91906114db565b60405180910390f35b610440610f4c565b005b34801561044d575f80fd5b506104686004803603810190610463919061146e565b611234565b005b348015610475575f80fd5b50610490600480360381019061048b919061146e565b61130d565b60405161049d91906114db565b60405180910390f35b3480156104b1575f80fd5b506104ba61132a565b6040516104c791906114a8565b60405180910390f35b5f8054906101000a900473ffffffffffffffffffffffffffffffffffffffff1681565b5f600c5414610537576040517f08c379a000000000000000000000000000000000000000000000000000000000815260040161052e9061191a565b60405180910390fd5b6001600c81905550610547610c8b565b610586576040517f08c379a000000000000000000000000000000000000000000000000000000000815260040161057d90611982565b60405180910390fd5b600b5f60085481526020019081526020015f205f9054906101000a900460ff16156105e6576040517f08c379a00000000000000000000000000000000000000000000000000000000081526004016105dd906119ea565b60405180910390fd5b6001546002546105f69190611a35565b600a5f60085481526020019081526020015f20541461064a576040517f08c379a000000000000000000000000000000000000000000000000000000000815260040161064190611ac0565b60405180910390fd5b5f610653610d28565b90505f600a5f60085481526020019081526020015f205490506001600b5f60085481526020019081526020015f205f6101000a81548160ff0219169083151502179055505f8273ffffffffffffffffffffffffffffffffffffffff16826040516106bc90611b0b565b5f6040518083038185875af1925050503d805f81146106f6576040519150601f19603f3d011682016040523d82523d5f602084013e6106fb565b606091505b505090508061073f576040517f08c379a000000000000000000000000000000000000000000000000000000000815260040161073690611b69565b60405180910390fd5b8273ffffffffffffffffffffffffffffffffffffffff166008547f5f7341a552ae2d452b071917104c05fbac3663936a69be768a05c40605056e7d8460405161078891906114a8565b60405180910390a3600160085f8282546107a29190611b87565b925050819055506008547f023811fd72d20a3eb734785eed809172b5c9c24019d493039c70ef9c276d4d9760405160405180910390a25050505f600c81905550565b600681815481106107f3575f80fd5b905f5260205f20015f915054906101000a900473ffffffffffffffffffffffffffffffffffffffff1681565b600a602052805f5260405f205f915090505481565b60055f9054906101000a900460ff1681565b60055f9054906101000a900460ff1615610895576040517f08c379a000000000000000000000000000000000000000000000000000000000815260040161088c90611c04565b60405180910390fd5b5f73ffffffffffffffffffffffffffffffffffffffff168673ffffffffffffffffffffffffffffffffffffffff1603610903576040517f08c379a00000000000000000000000000000000000000000000000000000000081526004016108fa90611c6c565b60405180910390fd5b600285101580156109155750600c8511155b610954576040517f08c379a000000000000000000000000000000000000000000000000000000000815260040161094b90611cd4565b60405180910390fd5b84815114610997576040517f08c379a000000000000000000000000000000000000000000000000000000000815260040161098e90611d3c565b60405180910390fd5b855f806101000a81548173ffffffffffffffffffffffffffffffffffffffff021916908373ffffffffffffffffffffffffffffffffffffffff160217905550846001819055508360028190555082600381905550816004819055508060069080519060200190610a08929190611330565b505f5b85811015610c18575f73ffffffffffffffffffffffffffffffffffffffff16828281518110610a3d57610a3c611d5a565b5b602002602001015173ffffffffffffffffffffffffffffffffffffffff1603610a9b576040517f08c379a0000000000000000000000000000000000000000000000000000000008152600401610a9290611dd1565b60405180910390fd5b60075f838381518110610ab157610ab0611d5a565b5b602002602001015173ffffffffffffffffffffffffffffffffffffffff1673ffffffffffffffffffffffffffffffffffffffff1681526020019081526020015f205f9054906101000a900460ff1615610b3f576040517f08c379a0000000000000000000000000000000000000000000000000000000008152600401610b3690611e39565b60405180910390fd5b600160075f848481518110610b5757610b56611d5a565b5b602002602001015173ffffffffffffffffffffffffffffffffffffffff1673ffffffffffffffffffffffffffffffffffffffff1681526020019081526020015f205f6101000a81548160ff021916908315150217905550818181518110610bc157610bc0611d5a565b5b602002602001015173ffffffffffffffffffffffffffffffffffffffff167f0abf3b3f643594d958297062a019458e27d7766629590ac621aa1000fa1298ab60405160405180910390a28080600101915050610a0b565b50600160055f6101000a81548160ff0219169083151502179055508573ffffffffffffffffffffffffffffffffffffffff167f997f3e422a7446ccf056e7a989c8a281f20af906a7ac6ad0e6f9fea0edd6055c8686604051610c7b929190611e57565b60405180910390a2505050505050565b5f600454421015905090565b60606006805480602002602001604051908101604052809291908181526020018280548015610d1857602002820191905f5260205f20905b815f9054906101000a900473ffffffffffffffffffffffffffffffffffffffff1673ffffffffffffffffffffffffffffffffffffffff1681526020019060010190808311610ccf575b5050505050905090565b60025481565b5f6006600154600854610d3b9190611eab565b81548110610d4c57610d4b611d5a565b5b905f5260205f20015f9054906101000a900473ffffffffffffffffffffffffffffffffffffffff16905090565b5f805f805f805f600154965060025495506003549450600454935060085492506006600154600854610dab9190611eab565b81548110610dbc57610dbb611d5a565b5b905f5260205f20015f9054906101000a900473ffffffffffffffffffffffffffffffffffffffff1691506003546001600854610df89190611b87565b610e029190611a35565b600454610e0f9190611b87565b905090919293949596565b60045481565b60085481565b5f8054906101000a900473ffffffffffffffffffffffffffffffffffffffff1673ffffffffffffffffffffffffffffffffffffffff163373ffffffffffffffffffffffffffffffffffffffff1614610eb3576040517f08c379a0000000000000000000000000000000000000000000000000000000008152600401610eaa90611f25565b60405180910390fd5b5f8111610ef5576040517f08c379a0000000000000000000000000000000000000000000000000000000008152600401610eec90611f8d565b60405180910390fd5b8060028190555050565b60015481565b6007602052805f5260405f205f915054906101000a900460ff1681565b6009602052815f5260405f20602052805f5260405f205f915091509054906101000a900460ff1681565b5f600c5414610f90576040517f08c379a0000000000000000000000000000000000000000000000000000000008152600401610f879061191a565b60405180910390fd5b6001600c81905550610fa0610c8b565b610fdf576040517f08c379a0000000000000000000000000000000000000000000000000000000008152600401610fd690611982565b60405180910390fd5b60075f3373ffffffffffffffffffffffffffffffffffffffff1673ffffffffffffffffffffffffffffffffffffffff1681526020019081526020015f205f9054906101000a900460ff16611068576040517f08c379a000000000000000000000000000000000000000000000000000000000815260040161105f90611ff5565b60405180910390fd5b60095f60085481526020019081526020015f205f3373ffffffffffffffffffffffffffffffffffffffff1673ffffffffffffffffffffffffffffffffffffffff1681526020019081526020015f205f9054906101000a900460ff1615611103576040517f08c379a00000000000000000000000000000000000000000000000000000000081526004016110fa906119ea565b60405180910390fd5b6002543414611147576040517f08c379a000000000000000000000000000000000000000000000000000000000815260040161113e9061205d565b60405180910390fd5b600160095f60085481526020019081526020015f205f3373ffffffffffffffffffffffffffffffffffffffff1673ffffffffffffffffffffffffffffffffffffffff1681526020019081526020015f205f6101000a81548160ff021916908315150217905550600254600a5f60085481526020019081526020015f205f8282546111d19190611b87565b925050819055506008543373ffffffffffffffffffffffffffffffffffffffff167f5f7675b09617d2c9fa4fd13058ee5877a9538f626b0308816736e83748a4504060025460405161122391906114a8565b60405180910390a35f600c81905550565b5f8054906101000a900473ffffffffffffffffffffffffffffffffffffffff1673ffffffffffffffffffffffffffffffffffffffff163373ffffffffffffffffffffffffffffffffffffffff16146112c1576040517f08c379a00000000000000000000000000000000000000000000000000000000081526004016112b890611f25565b60405180910390fd5b5f8111611303576040517f08c379a00000000000000000000000000000000000000000000000000000000081526004016112fa906120c5565b60405180910390fd5b8060038190555050565b600b602052805f5260405f205f915054906101000a900460ff1681565b60035481565b828054828255905f5260205f209081019282156113a6579160200282015b828111156113a5578251825f6101000a81548173ffffffffffffffffffffffffffffffffffffffff021916908373ffffffffffffffffffffffffffffffffffffffff1602179055509160200191906001019061134e565b5b5090506113b391906113b7565b5090565b5b808211156113ce575f815f9055506001016113b8565b5090565b5f73ffffffffffffffffffffffffffffffffffffffff82169050919050565b5f6113fb826113d2565b9050919050565b61140b816113f1565b82525050565b5f6020820190506114245f830184611402565b92915050565b5f604051905090565b5f80fd5b5f80fd5b5f819050919050565b61144d8161143b565b8114611457575f80fd5b50565b5f8135905061146881611444565b92915050565b5f6020828403121561148357611482611433565b5b5f6114908482850161145a565b91505092915050565b6114a28161143b565b82525050565b5f6020820190506114bb5f830184611499565b92915050565b5f8115159050919050565b6114d5816114c1565b82525050565b5f6020820190506114ee5f8301846114cc565b92915050565b6114fd816113f1565b8114611507575f80fd5b50565b5f81359050611518816114f4565b92915050565b5f80fd5b5f601f19601f8301169050919050565b7f4e487b71000000000000000000000000000000000000000000000000000000005f52604160045260245ffd5b61156882611522565b810181811067ffffffffffffffff8211171561158757611586611532565b5b80604052505050565b5f61159961142a565b90506115a5828261155f565b919050565b5f67ffffffffffffffff8211156115c4576115c3611532565b5b602082029050602081019050919050565b5f80fd5b5f6115eb6115e6846115aa565b611590565b9050808382526020820190506020840283018581111561160e5761160d6115d5565b5b835b818110156116375780611623888261150a565b845260208401935050602081019050611610565b5050509392505050565b5f82601f8301126116555761165461151e565b5b81356116658482602086016115d9565b91505092915050565b5f805f805f8060c0878903121561168857611687611433565b5b5f61169589828a0161150a565b96505060206116a689828a0161145a565b95505060406116b789828a0161145a565b94505060606116c889828a0161145a565b93505060806116d989828a0161145a565b92505060a087013567ffffffffffffffff8111156116fa576116f9611437565b5b61170689828a01611641565b9150509295509295509295565b5f81519050919050565b5f82825260208201905092915050565b5f819050602082019050919050565b611745816113f1565b82525050565b5f611756838361173c565b60208301905092915050565b5f602082019050919050565b5f61177882611713565b611782818561171d565b935061178d8361172d565b805f5b838110156117bd5781516117a4888261174b565b97506117af83611762565b925050600181019050611790565b5085935050505092915050565b5f6020820190508181035f8301526117e2818461176e565b905092915050565b5f60e0820190506117fd5f83018a611499565b61180a6020830189611499565b6118176040830188611499565b6118246060830187611499565b6118316080830186611499565b61183e60a0830185611402565b61184b60c0830184611499565b98975050505050505050565b5f6020828403121561186c5761186b611433565b5b5f6118798482850161150a565b91505092915050565b5f806040838503121561189857611897611433565b5b5f6118a58582860161145a565b92505060206118b68582860161150a565b9150509250929050565b5f82825260208201905092915050565b7f5265656e7472616e6379000000000000000000000000000000000000000000005f82015250565b5f611904600a836118c0565b915061190f826118d0565b602082019050919050565b5f6020820190508181035f830152611931816118f8565b9050919050565b7f6e6f7420737461727465640000000000000000000000000000000000000000005f82015250565b5f61196c600b836118c0565b915061197782611938565b602082019050919050565b5f6020820190508181035f83015261199981611960565b9050919050565b7f616c7265616479207061696400000000000000000000000000000000000000005f82015250565b5f6119d4600c836118c0565b91506119df826119a0565b602082019050919050565b5f6020820190508181035f830152611a01816119c8565b9050919050565b7f4e487b71000000000000000000000000000000000000000000000000000000005f52601160045260245ffd5b5f611a3f8261143b565b9150611a4a8361143b565b9250828202611a588161143b565b91508282048414831517611a6f57611a6e611a08565b5b5092915050565b7f6e6f742066756c6c792066756e646564000000000000000000000000000000005f82015250565b5f611aaa6010836118c0565b9150611ab582611a76565b602082019050919050565b5f6020820190508181035f830152611ad781611a9e565b9050919050565b5f81905092915050565b50565b5f611af65f83611ade565b9150611b0182611ae8565b5f82019050919050565b5f611b1582611aeb565b9150819050919050565b7f7061796f7574206661696c6564000000000000000000000000000000000000005f82015250565b5f611b53600d836118c0565b9150611b5e82611b1f565b602082019050919050565b5f6020820190508181035f830152611b8081611b47565b9050919050565b5f611b918261143b565b9150611b9c8361143b565b9250828201905080821115611bb457611bb3611a08565b5b92915050565b7f416c726561647920696e697469616c697a6564000000000000000000000000005f82015250565b5f611bee6013836118c0565b9150611bf982611bba565b602082019050919050565b5f6020820190508181035f830152611c1b81611be2565b9050919050565b7f6261642063726561746f720000000000000000000000000000000000000000005f82015250565b5f611c56600b836118c0565b9150611c6182611c22565b602082019050919050565b5f6020820190508181035f830152611c8381611c4a565b9050919050565b7f73697a652072616e6765000000000000000000000000000000000000000000005f82015250565b5f611cbe600a836118c0565b9150611cc982611c8a565b602082019050919050565b5f6020820190508181035f830152611ceb81611cb2565b9050919050565b7f6f72646572206d69736d617463680000000000000000000000000000000000005f82015250565b5f611d26600e836118c0565b9150611d3182611cf2565b602082019050919050565b5f6020820190508181035f830152611d5381611d1a565b9050919050565b7f4e487b71000000000000000000000000000000000000000000000000000000005f52603260045260245ffd5b7f7a65726f206d656d6265720000000000000000000000000000000000000000005f82015250565b5f611dbb600b836118c0565b9150611dc682611d87565b602082019050919050565b5f6020820190508181035f830152611de881611daf565b9050919050565b7f647570206d656d626572000000000000000000000000000000000000000000005f82015250565b5f611e23600a836118c0565b9150611e2e82611def565b602082019050919050565b5f6020820190508181035f830152611e5081611e17565b9050919050565b5f604082019050611e6a5f830185611499565b611e776020830184611499565b9392505050565b7f4e487b71000000000000000000000000000000000000000000000000000000005f52601260045260245ffd5b5f611eb58261143b565b9150611ec08361143b565b925082611ed057611ecf611e7e565b5b828206905092915050565b7f4e6f74206f776e657200000000000000000000000000000000000000000000005f82015250565b5f611f0f6009836118c0565b9150611f1a82611edb565b602082019050919050565b5f6020820190508181035f830152611f3c81611f03565b9050919050565b7f496e76616c696420636f6e747269627574696f6e0000000000000000000000005f82015250565b5f611f776014836118c0565b9150611f8282611f43565b602082019050919050565b5f6020820190508181035f830152611fa481611f6b565b9050919050565b7f6e6f74206d656d626572000000000000000000000000000000000000000000005f82015250565b5f611fdf600a836118c0565b9150611fea82611fab565b602082019050919050565b5f6020820190508181035f83015261200c81611fd3565b9050919050565b7f696e636f727265637420616d6f756e74000000000000000000000000000000005f82015250565b5f6120476010836118c0565b915061205282612013565b602082019050919050565b5f6020820190508181035f8301526120748161203b565b9050919050565b7f496e76616c6964206475726174696f6e000000000000000000000000000000005f82015250565b5f6120af6010836118c0565b91506120ba8261207b565b602082019050919050565b5f6020820190508181035f8301526120dc816120a3565b905091905056fea26469706673582212204d4ab5518ca6608ee447a2be4d34c085e3bc73e0f924d938bc36bc79398e3f8764736f6c63430008160033",
  "immutableReferences": {},
  "source": "// SPDX-License-Identifier: MIT\npragma solidity ^0.8.0;\n\ncontract RoscaPoolV2 {\n    // Basic config\n    address public creator;\n    uint256 public size;\n    uint256 public contribution; // per round per member (in wei)\n    uint256 public roundDuration; // seconds\n    uint256 public startTime;\n    bool public initialized;\n\n    // Members and order\n    address[] public payoutOrder; // length == size\n    mapping(address => bool) public isMember;\n\n    // Rounds\n    uint256 public currentRound; // 0-based\n    mapping(uint256 => mapping(address => bool)) public hasContributed;\n    mapping(uint256 => uint256) public totalContributed; // by round\n    mapping(uint256 => bool) public paid; // payout done per round\n\n    // Reentrancy guard\n    uint256 private locked;\n    modifier noReentrancy() {\n        require(locked == 0, \"Reentrancy\");\n        locked = 1;\n        _;\n        locked = 0;\n    }\n\n    // Access control\n    modifier onlyOwner() {\n        require(msg.sender == creator, \"Not owner\");\n        _;\n    }\n\n    event MemberJoined(address indexed member);\n    event Contribution(address indexed member, uint256 indexed round, uint256 amount);\n    event Payout(uint256 indexed round, address indexed recipient, uint256 amount);\n    event RoundAdvanced(uint256 indexed round);\n    event PoolInitialized(address indexed creator, uint256 size, uint256 contribution);\n\n    constructor() {\n        // Simple constructor\n    }\n\n    function initialize(\n        address _creator,\n        uint256 _size,\n        uint256 _contribution,\n        uint256 _roundDuration,\n        uint256 _startTime,\n        address[] memory _payoutOrder\n    ) public {\n        require(!initialized, \"Already initialized\");\n        require(_creator != address(0), \"bad creator\");\n        require(_size >= 2 && _size <= 12, \"size range\");\n        require(_payoutOrder.length == _size, \"order mismatch\");\n        \n        creator = _creator;\n        size = _size;\n        contribution = _contribution;\n        roundDuration = _roundDuration;\n        startTime = _startTime;\n        payoutOrder = _payoutOrder;\n        \n        // initialize members map\n        for (uint256 i = 0; i < _size; i++) {\n            require(_payoutOrder[i] != address(0), \"zero member\");\n            require(!isMember[_payoutOrder[i]], \"dup member\");\n            isMember[_payoutOrder[i]] = true;\n            emit MemberJoined(_payoutOrder[i]);\n        }\n        \n        initialized = true;\n        emit PoolInitialized(_creator, _size, _contribution);\n    }\n\n    function poolInfo() external view returns (\n        uint256 _size,\n        uint256 _contribution,\n        uint256 _roundDuration,\n        uint256 _startTime,\n        uint256 _currentRound,\n        address _currentRecipient,\n        uint256 _roundEndsAt\n    ) {\n        _size = size;\n        _contribution = contribution;\n        _roundDuration = roundDuration;\n        _startTime = startTime;\n        _currentRound = currentRound;\n        _currentRecipient = payoutOrder[currentRound % size];\n        _roundEndsAt = startTime + ((currentRound + 1) * roundDuration);\n    }\n\n    function getPayoutOrder() external view returns (address[] memory) {\n        return payoutOrder;\n    }\n\n    function currentRecipient() public view returns (address) {\n        return payoutOrder[currentRound % size];\n    }\n\n    function roundOpen() public view returns (bool) {\n        return block.timestamp >= startTime;\n    }\n\n    function contribute() external payable noReentrancy {\n        require(roundOpen(), \"not started\");\n        require(isMember[msg.sender], \"not member\");\n        require(!hasContributed[currentRound][msg.sender], \"already paid\");\n        require(msg.value == contribution, \"incorrect amount\");\n\n        hasContributed[currentRound][msg.sender] = true;\n        totalContributed[currentRound] += contribution;\n        emit Contribution(msg.sender, currentRound, contribution);\n    }\n\n    function triggerPayout() external noReentrancy {\n        require(roundOpen(), \"not started\");\n        require(!paid[currentRound], \"already paid\");\n        // All members must contribute exactly once per round\n        require(totalContributed[currentRound] == contribution * size, \"not fully funded\");\n\n        address recipient = currentRecipient();\n        uint256 amount = totalContributed[currentRound];\n\n        paid[currentRound] = true;\n\n        // Effects before interaction\n        // Payout to recipient\n        (bool success, ) = recipient.call{value: amount}(\"\");\n        require(success, \"payout failed\");\n        emit Payout(currentRound, recipient, amount);\n\n        // Advance round\n        currentRound += 1;\n        emit RoundAdvanced(currentRound);\n    }\n\n    // Admin functions for upgrades\n    function updateContribution(uint256 _newContribution) external onlyOwner {\n        require(_newContribution > 0, \"Invalid contribution\");\n        contribution = _newContribution;\n    }\n\n    function updateRoundDuration(uint256 _newDuration) external onlyOwner {\n        require(_newDuration > 0, \"Invalid duration\");\n        roundDuration = _newDuration;\n    }\n\n    // Allow contract to receive ETH\n    receive() external payable {}\n}\n",
  "sourcePath": "/Users/micah/Documents/dapp/kumusha copy/src/contracts/RoscaPoolV2.sol",
  "compiler": {
    "name": "solc",
    "version": "0.8.22+commit.4fc1097e.Emscripten.clang"
  },
  "schemaVersion": "3.4.4",
  "updatedAt": "2025-08-11T19:41:59.754Z",
  "devdoc": {
    "kind": "dev",
    "methods": {},
    "version": 1
  },
  "userdoc": {
    "kind": "user",
    "methods": {},
    "version": 1
  }
}