{
  "contractName": "RoscaPoolUpgradeable",
  "abi": [
    {
      "inputs": [],
      "stateMutability": "nonpayable",
      "type": "constructor"
    },
    {
      "inputs": [],
      "name": "InvalidInitialization",
      "type": "error"
    },
    {
      "inputs": [],
      "name": "NotInitializing",
      "type": "error"
    },
    {
      "inputs": [
        {
          "internalType": "address",
          "name": "owner",
          "type": "address"
        }
      ],
      "name": "OwnableInvalidOwner",
      "type": "error"
    },
    {
      "inputs": [
        {
          "internalType": "address",
          "name": "account",
          "type": "address"
        }
      ],
      "name": "OwnableUnauthorizedAccount",
      "type": "error"
    },
    {
      "inputs": [],
      "name": "ReentrancyGuardReentrantCall",
      "type": "error"
    },
    {
      "anonymous": false,
      "inputs": [
        {
          "indexed": true,
          "internalType": "address",
          "name": "member",
          "type": "address"
        },
        {
          "indexed": true,
          "internalType": "uint256",
          "name": "round",
          "type": "uint256"
        },
        {
          "indexed": false,
          "internalType": "uint256",
          "name": "amount",
          "type": "uint256"
        }
      ],
      "name": "Contribution",
      "type": "event"
    },
    {
      "anonymous": false,
      "inputs": [
        {
          "indexed": false,
          "internalType": "uint64",
          "name": "version",
          "type": "uint64"
        }
      ],
      "name": "Initialized",
      "type": "event"
    },
    {
      "anonymous": false,
      "inputs": [
        {
          "indexed": true,
          "internalType": "address",
          "name": "member",
          "type": "address"
        }
      ],
      "name": "MemberJoined",
      "type": "event"
    },
    {
      "anonymous": false,
      "inputs": [
        {
          "indexed": true,
          "internalType": "address",
          "name": "previousOwner",
          "type": "address"
        },
        {
          "indexed": true,
          "internalType": "address",
          "name": "newOwner",
          "type": "address"
        }
      ],
      "name": "OwnershipTransferred",
      "type": "event"
    },
    {
      "anonymous": false,
      "inputs": [
        {
          "indexed": true,
          "internalType": "uint256",
          "name": "round",
          "type": "uint256"
        },
        {
          "indexed": true,
          "internalType": "address",
          "name": "recipient",
          "type": "address"
        },
        {
          "indexed": false,
          "internalType": "uint256",
          "name": "amount",
          "type": "uint256"
        }
      ],
      "name": "Payout",
      "type": "event"
    },
    {
      "anonymous": false,
      "inputs": [
        {
          "indexed": true,
          "internalType": "address",
          "name": "creator",
          "type": "address"
        },
        {
          "indexed": false,
          "internalType": "uint256",
          "name": "size",
          "type": "uint256"
        },
        {
          "indexed": false,
          "internalType": "uint256",
          "name": "contribution",
          "type": "uint256"
        }
      ],
      "name": "PoolInitialized",
      "type": "event"
    },
    {
      "anonymous": false,
      "inputs": [
        {
          "indexed": true,
          "internalType": "uint256",
          "name": "round",
          "type": "uint256"
        }
      ],
      "name": "RoundAdvanced",
      "type": "event"
    },
    {
      "inputs": [],
      "name": "contribution",
      "outputs": [
        {
          "internalType": "uint256",
          "name": "",
          "type": "uint256"
        }
      ],
      "stateMutability": "view",
      "type": "function"
    },
    {
      "inputs": [],
      "name": "creator",
      "outputs": [
        {
          "internalType": "address",
          "name": "",
          "type": "address"
        }
      ],
      "stateMutability": "view",
      "type": "function"
    },
    {
      "inputs": [],
      "name": "currentRound",
      "outputs": [
        {
          "internalType": "uint256",
          "name": "",
          "type": "uint256"
        }
      ],
      "stateMutability": "view",
      "type": "function"
    },
    {
      "inputs": [
        {
          "internalType": "uint256",
          "name": "",
          "type": "uint256"
        },
        {
          "internalType": "address",
          "name": "",
          "type": "address"
        }
      ],
      "name": "hasContributed",
      "outputs": [
        {
          "internalType": "bool",
          "name": "",
          "type": "bool"
        }
      ],
      "stateMutability": "view",
      "type": "function"
    },
    {
      "inputs": [],
      "name": "initialized",
      "outputs": [
        {
          "internalType": "bool",
          "name": "",
          "type": "bool"
        }
      ],
      "stateMutability": "view",
      "type": "function"
    },
    {
      "inputs": [
        {
          "internalType": "address",
          "name": "",
          "type": "address"
        }
      ],
      "name": "isMember",
      "outputs": [
        {
          "internalType": "bool",
          "name": "",
          "type": "bool"
        }
      ],
      "stateMutability": "view",
      "type": "function"
    },
    {
      "inputs": [],
      "name": "owner",
      "outputs": [
        {
          "internalType": "address",
          "name": "",
          "type": "address"
        }
      ],
      "stateMutability": "view",
      "type": "function"
    },
    {
      "inputs": [
        {
          "internalType": "uint256",
          "name": "",
          "type": "uint256"
        }
      ],
      "name": "paid",
      "outputs": [
        {
          "internalType": "bool",
          "name": "",
          "type": "bool"
        }
      ],
      "stateMutability": "view",
      "type": "function"
    },
    {
      "inputs": [
        {
          "internalType": "uint256",
          "name": "",
          "type": "uint256"
        }
      ],
      "name": "payoutOrder",
      "outputs": [
        {
          "internalType": "address",
          "name": "",
          "type": "address"
        }
      ],
      "stateMutability": "view",
      "type": "function"
    },
    {
      "inputs": [],
      "name": "renounceOwnership",
      "outputs": [],
      "stateMutability": "nonpayable",
      "type": "function"
    },
    {
      "inputs": [],
      "name": "roundDuration",
      "outputs": [
        {
          "internalType": "uint256",
          "name": "",
          "type": "uint256"
        }
      ],
      "stateMutability": "view",
      "type": "function"
    },
    {
      "inputs": [],
      "name": "size",
      "outputs": [
        {
          "internalType": "uint256",
          "name": "",
          "type": "uint256"
        }
      ],
      "stateMutability": "view",
      "type": "function"
    },
    {
      "inputs": [],
      "name": "startTime",
      "outputs": [
        {
          "internalType": "uint256",
          "name": "",
          "type": "uint256"
        }
      ],
      "stateMutability": "view",
      "type": "function"
    },
    {
      "inputs": [
        {
          "internalType": "uint256",
          "name": "",
          "type": "uint256"
        }
      ],
      "name": "totalContributed",
      "outputs": [
        {
          "internalType": "uint256",
          "name": "",
          "type": "uint256"
        }
      ],
      "stateMutability": "view",
      "type": "function"
    },
    {
      "inputs": [
        {
          "internalType": "address",
          "name": "newOwner",
          "type": "address"
        }
      ],
      "name": "transferOwnership",
      "outputs": [],
      "stateMutability": "nonpayable",
      "type": "function"
    },
    {
      "stateMutability": "payable",
      "type": "receive"
    },
    {
      "inputs": [
        {
          "internalType": "address",
          "name": "_creator",
          "type": "address"
        },
        {
          "internalType": "uint256",
          "name": "_size",
          "type": "uint256"
        },
        {
          "internalType": "uint256",
          "name": "_contribution",
          "type": "uint256"
        },
        {
          "internalType": "uint256",
          "name": "_roundDuration",
          "type": "uint256"
        },
        {
          "internalType": "uint256",
          "name": "_startTime",
          "type": "uint256"
        },
        {
          "internalType": "address[]",
          "name": "_payoutOrder",
          "type": "address[]"
        }
      ],
      "name": "initialize",
      "outputs": [],
      "stateMutability": "nonpayable",
      "type": "function"
    },
    {
      "inputs": [],
      "name": "poolInfo",
      "outputs": [
        {
          "internalType": "uint256",
          "name": "_size",
          "type": "uint256"
        },
        {
          "internalType": "uint256",
          "name": "_contribution",
          "type": "uint256"
        },
        {
          "internalType": "uint256",
          "name": "_roundDuration",
          "type": "uint256"
        },
        {
          "internalType": "uint256",
          "name": "_startTime",
          "type": "uint256"
        },
        {
          "internalType": "uint256",
          "name": "_currentRound",
          "type": "uint256"
        },
        {
          "internalType": "address",
          "name": "_currentRecipient",
          "type": "address"
        },
        {
          "internalType": "uint256",
          "name": "_roundEndsAt",
          "type": "uint256"
        }
      ],
      "stateMutability": "view",
      "type": "function"
    },
    {
      "inputs": [],
      "name": "getPayoutOrder",
      "outputs": [
        {
          "internalType": "address[]",
          "name": "",
          "type": "address[]"
        }
      ],
      "stateMutability": "view",
      "type": "function"
    },
    {
      "inputs": [],
      "name": "currentRecipient",
      "outputs": [
        {
          "internalType": "address",
          "name": "",
          "type": "address"
        }
      ],
      "stateMutability": "view",
      "type": "function"
    },
    {
      "inputs": [],
      "name": "roundOpen",
      "outputs": [
        {
          "internalType": "bool",
          "name": "",
          "type": "bool"
        }
      ],
      "stateMutability": "view",
      "type": "function"
    },
    {
      "inputs": [],
      "name": "contribute",
      "outputs": [],
      "stateMutability": "payable",
      "type": "function"
    },
    {
      "inputs": [],
      "name": "triggerPayout",
      "outputs": [],
      "stateMutability": "nonpayable",
      "type": "function"
    },
    {
      "inputs": [
        {
          "internalType": "uint256",
          "name": "_newContribution",
          "type": "uint256"
        }
      ],
      "name": "updateContribution",
      "outputs": [],
      "stateMutability": "nonpayable",
      "type": "function"
    },
    {
      "inputs": [
        {
          "internalType": "uint256",
          "name": "_newDuration",
          "type": "uint256"
        }
      ],
      "name": "updateRoundDuration",
      "outputs": [],
      "stateMutability": "nonpayable",
      "type": "function"
    },
    {
      "inputs": [],
      "name": "emergencyPause",
      "outputs": [],
      "stateMutability": "nonpayable",
      "type": "function"
    },
    {
      "inputs": [
        {
          "internalType": "address",
          "name": "newImplementation",
          "type": "address"
        }
      ],
      "name": "upgradeTo",
      "outputs": [],
      "stateMutability": "nonpayable",
      "type": "function"
    }
  ],
  "bytecode": "0x608060405234801561000f575f80fd5b506126068061001d5f395ff3fe608060405260043610610184575f3560e01c8063715018a6116100d0578063a230c52411610089578063e9337b4b11610063578063e9337b4b14610517578063efa51cda1461053f578063f2fde38b1461057b578063f7cb789a146105a35761018b565b8063a230c52414610495578063b5b96ae0146104d1578063d7bb99ba1461050d5761018b565b8063715018a6146103af57806378e97925146103c55780638a19c8bc146103ef5780638da5cb5b1461041957806392c1054314610443578063949d225d1461046b5761018b565b80632032677f1161013d57806350520b1f1161011757806350520b1f1461031557806351858e271461033f578063532ccada146103555780635a2f3d091461037f5761018b565b80632032677f146102995780633659cfe6146102c357806343662f4e146102eb5761018b565b806302d05d3f1461018f57806305a95f04146101b95780630b529a17146101cf57806311073bec1461020b578063158ef93e146102475780631d7d47d6146102715761018b565b3661018b57005b5f80fd5b34801561019a575f80fd5b506101a36105cd565b6040516101b09190611960565b60405180910390f35b3480156101c4575f80fd5b506101cd6105f0565b005b3480156101da575f80fd5b506101f560048036038101906101f091906119bd565b61089e565b6040516102029190611960565b60405180910390f35b348015610216575f80fd5b50610231600480360381019061022c91906119bd565b6108d9565b60405161023e91906119f7565b60405180910390f35b348015610252575f80fd5b5061025b6108ee565b6040516102689190611a2a565b60405180910390f35b34801561027c575f80fd5b5061029760048036038101906102929190611bbd565b610900565b005b3480156102a4575f80fd5b506102ad610ecb565b6040516102ba9190611a2a565b60405180910390f35b3480156102ce575f80fd5b506102e960048036038101906102e49190611c62565b610ed7565b005b3480156102f6575f80fd5b506102ff610ee2565b60405161030c9190611d44565b60405180910390f35b348015610320575f80fd5b50610329610f6d565b60405161033691906119f7565b60405180910390f35b34801561034a575f80fd5b50610353610f73565b005b348015610360575f80fd5b50610369610f7d565b6040516103769190611960565b60405180910390f35b34801561038a575f80fd5b50610393610fce565b6040516103a69796959493929190611d64565b60405180910390f35b3480156103ba575f80fd5b506103c361106f565b005b3480156103d0575f80fd5b506103d9611082565b6040516103e691906119f7565b60405180910390f35b3480156103fa575f80fd5b50610403611088565b60405161041091906119f7565b60405180910390f35b348015610424575f80fd5b5061042d61108e565b60405161043a9190611960565b60405180910390f35b34801561044e575f80fd5b50610469600480360381019061046491906119bd565b6110c3565b005b348015610476575f80fd5b5061047f611117565b60405161048c91906119f7565b60405180910390f35b3480156104a0575f80fd5b506104bb60048036038101906104b69190611c62565b61111d565b6040516104c89190611a2a565b60405180910390f35b3480156104dc575f80fd5b506104f760048036038101906104f29190611dd1565b61113a565b6040516105049190611a2a565b60405180910390f35b610515611164565b005b348015610522575f80fd5b5061053d600480360381019061053891906119bd565b611409565b005b34801561054a575f80fd5b50610565600480360381019061056091906119bd565b61145d565b6040516105729190611a2a565b60405180910390f35b348015610586575f80fd5b506105a1600480360381019061059c9190611c62565b61147a565b005b3480156105ae575f80fd5b506105b76114fe565b6040516105c491906119f7565b60405180910390f35b5f8054906101000a900473ffffffffffffffffffffffffffffffffffffffff1681565b6105f8611504565b610600610ecb565b61063f576040517f08c379a000000000000000000000000000000000000000000000000000000000815260040161063690611e69565b60405180910390fd5b600a5f60075481526020019081526020015f205f9054906101000a900460ff161561069f576040517f08c379a000000000000000000000000000000000000000000000000000000000815260040161069690611ed1565b60405180910390fd5b6001546002546106af9190611f1c565b60095f60075481526020019081526020015f205414610703576040517f08c379a00000000000000000000000000000000000000000000000000000000081526004016106fa90611fa7565b60405180910390fd5b5f61070c610f7d565b90505f60095f60075481526020019081526020015f205490506001600a5f60075481526020019081526020015f205f6101000a81548160ff0219169083151502179055505f8273ffffffffffffffffffffffffffffffffffffffff168260405161077590611ff2565b5f6040518083038185875af1925050503d805f81146107af576040519150601f19603f3d011682016040523d82523d5f602084013e6107b4565b606091505b50509050806107f8576040517f08c379a00000000000000000000000000000000000000000000000000000000081526004016107ef90612050565b60405180910390fd5b8273ffffffffffffffffffffffffffffffffffffffff166007547f5f7341a552ae2d452b071917104c05fbac3663936a69be768a05c40605056e7d8460405161084191906119f7565b60405180910390a3600160075f82825461085b919061206e565b925050819055506007547f023811fd72d20a3eb734785eed809172b5c9c24019d493039c70ef9c276d4d9760405160405180910390a250505061089c611558565b565b600581815481106108ad575f80fd5b905f5260205f20015f915054906101000a900473ffffffffffffffffffffffffffffffffffffffff1681565b6009602052805f5260405f205f915090505481565b600b5f9054906101000a900460ff1681565b5f61090961156f565b90505f815f0160089054906101000a900460ff161590505f825f015f9054906101000a900467ffffffffffffffff1690505f808267ffffffffffffffff161480156109515750825b90505f60018367ffffffffffffffff1614801561098457505f3073ffffffffffffffffffffffffffffffffffffffff163b145b905081158015610992575080155b156109c9576040517ff92ee8a900000000000000000000000000000000000000000000000000000000815260040160405180910390fd5b6001855f015f6101000a81548167ffffffffffffffff021916908367ffffffffffffffff1602179055508315610a16576001855f0160086101000a81548160ff0219169083151502179055505b600b5f9054906101000a900460ff1615610a65576040517f08c379a0000000000000000000000000000000000000000000000000000000008152600401610a5c906120eb565b60405180910390fd5b5f73ffffffffffffffffffffffffffffffffffffffff168b73ffffffffffffffffffffffffffffffffffffffff1603610ad3576040517f08c379a0000000000000000000000000000000000000000000000000000000008152600401610aca90612153565b60405180910390fd5b60028a10158015610ae55750600c8a11155b610b24576040517f08c379a0000000000000000000000000000000000000000000000000000000008152600401610b1b906121bb565b60405180910390fd5b89865114610b67576040517f08c379a0000000000000000000000000000000000000000000000000000000008152600401610b5e90612223565b60405180910390fd5b610b708b611582565b610b78611596565b8a5f806101000a81548173ffffffffffffffffffffffffffffffffffffffff021916908373ffffffffffffffffffffffffffffffffffffffff160217905550896001819055508860028190555087600381905550866004819055508560059080519060200190610be992919061187f565b505f5b8a811015610df9575f73ffffffffffffffffffffffffffffffffffffffff16878281518110610c1e57610c1d612241565b5b602002602001015173ffffffffffffffffffffffffffffffffffffffff1603610c7c576040517f08c379a0000000000000000000000000000000000000000000000000000000008152600401610c73906122b8565b60405180910390fd5b60065f888381518110610c9257610c91612241565b5b602002602001015173ffffffffffffffffffffffffffffffffffffffff1673ffffffffffffffffffffffffffffffffffffffff1681526020019081526020015f205f9054906101000a900460ff1615610d20576040517f08c379a0000000000000000000000000000000000000000000000000000000008152600401610d1790612320565b60405180910390fd5b600160065f898481518110610d3857610d37612241565b5b602002602001015173ffffffffffffffffffffffffffffffffffffffff1673ffffffffffffffffffffffffffffffffffffffff1681526020019081526020015f205f6101000a81548160ff021916908315150217905550868181518110610da257610da1612241565b5b602002602001015173ffffffffffffffffffffffffffffffffffffffff167f0abf3b3f643594d958297062a019458e27d7766629590ac621aa1000fa1298ab60405160405180910390a28080600101915050610bec565b506001600b5f6101000a81548160ff0219169083151502179055508a73ffffffffffffffffffffffffffffffffffffffff167f997f3e422a7446ccf056e7a989c8a281f20af906a7ac6ad0e6f9fea0edd6055c8b8b604051610e5c92919061233e565b60405180910390a28315610ebe575f855f0160086101000a81548160ff0219169083151502179055507fc7f505b2f371ae2175ee4913f4499e1f2633a7b5936321eed1cdaeb6115181d26001604051610eb591906123ba565b60405180910390a15b5050505050505050505050565b5f600454421015905090565b610edf6115a8565b50565b60606005805480602002602001604051908101604052809291908181526020018280548015610f6357602002820191905f5260205f20905b815f9054906101000a900473ffffffffffffffffffffffffffffffffffffffff1673ffffffffffffffffffffffffffffffffffffffff1681526020019060010190808311610f1a575b5050505050905090565b60025481565b610f7b6115a8565b565b5f6005600154600754610f909190612400565b81548110610fa157610fa0612241565b5b905f5260205f20015f9054906101000a900473ffffffffffffffffffffffffffffffffffffffff16905090565b5f805f805f805f6001549650600254955060035494506004549350600754925060056001546007546110009190612400565b8154811061101157611010612241565b5b905f5260205f20015f9054906101000a900473ffffffffffffffffffffffffffffffffffffffff169150600354600160075461104d919061206e565b6110579190611f1c565b600454611064919061206e565b905090919293949596565b6110776115a8565b6110805f61162f565b565b60045481565b60075481565b5f80611098611700565b9050805f015f9054906101000a900473ffffffffffffffffffffffffffffffffffffffff1691505090565b6110cb6115a8565b5f811161110d576040517f08c379a00000000000000000000000000000000000000000000000000000000081526004016111049061247a565b60405180910390fd5b8060028190555050565b60015481565b6006602052805f5260405f205f915054906101000a900460ff1681565b6008602052815f5260405f20602052805f5260405f205f915091509054906101000a900460ff1681565b61116c611504565b611174610ecb565b6111b3576040517f08c379a00000000000000000000000000000000000000000000000000000000081526004016111aa90611e69565b60405180910390fd5b60065f3373ffffffffffffffffffffffffffffffffffffffff1673ffffffffffffffffffffffffffffffffffffffff1681526020019081526020015f205f9054906101000a900460ff1661123c576040517f08c379a0000000000000000000000000000000000000000000000000000000008152600401611233906124e2565b60405180910390fd5b60085f60075481526020019081526020015f205f3373ffffffffffffffffffffffffffffffffffffffff1673ffffffffffffffffffffffffffffffffffffffff1681526020019081526020015f205f9054906101000a900460ff16156112d7576040517f08c379a00000000000000000000000000000000000000000000000000000000081526004016112ce90611ed1565b60405180910390fd5b600254341461131b576040517f08c379a00000000000000000000000000000000000000000000000000000000081526004016113129061254a565b60405180910390fd5b600160085f60075481526020019081526020015f205f3373ffffffffffffffffffffffffffffffffffffffff1673ffffffffffffffffffffffffffffffffffffffff1681526020019081526020015f205f6101000a81548160ff02191690831515021790555060025460095f60075481526020019081526020015f205f8282546113a5919061206e565b925050819055506007543373ffffffffffffffffffffffffffffffffffffffff167f5f7675b09617d2c9fa4fd13058ee5877a9538f626b0308816736e83748a450406002546040516113f791906119f7565b60405180910390a3611407611558565b565b6114116115a8565b5f8111611453576040517f08c379a000000000000000000000000000000000000000000000000000000000815260040161144a906125b2565b60405180910390fd5b8060038190555050565b600a602052805f5260405f205f915054906101000a900460ff1681565b6114826115a8565b5f73ffffffffffffffffffffffffffffffffffffffff168173ffffffffffffffffffffffffffffffffffffffff16036114f2575f6040517f1e4fbdf70000000000000000000000000000000000000000000000000000000081526004016114e99190611960565b60405180910390fd5b6114fb8161162f565b50565b60035481565b5f61150d611727565b90506002815f01540361154c576040517f3ee5aeb500000000000000000000000000000000000000000000000000000000815260040160405180910390fd5b6002815f018190555050565b5f611561611727565b90506001815f018190555050565b5f8061157961174e565b90508091505090565b61158a611777565b611593816117b7565b50565b61159e611777565b6115a661183b565b565b6115b061185a565b73ffffffffffffffffffffffffffffffffffffffff166115ce61108e565b73ffffffffffffffffffffffffffffffffffffffff161461162d576115f161185a565b6040517f118cdaa70000000000000000000000000000000000000000000000000000000081526004016116249190611960565b60405180910390fd5b565b5f611638611700565b90505f815f015f9054906101000a900473ffffffffffffffffffffffffffffffffffffffff16905082825f015f6101000a81548173ffffffffffffffffffffffffffffffffffffffff021916908373ffffffffffffffffffffffffffffffffffffffff1602179055508273ffffffffffffffffffffffffffffffffffffffff168173ffffffffffffffffffffffffffffffffffffffff167f8be0079c531659141344cd1fd0a4f28419497f9722a3daafe3b4186f6b6457e060405160405180910390a3505050565b5f7f9016d09d72d40fdae2fd8ceac6b6234c7706214fd39c1cd1e609a0528c199300905090565b5f7f9b779b17422d0df92223018b32b4d1fa46e071723d6817e2486d003becc55f00905090565b5f7ff0c57e16840df040f15088dc2f81fe391c3923bec73e23a9662efc9c229c6a005f1b905090565b61177f611861565b6117b5576040517fd7e6bcf800000000000000000000000000000000000000000000000000000000815260040160405180910390fd5b565b6117bf611777565b5f73ffffffffffffffffffffffffffffffffffffffff168173ffffffffffffffffffffffffffffffffffffffff160361182f575f6040517f1e4fbdf70000000000000000000000000000000000000000000000000000000081526004016118269190611960565b60405180910390fd5b6118388161162f565b50565b611843611777565b5f61184c611727565b90506001815f018190555050565b5f33905090565b5f61186a61156f565b5f0160089054906101000a900460ff16905090565b828054828255905f5260205f209081019282156118f5579160200282015b828111156118f4578251825f6101000a81548173ffffffffffffffffffffffffffffffffffffffff021916908373ffffffffffffffffffffffffffffffffffffffff1602179055509160200191906001019061189d565b5b5090506119029190611906565b5090565b5b8082111561191d575f815f905550600101611907565b5090565b5f73ffffffffffffffffffffffffffffffffffffffff82169050919050565b5f61194a82611921565b9050919050565b61195a81611940565b82525050565b5f6020820190506119735f830184611951565b92915050565b5f604051905090565b5f80fd5b5f80fd5b5f819050919050565b61199c8161198a565b81146119a6575f80fd5b50565b5f813590506119b781611993565b92915050565b5f602082840312156119d2576119d1611982565b5b5f6119df848285016119a9565b91505092915050565b6119f18161198a565b82525050565b5f602082019050611a0a5f8301846119e8565b92915050565b5f8115159050919050565b611a2481611a10565b82525050565b5f602082019050611a3d5f830184611a1b565b92915050565b611a4c81611940565b8114611a56575f80fd5b50565b5f81359050611a6781611a43565b92915050565b5f80fd5b5f601f19601f8301169050919050565b7f4e487b71000000000000000000000000000000000000000000000000000000005f52604160045260245ffd5b611ab782611a71565b810181811067ffffffffffffffff82111715611ad657611ad5611a81565b5b80604052505050565b5f611ae8611979565b9050611af48282611aae565b919050565b5f67ffffffffffffffff821115611b1357611b12611a81565b5b602082029050602081019050919050565b5f80fd5b5f611b3a611b3584611af9565b611adf565b90508083825260208201905060208402830185811115611b5d57611b5c611b24565b5b835b81811015611b865780611b728882611a59565b845260208401935050602081019050611b5f565b5050509392505050565b5f82601f830112611ba457611ba3611a6d565b5b8135611bb4848260208601611b28565b91505092915050565b5f805f805f8060c08789031215611bd757611bd6611982565b5b5f611be489828a01611a59565b9650506020611bf589828a016119a9565b9550506040611c0689828a016119a9565b9450506060611c1789828a016119a9565b9350506080611c2889828a016119a9565b92505060a087013567ffffffffffffffff811115611c4957611c48611986565b5b611c5589828a01611b90565b9150509295509295509295565b5f60208284031215611c7757611c76611982565b5b5f611c8484828501611a59565b91505092915050565b5f81519050919050565b5f82825260208201905092915050565b5f819050602082019050919050565b611cbf81611940565b82525050565b5f611cd08383611cb6565b60208301905092915050565b5f602082019050919050565b5f611cf282611c8d565b611cfc8185611c97565b9350611d0783611ca7565b805f5b83811015611d37578151611d1e8882611cc5565b9750611d2983611cdc565b925050600181019050611d0a565b5085935050505092915050565b5f6020820190508181035f830152611d5c8184611ce8565b905092915050565b5f60e082019050611d775f83018a6119e8565b611d8460208301896119e8565b611d9160408301886119e8565b611d9e60608301876119e8565b611dab60808301866119e8565b611db860a0830185611951565b611dc560c08301846119e8565b98975050505050505050565b5f8060408385031215611de757611de6611982565b5b5f611df4858286016119a9565b9250506020611e0585828601611a59565b9150509250929050565b5f82825260208201905092915050565b7f6e6f7420737461727465640000000000000000000000000000000000000000005f82015250565b5f611e53600b83611e0f565b9150611e5e82611e1f565b602082019050919050565b5f6020820190508181035f830152611e8081611e47565b9050919050565b7f616c7265616479207061696400000000000000000000000000000000000000005f82015250565b5f611ebb600c83611e0f565b9150611ec682611e87565b602082019050919050565b5f6020820190508181035f830152611ee881611eaf565b9050919050565b7f4e487b71000000000000000000000000000000000000000000000000000000005f52601160045260245ffd5b5f611f268261198a565b9150611f318361198a565b9250828202611f3f8161198a565b91508282048414831517611f5657611f55611eef565b5b5092915050565b7f6e6f742066756c6c792066756e646564000000000000000000000000000000005f82015250565b5f611f91601083611e0f565b9150611f9c82611f5d565b602082019050919050565b5f6020820190508181035f830152611fbe81611f85565b9050919050565b5f81905092915050565b50565b5f611fdd5f83611fc5565b9150611fe882611fcf565b5f82019050919050565b5f611ffc82611fd2565b9150819050919050565b7f7061796f7574206661696c6564000000000000000000000000000000000000005f82015250565b5f61203a600d83611e0f565b915061204582612006565b602082019050919050565b5f6020820190508181035f8301526120678161202e565b9050919050565b5f6120788261198a565b91506120838361198a565b925082820190508082111561209b5761209a611eef565b5b92915050565b7f416c726561647920696e697469616c697a6564000000000000000000000000005f82015250565b5f6120d5601383611e0f565b91506120e0826120a1565b602082019050919050565b5f6020820190508181035f830152612102816120c9565b9050919050565b7f6261642063726561746f720000000000000000000000000000000000000000005f82015250565b5f61213d600b83611e0f565b915061214882612109565b602082019050919050565b5f6020820190508181035f83015261216a81612131565b9050919050565b7f73697a652072616e6765000000000000000000000000000000000000000000005f82015250565b5f6121a5600a83611e0f565b91506121b082612171565b602082019050919050565b5f6020820190508181035f8301526121d281612199565b9050919050565b7f6f72646572206d69736d617463680000000000000000000000000000000000005f82015250565b5f61220d600e83611e0f565b9150612218826121d9565b602082019050919050565b5f6020820190508181035f83015261223a81612201565b9050919050565b7f4e487b71000000000000000000000000000000000000000000000000000000005f52603260045260245ffd5b7f7a65726f206d656d6265720000000000000000000000000000000000000000005f82015250565b5f6122a2600b83611e0f565b91506122ad8261226e565b602082019050919050565b5f6020820190508181035f8301526122cf81612296565b9050919050565b7f647570206d656d626572000000000000000000000000000000000000000000005f82015250565b5f61230a600a83611e0f565b9150612315826122d6565b602082019050919050565b5f6020820190508181035f830152612337816122fe565b9050919050565b5f6040820190506123515f8301856119e8565b61235e60208301846119e8565b9392505050565b5f819050919050565b5f67ffffffffffffffff82169050919050565b5f819050919050565b5f6123a461239f61239a84612365565b612381565b61236e565b9050919050565b6123b48161238a565b82525050565b5f6020820190506123cd5f8301846123ab565b92915050565b7f4e487b71000000000000000000000000000000000000000000000000000000005f52601260045260245ffd5b5f61240a8261198a565b91506124158361198a565b925082612425576124246123d3565b5b828206905092915050565b7f496e76616c696420636f6e747269627574696f6e0000000000000000000000005f82015250565b5f612464601483611e0f565b915061246f82612430565b602082019050919050565b5f6020820190508181035f83015261249181612458565b9050919050565b7f6e6f74206d656d626572000000000000000000000000000000000000000000005f82015250565b5f6124cc600a83611e0f565b91506124d782612498565b602082019050919050565b5f6020820190508181035f8301526124f9816124c0565b9050919050565b7f696e636f727265637420616d6f756e74000000000000000000000000000000005f82015250565b5f612534601083611e0f565b915061253f82612500565b602082019050919050565b5f6020820190508181035f83015261256181612528565b9050919050565b7f496e76616c6964206475726174696f6e000000000000000000000000000000005f82015250565b5f61259c601083611e0f565b91506125a782612568565b602082019050919050565b5f6020820190508181035f8301526125c981612590565b905091905056fea26469706673582212207e14924e9c604f2f6aa9496b8cb581d953ddcdb847804dad341b14c8e1e5b7a364736f6c63430008160033",
  "immutableReferences": {},
  "source": "// SPDX-License-Identifier: MIT\npragma solidity ^0.8.0;\n\nimport \"@openzeppelin/contracts-upgradeable/proxy/utils/Initializable.sol\";\nimport \"@openzeppelin/contracts-upgradeable/access/OwnableUpgradeable.sol\";\nimport \"@openzeppelin/contracts-upgradeable/utils/ReentrancyGuardUpgradeable.sol\";\n\ncontract RoscaPoolUpgradeable is Initializable, OwnableUpgradeable, ReentrancyGuardUpgradeable {\n    // Basic config - now upgradeable\n    address public creator;\n    uint256 public size;\n    uint256 public contribution; // per round per member (in wei)\n    uint256 public roundDuration; // seconds\n    uint256 public startTime;\n\n    // Members and order\n    address[] public payoutOrder; // length == size\n    mapping(address => bool) public isMember;\n\n    // Rounds\n    uint256 public currentRound; // 0-based\n    mapping(uint256 => mapping(address => bool)) public hasContributed;\n    mapping(uint256 => uint256) public totalContributed; // by round\n    mapping(uint256 => bool) public paid; // payout done per round\n\n    // Upgradeable contract state\n    bool public initialized;\n\n    event MemberJoined(address indexed member);\n    event Contribution(address indexed member, uint256 indexed round, uint256 amount);\n    event Payout(uint256 indexed round, address indexed recipient, uint256 amount);\n    event RoundAdvanced(uint256 indexed round);\n    event PoolInitialized(address indexed creator, uint256 size, uint256 contribution);\n\n    /// @custom:oz-upgrades-unsafe-allow constructor\n    constructor() {\n        // Simple constructor for Truffle compatibility\n    }\n\n    function initialize(\n        address _creator,\n        uint256 _size,\n        uint256 _contribution,\n        uint256 _roundDuration,\n        uint256 _startTime,\n        address[] memory _payoutOrder\n    ) public initializer {\n        require(!initialized, \"Already initialized\");\n        require(_creator != address(0), \"bad creator\");\n        require(_size >= 2 && _size <= 12, \"size range\");\n        require(_payoutOrder.length == _size, \"order mismatch\");\n        \n        __Ownable_init(_creator);\n        __ReentrancyGuard_init();\n        \n        creator = _creator;\n        size = _size;\n        contribution = _contribution;\n        roundDuration = _roundDuration;\n        startTime = _startTime;\n        payoutOrder = _payoutOrder;\n        \n        // initialize members map\n        for (uint256 i = 0; i < _size; i++) {\n            require(_payoutOrder[i] != address(0), \"zero member\");\n            require(!isMember[_payoutOrder[i]], \"dup member\");\n            isMember[_payoutOrder[i]] = true;\n            emit MemberJoined(_payoutOrder[i]);\n        }\n        \n        initialized = true;\n        emit PoolInitialized(_creator, _size, _contribution);\n    }\n\n    function poolInfo() external view returns (\n        uint256 _size,\n        uint256 _contribution,\n        uint256 _roundDuration,\n        uint256 _startTime,\n        uint256 _currentRound,\n        address _currentRecipient,\n        uint256 _roundEndsAt\n    ) {\n        _size = size;\n        _contribution = contribution;\n        _roundDuration = roundDuration;\n        _startTime = startTime;\n        _currentRound = currentRound;\n        _currentRecipient = payoutOrder[currentRound % size];\n        _roundEndsAt = startTime + ((currentRound + 1) * roundDuration);\n    }\n\n    function getPayoutOrder() external view returns (address[] memory) {\n        return payoutOrder;\n    }\n\n    function currentRecipient() public view returns (address) {\n        return payoutOrder[currentRound % size];\n    }\n\n    function roundOpen() public view returns (bool) {\n        return block.timestamp >= startTime;\n    }\n\n    function contribute() external payable nonReentrant {\n        require(roundOpen(), \"not started\");\n        require(isMember[msg.sender], \"not member\");\n        require(!hasContributed[currentRound][msg.sender], \"already paid\");\n        require(msg.value == contribution, \"incorrect amount\");\n\n        hasContributed[currentRound][msg.sender] = true;\n        totalContributed[currentRound] += contribution;\n        emit Contribution(msg.sender, currentRound, contribution);\n    }\n\n    function triggerPayout() external nonReentrant {\n        require(roundOpen(), \"not started\");\n        require(!paid[currentRound], \"already paid\");\n        // All members must contribute exactly once per round\n        require(totalContributed[currentRound] == contribution * size, \"not fully funded\");\n\n        address recipient = currentRecipient();\n        uint256 amount = totalContributed[currentRound];\n\n        paid[currentRound] = true;\n\n        // Effects before interaction\n        // Payout to recipient\n        (bool success, ) = recipient.call{value: amount}(\"\");\n        require(success, \"payout failed\");\n        emit Payout(currentRound, recipient, amount);\n\n        // Advance round\n        currentRound += 1;\n        emit RoundAdvanced(currentRound);\n    }\n\n    // Admin functions for upgrades\n    function updateContribution(uint256 _newContribution) external onlyOwner {\n        require(_newContribution > 0, \"Invalid contribution\");\n        contribution = _newContribution;\n    }\n\n    function updateRoundDuration(uint256 _newDuration) external onlyOwner {\n        require(_newDuration > 0, \"Invalid duration\");\n        roundDuration = _newDuration;\n    }\n\n    function emergencyPause() external onlyOwner {\n        // This would require additional pause logic\n        // For now, just an example of admin function\n    }\n\n    // Upgrade function (simplified for Truffle)\n    function upgradeTo(address newImplementation) external onlyOwner {\n        // Basic upgrade logic - in production, use proper proxy pattern\n        // This is a simplified version for demonstration\n    }\n\n    // Allow contract to receive ETH\n    receive() external payable {}\n}\n",
  "sourcePath": "/Users/micah/Documents/dapp/kumusha copy/src/contracts/RoscaPoolUpgradeable.sol",
  "compiler": {
    "name": "solc",
    "version": "0.8.22+commit.4fc1097e.Emscripten.clang"
  },
  "schemaVersion": "3.4.4",
  "updatedAt": "2025-08-11T19:40:25.329Z",
  "devdoc": {
    "errors": {
      "InvalidInitialization()": [
        {
          "details": "The contract is already initialized."
        }
      ],
      "NotInitializing()": [
        {
          "details": "The contract is not initializing."
        }
      ],
      "OwnableInvalidOwner(address)": [
        {
          "details": "The owner is not a valid owner account. (eg. `address(0)`)"
        }
      ],
      "OwnableUnauthorizedAccount(address)": [
        {
          "details": "The caller account is not authorized to perform an operation."
        }
      ],
      "ReentrancyGuardReentrantCall()": [
        {
          "details": "Unauthorized reentrant call."
        }
      ]
    },
    "events": {
      "Initialized(uint64)": {
        "details": "Triggered when the contract has been initialized or reinitialized."
      }
    },
    "kind": "dev",
    "methods": {
      "constructor": {
        "custom:oz-upgrades-unsafe-allow": "constructor"
      },
      "owner()": {
        "details": "Returns the address of the current owner."
      },
      "renounceOwnership()": {
        "details": "Leaves the contract without owner. It will not be possible to call `onlyOwner` functions. Can only be called by the current owner. NOTE: Renouncing ownership will leave the contract without an owner, thereby disabling any functionality that is only available to the owner."
      },
      "transferOwnership(address)": {
        "details": "Transfers ownership of the contract to a new account (`newOwner`). Can only be called by the current owner."
      }
    },
    "version": 1
  },
  "userdoc": {
    "kind": "user",
    "methods": {},
    "version": 1
  }
}