{
  "contractName": "RoscaPool",
  "abi": [
    {
      "inputs": [
        {
          "internalType": "address",
          "name": "_creator",
          "type": "address"
        },
        {
          "internalType": "address",
          "name": "_token",
          "type": "address"
        },
        {
          "internalType": "uint256",
          "name": "_size",
          "type": "uint256"
        },
        {
          "internalType": "uint256",
          "name": "_contribution",
          "type": "uint256"
        },
        {
          "internalType": "uint256",
          "name": "_roundDuration",
          "type": "uint256"
        },
        {
          "internalType": "uint256",
          "name": "_startTime",
          "type": "uint256"
        },
        {
          "internalType": "address[]",
          "name": "_payoutOrder",
          "type": "address[]"
        }
      ],
      "stateMutability": "nonpayable",
      "type": "constructor"
    },
    {
      "anonymous": false,
      "inputs": [
        {
          "indexed": true,
          "internalType": "address",
          "name": "member",
          "type": "address"
        },
        {
          "indexed": true,
          "internalType": "uint256",
          "name": "round",
          "type": "uint256"
        },
        {
          "indexed": false,
          "internalType": "uint256",
          "name": "amount",
          "type": "uint256"
        }
      ],
      "name": "Contribution",
      "type": "event"
    },
    {
      "anonymous": false,
      "inputs": [
        {
          "indexed": true,
          "internalType": "address",
          "name": "member",
          "type": "address"
        }
      ],
      "name": "MemberJoined",
      "type": "event"
    },
    {
      "anonymous": false,
      "inputs": [
        {
          "indexed": true,
          "internalType": "uint256",
          "name": "round",
          "type": "uint256"
        },
        {
          "indexed": true,
          "internalType": "address",
          "name": "recipient",
          "type": "address"
        },
        {
          "indexed": false,
          "internalType": "uint256",
          "name": "amount",
          "type": "uint256"
        }
      ],
      "name": "Payout",
      "type": "event"
    },
    {
      "anonymous": false,
      "inputs": [
        {
          "indexed": true,
          "internalType": "uint256",
          "name": "round",
          "type": "uint256"
        }
      ],
      "name": "RoundAdvanced",
      "type": "event"
    },
    {
      "inputs": [],
      "name": "contribution",
      "outputs": [
        {
          "internalType": "uint256",
          "name": "",
          "type": "uint256"
        }
      ],
      "stateMutability": "view",
      "type": "function"
    },
    {
      "inputs": [],
      "name": "creator",
      "outputs": [
        {
          "internalType": "address",
          "name": "",
          "type": "address"
        }
      ],
      "stateMutability": "view",
      "type": "function"
    },
    {
      "inputs": [],
      "name": "currentRound",
      "outputs": [
        {
          "internalType": "uint256",
          "name": "",
          "type": "uint256"
        }
      ],
      "stateMutability": "view",
      "type": "function"
    },
    {
      "inputs": [
        {
          "internalType": "uint256",
          "name": "",
          "type": "uint256"
        },
        {
          "internalType": "address",
          "name": "",
          "type": "address"
        }
      ],
      "name": "hasContributed",
      "outputs": [
        {
          "internalType": "bool",
          "name": "",
          "type": "bool"
        }
      ],
      "stateMutability": "view",
      "type": "function"
    },
    {
      "inputs": [
        {
          "internalType": "address",
          "name": "",
          "type": "address"
        }
      ],
      "name": "isMember",
      "outputs": [
        {
          "internalType": "bool",
          "name": "",
          "type": "bool"
        }
      ],
      "stateMutability": "view",
      "type": "function"
    },
    {
      "inputs": [
        {
          "internalType": "uint256",
          "name": "",
          "type": "uint256"
        }
      ],
      "name": "paid",
      "outputs": [
        {
          "internalType": "bool",
          "name": "",
          "type": "bool"
        }
      ],
      "stateMutability": "view",
      "type": "function"
    },
    {
      "inputs": [
        {
          "internalType": "uint256",
          "name": "",
          "type": "uint256"
        }
      ],
      "name": "payoutOrder",
      "outputs": [
        {
          "internalType": "address",
          "name": "",
          "type": "address"
        }
      ],
      "stateMutability": "view",
      "type": "function"
    },
    {
      "inputs": [],
      "name": "roundDuration",
      "outputs": [
        {
          "internalType": "uint256",
          "name": "",
          "type": "uint256"
        }
      ],
      "stateMutability": "view",
      "type": "function"
    },
    {
      "inputs": [],
      "name": "size",
      "outputs": [
        {
          "internalType": "uint256",
          "name": "",
          "type": "uint256"
        }
      ],
      "stateMutability": "view",
      "type": "function"
    },
    {
      "inputs": [],
      "name": "startTime",
      "outputs": [
        {
          "internalType": "uint256",
          "name": "",
          "type": "uint256"
        }
      ],
      "stateMutability": "view",
      "type": "function"
    },
    {
      "inputs": [],
      "name": "token",
      "outputs": [
        {
          "internalType": "address",
          "name": "",
          "type": "address"
        }
      ],
      "stateMutability": "view",
      "type": "function"
    },
    {
      "inputs": [
        {
          "internalType": "uint256",
          "name": "",
          "type": "uint256"
        }
      ],
      "name": "totalContributed",
      "outputs": [
        {
          "internalType": "uint256",
          "name": "",
          "type": "uint256"
        }
      ],
      "stateMutability": "view",
      "type": "function"
    },
    {
      "inputs": [],
      "name": "poolInfo",
      "outputs": [
        {
          "internalType": "address",
          "name": "_token",
          "type": "address"
        },
        {
          "internalType": "uint256",
          "name": "_size",
          "type": "uint256"
        },
        {
          "internalType": "uint256",
          "name": "_contribution",
          "type": "uint256"
        },
        {
          "internalType": "uint256",
          "name": "_roundDuration",
          "type": "uint256"
        },
        {
          "internalType": "uint256",
          "name": "_startTime",
          "type": "uint256"
        },
        {
          "internalType": "uint256",
          "name": "_currentRound",
          "type": "uint256"
        },
        {
          "internalType": "address",
          "name": "_currentRecipient",
          "type": "address"
        },
        {
          "internalType": "uint256",
          "name": "_roundEndsAt",
          "type": "uint256"
        }
      ],
      "stateMutability": "view",
      "type": "function"
    },
    {
      "inputs": [],
      "name": "getPayoutOrder",
      "outputs": [
        {
          "internalType": "address[]",
          "name": "",
          "type": "address[]"
        }
      ],
      "stateMutability": "view",
      "type": "function"
    },
    {
      "inputs": [],
      "name": "currentRecipient",
      "outputs": [
        {
          "internalType": "address",
          "name": "",
          "type": "address"
        }
      ],
      "stateMutability": "view",
      "type": "function"
    },
    {
      "inputs": [],
      "name": "roundOpen",
      "outputs": [
        {
          "internalType": "bool",
          "name": "",
          "type": "bool"
        }
      ],
      "stateMutability": "view",
      "type": "function"
    },
    {
      "inputs": [],
      "name": "contribute",
      "outputs": [],
      "stateMutability": "nonpayable",
      "type": "function"
    },
    {
      "inputs": [],
      "name": "triggerPayout",
      "outputs": [],
      "stateMutability": "nonpayable",
      "type": "function"
    }
  ],
  "bytecode": "0x6101406040523480156200001257600080fd5b50604051620023bc380380620023bc8339818101604052810190620000389190620006b1565b600073ffffffffffffffffffffffffffffffffffffffff168773ffffffffffffffffffffffffffffffffffffffff161415620000ab576040517f08c379a0000000000000000000000000000000000000000000000000000000008152600401620000a29062000925565b60405180910390fd5b600073ffffffffffffffffffffffffffffffffffffffff168673ffffffffffffffffffffffffffffffffffffffff1614156200011e576040517f08c379a0000000000000000000000000000000000000000000000000000000008152600401620001159062000947565b60405180910390fd5b60028510158015620001315750600c8511155b62000173576040517f08c379a00000000000000000000000000000000000000000000000000000000081526004016200016a906200098b565b60405180910390fd5b84815114620001b9576040517f08c379a0000000000000000000000000000000000000000000000000000000008152600401620001b09062000903565b60405180910390fd5b8673ffffffffffffffffffffffffffffffffffffffff1660808173ffffffffffffffffffffffffffffffffffffffff1660601b815250508573ffffffffffffffffffffffffffffffffffffffff1660a08173ffffffffffffffffffffffffffffffffffffffff1660601b815250508460c081815250508360e0818152505082610100818152505081610120818152505080600090805190602001906200026192919062000533565b5060005b858110156200052557600073ffffffffffffffffffffffffffffffffffffffff16828281518110620002c0577f4e487b7100000000000000000000000000000000000000000000000000000000600052603260045260246000fd5b602002602001015173ffffffffffffffffffffffffffffffffffffffff16141562000322576040517f08c379a0000000000000000000000000000000000000000000000000000000008152600401620003199062000969565b60405180910390fd5b6001600083838151811062000360577f4e487b7100000000000000000000000000000000000000000000000000000000600052603260045260246000fd5b602002602001015173ffffffffffffffffffffffffffffffffffffffff1673ffffffffffffffffffffffffffffffffffffffff16815260200190815260200160002060009054906101000a900460ff1615620003f3576040517f08c379a0000000000000000000000000000000000000000000000000000000008152600401620003ea90620009ad565b60405180910390fd5b600180600084848151811062000432577f4e487b7100000000000000000000000000000000000000000000000000000000600052603260045260246000fd5b602002602001015173ffffffffffffffffffffffffffffffffffffffff1673ffffffffffffffffffffffffffffffffffffffff16815260200190815260200160002060006101000a81548160ff021916908315150217905550818181518110620004c5577f4e487b7100000000000000000000000000000000000000000000000000000000600052603260045260246000fd5b602002602001015173ffffffffffffffffffffffffffffffffffffffff167f0abf3b3f643594d958297062a019458e27d7766629590ac621aa1000fa1298ab60405160405180910390a280806200051c9062000a81565b91505062000265565b505050505050505062000b61565b828054828255906000526020600020908101928215620005af579160200282015b82811115620005ae5782518260006101000a81548173ffffffffffffffffffffffffffffffffffffffff021916908373ffffffffffffffffffffffffffffffffffffffff1602179055509160200191906001019062000554565b5b509050620005be9190620005c2565b5090565b5b80821115620005dd576000816000905550600101620005c3565b5090565b6000620005f8620005f28462000a03565b620009cf565b905080838252602082019050828560208602820111156200061857600080fd5b60005b858110156200064c578162000631888262000656565b8452602084019350602083019250506001810190506200061b565b5050509392505050565b600081519050620006678162000b2d565b92915050565b600082601f8301126200067f57600080fd5b815162000691848260208601620005e1565b91505092915050565b600081519050620006ab8162000b47565b92915050565b600080600080600080600060e0888a031215620006cd57600080fd5b6000620006dd8a828b0162000656565b9750506020620006f08a828b0162000656565b9650506040620007038a828b016200069a565b9550506060620007168a828b016200069a565b9450506080620007298a828b016200069a565b93505060a06200073c8a828b016200069a565b92505060c088015167ffffffffffffffff8111156200075a57600080fd5b620007688a828b016200066d565b91505092959891949750929550565b600062000786600e8362000a32565b91507f6f72646572206d69736d617463680000000000000000000000000000000000006000830152602082019050919050565b6000620007c8600b8362000a32565b91507f6261642063726561746f720000000000000000000000000000000000000000006000830152602082019050919050565b60006200080a60098362000a32565b91507f62616420746f6b656e00000000000000000000000000000000000000000000006000830152602082019050919050565b60006200084c600b8362000a32565b91507f7a65726f206d656d6265720000000000000000000000000000000000000000006000830152602082019050919050565b60006200088e600a8362000a32565b91507f73697a652072616e6765000000000000000000000000000000000000000000006000830152602082019050919050565b6000620008d0600a8362000a32565b91507f647570206d656d626572000000000000000000000000000000000000000000006000830152602082019050919050565b600060208201905081810360008301526200091e8162000777565b9050919050565b600060208201905081810360008301526200094081620007b9565b9050919050565b600060208201905081810360008301526200096281620007fb565b9050919050565b6000602082019050818103600083015262000984816200083d565b9050919050565b60006020820190508181036000830152620009a6816200087f565b9050919050565b60006020820190508181036000830152620009c881620008c1565b9050919050565b6000604051905081810181811067ffffffffffffffff82111715620009f957620009f862000afe565b5b8060405250919050565b600067ffffffffffffffff82111562000a215762000a2062000afe565b5b602082029050602081019050919050565b600082825260208201905092915050565b600062000a508262000a57565b9050919050565b600073ffffffffffffffffffffffffffffffffffffffff82169050919050565b6000819050919050565b600062000a8e8262000a77565b91507fffffffffffffffffffffffffffffffffffffffffffffffffffffffffffffffff82141562000ac45762000ac362000acf565b5b600182019050919050565b7f4e487b7100000000000000000000000000000000000000000000000000000000600052601160045260246000fd5b7f4e487b7100000000000000000000000000000000000000000000000000000000600052604160045260246000fd5b62000b388162000a43565b811462000b4457600080fd5b50565b62000b528162000a77565b811462000b5e57600080fd5b50565b60805160601c60a05160601c60c05160e051610100516101205161178e62000c2e6000396000818161076e0152818161097901528181610a6f0152610aa601526000818161095601528181610a350152610f630152600081816104ae015281816108250152818161093301528181610d4101528181610e7c0152610f0301526000818161048d0152818161084c01528181610910015281816109a30152610ad0015260008181610583015281816108ed01528181610d030152610f8701526000610372015261178e6000f3fe608060405234801561001057600080fd5b50600436106101165760003560e01c806378e97925116100a2578063b5b96ae011610071578063b5b96ae0146102ca578063d7bb99ba146102fa578063efa51cda14610304578063f7cb789a14610334578063fc0c546a1461035257610116565b806378e97925146102405780638a19c8bc1461025e578063949d225d1461027c578063a230c5241461029a57610116565b80632032677f116100e95780632032677f146101a357806343662f4e146101c157806350520b1f146101df578063532ccada146101fd5780635a2f3d091461021b57610116565b806302d05d3f1461011b57806305a95f04146101395780630b529a171461014357806311073bec14610173575b600080fd5b610123610370565b6040516101309190611311565b60405180910390f35b610141610394565b005b61015d6004803603810190610158919061103a565b610713565b60405161016a9190611311565b60405180910390f35b61018d6004803603810190610188919061103a565b610752565b60405161019a9190611527565b60405180910390f35b6101ab61076a565b6040516101b8919061142c565b60405180910390f35b6101c9610795565b6040516101d6919061140a565b60405180910390f35b6101e7610823565b6040516101f49190611527565b60405180910390f35b610205610847565b6040516102129190611311565b60405180910390f35b6102236108df565b60405161023798979695949392919061138c565b60405180910390f35b610248610aa4565b6040516102559190611527565b60405180910390f35b610266610ac8565b6040516102739190611527565b60405180910390f35b610284610ace565b6040516102919190611527565b60405180910390f35b6102b460048036038101906102af9190610fe8565b610af2565b6040516102c1919061142c565b60405180910390f35b6102e460048036038101906102df9190611063565b610b12565b6040516102f1919061142c565b60405180910390f35b610302610b41565b005b61031e6004803603810190610319919061103a565b610f41565b60405161032b919061142c565b60405180910390f35b61033c610f61565b6040516103499190611527565b60405180910390f35b61035a610f85565b6040516103679190611311565b60405180910390f35b7f000000000000000000000000000000000000000000000000000000000000000081565b6000600654146103d9576040517f08c379a00000000000000000000000000000000000000000000000000000000081526004016103d090611467565b60405180910390fd5b60016006819055506103e961076a565b610428576040517f08c379a000000000000000000000000000000000000000000000000000000000815260040161041f90611507565b60405180910390fd5b60056000600254815260200190815260200160002060009054906101000a900460ff161561048b576040517f08c379a000000000000000000000000000000000000000000000000000000000815260040161048290611447565b60405180910390fd5b7f00000000000000000000000000000000000000000000000000000000000000007f00000000000000000000000000000000000000000000000000000000000000006104d791906115e2565b600460006002548152602001908152602001600020541461052d576040517f08c379a0000000000000000000000000000000000000000000000000000000008152600401610524906114c7565b60405180910390fd5b6000610537610847565b90506000600460006002548152602001908152602001600020549050600160056000600254815260200190815260200160002060006101000a81548160ff0219169083151502179055507f000000000000000000000000000000000000000000000000000000000000000073ffffffffffffffffffffffffffffffffffffffff1663a9059cbb83836040518363ffffffff1660e01b81526004016105dc929190611363565b602060405180830381600087803b1580156105f657600080fd5b505af115801561060a573d6000803e3d6000fd5b505050506040513d601f19601f8201168201806040525081019061062e9190611011565b61066d576040517f08c379a000000000000000000000000000000000000000000000000000000000815260040161066490611487565b60405180910390fd5b8173ffffffffffffffffffffffffffffffffffffffff166002547f5f7341a552ae2d452b071917104c05fbac3663936a69be768a05c40605056e7d836040516106b69190611527565b60405180910390a36001600260008282546106d1919061158c565b925050819055506002547f023811fd72d20a3eb734785eed809172b5c9c24019d493039c70ef9c276d4d9760405160405180910390a250506000600681905550565b6000818154811061072357600080fd5b906000526020600020016000915054906101000a900473ffffffffffffffffffffffffffffffffffffffff1681565b60046020528060005260406000206000915090505481565b60007f0000000000000000000000000000000000000000000000000000000000000000421015905090565b6060600080548060200260200160405190810160405280929190818152602001828054801561081957602002820191906000526020600020905b8160009054906101000a900473ffffffffffffffffffffffffffffffffffffffff1673ffffffffffffffffffffffffffffffffffffffff16815260200190600101908083116107cf575b5050505050905090565b7f000000000000000000000000000000000000000000000000000000000000000081565b6000807f00000000000000000000000000000000000000000000000000000000000000006002546108789190611684565b815481106108af577f4e487b7100000000000000000000000000000000000000000000000000000000600052603260045260246000fd5b9060005260206000200160009054906101000a900473ffffffffffffffffffffffffffffffffffffffff16905090565b6000806000806000806000807f000000000000000000000000000000000000000000000000000000000000000097507f000000000000000000000000000000000000000000000000000000000000000096507f000000000000000000000000000000000000000000000000000000000000000095507f000000000000000000000000000000000000000000000000000000000000000094507f00000000000000000000000000000000000000000000000000000000000000009350600254925060007f00000000000000000000000000000000000000000000000000000000000000006002546109cf9190611684565b81548110610a06577f4e487b7100000000000000000000000000000000000000000000000000000000600052603260045260246000fd5b9060005260206000200160009054906101000a900473ffffffffffffffffffffffffffffffffffffffff1691507f00000000000000000000000000000000000000000000000000000000000000006001600254610a63919061158c565b610a6d91906115e2565b7f0000000000000000000000000000000000000000000000000000000000000000610a98919061158c565b90509091929394959697565b7f000000000000000000000000000000000000000000000000000000000000000081565b60025481565b7f000000000000000000000000000000000000000000000000000000000000000081565b60016020528060005260406000206000915054906101000a900460ff1681565b60036020528160005260406000206020528060005260406000206000915091509054906101000a900460ff1681565b600060065414610b86576040517f08c379a0000000000000000000000000000000000000000000000000000000008152600401610b7d90611467565b60405180910390fd5b6001600681905550610b9661076a565b610bd5576040517f08c379a0000000000000000000000000000000000000000000000000000000008152600401610bcc90611507565b60405180910390fd5b600160003373ffffffffffffffffffffffffffffffffffffffff1673ffffffffffffffffffffffffffffffffffffffff16815260200190815260200160002060009054906101000a900460ff16610c61576040517f08c379a0000000000000000000000000000000000000000000000000000000008152600401610c58906114a7565b60405180910390fd5b60036000600254815260200190815260200160002060003373ffffffffffffffffffffffffffffffffffffffff1673ffffffffffffffffffffffffffffffffffffffff16815260200190815260200160002060009054906101000a900460ff1615610d01576040517f08c379a0000000000000000000000000000000000000000000000000000000008152600401610cf890611447565b60405180910390fd5b7f000000000000000000000000000000000000000000000000000000000000000073ffffffffffffffffffffffffffffffffffffffff166323b872dd33307f00000000000000000000000000000000000000000000000000000000000000006040518463ffffffff1660e01b8152600401610d7e9392919061132c565b602060405180830381600087803b158015610d9857600080fd5b505af1158015610dac573d6000803e3d6000fd5b505050506040513d601f19601f82011682018060405250810190610dd09190611011565b610e0f576040517f08c379a0000000000000000000000000000000000000000000000000000000008152600401610e06906114e7565b60405180910390fd5b600160036000600254815260200190815260200160002060003373ffffffffffffffffffffffffffffffffffffffff1673ffffffffffffffffffffffffffffffffffffffff16815260200190815260200160002060006101000a81548160ff0219169083151502179055507f00000000000000000000000000000000000000000000000000000000000000006004600060025481526020019081526020016000206000828254610ebf919061158c565b925050819055506002543373ffffffffffffffffffffffffffffffffffffffff167f5f7675b09617d2c9fa4fd13058ee5877a9538f626b0308816736e83748a450407f0000000000000000000000000000000000000000000000000000000000000000604051610f2f9190611527565b60405180910390a36000600681905550565b60056020528060005260406000206000915054906101000a900460ff1681565b7f000000000000000000000000000000000000000000000000000000000000000081565b7f000000000000000000000000000000000000000000000000000000000000000081565b600081359050610fb881611713565b92915050565b600081519050610fcd8161172a565b92915050565b600081359050610fe281611741565b92915050565b600060208284031215610ffa57600080fd5b600061100884828501610fa9565b91505092915050565b60006020828403121561102357600080fd5b600061103184828501610fbe565b91505092915050565b60006020828403121561104c57600080fd5b600061105a84828501610fd3565b91505092915050565b6000806040838503121561107657600080fd5b600061108485828601610fd3565b925050602061109585828601610fa9565b9150509250929050565b60006110ab83836110b7565b60208301905092915050565b6110c08161163c565b82525050565b6110cf8161163c565b82525050565b60006110e082611552565b6110ea818561156a565b93506110f583611542565b8060005b8381101561112657815161110d888261109f565b97506111188361155d565b9250506001810190506110f9565b5085935050505092915050565b61113c8161164e565b82525050565b600061114f600c8361157b565b91507f616c7265616479207061696400000000000000000000000000000000000000006000830152602082019050919050565b600061118f600a8361157b565b91507f5265656e7472616e6379000000000000000000000000000000000000000000006000830152602082019050919050565b60006111cf600d8361157b565b91507f7061796f7574206661696c6564000000000000000000000000000000000000006000830152602082019050919050565b600061120f600a8361157b565b91507f6e6f74206d656d626572000000000000000000000000000000000000000000006000830152602082019050919050565b600061124f60108361157b565b91507f6e6f742066756c6c792066756e646564000000000000000000000000000000006000830152602082019050919050565b600061128f60138361157b565b91507f7472616e7366657246726f6d206661696c6564000000000000000000000000006000830152602082019050919050565b60006112cf600b8361157b565b91507f6e6f7420737461727465640000000000000000000000000000000000000000006000830152602082019050919050565b61130b8161167a565b82525050565b600060208201905061132660008301846110c6565b92915050565b600060608201905061134160008301866110c6565b61134e60208301856110c6565b61135b6040830184611302565b949350505050565b600060408201905061137860008301856110c6565b6113856020830184611302565b9392505050565b6000610100820190506113a2600083018b6110c6565b6113af602083018a611302565b6113bc6040830189611302565b6113c96060830188611302565b6113d66080830187611302565b6113e360a0830186611302565b6113f060c08301856110c6565b6113fd60e0830184611302565b9998505050505050505050565b6000602082019050818103600083015261142481846110d5565b905092915050565b60006020820190506114416000830184611133565b92915050565b6000602082019050818103600083015261146081611142565b9050919050565b6000602082019050818103600083015261148081611182565b9050919050565b600060208201905081810360008301526114a0816111c2565b9050919050565b600060208201905081810360008301526114c081611202565b9050919050565b600060208201905081810360008301526114e081611242565b9050919050565b6000602082019050818103600083015261150081611282565b9050919050565b60006020820190508181036000830152611520816112c2565b9050919050565b600060208201905061153c6000830184611302565b92915050565b6000819050602082019050919050565b600081519050919050565b6000602082019050919050565b600082825260208201905092915050565b600082825260208201905092915050565b60006115978261167a565b91506115a28361167a565b9250827fffffffffffffffffffffffffffffffffffffffffffffffffffffffffffffffff038211156115d7576115d66116b5565b5b828201905092915050565b60006115ed8261167a565b91506115f88361167a565b9250817fffffffffffffffffffffffffffffffffffffffffffffffffffffffffffffffff0483118215151615611631576116306116b5565b5b828202905092915050565b60006116478261165a565b9050919050565b60008115159050919050565b600073ffffffffffffffffffffffffffffffffffffffff82169050919050565b6000819050919050565b600061168f8261167a565b915061169a8361167a565b9250826116aa576116a96116e4565b5b828206905092915050565b7f4e487b7100000000000000000000000000000000000000000000000000000000600052601160045260246000fd5b7f4e487b7100000000000000000000000000000000000000000000000000000000600052601260045260246000fd5b61171c8161163c565b811461172757600080fd5b50565b6117338161164e565b811461173e57600080fd5b50565b61174a8161167a565b811461175557600080fd5b5056fea26469706673582212203e0644905e59bad4f1060d39b3140bdf395ee79c8018c104e92c1cb8abe9763b64736f6c63430008000033",
  "immutableReferences": {
    "114": [
      {
        "length": 32,
        "start": 882
      }
    ],
    "116": [
      {
        "length": 32,
        "start": 1411
      },
      {
        "length": 32,
        "start": 2285
      },
      {
        "length": 32,
        "start": 3331
      },
      {
        "length": 32,
        "start": 3975
      }
    ],
    "118": [
      {
        "length": 32,
        "start": 1165
      },
      {
        "length": 32,
        "start": 2124
      },
      {
        "length": 32,
        "start": 2320
      },
      {
        "length": 32,
        "start": 2467
      },
      {
        "length": 32,
        "start": 2768
      }
    ],
    "120": [
      {
        "length": 32,
        "start": 1198
      },
      {
        "length": 32,
        "start": 2085
      },
      {
        "length": 32,
        "start": 2355
      },
      {
        "length": 32,
        "start": 3393
      },
      {
        "length": 32,
        "start": 3708
      },
      {
        "length": 32,
        "start": 3843
      }
    ],
    "122": [
      {
        "length": 32,
        "start": 2390
      },
      {
        "length": 32,
        "start": 2613
      },
      {
        "length": 32,
        "start": 3939
      }
    ],
    "124": [
      {
        "length": 32,
        "start": 1902
      },
      {
        "length": 32,
        "start": 2425
      },
      {
        "length": 32,
        "start": 2671
      },
      {
        "length": 32,
        "start": 2726
      }
    ]
  },
  "source": "// SPDX-License-Identifier: MIT\npragma solidity ^0.8.0;\n\nimport \"./interfaces/IERC20.sol\";\n\ncontract RoscaPool {\n    // Basic config\n    address public immutable creator;\n    address public immutable token; // USDC preferred\n    uint256 public immutable size;\n    uint256 public immutable contribution; // per round per member\n    uint256 public immutable roundDuration; // seconds\n    uint256 public immutable startTime;\n\n    // Members and order\n    address[] public payoutOrder; // length == size\n    mapping(address => bool) public isMember;\n\n    // Rounds\n    uint256 public currentRound; // 0-based\n    mapping(uint256 => mapping(address => bool)) public hasContributed;\n    mapping(uint256 => uint256) public totalContributed; // by round\n    mapping(uint256 => bool) public paid; // payout done per round\n\n    // Reentrancy guard\n    uint256 private locked;\n    modifier noReentrancy() {\n        require(locked == 0, \"Reentrancy\");\n        locked = 1;\n        _;\n        locked = 0;\n    }\n\n    event MemberJoined(address indexed member);\n    event Contribution(address indexed member, uint256 indexed round, uint256 amount);\n    event Payout(uint256 indexed round, address indexed recipient, uint256 amount);\n    event RoundAdvanced(uint256 indexed round);\n\n    constructor(\n        address _creator,\n        address _token,\n        uint256 _size,\n        uint256 _contribution,\n        uint256 _roundDuration,\n        uint256 _startTime,\n        address[] memory _payoutOrder\n    ) {\n        require(_creator != address(0), \"bad creator\");\n        require(_token != address(0), \"bad token\");\n        require(_size >= 2 && _size <= 12, \"size range\");\n        require(_payoutOrder.length == _size, \"order mismatch\");\n        creator = _creator;\n        token = _token;\n        size = _size;\n        contribution = _contribution;\n        roundDuration = _roundDuration;\n        startTime = _startTime;\n        payoutOrder = _payoutOrder;\n        // initialize members map\n        for (uint256 i = 0; i < _size; i++) {\n            require(_payoutOrder[i] != address(0), \"zero member\");\n            require(!isMember[_payoutOrder[i]], \"dup member\");\n            isMember[_payoutOrder[i]] = true;\n            emit MemberJoined(_payoutOrder[i]);\n        }\n    }\n\n    function poolInfo() external view returns (\n        address _token,\n        uint256 _size,\n        uint256 _contribution,\n        uint256 _roundDuration,\n        uint256 _startTime,\n        uint256 _currentRound,\n        address _currentRecipient,\n        uint256 _roundEndsAt\n    ) {\n        _token = token;\n        _size = size;\n        _contribution = contribution;\n        _roundDuration = roundDuration;\n        _startTime = startTime;\n        _currentRound = currentRound;\n        _currentRecipient = payoutOrder[currentRound % size];\n        _roundEndsAt = startTime + ((currentRound + 1) * roundDuration);\n    }\n\n    function getPayoutOrder() external view returns (address[] memory) {\n        return payoutOrder;\n    }\n\n    function currentRecipient() public view returns (address) {\n        return payoutOrder[currentRound % size];\n    }\n\n    function roundOpen() public view returns (bool) {\n        return block.timestamp >= startTime;\n    }\n\n    function contribute() external noReentrancy {\n        require(roundOpen(), \"not started\");\n        require(isMember[msg.sender], \"not member\");\n        require(!hasContributed[currentRound][msg.sender], \"already paid\");\n\n        // Pull USDC from contributor\n        require(IERC20(token).transferFrom(msg.sender, address(this), contribution), \"transferFrom failed\");\n\n        hasContributed[currentRound][msg.sender] = true;\n        totalContributed[currentRound] += contribution;\n        emit Contribution(msg.sender, currentRound, contribution);\n    }\n\n    function triggerPayout() external noReentrancy {\n        require(roundOpen(), \"not started\");\n        require(!paid[currentRound], \"already paid\");\n        // All members must contribute exactly once per round\n        require(totalContributed[currentRound] == contribution * size, \"not fully funded\");\n\n        address recipient = currentRecipient();\n        uint256 amount = totalContributed[currentRound];\n\n        paid[currentRound] = true;\n\n        // Effects before interaction\n        // Payout to recipient\n        require(IERC20(token).transfer(recipient, amount), \"payout failed\");\n        emit Payout(currentRound, recipient, amount);\n\n        // Advance round\n        currentRound += 1;\n        emit RoundAdvanced(currentRound);\n    }\n}\n\n\n",
  "sourcePath": "/Users/micah/Documents/dapp/kumusha copy/src/contracts/RoscaPool.sol",
  "compiler": {
    "name": "solc",
    "version": "0.8.0+commit.c7dfd78e.Emscripten.clang"
  },
  "schemaVersion": "3.4.16",
  "updatedAt": "2025-08-09T12:50:09.257Z",
  "devdoc": {
    "kind": "dev",
    "methods": {},
    "version": 1
  },
  "userdoc": {
    "kind": "user",
    "methods": {},
    "version": 1
  }
}