{
  "contractName": "RoscaPoolPOL",
  "abi": [
    {
      "inputs": [
        {
          "internalType": "address",
          "name": "_polToken",
          "type": "address"
        },
        {
          "internalType": "address",
          "name": "_creator",
          "type": "address"
        },
        {
          "internalType": "uint256",
          "name": "_size",
          "type": "uint256"
        },
        {
          "internalType": "uint256",
          "name": "_contribution",
          "type": "uint256"
        },
        {
          "internalType": "uint256",
          "name": "_roundDuration",
          "type": "uint256"
        },
        {
          "internalType": "uint256",
          "name": "_startTime",
          "type": "uint256"
        },
        {
          "internalType": "address[]",
          "name": "_payoutOrder",
          "type": "address[]"
        }
      ],
      "stateMutability": "nonpayable",
      "type": "constructor"
    },
    {
      "inputs": [
        {
          "internalType": "address",
          "name": "token",
          "type": "address"
        }
      ],
      "name": "SafeERC20FailedOperation",
      "type": "error"
    },
    {
      "anonymous": false,
      "inputs": [
        {
          "indexed": true,
          "internalType": "address",
          "name": "member",
          "type": "address"
        },
        {
          "indexed": true,
          "internalType": "uint256",
          "name": "round",
          "type": "uint256"
        },
        {
          "indexed": false,
          "internalType": "uint256",
          "name": "amount",
          "type": "uint256"
        }
      ],
      "name": "Contribution",
      "type": "event"
    },
    {
      "anonymous": false,
      "inputs": [
        {
          "indexed": true,
          "internalType": "address",
          "name": "member",
          "type": "address"
        }
      ],
      "name": "MemberJoined",
      "type": "event"
    },
    {
      "anonymous": false,
      "inputs": [
        {
          "indexed": true,
          "internalType": "uint256",
          "name": "round",
          "type": "uint256"
        },
        {
          "indexed": true,
          "internalType": "address",
          "name": "recipient",
          "type": "address"
        },
        {
          "indexed": false,
          "internalType": "uint256",
          "name": "amount",
          "type": "uint256"
        }
      ],
      "name": "Payout",
      "type": "event"
    },
    {
      "anonymous": false,
      "inputs": [
        {
          "indexed": true,
          "internalType": "uint256",
          "name": "round",
          "type": "uint256"
        }
      ],
      "name": "RoundAdvanced",
      "type": "event"
    },
    {
      "inputs": [],
      "name": "contribution",
      "outputs": [
        {
          "internalType": "uint256",
          "name": "",
          "type": "uint256"
        }
      ],
      "stateMutability": "view",
      "type": "function"
    },
    {
      "inputs": [],
      "name": "creator",
      "outputs": [
        {
          "internalType": "address",
          "name": "",
          "type": "address"
        }
      ],
      "stateMutability": "view",
      "type": "function"
    },
    {
      "inputs": [],
      "name": "currentRound",
      "outputs": [
        {
          "internalType": "uint256",
          "name": "",
          "type": "uint256"
        }
      ],
      "stateMutability": "view",
      "type": "function"
    },
    {
      "inputs": [
        {
          "internalType": "uint256",
          "name": "",
          "type": "uint256"
        },
        {
          "internalType": "address",
          "name": "",
          "type": "address"
        }
      ],
      "name": "hasContributed",
      "outputs": [
        {
          "internalType": "bool",
          "name": "",
          "type": "bool"
        }
      ],
      "stateMutability": "view",
      "type": "function"
    },
    {
      "inputs": [
        {
          "internalType": "address",
          "name": "",
          "type": "address"
        }
      ],
      "name": "isMember",
      "outputs": [
        {
          "internalType": "bool",
          "name": "",
          "type": "bool"
        }
      ],
      "stateMutability": "view",
      "type": "function"
    },
    {
      "inputs": [
        {
          "internalType": "uint256",
          "name": "",
          "type": "uint256"
        }
      ],
      "name": "paid",
      "outputs": [
        {
          "internalType": "bool",
          "name": "",
          "type": "bool"
        }
      ],
      "stateMutability": "view",
      "type": "function"
    },
    {
      "inputs": [
        {
          "internalType": "uint256",
          "name": "",
          "type": "uint256"
        }
      ],
      "name": "payoutOrder",
      "outputs": [
        {
          "internalType": "address",
          "name": "",
          "type": "address"
        }
      ],
      "stateMutability": "view",
      "type": "function"
    },
    {
      "inputs": [],
      "name": "polToken",
      "outputs": [
        {
          "internalType": "contract IERC20",
          "name": "",
          "type": "address"
        }
      ],
      "stateMutability": "view",
      "type": "function"
    },
    {
      "inputs": [],
      "name": "roundDuration",
      "outputs": [
        {
          "internalType": "uint256",
          "name": "",
          "type": "uint256"
        }
      ],
      "stateMutability": "view",
      "type": "function"
    },
    {
      "inputs": [],
      "name": "size",
      "outputs": [
        {
          "internalType": "uint256",
          "name": "",
          "type": "uint256"
        }
      ],
      "stateMutability": "view",
      "type": "function"
    },
    {
      "inputs": [],
      "name": "startTime",
      "outputs": [
        {
          "internalType": "uint256",
          "name": "",
          "type": "uint256"
        }
      ],
      "stateMutability": "view",
      "type": "function"
    },
    {
      "inputs": [
        {
          "internalType": "uint256",
          "name": "",
          "type": "uint256"
        }
      ],
      "name": "totalContributed",
      "outputs": [
        {
          "internalType": "uint256",
          "name": "",
          "type": "uint256"
        }
      ],
      "stateMutability": "view",
      "type": "function"
    },
    {
      "inputs": [],
      "name": "poolInfo",
      "outputs": [
        {
          "internalType": "uint256",
          "name": "_size",
          "type": "uint256"
        },
        {
          "internalType": "uint256",
          "name": "_contribution",
          "type": "uint256"
        },
        {
          "internalType": "uint256",
          "name": "_roundDuration",
          "type": "uint256"
        },
        {
          "internalType": "uint256",
          "name": "_startTime",
          "type": "uint256"
        },
        {
          "internalType": "uint256",
          "name": "_currentRound",
          "type": "uint256"
        },
        {
          "internalType": "address",
          "name": "_currentRecipient",
          "type": "address"
        },
        {
          "internalType": "uint256",
          "name": "_roundEndsAt",
          "type": "uint256"
        }
      ],
      "stateMutability": "view",
      "type": "function"
    },
    {
      "inputs": [],
      "name": "getPayoutOrder",
      "outputs": [
        {
          "internalType": "address[]",
          "name": "",
          "type": "address[]"
        }
      ],
      "stateMutability": "view",
      "type": "function"
    },
    {
      "inputs": [],
      "name": "currentRecipient",
      "outputs": [
        {
          "internalType": "address",
          "name": "",
          "type": "address"
        }
      ],
      "stateMutability": "view",
      "type": "function"
    },
    {
      "inputs": [],
      "name": "roundOpen",
      "outputs": [
        {
          "internalType": "bool",
          "name": "",
          "type": "bool"
        }
      ],
      "stateMutability": "view",
      "type": "function"
    },
    {
      "inputs": [],
      "name": "contribute",
      "outputs": [],
      "stateMutability": "nonpayable",
      "type": "function"
    },
    {
      "inputs": [],
      "name": "triggerPayout",
      "outputs": [],
      "stateMutability": "nonpayable",
      "type": "function"
    },
    {
      "inputs": [],
      "name": "emergencyWithdraw",
      "outputs": [],
      "stateMutability": "nonpayable",
      "type": "function"
    }
  ],
  "bytecode": "0x61014060405234801562000011575f80fd5b506040516200249138038062002491833981810160405281019062000037919062000745565b5f73ffffffffffffffffffffffffffffffffffffffff168773ffffffffffffffffffffffffffffffffffffffff1603620000a8576040517f08c379a00000000000000000000000000000000000000000000000000000000081526004016200009f9062000870565b60405180910390fd5b5f73ffffffffffffffffffffffffffffffffffffffff168673ffffffffffffffffffffffffffffffffffffffff160362000119576040517f08c379a00000000000000000000000000000000000000000000000000000000081526004016200011090620008de565b60405180910390fd5b600285101580156200012c5750600c8511155b6200016e576040517f08c379a000000000000000000000000000000000000000000000000000000000815260040162000165906200094c565b60405180910390fd5b84815114620001b4576040517f08c379a0000000000000000000000000000000000000000000000000000000008152600401620001ab90620009ba565b60405180910390fd5b8673ffffffffffffffffffffffffffffffffffffffff1660808173ffffffffffffffffffffffffffffffffffffffff16815250508573ffffffffffffffffffffffffffffffffffffffff1660a08173ffffffffffffffffffffffffffffffffffffffff16815250508460c081815250508360e08181525050826101008181525050816101208181525050805f90805190602001906200025592919062000486565b505f5b8581101562000478575f73ffffffffffffffffffffffffffffffffffffffff168282815181106200028e576200028d620009da565b5b602002602001015173ffffffffffffffffffffffffffffffffffffffff1603620002ef576040517f08c379a0000000000000000000000000000000000000000000000000000000008152600401620002e69062000a55565b60405180910390fd5b60015f838381518110620003085762000307620009da565b5b602002602001015173ffffffffffffffffffffffffffffffffffffffff1673ffffffffffffffffffffffffffffffffffffffff1681526020019081526020015f205f9054906101000a900460ff161562000399576040517f08c379a0000000000000000000000000000000000000000000000000000000008152600401620003909062000ac3565b60405180910390fd5b6001805f848481518110620003b357620003b2620009da565b5b602002602001015173ffffffffffffffffffffffffffffffffffffffff1673ffffffffffffffffffffffffffffffffffffffff1681526020019081526020015f205f6101000a81548160ff02191690831515021790555081818151811062000420576200041f620009da565b5b602002602001015173ffffffffffffffffffffffffffffffffffffffff167f0abf3b3f643594d958297062a019458e27d7766629590ac621aa1000fa1298ab60405160405180910390a2808060010191505062000258565b505050505050505062000ae3565b828054828255905f5260205f20908101928215620004ff579160200282015b82811115620004fe578251825f6101000a81548173ffffffffffffffffffffffffffffffffffffffff021916908373ffffffffffffffffffffffffffffffffffffffff16021790555091602001919060010190620004a5565b5b5090506200050e919062000512565b5090565b5b808211156200052b575f815f90555060010162000513565b5090565b5f604051905090565b5f80fd5b5f80fd5b5f73ffffffffffffffffffffffffffffffffffffffff82169050919050565b5f6200056b8262000540565b9050919050565b6200057d816200055f565b811462000588575f80fd5b50565b5f815190506200059b8162000572565b92915050565b5f819050919050565b620005b581620005a1565b8114620005c0575f80fd5b50565b5f81519050620005d381620005aa565b92915050565b5f80fd5b5f601f19601f8301169050919050565b7f4e487b71000000000000000000000000000000000000000000000000000000005f52604160045260245ffd5b6200062582620005dd565b810181811067ffffffffffffffff82111715620006475762000646620005ed565b5b80604052505050565b5f6200065b6200052f565b90506200066982826200061a565b919050565b5f67ffffffffffffffff8211156200068b576200068a620005ed565b5b602082029050602081019050919050565b5f80fd5b5f620006b6620006b0846200066e565b62000650565b90508083825260208201905060208402830185811115620006dc57620006db6200069c565b5b835b81811015620007095780620006f488826200058b565b845260208401935050602081019050620006de565b5050509392505050565b5f82601f8301126200072a5762000729620005d9565b5b81516200073c848260208601620006a0565b91505092915050565b5f805f805f805f60e0888a03121562000763576200076262000538565b5b5f620007728a828b016200058b565b9750506020620007858a828b016200058b565b9650506040620007988a828b01620005c3565b9550506060620007ab8a828b01620005c3565b9450506080620007be8a828b01620005c3565b93505060a0620007d18a828b01620005c3565b92505060c088015167ffffffffffffffff811115620007f557620007f46200053c565b5b620008038a828b0162000713565b91505092959891949750929550565b5f82825260208201905092915050565b7f62616420706f6c20746f6b656e000000000000000000000000000000000000005f82015250565b5f62000858600d8362000812565b9150620008658262000822565b602082019050919050565b5f6020820190508181035f83015262000889816200084a565b9050919050565b7f6261642063726561746f720000000000000000000000000000000000000000005f82015250565b5f620008c6600b8362000812565b9150620008d38262000890565b602082019050919050565b5f6020820190508181035f830152620008f781620008b8565b9050919050565b7f73697a652072616e6765000000000000000000000000000000000000000000005f82015250565b5f62000934600a8362000812565b91506200094182620008fe565b602082019050919050565b5f6020820190508181035f830152620009658162000926565b9050919050565b7f6f72646572206d69736d617463680000000000000000000000000000000000005f82015250565b5f620009a2600e8362000812565b9150620009af826200096c565b602082019050919050565b5f6020820190508181035f830152620009d38162000994565b9050919050565b7f4e487b71000000000000000000000000000000000000000000000000000000005f52603260045260245ffd5b7f7a65726f206d656d6265720000000000000000000000000000000000000000005f82015250565b5f62000a3d600b8362000812565b915062000a4a8262000a07565b602082019050919050565b5f6020820190508181035f83015262000a6e8162000a2f565b9050919050565b7f647570206d656d626572000000000000000000000000000000000000000000005f82015250565b5f62000aab600a8362000812565b915062000ab88262000a75565b602082019050919050565b5f6020820190508181035f83015262000adc8162000a9d565b9050919050565b60805160a05160c05160e05161010051610120516118da62000bb75f395f81816106c60152818161087b01528181610947015261097d01525f81816108580152818161090d0152610f4001525f81816104bb015281816107790152818161083501528181610bf201528181610cc00152610d4401525f818161049a0152818161079f01528181610812015281816108a401526109a701525f818161038301528181610d830152610eb701525f818161058c01528181610a1201528181610c1301528181610e120152610ed901526118da5ff3fe608060405234801561000f575f80fd5b506004361061011f575f3560e01c806378e97925116100ab578063b6658d071161006f578063b6658d0714610301578063d7bb99ba1461031f578063db2e21bc14610329578063efa51cda14610333578063f7cb789a146103635761011f565b806378e97925146102475780638a19c8bc14610265578063949d225d14610283578063a230c524146102a1578063b5b96ae0146102d15761011f565b80632032677f116100f25780632032677f146101ab57806343662f4e146101c957806350520b1f146101e7578063532ccada146102055780635a2f3d09146102235761011f565b806302d05d3f1461012357806305a95f04146101415780630b529a171461014b57806311073bec1461017b575b5f80fd5b61012b610381565b604051610138919061113d565b60405180910390f35b6101496103a5565b005b6101656004803603810190610160919061118d565b610674565b604051610172919061113d565b60405180910390f35b6101956004803603810190610190919061118d565b6106ae565b6040516101a291906111c7565b60405180910390f35b6101b36106c3565b6040516101c091906111fa565b60405180910390f35b6101d16106ed565b6040516101de91906112ca565b60405180910390f35b6101ef610777565b6040516101fc91906111c7565b60405180910390f35b61020d61079b565b60405161021a919061113d565b60405180910390f35b61022b610809565b60405161023e97969594939291906112ea565b60405180910390f35b61024f61097b565b60405161025c91906111c7565b60405180910390f35b61026d61099f565b60405161027a91906111c7565b60405180910390f35b61028b6109a5565b60405161029891906111c7565b60405180910390f35b6102bb60048036038101906102b69190611381565b6109c9565b6040516102c891906111fa565b60405180910390f35b6102eb60048036038101906102e691906113ac565b6109e6565b6040516102f891906111fa565b60405180910390f35b610309610a10565b6040516103169190611445565b60405180910390f35b610327610a34565b005b610331610d81565b005b61034d6004803603810190610348919061118d565b610f21565b60405161035a91906111fa565b60405180910390f35b61036b610f3e565b60405161037891906111c7565b60405180910390f35b7f000000000000000000000000000000000000000000000000000000000000000081565b5f600654146103e9576040517f08c379a00000000000000000000000000000000000000000000000000000000081526004016103e0906114b8565b60405180910390fd5b60016006819055506103f96106c3565b610438576040517f08c379a000000000000000000000000000000000000000000000000000000000815260040161042f90611520565b60405180910390fd5b60055f60025481526020019081526020015f205f9054906101000a900460ff1615610498576040517f08c379a000000000000000000000000000000000000000000000000000000000815260040161048f90611588565b60405180910390fd5b7f00000000000000000000000000000000000000000000000000000000000000007f00000000000000000000000000000000000000000000000000000000000000006104e491906115d3565b60045f60025481526020019081526020015f205414610538576040517f08c379a000000000000000000000000000000000000000000000000000000000815260040161052f9061165e565b60405180910390fd5b5f61054161079b565b90505f60045f60025481526020019081526020015f20549050600160055f60025481526020019081526020015f205f6101000a81548160ff0219169083151502179055506105d082827f000000000000000000000000000000000000000000000000000000000000000073ffffffffffffffffffffffffffffffffffffffff16610f629092919063ffffffff16565b8173ffffffffffffffffffffffffffffffffffffffff166002547f5f7341a552ae2d452b071917104c05fbac3663936a69be768a05c40605056e7d8360405161061991906111c7565b60405180910390a3600160025f828254610633919061167c565b925050819055506002547f023811fd72d20a3eb734785eed809172b5c9c24019d493039c70ef9c276d4d9760405160405180910390a250505f600681905550565b5f8181548110610682575f80fd5b905f5260205f20015f915054906101000a900473ffffffffffffffffffffffffffffffffffffffff1681565b6004602052805f5260405f205f915090505481565b5f7f0000000000000000000000000000000000000000000000000000000000000000421015905090565b60605f80548060200260200160405190810160405280929190818152602001828054801561076d57602002820191905f5260205f20905b815f9054906101000a900473ffffffffffffffffffffffffffffffffffffffff1673ffffffffffffffffffffffffffffffffffffffff1681526020019060010190808311610724575b5050505050905090565b7f000000000000000000000000000000000000000000000000000000000000000081565b5f807f00000000000000000000000000000000000000000000000000000000000000006002546107cb91906116dc565b815481106107dc576107db61170c565b5b905f5260205f20015f9054906101000a900473ffffffffffffffffffffffffffffffffffffffff16905090565b5f805f805f805f7f000000000000000000000000000000000000000000000000000000000000000096507f000000000000000000000000000000000000000000000000000000000000000095507f000000000000000000000000000000000000000000000000000000000000000094507f0000000000000000000000000000000000000000000000000000000000000000935060025492505f7f00000000000000000000000000000000000000000000000000000000000000006002546108d091906116dc565b815481106108e1576108e061170c565b5b905f5260205f20015f9054906101000a900473ffffffffffffffffffffffffffffffffffffffff1691507f0000000000000000000000000000000000000000000000000000000000000000600160025461093b919061167c565b61094591906115d3565b7f0000000000000000000000000000000000000000000000000000000000000000610970919061167c565b905090919293949596565b7f000000000000000000000000000000000000000000000000000000000000000081565b60025481565b7f000000000000000000000000000000000000000000000000000000000000000081565b6001602052805f5260405f205f915054906101000a900460ff1681565b6003602052815f5260405f20602052805f5260405f205f915091509054906101000a900460ff1681565b7f000000000000000000000000000000000000000000000000000000000000000081565b5f60065414610a78576040517f08c379a0000000000000000000000000000000000000000000000000000000008152600401610a6f906114b8565b60405180910390fd5b6001600681905550610a886106c3565b610ac7576040517f08c379a0000000000000000000000000000000000000000000000000000000008152600401610abe90611520565b60405180910390fd5b60015f3373ffffffffffffffffffffffffffffffffffffffff1673ffffffffffffffffffffffffffffffffffffffff1681526020019081526020015f205f9054906101000a900460ff16610b50576040517f08c379a0000000000000000000000000000000000000000000000000000000008152600401610b4790611783565b60405180910390fd5b60035f60025481526020019081526020015f205f3373ffffffffffffffffffffffffffffffffffffffff1673ffffffffffffffffffffffffffffffffffffffff1681526020019081526020015f205f9054906101000a900460ff1615610beb576040517f08c379a0000000000000000000000000000000000000000000000000000000008152600401610be290611588565b60405180910390fd5b610c5833307f00000000000000000000000000000000000000000000000000000000000000007f000000000000000000000000000000000000000000000000000000000000000073ffffffffffffffffffffffffffffffffffffffff16610fe1909392919063ffffffff16565b600160035f60025481526020019081526020015f205f3373ffffffffffffffffffffffffffffffffffffffff1673ffffffffffffffffffffffffffffffffffffffff1681526020019081526020015f205f6101000a81548160ff0219169083151502179055507f000000000000000000000000000000000000000000000000000000000000000060045f60025481526020019081526020015f205f828254610d00919061167c565b925050819055506002543373ffffffffffffffffffffffffffffffffffffffff167f5f7675b09617d2c9fa4fd13058ee5877a9538f626b0308816736e83748a450407f0000000000000000000000000000000000000000000000000000000000000000604051610d7091906111c7565b60405180910390a35f600681905550565b7f000000000000000000000000000000000000000000000000000000000000000073ffffffffffffffffffffffffffffffffffffffff163373ffffffffffffffffffffffffffffffffffffffff1614610e0f576040517f08c379a0000000000000000000000000000000000000000000000000000000008152600401610e06906117eb565b60405180910390fd5b5f7f000000000000000000000000000000000000000000000000000000000000000073ffffffffffffffffffffffffffffffffffffffff166370a08231306040518263ffffffff1660e01b8152600401610e69919061113d565b602060405180830381865afa158015610e84573d5f803e3d5ffd5b505050506040513d601f19601f82011682018060405250810190610ea8919061181d565b90505f811115610f1e57610f1d7f0000000000000000000000000000000000000000000000000000000000000000827f000000000000000000000000000000000000000000000000000000000000000073ffffffffffffffffffffffffffffffffffffffff16610f629092919063ffffffff16565b5b50565b6005602052805f5260405f205f915054906101000a900460ff1681565b7f000000000000000000000000000000000000000000000000000000000000000081565b610fdc838473ffffffffffffffffffffffffffffffffffffffff1663a9059cbb8585604051602401610f95929190611848565b604051602081830303815290604052915060e01b6020820180517bffffffffffffffffffffffffffffffffffffffffffffffffffffffff8381831617835250505050611063565b505050565b61105d848573ffffffffffffffffffffffffffffffffffffffff166323b872dd8686866040516024016110169392919061186f565b604051602081830303815290604052915060e01b6020820180517bffffffffffffffffffffffffffffffffffffffffffffffffffffffff8381831617835250505050611063565b50505050565b5f8060205f8451602086015f885af180611082576040513d5f823e3d81fd5b3d92505f519150505f821461109b5760018114156110b6565b5f8473ffffffffffffffffffffffffffffffffffffffff163b145b156110f857836040517f5274afe70000000000000000000000000000000000000000000000000000000081526004016110ef919061113d565b60405180910390fd5b50505050565b5f73ffffffffffffffffffffffffffffffffffffffff82169050919050565b5f611127826110fe565b9050919050565b6111378161111d565b82525050565b5f6020820190506111505f83018461112e565b92915050565b5f80fd5b5f819050919050565b61116c8161115a565b8114611176575f80fd5b50565b5f8135905061118781611163565b92915050565b5f602082840312156111a2576111a1611156565b5b5f6111af84828501611179565b91505092915050565b6111c18161115a565b82525050565b5f6020820190506111da5f8301846111b8565b92915050565b5f8115159050919050565b6111f4816111e0565b82525050565b5f60208201905061120d5f8301846111eb565b92915050565b5f81519050919050565b5f82825260208201905092915050565b5f819050602082019050919050565b6112458161111d565b82525050565b5f611256838361123c565b60208301905092915050565b5f602082019050919050565b5f61127882611213565b611282818561121d565b935061128d8361122d565b805f5b838110156112bd5781516112a4888261124b565b97506112af83611262565b925050600181019050611290565b5085935050505092915050565b5f6020820190508181035f8301526112e2818461126e565b905092915050565b5f60e0820190506112fd5f83018a6111b8565b61130a60208301896111b8565b61131760408301886111b8565b61132460608301876111b8565b61133160808301866111b8565b61133e60a083018561112e565b61134b60c08301846111b8565b98975050505050505050565b6113608161111d565b811461136a575f80fd5b50565b5f8135905061137b81611357565b92915050565b5f6020828403121561139657611395611156565b5b5f6113a38482850161136d565b91505092915050565b5f80604083850312156113c2576113c1611156565b5b5f6113cf85828601611179565b92505060206113e08582860161136d565b9150509250929050565b5f819050919050565b5f61140d611408611403846110fe565b6113ea565b6110fe565b9050919050565b5f61141e826113f3565b9050919050565b5f61142f82611414565b9050919050565b61143f81611425565b82525050565b5f6020820190506114585f830184611436565b92915050565b5f82825260208201905092915050565b7f5265656e7472616e6379000000000000000000000000000000000000000000005f82015250565b5f6114a2600a8361145e565b91506114ad8261146e565b602082019050919050565b5f6020820190508181035f8301526114cf81611496565b9050919050565b7f6e6f7420737461727465640000000000000000000000000000000000000000005f82015250565b5f61150a600b8361145e565b9150611515826114d6565b602082019050919050565b5f6020820190508181035f830152611537816114fe565b9050919050565b7f616c7265616479207061696400000000000000000000000000000000000000005f82015250565b5f611572600c8361145e565b915061157d8261153e565b602082019050919050565b5f6020820190508181035f83015261159f81611566565b9050919050565b7f4e487b71000000000000000000000000000000000000000000000000000000005f52601160045260245ffd5b5f6115dd8261115a565b91506115e88361115a565b92508282026115f68161115a565b9150828204841483151761160d5761160c6115a6565b5b5092915050565b7f6e6f742066756c6c792066756e646564000000000000000000000000000000005f82015250565b5f61164860108361145e565b915061165382611614565b602082019050919050565b5f6020820190508181035f8301526116758161163c565b9050919050565b5f6116868261115a565b91506116918361115a565b92508282019050808211156116a9576116a86115a6565b5b92915050565b7f4e487b71000000000000000000000000000000000000000000000000000000005f52601260045260245ffd5b5f6116e68261115a565b91506116f18361115a565b925082611701576117006116af565b5b828206905092915050565b7f4e487b71000000000000000000000000000000000000000000000000000000005f52603260045260245ffd5b7f6e6f74206d656d626572000000000000000000000000000000000000000000005f82015250565b5f61176d600a8361145e565b915061177882611739565b602082019050919050565b5f6020820190508181035f83015261179a81611761565b9050919050565b7f6f6e6c792063726561746f7200000000000000000000000000000000000000005f82015250565b5f6117d5600c8361145e565b91506117e0826117a1565b602082019050919050565b5f6020820190508181035f830152611802816117c9565b9050919050565b5f8151905061181781611163565b92915050565b5f6020828403121561183257611831611156565b5b5f61183f84828501611809565b91505092915050565b5f60408201905061185b5f83018561112e565b61186860208301846111b8565b9392505050565b5f6060820190506118825f83018661112e565b61188f602083018561112e565b61189c60408301846111b8565b94935050505056fea264697066735822122005bbbdcba75182650373173704928f8eb345e51514409c25edbe95375dd672b364736f6c63430008160033",
  "immutableReferences": {
    "1783": [
      {
        "length": 32,
        "start": 1420
      },
      {
        "length": 32,
        "start": 2578
      },
      {
        "length": 32,
        "start": 3091
      },
      {
        "length": 32,
        "start": 3602
      },
      {
        "length": 32,
        "start": 3801
      }
    ],
    "1785": [
      {
        "length": 32,
        "start": 899
      },
      {
        "length": 32,
        "start": 3459
      },
      {
        "length": 32,
        "start": 3767
      }
    ],
    "1787": [
      {
        "length": 32,
        "start": 1178
      },
      {
        "length": 32,
        "start": 1951
      },
      {
        "length": 32,
        "start": 2066
      },
      {
        "length": 32,
        "start": 2212
      },
      {
        "length": 32,
        "start": 2471
      }
    ],
    "1789": [
      {
        "length": 32,
        "start": 1211
      },
      {
        "length": 32,
        "start": 1913
      },
      {
        "length": 32,
        "start": 2101
      },
      {
        "length": 32,
        "start": 3058
      },
      {
        "length": 32,
        "start": 3264
      },
      {
        "length": 32,
        "start": 3396
      }
    ],
    "1791": [
      {
        "length": 32,
        "start": 2136
      },
      {
        "length": 32,
        "start": 2317
      },
      {
        "length": 32,
        "start": 3904
      }
    ],
    "1793": [
      {
        "length": 32,
        "start": 1734
      },
      {
        "length": 32,
        "start": 2171
      },
      {
        "length": 32,
        "start": 2375
      },
      {
        "length": 32,
        "start": 2429
      }
    ]
  },
  "source": "// SPDX-License-Identifier: MIT\npragma solidity ^0.8.0;\n\nimport \"@openzeppelin/contracts/token/ERC20/IERC20.sol\";\nimport \"@openzeppelin/contracts/token/ERC20/utils/SafeERC20.sol\";\n\ncontract RoscaPoolPOL {\n    using SafeERC20 for IERC20;\n    \n    // POL token contract\n    IERC20 public immutable polToken;\n    \n    // Basic config\n    address public immutable creator;\n    uint256 public immutable size;\n    uint256 public immutable contribution; // per round per member (in POL wei)\n    uint256 public immutable roundDuration; // seconds\n    uint256 public immutable startTime;\n\n    // Members and order\n    address[] public payoutOrder; // length == size\n    mapping(address => bool) public isMember;\n\n    // Rounds\n    uint256 public currentRound; // 0-based\n    mapping(uint256 => mapping(address => bool)) public hasContributed;\n    mapping(uint256 => uint256) public totalContributed; // by round\n    mapping(uint256 => bool) public paid; // payout done per round\n\n    // Reentrancy guard\n    uint256 private locked;\n    modifier noReentrancy() {\n        require(locked == 0, \"Reentrancy\");\n        locked = 1;\n        _;\n        locked = 0;\n    }\n\n    event MemberJoined(address indexed member);\n    event Contribution(address indexed member, uint256 indexed round, uint256 amount);\n    event Payout(uint256 indexed round, address indexed recipient, uint256 amount);\n    event RoundAdvanced(uint256 indexed round);\n\n    constructor(\n        address _polToken,\n        address _creator,\n        uint256 _size,\n        uint256 _contribution,\n        uint256 _roundDuration,\n        uint256 _startTime,\n        address[] memory _payoutOrder\n    ) {\n        require(_polToken != address(0), \"bad pol token\");\n        require(_creator != address(0), \"bad creator\");\n        require(_size >= 2 && _size <= 12, \"size range\");\n        require(_payoutOrder.length == _size, \"order mismatch\");\n        \n        polToken = IERC20(_polToken);\n        creator = _creator;\n        size = _size;\n        contribution = _contribution;\n        roundDuration = _roundDuration;\n        startTime = _startTime;\n        payoutOrder = _payoutOrder;\n        \n        // initialize members map\n        for (uint256 i = 0; i < _size; i++) {\n            require(_payoutOrder[i] != address(0), \"zero member\");\n            require(!isMember[_payoutOrder[i]], \"dup member\");\n            isMember[_payoutOrder[i]] = true;\n            emit MemberJoined(_payoutOrder[i]);\n        }\n    }\n\n    function poolInfo() external view returns (\n        uint256 _size,\n        uint256 _contribution,\n        uint256 _roundDuration,\n        uint256 _startTime,\n        uint256 _currentRound,\n        address _currentRecipient,\n        uint256 _roundEndsAt\n    ) {\n        _size = size;\n        _contribution = contribution;\n        _roundDuration = roundDuration;\n        _startTime = startTime;\n        _currentRound = currentRound;\n        _currentRecipient = payoutOrder[currentRound % size];\n        _roundEndsAt = startTime + ((currentRound + 1) * roundDuration);\n    }\n\n    function getPayoutOrder() external view returns (address[] memory) {\n        return payoutOrder;\n    }\n\n    function currentRecipient() public view returns (address) {\n        return payoutOrder[currentRound % size];\n    }\n\n    function roundOpen() public view returns (bool) {\n        return block.timestamp >= startTime;\n    }\n\n    function contribute() external noReentrancy {\n        require(roundOpen(), \"not started\");\n        require(isMember[msg.sender], \"not member\");\n        require(!hasContributed[currentRound][msg.sender], \"already paid\");\n        \n        // Transfer POL tokens from user to contract\n        polToken.safeTransferFrom(msg.sender, address(this), contribution);\n\n        hasContributed[currentRound][msg.sender] = true;\n        totalContributed[currentRound] += contribution;\n        emit Contribution(msg.sender, currentRound, contribution);\n    }\n\n    function triggerPayout() external noReentrancy {\n        require(roundOpen(), \"not started\");\n        require(!paid[currentRound], \"already paid\");\n        // All members must contribute exactly once per round\n        require(totalContributed[currentRound] == contribution * size, \"not fully funded\");\n\n        address recipient = currentRecipient();\n        uint256 amount = totalContributed[currentRound];\n\n        paid[currentRound] = true;\n\n        // Effects before interaction\n        // Payout POL tokens to recipient\n        polToken.safeTransfer(recipient, amount);\n        emit Payout(currentRound, recipient, amount);\n\n        // Advance round\n        currentRound += 1;\n        emit RoundAdvanced(currentRound);\n    }\n\n    // Emergency function to withdraw stuck POL tokens (only creator)\n    function emergencyWithdraw() external {\n        require(msg.sender == creator, \"only creator\");\n        uint256 balance = polToken.balanceOf(address(this));\n        if (balance > 0) {\n            polToken.safeTransfer(creator, balance);\n        }\n    }\n}\n",
  "sourcePath": "/Users/micah/Documents/dapp/kumusha copy/src/contracts/RoscaPoolPOL.sol",
  "compiler": {
    "name": "solc",
    "version": "0.8.22+commit.4fc1097e.Emscripten.clang"
  },
  "schemaVersion": "3.4.4",
  "updatedAt": "2025-08-16T15:23:18.453Z",
  "networkType": "ethereum",
  "devdoc": {
    "errors": {
      "SafeERC20FailedOperation(address)": [
        {
          "details": "An operation with an ERC-20 token failed."
        }
      ]
    },
    "kind": "dev",
    "methods": {},
    "version": 1
  },
  "userdoc": {
    "kind": "user",
    "methods": {},
    "version": 1
  }
}