{
  "contractName": "Tree",
  "abi": [
    {
      "inputs": [],
      "stateMutability": "nonpayable",
      "type": "constructor"
    },
    {
      "anonymous": false,
      "inputs": [
        {
          "indexed": true,
          "internalType": "address",
          "name": "from",
          "type": "address"
        },
        {
          "indexed": true,
          "internalType": "address",
          "name": "to",
          "type": "address"
        },
        {
          "indexed": false,
          "internalType": "uint256",
          "name": "amount",
          "type": "uint256"
        },
        {
          "indexed": false,
          "internalType": "uint256",
          "name": "Count",
          "type": "uint256"
        }
      ],
      "name": "Payments",
      "type": "event"
    },
    {
      "anonymous": false,
      "inputs": [
        {
          "indexed": true,
          "internalType": "address",
          "name": "member",
          "type": "address"
        },
        {
          "indexed": true,
          "internalType": "address",
          "name": "inviter",
          "type": "address"
        },
        {
          "indexed": false,
          "internalType": "address",
          "name": "subscription",
          "type": "address"
        },
        {
          "indexed": false,
          "internalType": "uint256",
          "name": "Count",
          "type": "uint256"
        }
      ],
      "name": "Summary",
      "type": "event"
    },
    {
      "inputs": [],
      "name": "Count",
      "outputs": [
        {
          "internalType": "uint256",
          "name": "",
          "type": "uint256"
        }
      ],
      "stateMutability": "view",
      "type": "function",
      "constant": true
    },
    {
      "inputs": [
        {
          "internalType": "address",
          "name": "",
          "type": "address"
        }
      ],
      "name": "hasPaidUpliners",
      "outputs": [
        {
          "internalType": "bool",
          "name": "",
          "type": "bool"
        }
      ],
      "stateMutability": "view",
      "type": "function",
      "constant": true
    },
    {
      "inputs": [],
      "name": "top",
      "outputs": [
        {
          "internalType": "address payable",
          "name": "",
          "type": "address"
        }
      ],
      "stateMutability": "view",
      "type": "function",
      "constant": true
    },
    {
      "inputs": [
        {
          "internalType": "address",
          "name": "",
          "type": "address"
        }
      ],
      "name": "tree",
      "outputs": [
        {
          "internalType": "address payable",
          "name": "inviter",
          "type": "address"
        },
        {
          "internalType": "address payable",
          "name": "self",
          "type": "address"
        }
      ],
      "stateMutability": "view",
      "type": "function",
      "constant": true
    },
    {
      "inputs": [
        {
          "internalType": "address payable",
          "name": "_inviter",
          "type": "address"
        },
        {
          "internalType": "address payable",
          "name": "_subscription",
          "type": "address"
        }
      ],
      "name": "enter",
      "outputs": [],
      "stateMutability": "payable",
      "type": "function",
      "payable": true
    },
    {
      "inputs": [
        {
          "internalType": "address payable",
          "name": "_member",
          "type": "address"
        }
      ],
      "name": "pay",
      "outputs": [],
      "stateMutability": "payable",
      "type": "function",
      "payable": true
    },
    {
      "inputs": [
        {
          "internalType": "address payable[]",
          "name": "_members",
          "type": "address[]"
        }
      ],
      "name": "batchPay",
      "outputs": [],
      "stateMutability": "payable",
      "type": "function",
      "payable": true
    }
  ],
  "bytecode": "0x60806040526000805534801561001457600080fd5b5060405180604001604052803373ffffffffffffffffffffffffffffffffffffffff1681526020013373ffffffffffffffffffffffffffffffffffffffff16815250600160003373ffffffffffffffffffffffffffffffffffffffff1673ffffffffffffffffffffffffffffffffffffffff16815260200190815260200160002060008201518160000160006101000a81548173ffffffffffffffffffffffffffffffffffffffff021916908373ffffffffffffffffffffffffffffffffffffffff16021790555060208201518160010160006101000a81548173ffffffffffffffffffffffffffffffffffffffff021916908373ffffffffffffffffffffffffffffffffffffffff16021790555090505033600260006101000a81548173ffffffffffffffffffffffffffffffffffffffff021916908373ffffffffffffffffffffffffffffffffffffffff160217905550610d5d806101766000396000f3fe6080604052600436106100705760003560e01c80637ffc76c51161004e5780637ffc76c51461018657806393a8333e1461023e578063f724036214610269578063fe6dcdba1461032d57610070565b80630c11dedd146100755780635d4b8378146100b9578063738dd8b21461011d575b600080fd5b6100b76004803603602081101561008b57600080fd5b81019080803573ffffffffffffffffffffffffffffffffffffffff169060200190929190505050610384565b005b61011b600480360360408110156100cf57600080fd5b81019080803573ffffffffffffffffffffffffffffffffffffffff169060200190929190803573ffffffffffffffffffffffffffffffffffffffff1690602001909291905050506104b4565b005b34801561012957600080fd5b5061016c6004803603602081101561014057600080fd5b81019080803573ffffffffffffffffffffffffffffffffffffffff169060200190929190505050610989565b604051808215151515815260200191505060405180910390f35b61023c6004803603602081101561019c57600080fd5b81019080803590602001906401000000008111156101b957600080fd5b8201836020820111156101cb57600080fd5b803590602001918460208302840111640100000000831117156101ed57600080fd5b919080806020026020016040519081016040528093929190818152602001838360200280828437600081840152601f19601f8201169050808301925050505050505091929192905050506109a9565b005b34801561024a57600080fd5b50610253610c2e565b6040518082815260200191505060405180910390f35b34801561027557600080fd5b506102b86004803603602081101561028c57600080fd5b81019080803573ffffffffffffffffffffffffffffffffffffffff169060200190929190505050610c34565b604051808373ffffffffffffffffffffffffffffffffffffffff1673ffffffffffffffffffffffffffffffffffffffff1681526020018273ffffffffffffffffffffffffffffffffffffffff1673ffffffffffffffffffffffffffffffffffffffff1681526020019250505060405180910390f35b34801561033957600080fd5b50610342610c98565b604051808273ffffffffffffffffffffffffffffffffffffffff1673ffffffffffffffffffffffffffffffffffffffff16815260200191505060405180910390f35b600080815480929190600101919050555060008173ffffffffffffffffffffffffffffffffffffffff166108fc349081150290604051600060405180830381858888f19350505050905080610441576040517f08c379a00000000000000000000000000000000000000000000000000000000081526004018080602001828103825260148152602001807f4661696c656420746f2073656e6420457468657200000000000000000000000081525060200191505060405180910390fd5b8173ffffffffffffffffffffffffffffffffffffffff163373ffffffffffffffffffffffffffffffffffffffff167ff19328fe5783dfe256066fba6d6aaab1f41e3c5331940024887c1ef8f080d91d34600054604051808381526020018281526020019250505060405180910390a35050565b6605b8495616a000341015610531576040517f08c379a000000000000000000000000000000000000000000000000000000000815260040180806020018281038252601f8152602001807f4d757374206265206174206c6561737420302e3030313631302065746865720081525060200191505060405180910390fd5b600073ffffffffffffffffffffffffffffffffffffffff16600160003373ffffffffffffffffffffffffffffffffffffffff1673ffffffffffffffffffffffffffffffffffffffff16815260200190815260200160002060000160009054906101000a900473ffffffffffffffffffffffffffffffffffffffff1673ffffffffffffffffffffffffffffffffffffffff1614610618576040517f08c379a0000000000000000000000000000000000000000000000000000000008152600401808060200182810382526022815260200180610d066022913960400191505060405180910390fd5b8173ffffffffffffffffffffffffffffffffffffffff16600160008473ffffffffffffffffffffffffffffffffffffffff1673ffffffffffffffffffffffffffffffffffffffff16815260200190815260200160002060010160009054906101000a900473ffffffffffffffffffffffffffffffffffffffff1673ffffffffffffffffffffffffffffffffffffffff161461071b576040517f08c379a00000000000000000000000000000000000000000000000000000000081526004018080602001828103825260128152602001807f496e7669746572206d757374206578697374000000000000000000000000000081525060200191505060405180910390fd5b600080815480929190600101919050555060405180604001604052808373ffffffffffffffffffffffffffffffffffffffff1681526020013373ffffffffffffffffffffffffffffffffffffffff16815250600160003373ffffffffffffffffffffffffffffffffffffffff1673ffffffffffffffffffffffffffffffffffffffff16815260200190815260200160002060008201518160000160006101000a81548173ffffffffffffffffffffffffffffffffffffffff021916908373ffffffffffffffffffffffffffffffffffffffff16021790555060208201518160010160006101000a81548173ffffffffffffffffffffffffffffffffffffffff021916908373ffffffffffffffffffffffffffffffffffffffff16021790555090505060008173ffffffffffffffffffffffffffffffffffffffff166108fc349081150290604051600060405180830381858888f193505050509050806108e9576040517f08c379a00000000000000000000000000000000000000000000000000000000081526004018080602001828103825260148152602001807f4661696c656420746f2073656e6420457468657200000000000000000000000081525060200191505060405180910390fd5b8273ffffffffffffffffffffffffffffffffffffffff163373ffffffffffffffffffffffffffffffffffffffff167f9401c4696aa930450b5eb88e4f708151abe4e3436bad9da4c0544e05ec06204584600054604051808373ffffffffffffffffffffffffffffffffffffffff1673ffffffffffffffffffffffffffffffffffffffff1681526020018281526020019250505060405180910390a3505050565b60036020528060005260406000206000915054906101000a900460ff1681565b600360003373ffffffffffffffffffffffffffffffffffffffff1673ffffffffffffffffffffffffffffffffffffffff16815260200190815260200160002060009054906101000a900460ff1615610a4c576040517f08c379a0000000000000000000000000000000000000000000000000000000008152600401808060200182810382526023815260200180610ce36023913960400191505060405180910390fd5b6000678ac7230489e800008251029050803414610ab4576040517f08c379a0000000000000000000000000000000000000000000000000000000008152600401808060200182810382526024815260200180610cbf6024913960400191505060405180910390fd5b60008090505b8251811015610bc157828181518110610acf57fe5b602002602001015173ffffffffffffffffffffffffffffffffffffffff166108fc678ac7230489e800009081150290604051600060405180830381858888f19350505050158015610b24573d6000803e3d6000fd5b50828181518110610b3157fe5b602002602001015173ffffffffffffffffffffffffffffffffffffffff163373ffffffffffffffffffffffffffffffffffffffff167ff19328fe5783dfe256066fba6d6aaab1f41e3c5331940024887c1ef8f080d91d678ac7230489e800006001856000540101604051808381526020018281526020019250505060405180910390a38080600101915050610aba565b50815160008082825401925050819055506001600360003373ffffffffffffffffffffffffffffffffffffffff1673ffffffffffffffffffffffffffffffffffffffff16815260200190815260200160002060006101000a81548160ff0219169083151502179055505050565b60005481565b60016020528060005260406000206000915090508060000160009054906101000a900473ffffffffffffffffffffffffffffffffffffffff16908060010160009054906101000a900473ffffffffffffffffffffffffffffffffffffffff16905082565b600260009054906101000a900473ffffffffffffffffffffffffffffffffffffffff168156fe496e636f7272656374204554482073656e7420666f72206261746368207061796d656e74596f75206861766520616c7265616479207061696420796f75722075706c696e65727353656e6465722063616e277420616c726561647920657869737420696e2074726565a2646970667358221220dec9a5a3fa8a193d28d7236d9ceb629d1d3a2a081f8781841e5aab89b46b03b964736f6c63430006000033",
  "source": "// SPDX-License-Identifier: GPL-3.0\npragma solidity ^0.6.0;\n\ncontract Tree {\n    uint256 public Count = 0;\n\n    struct User {\n        address payable inviter;\n        address payable self;\n    }\n\n    event Summary(\n        address indexed member,\n        address indexed inviter,\n        address subscription,\n        uint256 Count\n    );\n\n    event Payments(\n        address indexed from,\n        address indexed to,\n        uint256 amount,\n        uint256 Count\n    );\n\n    mapping(address => User) public tree;\n    address payable public top;\n    mapping(address => bool) public hasPaidUpliners;\n\n    constructor() public {\n        tree[msg.sender] = User(msg.sender, msg.sender);\n        top = msg.sender;\n    }\n\n    function enter(address payable _inviter, address payable _subscription)\n        public\n        payable\n    {\n        require(msg.value >= 0.001610 ether, \"Must be at least 0.001610 ether\");\n        require(\n            tree[msg.sender].inviter == address(0),\n            \"Sender can't already exist in tree\"\n        );\n        require(tree[_inviter].self == _inviter, \"Inviter must exist\");\n        Count++;\n\n        tree[msg.sender] = User(_inviter, msg.sender);\n\n        bool sent = _subscription.send(msg.value);\n        require(sent, \"Failed to send Ether\");\n\n        emit Summary(msg.sender, _inviter, _subscription, Count);\n    }\n\n    function pay(address payable _member) public payable {\n        Count++;\n        bool sent = _member.send(msg.value);\n        require(sent, \"Failed to send Ether\");\n\n        emit Payments(msg.sender, _member, msg.value, Count);\n    }\n\n    function batchPay(address payable[] memory _members) public payable {\n        require(!hasPaidUpliners[msg.sender], \"You have already paid your upliners\");\n        uint256 total = _members.length * 10 ether;\n        require(msg.value == total, \"Incorrect ETH sent for batch payment\");\n        for (uint256 i = 0; i < _members.length; i++) {\n            _members[i].transfer(10 ether);\n            emit Payments(msg.sender, _members[i], 10 ether, Count + i + 1);\n        }\n        Count += _members.length;\n        hasPaidUpliners[msg.sender] = true;\n    }\n}",
  "sourcePath": "/Users/micah/Documents/dapp/starterkit/src/contracts/Tree.sol",
  "compiler": {
    "name": "solc",
    "version": "0.6.0+commit.26b70077.Emscripten.clang"
  },
  "schemaVersion": "3.4.16",
  "updatedAt": "2025-06-08T17:12:03.913Z",
  "networkType": "ethereum",
  "devdoc": {
    "methods": {}
  },
  "userdoc": {
    "methods": {}
  }
}