{
  "contractName": "Tree",
  "abi": [
    {
      "inputs": [],
      "stateMutability": "nonpayable",
      "type": "constructor"
    },
    {
      "anonymous": false,
      "inputs": [
        {
          "indexed": true,
          "internalType": "address",
          "name": "from",
          "type": "address"
        },
        {
          "indexed": true,
          "internalType": "address",
          "name": "to",
          "type": "address"
        },
        {
          "indexed": false,
          "internalType": "uint256",
          "name": "amount",
          "type": "uint256"
        },
        {
          "indexed": false,
          "internalType": "uint256",
          "name": "Count",
          "type": "uint256"
        }
      ],
      "name": "Payments",
      "type": "event"
    },
    {
      "anonymous": false,
      "inputs": [
        {
          "indexed": true,
          "internalType": "address",
          "name": "member",
          "type": "address"
        },
        {
          "indexed": true,
          "internalType": "address",
          "name": "inviter",
          "type": "address"
        },
        {
          "indexed": false,
          "internalType": "address",
          "name": "subscription",
          "type": "address"
        },
        {
          "indexed": false,
          "internalType": "uint256",
          "name": "Count",
          "type": "uint256"
        }
      ],
      "name": "Summary",
      "type": "event"
    },
    {
      "inputs": [],
      "name": "Count",
      "outputs": [
        {
          "internalType": "uint256",
          "name": "",
          "type": "uint256"
        }
      ],
      "stateMutability": "view",
      "type": "function",
      "constant": true
    },
    {
      "inputs": [
        {
          "internalType": "address",
          "name": "",
          "type": "address"
        }
      ],
      "name": "hasPaidUpliners",
      "outputs": [
        {
          "internalType": "bool",
          "name": "",
          "type": "bool"
        }
      ],
      "stateMutability": "view",
      "type": "function",
      "constant": true
    },
    {
      "inputs": [],
      "name": "top",
      "outputs": [
        {
          "internalType": "address",
          "name": "",
          "type": "address"
        }
      ],
      "stateMutability": "view",
      "type": "function",
      "constant": true
    },
    {
      "inputs": [
        {
          "internalType": "address",
          "name": "",
          "type": "address"
        }
      ],
      "name": "tree",
      "outputs": [
        {
          "internalType": "address",
          "name": "inviter",
          "type": "address"
        },
        {
          "internalType": "address",
          "name": "self",
          "type": "address"
        }
      ],
      "stateMutability": "view",
      "type": "function",
      "constant": true
    },
    {
      "inputs": [
        {
          "internalType": "address",
          "name": "_inviter",
          "type": "address"
        },
        {
          "internalType": "address",
          "name": "_subscription",
          "type": "address"
        }
      ],
      "name": "enter",
      "outputs": [],
      "stateMutability": "payable",
      "type": "function",
      "payable": true
    },
    {
      "inputs": [
        {
          "internalType": "address",
          "name": "_member",
          "type": "address"
        }
      ],
      "name": "pay",
      "outputs": [],
      "stateMutability": "payable",
      "type": "function",
      "payable": true
    },
    {
      "inputs": [
        {
          "internalType": "address[]",
          "name": "_members",
          "type": "address[]"
        },
        {
          "internalType": "uint256",
          "name": "amountPerMember",
          "type": "uint256"
        }
      ],
      "name": "batchPay",
      "outputs": [],
      "stateMutability": "payable",
      "type": "function",
      "payable": true
    }
  ],
  "bytecode": "0x60806040526000805534801561001457600080fd5b5060405180604001604052803373ffffffffffffffffffffffffffffffffffffffff1681526020013373ffffffffffffffffffffffffffffffffffffffff16815250600260003373ffffffffffffffffffffffffffffffffffffffff1673ffffffffffffffffffffffffffffffffffffffff16815260200190815260200160002060008201518160000160006101000a81548173ffffffffffffffffffffffffffffffffffffffff021916908373ffffffffffffffffffffffffffffffffffffffff16021790555060208201518160010160006101000a81548173ffffffffffffffffffffffffffffffffffffffff021916908373ffffffffffffffffffffffffffffffffffffffff16021790555090505033600360006101000a81548173ffffffffffffffffffffffffffffffffffffffff021916908373ffffffffffffffffffffffffffffffffffffffff1602179055506114c9806101766000396000f3fe6080604052600436106100705760003560e01c8063738dd8b21161004e578063738dd8b2146100c957806393a8333e14610106578063f724036214610131578063fe6dcdba1461016f57610070565b80630c11dedd146100755780634e0681eb146100915780635d4b8378146100ad575b600080fd5b61008f600480360381019061008a9190610d34565b61019a565b005b6100ab60048036038101906100a69190610d99565b61034f565b005b6100c760048036038101906100c29190610d5d565b6106f7565b005b3480156100d557600080fd5b506100f060048036038101906100eb9190610d34565b610bc4565b6040516100fd919061110e565b60405180910390f35b34801561011257600080fd5b5061011b610be4565b6040516101289190611209565b60405180910390f35b34801561013d57600080fd5b5061015860048036038101906101539190610d34565b610bea565b6040516101669291906110bc565b60405180910390f35b34801561017b57600080fd5b50610184610c4e565b60405161019191906110a1565b60405180910390f35b600160009054906101000a900460ff16156101ea576040517f08c379a00000000000000000000000000000000000000000000000000000000081526004016101e190611169565b60405180910390fd5b60018060006101000a81548160ff021916908315150217905550600080815480929190610216906113be565b919050555060008173ffffffffffffffffffffffffffffffffffffffff16346040516102419061108c565b60006040518083038185875af1925050503d806000811461027e576040519150601f19603f3d011682016040523d82523d6000602084013e610283565b606091505b50509050806102c7576040517f08c379a00000000000000000000000000000000000000000000000000000000081526004016102be90611189565b60405180910390fd5b8173ffffffffffffffffffffffffffffffffffffffff163373ffffffffffffffffffffffffffffffffffffffff167ff19328fe5783dfe256066fba6d6aaab1f41e3c5331940024887c1ef8f080d91d34600054604051610328929190611224565b60405180910390a3506000600160006101000a81548160ff02191690831515021790555050565b600160009054906101000a900460ff161561039f576040517f08c379a000000000000000000000000000000000000000000000000000000000815260040161039690611169565b60405180910390fd5b60018060006101000a81548160ff021916908315150217905550600460003373ffffffffffffffffffffffffffffffffffffffff1673ffffffffffffffffffffffffffffffffffffffff16815260200190815260200160002060009054906101000a900460ff1615610446576040517f08c379a000000000000000000000000000000000000000000000000000000000815260040161043d90611149565b60405180910390fd5b6000818351610455919061131c565b9050803414610499576040517f08c379a000000000000000000000000000000000000000000000000000000000815260040161049090611129565b60405180910390fd5b6001600460003373ffffffffffffffffffffffffffffffffffffffff1673ffffffffffffffffffffffffffffffffffffffff16815260200190815260200160002060006101000a81548160ff02191690831515021790555060005b83518110156106bd576000848281518110610538577f4e487b7100000000000000000000000000000000000000000000000000000000600052603260045260246000fd5b602002602001015173ffffffffffffffffffffffffffffffffffffffff16846040516105639061108c565b60006040518083038185875af1925050503d80600081146105a0576040519150601f19603f3d011682016040523d82523d6000602084013e6105a5565b606091505b50509050806105e9576040517f08c379a00000000000000000000000000000000000000000000000000000000081526004016105e090611189565b60405180910390fd5b848281518110610622577f4e487b7100000000000000000000000000000000000000000000000000000000600052603260045260246000fd5b602002602001015173ffffffffffffffffffffffffffffffffffffffff163373ffffffffffffffffffffffffffffffffffffffff167ff19328fe5783dfe256066fba6d6aaab1f41e3c5331940024887c1ef8f080d91d8660018660005461068991906112c6565b61069391906112c6565b6040516106a1929190611224565b60405180910390a35080806106b5906113be565b9150506104f4565b5082516000808282546106d091906112c6565b92505081905550506000600160006101000a81548160ff0219169083151502179055505050565b600160009054906101000a900460ff1615610747576040517f08c379a000000000000000000000000000000000000000000000000000000000815260040161073e90611169565b60405180910390fd5b60018060006101000a81548160ff021916908315150217905550600034116107a4576040517f08c379a000000000000000000000000000000000000000000000000000000000815260040161079b906111a9565b60405180910390fd5b600073ffffffffffffffffffffffffffffffffffffffff16600260003373ffffffffffffffffffffffffffffffffffffffff1673ffffffffffffffffffffffffffffffffffffffff16815260200190815260200160002060000160009054906101000a900473ffffffffffffffffffffffffffffffffffffffff1673ffffffffffffffffffffffffffffffffffffffff1614610875576040517f08c379a000000000000000000000000000000000000000000000000000000000815260040161086c906111e9565b60405180910390fd5b8173ffffffffffffffffffffffffffffffffffffffff16600260008473ffffffffffffffffffffffffffffffffffffffff1673ffffffffffffffffffffffffffffffffffffffff16815260200190815260200160002060010160009054906101000a900473ffffffffffffffffffffffffffffffffffffffff1673ffffffffffffffffffffffffffffffffffffffff1614610945576040517f08c379a000000000000000000000000000000000000000000000000000000000815260040161093c906111c9565b60405180910390fd5b600080815480929190610957906113be565b919050555060405180604001604052808373ffffffffffffffffffffffffffffffffffffffff1681526020013373ffffffffffffffffffffffffffffffffffffffff16815250600260003373ffffffffffffffffffffffffffffffffffffffff1673ffffffffffffffffffffffffffffffffffffffff16815260200190815260200160002060008201518160000160006101000a81548173ffffffffffffffffffffffffffffffffffffffff021916908373ffffffffffffffffffffffffffffffffffffffff16021790555060208201518160010160006101000a81548173ffffffffffffffffffffffffffffffffffffffff021916908373ffffffffffffffffffffffffffffffffffffffff1602179055509050506000600360009054906101000a900473ffffffffffffffffffffffffffffffffffffffff1673ffffffffffffffffffffffffffffffffffffffff1634604051610ab59061108c565b60006040518083038185875af1925050503d8060008114610af2576040519150601f19603f3d011682016040523d82523d6000602084013e610af7565b606091505b5050905080610b3b576040517f08c379a0000000000000000000000000000000000000000000000000000000008152600401610b3290611189565b60405180910390fd5b8273ffffffffffffffffffffffffffffffffffffffff163373ffffffffffffffffffffffffffffffffffffffff167f9401c4696aa930450b5eb88e4f708151abe4e3436bad9da4c0544e05ec06204584600054604051610b9c9291906110e5565b60405180910390a3506000600160006101000a81548160ff0219169083151502179055505050565b60046020528060005260406000206000915054906101000a900460ff1681565b60005481565b60026020528060005260406000206000915090508060000160009054906101000a900473ffffffffffffffffffffffffffffffffffffffff16908060010160009054906101000a900473ffffffffffffffffffffffffffffffffffffffff16905082565b600360009054906101000a900473ffffffffffffffffffffffffffffffffffffffff1681565b6000610c87610c828461127e565b61124d565b90508083825260208201905082856020860282011115610ca657600080fd5b60005b85811015610cd65781610cbc8882610ce0565b845260208401935060208301925050600181019050610ca9565b5050509392505050565b600081359050610cef81611465565b92915050565b600082601f830112610d0657600080fd5b8135610d16848260208601610c74565b91505092915050565b600081359050610d2e8161147c565b92915050565b600060208284031215610d4657600080fd5b6000610d5484828501610ce0565b91505092915050565b60008060408385031215610d7057600080fd5b6000610d7e85828601610ce0565b9250506020610d8f85828601610ce0565b9150509250929050565b60008060408385031215610dac57600080fd5b600083013567ffffffffffffffff811115610dc657600080fd5b610dd285828601610cf5565b9250506020610de385828601610d1f565b9150509250929050565b610df681611376565b82525050565b610e0581611388565b82525050565b6000610e186024836112b5565b91507f496e636f7272656374204554482073656e7420666f722062617463682070617960008301527f6d656e74000000000000000000000000000000000000000000000000000000006020830152604082019050919050565b6000610e7e6023836112b5565b91507f596f75206861766520616c7265616479207061696420796f75722075706c696e60008301527f65727300000000000000000000000000000000000000000000000000000000006020830152604082019050919050565b6000610ee4600d836112b5565b91507f4e6f207265656e7472616e6379000000000000000000000000000000000000006000830152602082019050919050565b6000610f246014836112b5565b91507f4661696c656420746f2073656e642045746865720000000000000000000000006000830152602082019050919050565b6000610f646024836112b5565b91507f45544820616d6f756e74206d7573742062652067726561746572207468616e2060008301527f7a65726f000000000000000000000000000000000000000000000000000000006020830152604082019050919050565b6000610fca6012836112b5565b91507f496e7669746572206d75737420657869737400000000000000000000000000006000830152602082019050919050565b600061100a6022836112b5565b91507f53656e6465722063616e277420616c726561647920657869737420696e20747260008301527f65650000000000000000000000000000000000000000000000000000000000006020830152604082019050919050565b60006110706000836112aa565b9150600082019050919050565b611086816113b4565b82525050565b600061109782611063565b9150819050919050565b60006020820190506110b66000830184610ded565b92915050565b60006040820190506110d16000830185610ded565b6110de6020830184610ded565b9392505050565b60006040820190506110fa6000830185610ded565b611107602083018461107d565b9392505050565b60006020820190506111236000830184610dfc565b92915050565b6000602082019050818103600083015261114281610e0b565b9050919050565b6000602082019050818103600083015261116281610e71565b9050919050565b6000602082019050818103600083015261118281610ed7565b9050919050565b600060208201905081810360008301526111a281610f17565b9050919050565b600060208201905081810360008301526111c281610f57565b9050919050565b600060208201905081810360008301526111e281610fbd565b9050919050565b6000602082019050818103600083015261120281610ffd565b9050919050565b600060208201905061121e600083018461107d565b92915050565b6000604082019050611239600083018561107d565b611246602083018461107d565b9392505050565b6000604051905081810181811067ffffffffffffffff8211171561127457611273611436565b5b8060405250919050565b600067ffffffffffffffff82111561129957611298611436565b5b602082029050602081019050919050565b600081905092915050565b600082825260208201905092915050565b60006112d1826113b4565b91506112dc836113b4565b9250827fffffffffffffffffffffffffffffffffffffffffffffffffffffffffffffffff0382111561131157611310611407565b5b828201905092915050565b6000611327826113b4565b9150611332836113b4565b9250817fffffffffffffffffffffffffffffffffffffffffffffffffffffffffffffffff048311821515161561136b5761136a611407565b5b828202905092915050565b600061138182611394565b9050919050565b60008115159050919050565b600073ffffffffffffffffffffffffffffffffffffffff82169050919050565b6000819050919050565b60006113c9826113b4565b91507fffffffffffffffffffffffffffffffffffffffffffffffffffffffffffffffff8214156113fc576113fb611407565b5b600182019050919050565b7f4e487b7100000000000000000000000000000000000000000000000000000000600052601160045260246000fd5b7f4e487b7100000000000000000000000000000000000000000000000000000000600052604160045260246000fd5b61146e81611376565b811461147957600080fd5b50565b611485816113b4565b811461149057600080fd5b5056fea26469706673582212203f045b03a074b4a2e38930a50c68af3a2579072189558fc9fee6a4145d3c7cad64736f6c63430008000033",
  "immutableReferences": {},
  "source": "// SPDX-License-Identifier: GPL-3.0\npragma solidity ^0.8.0;\n\ncontract Tree {\n    uint256 public Count = 0;\n    bool private locked;\n\n    struct User {\n        address inviter;\n        address self;\n    }\n\n    event Summary(\n        address indexed member,\n        address indexed inviter,\n        address subscription,\n        uint256 Count\n    );\n\n    event Payments(\n        address indexed from,\n        address indexed to,\n        uint256 amount,\n        uint256 Count\n    );\n\n    mapping(address => User) public tree;\n    address public top;\n    mapping(address => bool) public hasPaidUpliners;\n\n    modifier noReentrancy() {\n        require(!locked, \"No reentrancy\");\n        locked = true;\n        _;\n        locked = false;\n    }\n\n    constructor() {\n        tree[msg.sender] = User(msg.sender, msg.sender);\n        top = msg.sender;\n    }\n\n    function enter(address _inviter, address _subscription)\n        public\n        payable\n        noReentrancy\n    {\n        require(msg.value > 0, \"ETH amount must be greater than zero\");\n        require(\n            tree[msg.sender].inviter == address(0),\n            \"Sender can't already exist in tree\"\n        );\n        require(tree[_inviter].self == _inviter, \"Inviter must exist\");\n\n        // Effects: Update state variables\n        Count++;\n        tree[msg.sender] = User(_inviter, msg.sender);\n\n        // Interaction: External call\n        (bool sent, ) = payable(top).call{value: msg.value}(\"\");\n        require(sent, \"Failed to send Ether\");\n\n        emit Summary(msg.sender, _inviter, _subscription, Count);\n    }\n\n    function pay(address _member)\n        public\n        payable\n        noReentrancy\n    {\n        // Effects: Update state variables\n        Count++;\n\n        // Interaction: External call\n        (bool sent, ) = payable(_member).call{value: msg.value}(\"\");\n        require(sent, \"Failed to send Ether\");\n\n        emit Payments(msg.sender, _member, msg.value, Count);\n    }\n\n    function batchPay(address[] memory _members, uint256 amountPerMember)\n        public\n        payable\n        noReentrancy\n    {\n        require(!hasPaidUpliners[msg.sender], \"You have already paid your upliners\");\n        uint256 total = _members.length * amountPerMember;\n        require(msg.value == total, \"Incorrect ETH sent for batch payment\");\n\n        // Effects: Update state variables\n        hasPaidUpliners[msg.sender] = true;\n\n        for (uint256 i = 0; i < _members.length; i++) {\n            // Interaction: External call\n            (bool sent, ) = payable(_members[i]).call{value: amountPerMember}(\"\");\n            require(sent, \"Failed to send Ether\");\n            emit Payments(msg.sender, _members[i], amountPerMember, Count + i + 1);\n        }\n\n        // Update Count after all interactions\n        Count += _members.length;\n    }\n}",
  "sourcePath": "/Users/micah/Documents/dapp/kumusha copy/src/contracts/Tree.sol",
  "compiler": {
    "name": "solc",
    "version": "0.8.0+commit.c7dfd78e.Emscripten.clang"
  },
  "schemaVersion": "3.4.16",
  "updatedAt": "2025-08-08T16:26:15.098Z",
  "networkType": "ethereum",
  "devdoc": {
    "kind": "dev",
    "methods": {},
    "version": 1
  },
  "userdoc": {
    "kind": "user",
    "methods": {},
    "version": 1
  }
}