{
  "contractName": "Tree",
  "abi": [
    {
      "inputs": [],
      "stateMutability": "nonpayable",
      "type": "constructor"
    },
    {
      "anonymous": false,
      "inputs": [
        {
          "indexed": true,
          "internalType": "address",
          "name": "from",
          "type": "address"
        },
        {
          "indexed": true,
          "internalType": "address",
          "name": "to",
          "type": "address"
        },
        {
          "indexed": false,
          "internalType": "uint256",
          "name": "amount",
          "type": "uint256"
        },
        {
          "indexed": false,
          "internalType": "uint256",
          "name": "Count",
          "type": "uint256"
        }
      ],
      "name": "Payments",
      "type": "event"
    },
    {
      "anonymous": false,
      "inputs": [
        {
          "indexed": true,
          "internalType": "address",
          "name": "member",
          "type": "address"
        },
        {
          "indexed": true,
          "internalType": "address",
          "name": "inviter",
          "type": "address"
        },
        {
          "indexed": false,
          "internalType": "address",
          "name": "subscription",
          "type": "address"
        },
        {
          "indexed": false,
          "internalType": "uint256",
          "name": "Count",
          "type": "uint256"
        }
      ],
      "name": "Summary",
      "type": "event"
    },
    {
      "inputs": [],
      "name": "Count",
      "outputs": [
        {
          "internalType": "uint256",
          "name": "",
          "type": "uint256"
        }
      ],
      "stateMutability": "view",
      "type": "function",
      "constant": true
    },
    {
      "inputs": [
        {
          "internalType": "address",
          "name": "",
          "type": "address"
        },
        {
          "internalType": "uint256",
          "name": "",
          "type": "uint256"
        }
      ],
      "name": "children",
      "outputs": [
        {
          "internalType": "address",
          "name": "",
          "type": "address"
        }
      ],
      "stateMutability": "view",
      "type": "function",
      "constant": true
    },
    {
      "inputs": [
        {
          "internalType": "address",
          "name": "",
          "type": "address"
        }
      ],
      "name": "hasPaidUpliners",
      "outputs": [
        {
          "internalType": "bool",
          "name": "",
          "type": "bool"
        }
      ],
      "stateMutability": "view",
      "type": "function",
      "constant": true
    },
    {
      "inputs": [],
      "name": "top",
      "outputs": [
        {
          "internalType": "address",
          "name": "",
          "type": "address"
        }
      ],
      "stateMutability": "view",
      "type": "function",
      "constant": true
    },
    {
      "inputs": [
        {
          "internalType": "address",
          "name": "",
          "type": "address"
        }
      ],
      "name": "tree",
      "outputs": [
        {
          "internalType": "address",
          "name": "inviter",
          "type": "address"
        },
        {
          "internalType": "address",
          "name": "self",
          "type": "address"
        }
      ],
      "stateMutability": "view",
      "type": "function",
      "constant": true
    },
    {
      "inputs": [
        {
          "internalType": "address",
          "name": "_inviter",
          "type": "address"
        },
        {
          "internalType": "address",
          "name": "_subscription",
          "type": "address"
        }
      ],
      "name": "enter",
      "outputs": [],
      "stateMutability": "payable",
      "type": "function",
      "payable": true
    },
    {
      "inputs": [
        {
          "internalType": "address",
          "name": "member",
          "type": "address"
        }
      ],
      "name": "hasTwoLevelDownline",
      "outputs": [
        {
          "internalType": "bool",
          "name": "",
          "type": "bool"
        }
      ],
      "stateMutability": "view",
      "type": "function",
      "constant": true
    },
    {
      "inputs": [
        {
          "internalType": "address",
          "name": "_member",
          "type": "address"
        }
      ],
      "name": "pay",
      "outputs": [],
      "stateMutability": "payable",
      "type": "function",
      "payable": true
    },
    {
      "inputs": [
        {
          "internalType": "address[]",
          "name": "_members",
          "type": "address[]"
        },
        {
          "internalType": "uint256",
          "name": "amountPerMember",
          "type": "uint256"
        }
      ],
      "name": "batchPay",
      "outputs": [],
      "stateMutability": "payable",
      "type": "function",
      "payable": true
    }
  ],
  "bytecode": "0x60806040526000805534801561001457600080fd5b5060405180604001604052803373ffffffffffffffffffffffffffffffffffffffff1681526020013373ffffffffffffffffffffffffffffffffffffffff16815250600260003373ffffffffffffffffffffffffffffffffffffffff1673ffffffffffffffffffffffffffffffffffffffff16815260200190815260200160002060008201518160000160006101000a81548173ffffffffffffffffffffffffffffffffffffffff021916908373ffffffffffffffffffffffffffffffffffffffff16021790555060208201518160010160006101000a81548173ffffffffffffffffffffffffffffffffffffffff021916908373ffffffffffffffffffffffffffffffffffffffff16021790555090505033600460006101000a81548173ffffffffffffffffffffffffffffffffffffffff021916908373ffffffffffffffffffffffffffffffffffffffff160217905550611821806101766000396000f3fe6080604052600436106100865760003560e01c8063738dd8b211610059578063738dd8b21461011c57806393a8333e14610159578063f724036214610184578063f8b9a886146101c2578063fe6dcdba146101ff57610086565b80630c11dedd1461008b5780634e0681eb146100a75780634e94f499146100c35780635d4b837814610100575b600080fd5b6100a560048036038101906100a09190611050565b61022a565b005b6100c160048036038101906100bc91906110f1565b6103df565b005b3480156100cf57600080fd5b506100ea60048036038101906100e591906110b5565b610787565b6040516100f791906113f9565b60405180910390f35b61011a60048036038101906101159190611079565b6107d5565b005b34801561012857600080fd5b50610143600480360381019061013e9190611050565b610d42565b6040516101509190611466565b60405180910390f35b34801561016557600080fd5b5061016e610d62565b60405161017b9190611561565b60405180910390f35b34801561019057600080fd5b506101ab60048036038101906101a69190611050565b610d68565b6040516101b9929190611414565b60405180910390f35b3480156101ce57600080fd5b506101e960048036038101906101e49190611050565b610dcc565b6040516101f69190611466565b60405180910390f35b34801561020b57600080fd5b50610214610f6a565b60405161022191906113f9565b60405180910390f35b600160009054906101000a900460ff161561027a576040517f08c379a0000000000000000000000000000000000000000000000000000000008152600401610271906114c1565b60405180910390fd5b60018060006101000a81548160ff0219169083151502179055506000808154809291906102a690611716565b919050555060008173ffffffffffffffffffffffffffffffffffffffff16346040516102d1906113e4565b60006040518083038185875af1925050503d806000811461030e576040519150601f19603f3d011682016040523d82523d6000602084013e610313565b606091505b5050905080610357576040517f08c379a000000000000000000000000000000000000000000000000000000000815260040161034e906114e1565b60405180910390fd5b8173ffffffffffffffffffffffffffffffffffffffff163373ffffffffffffffffffffffffffffffffffffffff167ff19328fe5783dfe256066fba6d6aaab1f41e3c5331940024887c1ef8f080d91d346000546040516103b892919061157c565b60405180910390a3506000600160006101000a81548160ff02191690831515021790555050565b600160009054906101000a900460ff161561042f576040517f08c379a0000000000000000000000000000000000000000000000000000000008152600401610426906114c1565b60405180910390fd5b60018060006101000a81548160ff021916908315150217905550600560003373ffffffffffffffffffffffffffffffffffffffff1673ffffffffffffffffffffffffffffffffffffffff16815260200190815260200160002060009054906101000a900460ff16156104d6576040517f08c379a00000000000000000000000000000000000000000000000000000000081526004016104cd906114a1565b60405180910390fd5b60008183516104e59190611674565b9050803414610529576040517f08c379a000000000000000000000000000000000000000000000000000000000815260040161052090611481565b60405180910390fd5b6001600560003373ffffffffffffffffffffffffffffffffffffffff1673ffffffffffffffffffffffffffffffffffffffff16815260200190815260200160002060006101000a81548160ff02191690831515021790555060005b835181101561074d5760008482815181106105c8577f4e487b7100000000000000000000000000000000000000000000000000000000600052603260045260246000fd5b602002602001015173ffffffffffffffffffffffffffffffffffffffff16846040516105f3906113e4565b60006040518083038185875af1925050503d8060008114610630576040519150601f19603f3d011682016040523d82523d6000602084013e610635565b606091505b5050905080610679576040517f08c379a0000000000000000000000000000000000000000000000000000000008152600401610670906114e1565b60405180910390fd5b8482815181106106b2577f4e487b7100000000000000000000000000000000000000000000000000000000600052603260045260246000fd5b602002602001015173ffffffffffffffffffffffffffffffffffffffff163373ffffffffffffffffffffffffffffffffffffffff167ff19328fe5783dfe256066fba6d6aaab1f41e3c5331940024887c1ef8f080d91d86600186600054610719919061161e565b610723919061161e565b60405161073192919061157c565b60405180910390a350808061074590611716565b915050610584565b508251600080828254610760919061161e565b92505081905550506000600160006101000a81548160ff0219169083151502179055505050565b600360205281600052604060002081815481106107a357600080fd5b906000526020600020016000915091509054906101000a900473ffffffffffffffffffffffffffffffffffffffff1681565b600160009054906101000a900460ff1615610825576040517f08c379a000000000000000000000000000000000000000000000000000000000815260040161081c906114c1565b60405180910390fd5b60018060006101000a81548160ff02191690831515021790555060003411610882576040517f08c379a000000000000000000000000000000000000000000000000000000000815260040161087990611501565b60405180910390fd5b600073ffffffffffffffffffffffffffffffffffffffff16600260003373ffffffffffffffffffffffffffffffffffffffff1673ffffffffffffffffffffffffffffffffffffffff16815260200190815260200160002060000160009054906101000a900473ffffffffffffffffffffffffffffffffffffffff1673ffffffffffffffffffffffffffffffffffffffff1614610953576040517f08c379a000000000000000000000000000000000000000000000000000000000815260040161094a90611541565b60405180910390fd5b8173ffffffffffffffffffffffffffffffffffffffff16600260008473ffffffffffffffffffffffffffffffffffffffff1673ffffffffffffffffffffffffffffffffffffffff16815260200190815260200160002060010160009054906101000a900473ffffffffffffffffffffffffffffffffffffffff1673ffffffffffffffffffffffffffffffffffffffff1614610a23576040517f08c379a0000000000000000000000000000000000000000000000000000000008152600401610a1a90611521565b60405180910390fd5b600080815480929190610a3590611716565b919050555060405180604001604052808373ffffffffffffffffffffffffffffffffffffffff1681526020013373ffffffffffffffffffffffffffffffffffffffff16815250600260003373ffffffffffffffffffffffffffffffffffffffff1673ffffffffffffffffffffffffffffffffffffffff16815260200190815260200160002060008201518160000160006101000a81548173ffffffffffffffffffffffffffffffffffffffff021916908373ffffffffffffffffffffffffffffffffffffffff16021790555060208201518160010160006101000a81548173ffffffffffffffffffffffffffffffffffffffff021916908373ffffffffffffffffffffffffffffffffffffffff160217905550905050600360008373ffffffffffffffffffffffffffffffffffffffff1673ffffffffffffffffffffffffffffffffffffffff168152602001908152602001600020339080600181540180825580915050600190039060005260206000200160009091909190916101000a81548173ffffffffffffffffffffffffffffffffffffffff021916908373ffffffffffffffffffffffffffffffffffffffff1602179055506000600460009054906101000a900473ffffffffffffffffffffffffffffffffffffffff1673ffffffffffffffffffffffffffffffffffffffff1634604051610c33906113e4565b60006040518083038185875af1925050503d8060008114610c70576040519150601f19603f3d011682016040523d82523d6000602084013e610c75565b606091505b5050905080610cb9576040517f08c379a0000000000000000000000000000000000000000000000000000000008152600401610cb0906114e1565b60405180910390fd5b8273ffffffffffffffffffffffffffffffffffffffff163373ffffffffffffffffffffffffffffffffffffffff167f9401c4696aa930450b5eb88e4f708151abe4e3436bad9da4c0544e05ec06204584600054604051610d1a92919061143d565b60405180910390a3506000600160006101000a81548160ff0219169083151502179055505050565b60056020528060005260406000206000915054906101000a900460ff1681565b60005481565b60026020528060005260406000206000915090508060000160009054906101000a900473ffffffffffffffffffffffffffffffffffffffff16908060010160009054906101000a900473ffffffffffffffffffffffffffffffffffffffff16905082565b600080600360008473ffffffffffffffffffffffffffffffffffffffff1673ffffffffffffffffffffffffffffffffffffffff168152602001908152602001600020805480602002602001604051908101604052809291908181526020018280548015610e8e57602002820191906000526020600020905b8160009054906101000a900473ffffffffffffffffffffffffffffffffffffffff1673ffffffffffffffffffffffffffffffffffffffff1681526020019060010190808311610e44575b50505050509050600081511415610ea9576000915050610f65565b60005b8151811015610f5e57600060036000848481518110610ef4577f4e487b7100000000000000000000000000000000000000000000000000000000600052603260045260246000fd5b602002602001015173ffffffffffffffffffffffffffffffffffffffff1673ffffffffffffffffffffffffffffffffffffffff168152602001908152602001600020805490501115610f4b57600192505050610f65565b8080610f5690611716565b915050610eac565b5060009150505b919050565b600460009054906101000a900473ffffffffffffffffffffffffffffffffffffffff1681565b6000610fa3610f9e846115d6565b6115a5565b90508083825260208201905082856020860282011115610fc257600080fd5b60005b85811015610ff25781610fd88882610ffc565b845260208401935060208301925050600181019050610fc5565b5050509392505050565b60008135905061100b816117bd565b92915050565b600082601f83011261102257600080fd5b8135611032848260208601610f90565b91505092915050565b60008135905061104a816117d4565b92915050565b60006020828403121561106257600080fd5b600061107084828501610ffc565b91505092915050565b6000806040838503121561108c57600080fd5b600061109a85828601610ffc565b92505060206110ab85828601610ffc565b9150509250929050565b600080604083850312156110c857600080fd5b60006110d685828601610ffc565b92505060206110e78582860161103b565b9150509250929050565b6000806040838503121561110457600080fd5b600083013567ffffffffffffffff81111561111e57600080fd5b61112a85828601611011565b925050602061113b8582860161103b565b9150509250929050565b61114e816116ce565b82525050565b61115d816116e0565b82525050565b600061117060248361160d565b91507f496e636f7272656374204554482073656e7420666f722062617463682070617960008301527f6d656e74000000000000000000000000000000000000000000000000000000006020830152604082019050919050565b60006111d660238361160d565b91507f596f75206861766520616c7265616479207061696420796f75722075706c696e60008301527f65727300000000000000000000000000000000000000000000000000000000006020830152604082019050919050565b600061123c600d8361160d565b91507f4e6f207265656e7472616e6379000000000000000000000000000000000000006000830152602082019050919050565b600061127c60148361160d565b91507f4661696c656420746f2073656e642045746865720000000000000000000000006000830152602082019050919050565b60006112bc60248361160d565b91507f45544820616d6f756e74206d7573742062652067726561746572207468616e2060008301527f7a65726f000000000000000000000000000000000000000000000000000000006020830152604082019050919050565b600061132260128361160d565b91507f496e7669746572206d75737420657869737400000000000000000000000000006000830152602082019050919050565b600061136260228361160d565b91507f53656e6465722063616e277420616c726561647920657869737420696e20747260008301527f65650000000000000000000000000000000000000000000000000000000000006020830152604082019050919050565b60006113c8600083611602565b9150600082019050919050565b6113de8161170c565b82525050565b60006113ef826113bb565b9150819050919050565b600060208201905061140e6000830184611145565b92915050565b60006040820190506114296000830185611145565b6114366020830184611145565b9392505050565b60006040820190506114526000830185611145565b61145f60208301846113d5565b9392505050565b600060208201905061147b6000830184611154565b92915050565b6000602082019050818103600083015261149a81611163565b9050919050565b600060208201905081810360008301526114ba816111c9565b9050919050565b600060208201905081810360008301526114da8161122f565b9050919050565b600060208201905081810360008301526114fa8161126f565b9050919050565b6000602082019050818103600083015261151a816112af565b9050919050565b6000602082019050818103600083015261153a81611315565b9050919050565b6000602082019050818103600083015261155a81611355565b9050919050565b600060208201905061157660008301846113d5565b92915050565b600060408201905061159160008301856113d5565b61159e60208301846113d5565b9392505050565b6000604051905081810181811067ffffffffffffffff821117156115cc576115cb61178e565b5b8060405250919050565b600067ffffffffffffffff8211156115f1576115f061178e565b5b602082029050602081019050919050565b600081905092915050565b600082825260208201905092915050565b60006116298261170c565b91506116348361170c565b9250827fffffffffffffffffffffffffffffffffffffffffffffffffffffffffffffffff038211156116695761166861175f565b5b828201905092915050565b600061167f8261170c565b915061168a8361170c565b9250817fffffffffffffffffffffffffffffffffffffffffffffffffffffffffffffffff04831182151516156116c3576116c261175f565b5b828202905092915050565b60006116d9826116ec565b9050919050565b60008115159050919050565b600073ffffffffffffffffffffffffffffffffffffffff82169050919050565b6000819050919050565b60006117218261170c565b91507fffffffffffffffffffffffffffffffffffffffffffffffffffffffffffffffff8214156117545761175361175f565b5b600182019050919050565b7f4e487b7100000000000000000000000000000000000000000000000000000000600052601160045260246000fd5b7f4e487b7100000000000000000000000000000000000000000000000000000000600052604160045260246000fd5b6117c6816116ce565b81146117d157600080fd5b50565b6117dd8161170c565b81146117e857600080fd5b5056fea264697066735822122030261bcbafb0b051bfa9a0b0156250349a5a08c82b9426d857e59b9ac58dcd7364736f6c63430008000033",
  "immutableReferences": {},
  "source": "// SPDX-License-Identifier: GPL-3.0\npragma solidity ^0.8.0;\n\ncontract Tree {\n    uint256 public Count = 0;\n    bool private locked;\n\n    struct User {\n        address inviter;\n        address self;\n    }\n\n    event Summary(\n        address indexed member,\n        address indexed inviter,\n        address subscription,\n        uint256 Count\n    );\n\n    event Payments(\n        address indexed from,\n        address indexed to,\n        uint256 amount,\n        uint256 Count\n    );\n\n    mapping(address => User) public tree;\n    // Track direct children for each member to enable downline queries\n    mapping(address => address[]) public children;\n    address public top;\n    mapping(address => bool) public hasPaidUpliners;\n\n    modifier noReentrancy() {\n        require(!locked, \"No reentrancy\");\n        locked = true;\n        _;\n        locked = false;\n    }\n\n    constructor() {\n        tree[msg.sender] = User(msg.sender, msg.sender);\n        top = msg.sender;\n    }\n\n    function enter(address _inviter, address _subscription)\n        public\n        payable\n        noReentrancy\n    {\n        require(msg.value > 0, \"ETH amount must be greater than zero\");\n        require(\n            tree[msg.sender].inviter == address(0),\n            \"Sender can't already exist in tree\"\n        );\n        require(tree[_inviter].self == _inviter, \"Inviter must exist\");\n\n        // Effects: Update state variables\n        Count++;\n        tree[msg.sender] = User(_inviter, msg.sender);\n        // Track downline\n        children[_inviter].push(msg.sender);\n\n        // Interaction: External call\n        (bool sent, ) = payable(top).call{value: msg.value}(\"\");\n        require(sent, \"Failed to send Ether\");\n\n        emit Summary(msg.sender, _inviter, _subscription, Count);\n    }\n\n    // View helper to check if an address has at least two levels of downliners:\n    // at least one direct child, and at least one grandchild through any child.\n    function hasTwoLevelDownline(address member) external view returns (bool) {\n        address[] memory lvl1 = children[member];\n        if (lvl1.length == 0) return false;\n        for (uint256 i = 0; i < lvl1.length; i++) {\n            if (children[lvl1[i]].length > 0) {\n                return true;\n            }\n        }\n        return false;\n    }\n\n    function pay(address _member)\n        public\n        payable\n        noReentrancy\n    {\n        // Effects: Update state variables\n        Count++;\n\n        // Interaction: External call\n        (bool sent, ) = payable(_member).call{value: msg.value}(\"\");\n        require(sent, \"Failed to send Ether\");\n\n        emit Payments(msg.sender, _member, msg.value, Count);\n    }\n\n    function batchPay(address[] memory _members, uint256 amountPerMember)\n        public\n        payable\n        noReentrancy\n    {\n        require(!hasPaidUpliners[msg.sender], \"You have already paid your upliners\");\n        uint256 total = _members.length * amountPerMember;\n        require(msg.value == total, \"Incorrect ETH sent for batch payment\");\n\n        // Effects: Update state variables\n        hasPaidUpliners[msg.sender] = true;\n\n        for (uint256 i = 0; i < _members.length; i++) {\n            // Interaction: External call\n            (bool sent, ) = payable(_members[i]).call{value: amountPerMember}(\"\");\n            require(sent, \"Failed to send Ether\");\n            emit Payments(msg.sender, _members[i], amountPerMember, Count + i + 1);\n        }\n\n        // Update Count after all interactions\n        Count += _members.length;\n    }\n}",
  "sourcePath": "/Users/micah/Documents/dapp/kumusha copy/src/contracts/Tree.sol",
  "compiler": {
    "name": "solc",
    "version": "0.8.0+commit.c7dfd78e.Emscripten.clang"
  },
  "schemaVersion": "3.4.4",
  "updatedAt": "2025-08-09T15:19:50.047Z",
  "networkType": "ethereum",
  "devdoc": {
    "kind": "dev",
    "methods": {},
    "version": 1
  },
  "userdoc": {
    "kind": "user",
    "methods": {},
    "version": 1
  }
}