{
  "contractName": "Tree",
  "abi": [
    {
      "inputs": [],
      "stateMutability": "nonpayable",
      "type": "constructor"
    },
    {
      "anonymous": false,
      "inputs": [
        {
          "indexed": true,
          "internalType": "address",
          "name": "from",
          "type": "address"
        },
        {
          "indexed": true,
          "internalType": "address",
          "name": "to",
          "type": "address"
        },
        {
          "indexed": false,
          "internalType": "uint256",
          "name": "amount",
          "type": "uint256"
        },
        {
          "indexed": false,
          "internalType": "uint256",
          "name": "Count",
          "type": "uint256"
        }
      ],
      "name": "Payments",
      "type": "event"
    },
    {
      "anonymous": false,
      "inputs": [
        {
          "indexed": true,
          "internalType": "address",
          "name": "member",
          "type": "address"
        },
        {
          "indexed": true,
          "internalType": "address",
          "name": "inviter",
          "type": "address"
        },
        {
          "indexed": false,
          "internalType": "address",
          "name": "subscription",
          "type": "address"
        },
        {
          "indexed": false,
          "internalType": "uint256",
          "name": "Count",
          "type": "uint256"
        }
      ],
      "name": "Summary",
      "type": "event"
    },
    {
      "inputs": [],
      "name": "Count",
      "outputs": [
        {
          "internalType": "uint256",
          "name": "",
          "type": "uint256"
        }
      ],
      "stateMutability": "view",
      "type": "function",
      "constant": true
    },
    {
      "inputs": [
        {
          "internalType": "address",
          "name": "",
          "type": "address"
        }
      ],
      "name": "hasPaidUpliners",
      "outputs": [
        {
          "internalType": "bool",
          "name": "",
          "type": "bool"
        }
      ],
      "stateMutability": "view",
      "type": "function",
      "constant": true
    },
    {
      "inputs": [],
      "name": "top",
      "outputs": [
        {
          "internalType": "address",
          "name": "",
          "type": "address"
        }
      ],
      "stateMutability": "view",
      "type": "function",
      "constant": true
    },
    {
      "inputs": [
        {
          "internalType": "address",
          "name": "",
          "type": "address"
        }
      ],
      "name": "tree",
      "outputs": [
        {
          "internalType": "address",
          "name": "inviter",
          "type": "address"
        },
        {
          "internalType": "address",
          "name": "self",
          "type": "address"
        }
      ],
      "stateMutability": "view",
      "type": "function",
      "constant": true
    },
    {
      "inputs": [
        {
          "internalType": "address",
          "name": "_inviter",
          "type": "address"
        },
        {
          "internalType": "address",
          "name": "_subscription",
          "type": "address"
        }
      ],
      "name": "enter",
      "outputs": [],
      "stateMutability": "payable",
      "type": "function",
      "payable": true
    },
    {
      "inputs": [
        {
          "internalType": "address",
          "name": "_member",
          "type": "address"
        }
      ],
      "name": "pay",
      "outputs": [],
      "stateMutability": "payable",
      "type": "function",
      "payable": true
    },
    {
      "inputs": [
        {
          "internalType": "address[]",
          "name": "_members",
          "type": "address[]"
        },
        {
          "internalType": "uint256",
          "name": "amountPerMember",
          "type": "uint256"
        }
      ],
      "name": "batchPay",
      "outputs": [],
      "stateMutability": "payable",
      "type": "function",
      "payable": true
    }
  ],
  "bytecode": "0x60806040526000805534801561001457600080fd5b5060405180604001604052803373ffffffffffffffffffffffffffffffffffffffff1681526020013373ffffffffffffffffffffffffffffffffffffffff16815250600160003373ffffffffffffffffffffffffffffffffffffffff1673ffffffffffffffffffffffffffffffffffffffff16815260200190815260200160002060008201518160000160006101000a81548173ffffffffffffffffffffffffffffffffffffffff021916908373ffffffffffffffffffffffffffffffffffffffff16021790555060208201518160010160006101000a81548173ffffffffffffffffffffffffffffffffffffffff021916908373ffffffffffffffffffffffffffffffffffffffff16021790555090505033600260006101000a81548173ffffffffffffffffffffffffffffffffffffffff021916908373ffffffffffffffffffffffffffffffffffffffff160217905550610d72806101766000396000f3fe6080604052600436106100705760003560e01c8063738dd8b21161004e578063738dd8b2146101df57806393a8333e14610248578063f724036214610273578063fe6dcdba1461033757610070565b80630c11dedd146100755780634e0681eb146100b95780635d4b83781461017b575b600080fd5b6100b76004803603602081101561008b57600080fd5b81019080803573ffffffffffffffffffffffffffffffffffffffff16906020019092919050505061038e565b005b610179600480360360408110156100cf57600080fd5b81019080803590602001906401000000008111156100ec57600080fd5b8201836020820111156100fe57600080fd5b8035906020019184602083028401116401000000008311171561012057600080fd5b919080806020026020016040519081016040528093929190818152602001838360200280828437600081840152601f19601f820116905080830192505050505050509192919290803590602001909291905050506104be565b005b6101dd6004803603604081101561019157600080fd5b81019080803573ffffffffffffffffffffffffffffffffffffffff169060200190929190803573ffffffffffffffffffffffffffffffffffffffff16906020019092919050505061072c565b005b3480156101eb57600080fd5b5061022e6004803603602081101561020257600080fd5b81019080803573ffffffffffffffffffffffffffffffffffffffff169060200190929190505050610bff565b604051808215151515815260200191505060405180910390f35b34801561025457600080fd5b5061025d610c1f565b6040518082815260200191505060405180910390f35b34801561027f57600080fd5b506102c26004803603602081101561029657600080fd5b81019080803573ffffffffffffffffffffffffffffffffffffffff169060200190929190505050610c25565b604051808373ffffffffffffffffffffffffffffffffffffffff1673ffffffffffffffffffffffffffffffffffffffff1681526020018273ffffffffffffffffffffffffffffffffffffffff1673ffffffffffffffffffffffffffffffffffffffff1681526020019250505060405180910390f35b34801561034357600080fd5b5061034c610c89565b604051808273ffffffffffffffffffffffffffffffffffffffff1673ffffffffffffffffffffffffffffffffffffffff16815260200191505060405180910390f35b600080815480929190600101919050555060008173ffffffffffffffffffffffffffffffffffffffff166108fc349081150290604051600060405180830381858888f1935050505090508061044b576040517f08c379a00000000000000000000000000000000000000000000000000000000081526004018080602001828103825260148152602001807f4661696c656420746f2073656e6420457468657200000000000000000000000081525060200191505060405180910390fd5b8173ffffffffffffffffffffffffffffffffffffffff163373ffffffffffffffffffffffffffffffffffffffff167ff19328fe5783dfe256066fba6d6aaab1f41e3c5331940024887c1ef8f080d91d34600054604051808381526020018281526020019250505060405180910390a35050565b600360003373ffffffffffffffffffffffffffffffffffffffff1673ffffffffffffffffffffffffffffffffffffffff16815260200190815260200160002060009054906101000a900460ff1615610561576040517f08c379a0000000000000000000000000000000000000000000000000000000008152600401808060200182810382526023815260200180610cd46023913960400191505060405180910390fd5b60008183510290508034146105c1576040517f08c379a0000000000000000000000000000000000000000000000000000000008152600401808060200182810382526024815260200180610cb06024913960400191505060405180910390fd5b60008090505b83518110156106be578381815181106105dc57fe5b602002602001015173ffffffffffffffffffffffffffffffffffffffff166108fc849081150290604051600060405180830381858888f19350505050158015610629573d6000803e3d6000fd5b5083818151811061063657fe5b602002602001015173ffffffffffffffffffffffffffffffffffffffff163373ffffffffffffffffffffffffffffffffffffffff167ff19328fe5783dfe256066fba6d6aaab1f41e3c5331940024887c1ef8f080d91d856001856000540101604051808381526020018281526020019250505060405180910390a380806001019150506105c7565b50825160008082825401925050819055506001600360003373ffffffffffffffffffffffffffffffffffffffff1673ffffffffffffffffffffffffffffffffffffffff16815260200190815260200160002060006101000a81548160ff021916908315150217905550505050565b60003411610785576040517f08c379a0000000000000000000000000000000000000000000000000000000008152600401808060200182810382526024815260200180610cf76024913960400191505060405180910390fd5b600073ffffffffffffffffffffffffffffffffffffffff16600160003373ffffffffffffffffffffffffffffffffffffffff1673ffffffffffffffffffffffffffffffffffffffff16815260200190815260200160002060000160009054906101000a900473ffffffffffffffffffffffffffffffffffffffff1673ffffffffffffffffffffffffffffffffffffffff161461086c576040517f08c379a0000000000000000000000000000000000000000000000000000000008152600401808060200182810382526022815260200180610d1b6022913960400191505060405180910390fd5b8173ffffffffffffffffffffffffffffffffffffffff16600160008473ffffffffffffffffffffffffffffffffffffffff1673ffffffffffffffffffffffffffffffffffffffff16815260200190815260200160002060010160009054906101000a900473ffffffffffffffffffffffffffffffffffffffff1673ffffffffffffffffffffffffffffffffffffffff161461096f576040517f08c379a00000000000000000000000000000000000000000000000000000000081526004018080602001828103825260128152602001807f496e7669746572206d757374206578697374000000000000000000000000000081525060200191505060405180910390fd5b600080815480929190600101919050555060405180604001604052808373ffffffffffffffffffffffffffffffffffffffff1681526020013373ffffffffffffffffffffffffffffffffffffffff16815250600160003373ffffffffffffffffffffffffffffffffffffffff1673ffffffffffffffffffffffffffffffffffffffff16815260200190815260200160002060008201518160000160006101000a81548173ffffffffffffffffffffffffffffffffffffffff021916908373ffffffffffffffffffffffffffffffffffffffff16021790555060208201518160010160006101000a81548173ffffffffffffffffffffffffffffffffffffffff021916908373ffffffffffffffffffffffffffffffffffffffff1602179055509050506000600260009054906101000a900473ffffffffffffffffffffffffffffffffffffffff1673ffffffffffffffffffffffffffffffffffffffff166108fc349081150290604051600060405180830381858888f19350505050905080610b5f576040517f08c379a00000000000000000000000000000000000000000000000000000000081526004018080602001828103825260148152602001807f4661696c656420746f2073656e6420457468657200000000000000000000000081525060200191505060405180910390fd5b8273ffffffffffffffffffffffffffffffffffffffff163373ffffffffffffffffffffffffffffffffffffffff167f9401c4696aa930450b5eb88e4f708151abe4e3436bad9da4c0544e05ec06204584600054604051808373ffffffffffffffffffffffffffffffffffffffff1673ffffffffffffffffffffffffffffffffffffffff1681526020018281526020019250505060405180910390a3505050565b60036020528060005260406000206000915054906101000a900460ff1681565b60005481565b60016020528060005260406000206000915090508060000160009054906101000a900473ffffffffffffffffffffffffffffffffffffffff16908060010160009054906101000a900473ffffffffffffffffffffffffffffffffffffffff16905082565b600260009054906101000a900473ffffffffffffffffffffffffffffffffffffffff168156fe496e636f7272656374204554482073656e7420666f72206261746368207061796d656e74596f75206861766520616c7265616479207061696420796f75722075706c696e65727345544820616d6f756e74206d7573742062652067726561746572207468616e207a65726f53656e6465722063616e277420616c726561647920657869737420696e2074726565a2646970667358221220549101fed53290a3b3d3532a5ecb792baa049a05f22eb8fb304d78bbb0fc491a64736f6c63430006000033",
  "source": "// SPDX-License-Identifier: GPL-3.0\npragma solidity ^0.6.0;\n\ncontract Tree {\n    uint256 public Count = 0;\n\n    struct User {\n        address inviter;\n        address self;\n    }\n\n    event Summary(\n        address indexed member,\n        address indexed inviter,\n        address subscription,\n        uint256 Count\n    );\n\n    event Payments(\n        address indexed from,\n        address indexed to,\n        uint256 amount,\n        uint256 Count\n    );\n\n    mapping(address => User) public tree;\n    address public top;\n    mapping(address => bool) public hasPaidUpliners;\n\n    constructor() public {\n        tree[msg.sender] = User(msg.sender, msg.sender);\n        top = msg.sender;\n    }\n\n    function enter(address _inviter, address _subscription)\n        public\n        payable\n    {\n        require(msg.value > 0, \"ETH amount must be greater than zero\");\n        require(\n            tree[msg.sender].inviter == address(0),\n            \"Sender can't already exist in tree\"\n        );\n        require(tree[_inviter].self == _inviter, \"Inviter must exist\");\n        Count++;\n\n        tree[msg.sender] = User(_inviter, msg.sender);\n\n        bool sent = payable(top).send(msg.value);\n        require(sent, \"Failed to send Ether\");\n\n        emit Summary(msg.sender, _inviter, _subscription, Count);\n    }\n\n    function pay(address _member) public payable {\n        Count++;\n        bool sent = payable(_member).send(msg.value);\n        require(sent, \"Failed to send Ether\");\n\n        emit Payments(msg.sender, _member, msg.value, Count);\n    }\n\n    function batchPay(address[] memory _members, uint256 amountPerMember) public payable {\n        require(!hasPaidUpliners[msg.sender], \"You have already paid your upliners\");\n        uint256 total = _members.length * amountPerMember;\n        require(msg.value == total, \"Incorrect ETH sent for batch payment\");\n        for (uint256 i = 0; i < _members.length; i++) {\n            payable(_members[i]).transfer(amountPerMember);\n            emit Payments(msg.sender, _members[i], amountPerMember, Count + i + 1);\n        }\n        Count += _members.length;\n        hasPaidUpliners[msg.sender] = true;\n    }\n}",
  "sourcePath": "/Users/micah/Documents/dapp/kumusha/src/contracts/Tree.sol",
  "compiler": {
    "name": "solc",
    "version": "0.6.0+commit.26b70077.Emscripten.clang"
  },
  "schemaVersion": "3.4.16",
  "updatedAt": "2025-06-13T01:28:35.381Z",
  "networkType": "ethereum",
  "devdoc": {
    "methods": {}
  },
  "userdoc": {
    "methods": {}
  }
}